:020000040800F2
:1000000018090020D12700083128000833280008EB
:1000100035280008372800083928000800000000AB
:10002000000000000000000000000000830800083D
:100030003B2800080000000031080008ED09000816
:100040008128000885280008892800088D280008D4
:100050009128000895280008992800089D28000884
:10006000A1280008A5280008A9280008AD28000834
:10007000B1280008B5280008B9280008BD280008E4
:10008000C1280008C5280008C9280008CD28000894
:10009000D1280008D5280008D9280008DD28000844
:1000A000E1280008E5280008E9280008ED280008F4
:1000B000F1280008F5280008F9280008FD280008A4
:1000C0000129000805290008092900080D29000850
:1000D000112900084F120008591200086312000885
:1000E0002129000825290008292900082D290008B0
:1000F00031290008000000003529000839290008CE
:1001000000000000000000003D290008412900080F
:1001100045290008492900084D29000851290008EF
:10012000552900082DE9FA4F83B0040015000E9EF2
:100130000F9FDDF84080DDF844902000002802D1B8
:1001400000F095FBFEE7052E02D300F090FBFEE7E2
:100150004146280080B200F00AFB8246BAF1000F47
:1001600070D0DAF83000ADB210EB8500001F834686
:100170005FEADB0B5FEACB0B1BF00700002802D025
:1001800000F075FBFEE7280080B200904B4632007D
:100190000399504600F032FA049A2100584600F0C4
:1001A00091FBCAF80000002F01D0C7F800A000F0B2
:1001B000F0FBDFF818040068401CDFF8101408603A
:1001C000DFF82C04006800280BD1DFF82404C0F805
:1001D00000A0DFF8F8030068012811D100F041FA0F
:1001E0000EE0DFF8EC030068002809D1DFF8000416
:1001F0000068C06A864203D3DFF8F403C0F800A0A9
:10020000DFF8D0030068401CDFF8C8130860DFF88F
:10021000E40300680121DAF82C2091400843DFF85C
:10022000D41308601AF10401DFF8CC03DAF82C20AB
:10023000142303FB020000F013FC0120019000F0E6
:10024000C0FB02E05FF0FF300190019801280CD163
:10025000DFF87C030068002807D0DFF8940300680B
:10026000C06AB04201D200F08BFB019805B0BDE836
:10027000F08F70B504000026002C2BD0DFF8680545
:100280000068002802D000F0F2FAFEE700F053F810
:10029000DFF88C04006820180500DFF854030068BC
:1002A000001D00F006FC00280ED1DFF844030068B2
:1002B000DFF8401309680122C06A12FA00F031EA3F
:1002C0000000DFF830130860280000F02BFA00F07F
:1002D0003AF80600002E01D100F052FB70BD1FB5A8
:1002E0000020039000200290002001900020009048
:1002F00000238022DFF8F8140FF2DD20FFF712FF51
:100300000400012C11D100F0B2FA5FF0FF30DFF8E9
:10031000E41408600120DFF8B81208600020DFF85C
:10032000E014086000F0E8FA04E0002C02D100F0CC
:100330009EFAFEE71FBDDFF8B0040068401CDFF83E
:10034000A8140860704738B50025DFF89C040068E1
:10035000002802D100F08BFAFEE700F01AFBDFF86C
:1003600088040068401EDFF880140860DFF8780415
:100370000068002857D1DFF854020068002852D0E6
:10038000DFF87404006800282AD0DFF86C04C06825
:10039000C068040014F1180000F08BFB201D00F071
:1003A00088FBDFF8500200680121E26A91400843AF
:1003B000DFF840120860211DDFF83C02E26A1423D6
:1003C00003FB020000F04CFBE06ADFF8241209682E
:1003D000C96A8842D4D30120DFF828140860CFE727
:1003E000DFF818040068002814D0DFF81004006853
:1003F00000280FD000F01BF8002803D00120DFF800
:1004000004140860DFF8F4030068401EDFF8EC1302
:100410000860EAE7DFF8EC030068012803D1012057
:10042000050000F0ADFA00F0CCFA280032BD2DE94D
:10043000F0410026DFF8B0030068002840F080801B
:10044000DFF8DC020068401CDFF8D4120860DFF837
:10045000D0020768002F1FD1DFF8B00300680068E2
:10046000002802D000F003FAFEE7DFF8A0030068DE
:100470008046DFF89C030068DFF890130860DFF81F
:100480009003C0F80080DFF88C030068401CDFF8A0
:100490008413086000F092F9DFF85803006887427F
:1004A00040D3DFF8680300680068002805D15FF0DA
:1004B000FF30DFF84013086034E0DFF850030068D5
:1004C000C068C068040060680500AF4203D2DFF86E
:1004D0002403056026E0201D00F0EBFAA06A002846
:1004E00003D014F1180000F0E4FADFF80801006806
:1004F0000121E26A91400843DFF8F8100860211DED
:10050000DFF8F400E26A142303FB020000F0A8FA0B
:10051000E06ADFF8DC100968C96A8842C1D30120AB
:100520000600BEE7DFF8D00031490968C96A142225
:1005300002FB01000068022809D30120060006E042
:10054000DFF8B8020068401CDFF8B0120860DFF87E
:10055000B4020068002801D0012006003000BDE888
:10056000F08110B5DFF880020068002804D0012077
:10057000DFF89012086028E00020DFF88812086099
:100580001C480068B0FA80F0D0F11F0004001A483F
:10059000142101FB04000068002802D100F067F973
:1005A000FEE71549142202FB04110800416849685E
:1005B0004160416810F10802914202D141684968E6
:1005C00041604068C0680A49086010BDE8660020C4
:1005D000F46600200467002010B5040000F06DF8F8
:1005E000DFF8340200680228F8D300F0C9F9F5E713
:1005F000D8660020F0660020186500202DE9F04143
:1006000004000D0016001F0000208046B8F1100FF6
:100610000CD218F8050018EB040181F8340018F822
:100620000500002802D018F10108EFE7002084F847
:100630004300052E01D304200600E662201D00F0D1
:100640000CFA14F1180000F008FA2461D6F1050044
:10065000A061646200206064002084F84800BDE866
:10066000F08110B500200400052C08D2DFF8A801A5
:10067000142101FB040000F0E1F9641CF4E7DFF849
:100680009C0100F0DBF9DFF8980100F0D7F9DFF802
:10069000680100F0D3F9DFF88C0100F0CFF953487E
:1006A00000F0CCF9DFF87401DFF860110860DFF8C2
:1006B0007001DFF85C11086010BD38B5DFF8680123
:1006C000006800282BD0FFF736FEDFF858010068DD
:1006D000002801D1012400E00024FFF734FE002CA3
:1006E000ECD100F056F9DFF83C01C068C0680500A5
:1006F000281D00F0DEF9DFF810010068401EDFF869
:1007000008110860DFF820010068401EDFF81811AA
:10071000086000F056F9280000F047F8CEE731BD38
:10072000EC66002010B50400DFF8000100684460AA
:10073000DFF8CC000068844209D2DFF8F0000068DE
:10074000011DDFF8CC00006800F096F90EE0DFF83C
:10075000DC000068011DDFF8B400006800F08CF9CF
:1007600024480068844201D22248046010BDF8B5D4
:1007700004000D00002D04D1A4B2A00000F0AEF9D9
:1007800000E028000700002F0BD04C2000F0A6F955
:100790000600002E01D0376305E0380000F01BFA98
:1007A00001E0002006003000F2BD10B50400206B0F
:1007B00000F011FA200000F00EFA10BDDFF84C1026
:1007C00009680968002904D15FF0FF31094A116006
:1007D00008E0DFF838100968C968C968080041688E
:1007E000044A1160704700000C67002094660020E6
:1007F00050280008086700206C660020F86600207A
:10080000EC660020FC660020E8660020DC66002024
:10081000E066002000670020186500204466002084
:100820005866002080660020E4660020D86600201C
:10083000EFF30980BFF36F8F204B1A6820E9F00FA8
:10084000106008B54FF0100080F31188FFF789FEA3
:100850004FF0000080F31188BDE80840196808686F
:10086000B0E8F00F80F30988BFF36F8F7047EFF3A4
:1008700011804FF0100181F31188704780F31188C7
:1008800070470E4B19680868B0E8F00F80F30988CC
:10089000BFF36F8F4FF0000080F311884EF00D0E04
:1008A000704707480068006880F3088862B661B640
:1008B000BFF34F8FBFF36F8F00DF0000D8660020BB
:1008C00008ED00E0001F5FF080730360001F01600F
:1008D000001F0FF20D0303601438026020387047C8
:1008E00080B54E48006810F1010F02D0FFF7BFFF3E
:1008F000FEE7FFF7BCFFFEE700B583B0484801788C
:100900000191FF21017001788DF800109DF8001011
:1009100011F01001434A11700721434A11609DF8FC
:10092000001009060AD540490968491E3E4A11606F
:100930009DF8001049008DF80010F0E73A49096869
:100940000902394A11603849096811F4E061364AF0
:100950001160019901703548006850F47000334906
:1009600008603248006850F070403049086000F07C
:100970004CF8002029490860FFF793FF00200EBDC6
:100980005FF080502A490860BFF34F8FBFF36F8F2D
:10099000704780B5FFF76BFF20480068401C1F4977
:1009A0000860BFF34F8FBFF36F8F1C4800680128AA
:1009B00006D11F480068000602D0FFF758FFFEE787
:1009C00001BD80B515480068002802D1FFF74FFF30
:1009D000FEE712480068401E104908600F48006892
:1009E000002802D10020FFF749FF01BD80B5FFF7C5
:1009F0003EFFFFF71CFD002803D05FF080500C493C
:100A000008600020FFF73AFF01BD40F2CF700949AE
:100A100008600720084908607047000000000020B7
:100A200000E400E010670020D466002020ED00E024
:100A300004ED00E014E000E010E000E010F1080137
:100A400041605FF0FF31816010F10801C16010F179
:100A500008010161002101607047002101617047B8
:100A600042684A6093688B6093685960916008613E
:100A700003685B1C0360704710B40B6813F1010F2F
:100A800002D10469220008E010F108042200546831
:100A90002468A34201D35268F9E754684C604C685B
:100AA000A1608A60516008610468641C046010BC25
:100AB0007047010008698A684B689A604A688B68C9
:100AC0005A6042688A4201D18A68426000220A6103
:100AD0000268521E02600068704700002DE9F04174
:100AE00004005FF00008FFF726FC88480068002833
:100AF00001D100F0A2F88648006804425FD1002CC2
:100B000010D084480068041914F0070F0AD014F1BB
:100B1000080014F00701441A14F0070F02D0FFF781
:100B2000A6FEFEE7002C4AD07B480068A04246D3D0
:100B30007A4806007948006805006868A04205D236
:100B40002868002802D02E002D68F6E76F4800685C
:100B5000854234D030686F49096808188046286893
:100B600030606C48006840006968091B88420FD2F9
:100B70006019070017F00700002802D0FFF777FE82
:100B8000FEE76868001B78606C60380000F08CF845
:100B9000614800686968401A5F4908605E480068FB
:100BA0005F490968884203D25B4800685C49086075
:100BB0006868574909680843686000202860FFF7A3
:100BC000C2FB18F00700002802D0FFF750FEFEE736
:100BD0004046BDE8F08170B504002600002C2BD003
:100BE0004C480068361A3500686849490968084267
:100BF00002D1FFF73CFEFEE72868002802D0FFF78D
:100C000036FEFEE7686842490968084214D0286841
:100C1000002811D168683E49096888436860FFF779
:100C20008AFB3D480068696808183B49086028004D
:100C300000F03AF8FFF787FB70BD30B44FF48843FB
:100C4000384C220012F0070F05D0D21DD208D20076
:100C50009B1A344CE3181100304C216000242F4DB6
:100C60006C605C1822002B4C2468121BD208D20046
:100C7000264C22600024254D2D686C600024234DF5
:100C80002D682C600800141A4460204C246804600D
:100C90004468234D2C6044681F4D2C605FF0004475
:100CA0001B4D2C6030BC704710B41C4B1A001368ED
:100CB000834201D21268FAE7110053685B1883423D
:100CC00004D153684468E31853601000010043687E
:100CD0005B181468A34211D113680C4C2468A3421A
:100CE00008D0436814686468E318436013681B689D
:100CF000036005E0054B1B68036001E013680360B7
:100D0000824200D0106010BC70470000B066002026
:100D1000BC66002058280008B4660020A8660020A1
:100D2000B86600201809002080B500F053F800F0E4
:100D300009F900F016FA01BD70B58CB004000D0081
:100D4000160001215FF0807000F05BFB300000F0C6
:100D500097FB009401951020029040200390002002
:100D6000049080200590002006900020079000202D
:100D700008904FF48050099000200A906946300096
:100D800000F003FC0CB070BD0100C9B2002902D113
:100D9000DFF814050CE0C9B2012902D1DFF80C0517
:100DA00006E0C9B2022902D1DFF8040500E0002004
:100DB000704770B504000D002000C0B2FFF7E4FFDB
:100DC0000600002E01D1002003E02900300000F0D1
:100DD000EEF970BDDFF8B804DFF8CC140860DFF876
:100DE000D404DFF8C4144860DFF8CC04DFF8B8148A
:100DF00088604FF48060DFF8B01488814FF4806021
:100E0000DFF8A414C8810020DFF89C1408820020B9
:100E1000DFF8941448820020DFF88C14C882002088
:100E2000DFF8841408830020DFF87C144883002056
:100E3000DFF8741488820020DFF86C14C861002089
:100E4000DFF8641408620020DFF85C144862DFF801
:100E50004804DFF858140860DFF86004DFF84C1429
:100E60004860DFF85C04DFF8441488604FF4806069
:100E7000DFF8381488814FF48060DFF83014C881BF
:100E80000020DFF8281408820020DFF820144882B0
:100E90000020DFF81814C8820020DFF8101408833F
:100EA0000020DFF8081448830020DFF8001488824F
:100EB0000020DFF8F813C8610020DFF8F0130862A3
:100EC0000020DFF8E8134862DFF8D403DFF8E0130E
:100ED0000860DFF8F003DFF8D8134860DFF8E803B4
:100EE000DFF8CC1388604FF48060DFF8C41388818A
:100EF0004FF48060DFF8B813C8810020DFF8B0132A
:100F000008820020DFF8A81348820020DFF8A01331
:100F1000C8820020DFF8981308830020DFF89013C0
:100F200048830020DFF8881388820020DFF88013D0
:100F3000C8610020DFF8781308620020DFF8701322
:100F40004862704700B587B00121012000F059FACE
:100F500001214FF4804000F063FA4FF400700090DC
:100F600002208DF8040000208DF8060003208DF883
:100F700005006946DFF8540300F042FB072209210F
:100F8000DFF8480300F08EFB4FF4806000900220F1
:100F90008DF8040001208DF807006946CB4800F069
:100FA0002FFB07220A21C94800F07CFB5FF4E130E7
:100FB00002900020ADF80C000020ADF80E000020DB
:100FC000ADF810000020ADF814000C20ADF81200B0
:100FD00002A9AF4800F094FB012240F22551AC4831
:100FE00000F01CFC0121AA4800F002FC4021A848A6
:100FF00000F04EFCA74AAF49B548FFF79DFE01211E
:10100000012000F0FEF901215FF4003000F017FA32
:101010000420009002208DF8040000208DF80600C6
:1010200003208DF805006946A84800F0E9FA072278
:101030000221A64800F036FB0820009002208DF81F
:10104000040001208DF807006946A04800F0D8FA96
:10105000072203219D4800F025FB5FF4E130029058
:101060000020ADF80C000020ADF80E000020ADF817
:1010700010000020ADF814000C20ADF8120002A9F9
:10108000854800F03DFB012240F22551824800F0E6
:10109000C5FB0121804800F0ABFB40217E4800F0F9
:1010A000F7FB7E4A85498B48FFF746FE0121022067
:1010B00000F0A7F901215FF4802000F0C0F94FF49F
:1010C0008060009002208DF8040000208DF806005A
:1010D00003208DF8050069467F4800F091FA072249
:1010E0000A217D4800F0DEFA4FF4006000900220F3
:1010F0008DF8040001208DF807006946764800F05D
:101100007FFA07220B21744800F0CCFA4FF41650F6
:1011100002900020ADF80C000020ADF80E00002079
:10112000ADF810000020ADF814000C20ADF812004E
:1011300002A95B4800F0E4FA012240F22551584828
:1011400000F06CFB0121564800F052FB402154484E
:1011500000F09EFB534A5B496048FFF7EDFD07B086
:1011600000BD80B525208DF8000000208DF802001C
:1011700001208DF80300684600F0CDFB26208DF895
:10118000000000208DF8020001208DF80300684661
:1011900000F0C1FB27208DF8000000208DF8020030
:1011A00001208DF80300684600F0B5FB01BD10B4C6
:1011B0000200012080F31088508B0300002080F390
:1011C00010889BB2002B01D1002016E09068148B90
:1011D000205C0870012080F31088108B401C108365
:1011E000D48980B2A04201D300201083508B401ECE
:1011F0005083002080F31088012010BC704738B560
:10120000040040F22551206800F048FB00281DD062
:10121000206800F0FFFA0500A068E18A0D54E08A1A
:10122000401CE082E18980B2884201D30020E08244
:10123000608BE189884202D2608B401C6083606AC7
:10124000002803D02800C0B2616A884731BD80B54C
:101250001548FFF7D4FF01BD80B51448FFF7CFFF55
:1012600001BD80B51248FFF7CAFF01BD38B50400C3
:101270000D002100C9B289B2074800F0C7FA8021E9
:10128000054800F0F6FA0028F9D0200032BD000031
:101290000038014044600240004400408060024049
:1012A000004800401C600240CC650020F46500202E
:1012B0001C660020184D00201851002018550020F1
:1012C00018590020185D002018610020000002401D
:1012D0000438014004440040000402400448004037
:1012E00010B582B0040069460120FFF762FD0028B6
:1012F000F9D09DF8000016BDF0B4002100220023B3
:10130000002400250026554F3F6817F00C073900D0
:101310000F00002F06D0042F14D0082F15D00C2F4B
:1013200016D039E04E4F3F68C7F342373E000127E1
:1013300016F1010C17FA0CF74FF4004C0CFB07F7F1
:10134000076038E0474F076035E0474F076032E0FD
:10135000424F3F6817F470173A00404F3F6817F448
:1013600040073B00414F920CD25D9B0D5B1C3B4FF5
:101370003F6817F480373C00002C06D1394F07FB3B
:1013800002F7B7FBF3F7076005E0374F07FB02F7FB
:10139000B7FBF3F707600EE0314F3F68C7F3423702
:1013A0003E00012716F1010C17FA0CF74FF4004C20
:1013B0000CFB07F70760294F3F6817F0F00739006B
:1013C00009092B4FCF5D3D000768EF404760234F71
:1013D0003F6817F4E0673900090A254FCF5D3D00EB
:1013E0004768EF4087601D4F3F6817F4605739002A
:1013F000C90A1F4FCF5D3D004768EF40C760F0BC92
:101400007047C9B2002905D01A4A12680243194B25
:101410001A6004E0174A12688243164B1A6070473C
:10142000C9B2002905D0144A12680243124B1A604F
:1014300004E0114A126882430F4B1A607047C9B228
:10144000002905D00D4A126802430C4B1A6004E0D3
:101450000A4A12688243094B1A60704708380240F2
:10146000043802400024F40000127A000400002036
:10147000100000201C38024020380240243802406E
:1014800001684FF6FE7211400160002101600021E9
:101490004160002181600021C1604B49884206D132
:1014A0004A49096851F00F01484A11606CE0484907
:1014B000884206D14549096851F0F001434A11605C
:1014C00062E04449884206D14049096851F470619C
:1014D0003E4A116058E04049884206D13B490968BC
:1014E00051F47041394A11604EE03C49884206D1BE
:1014F0003649096851F47021344A116044E0384992
:10150000884206D13149096851F470012F4A1160AF
:101510003AE03449884206D12C49096851F070619B
:101520002A4A116030E03049884206D12F490968C3
:1015300051F00F012D4A116026E02D49884206D155
:101540002A49096851F0F001284A11601CE0294934
:10155000884206D12549096851F47061234A116017
:1015600012E02549884206D12049096851F47041AA
:101570001E4A116008E02149884205D11B490968CB
:1015800051F47021194A1160704710B400220368A9
:101590001A006FF30E128B680C6A23430C69234305
:1015A0004C6923438C692343CC6923434C6A23430E
:1015B0008C6A23431A430260CB6843600B688360E4
:1015C0004B68C36010BC7047086002400460024072
:1015D0001C6002403060024044600240586002409B
:1015E0006C60024080600240086402400464024073
:1015F0001C6402403064024044640240586402406B
:10160000F0B4002200230024002500263200102A16
:1016100046D20126964033000E681E4034009C429C
:101620003CD10668350003261700FFB27F00BE409C
:10163000B5430E791700FFB27F00BE403543056009
:101640000E79012E02D00E79022E18D1866835004F
:1016500003261700FFB27F00BE40B5434E79170046
:10166000FFB27F00BE403543856086883500012685
:101670009640B5438E799640B6B235438580C668AC
:10168000350003261700FFB27F00BE40B543CE7978
:101690001700FFB27F00BE403543C560521CB6E75D
:1016A000F0BC7047F0B400230024D2B211F007055B
:1016B000EDB2AD0012FA05F52B0089B2CD1010EB9A
:1016C000850589B2CE1010EB8606366A0F2711F019
:1016D000070C5FFA8CFC5FEA8C0C17FA0CF7BE4320
:1016E0002E6289B2CD1010EB85052D6A1D432C00AA
:1016F00089B2CD1010EB85052C62F0BC704700005C
:101700002DE9F04385B004000D005FF000090026CC
:1017100000275FF00008A8890028208A814639F454
:101720004059E88850EA0909A4F81090A089814638
:101730002E4810EA0909A8882989084369890843BD
:1017400050EA0909A4F80C90A08A814639F440793E
:10175000A88950EA0909A4F814906846FFF7CCFD5F
:101760002148844202D10398060001E00298060055
:10177000A089000408D5192000FB06F0296849005B
:10178000B0FBF1F0070007E0192000FB06F0296824
:101790008900B0FBF1F007006420B7FBF0F0000116
:1017A00081465FEA1910642101FB10708046A08910
:1017B00000040AD55FEAC80032306421B0FBF1F0C2
:1017C00010F0070050EA090909E05FEA081032301A
:1017D0006421B0FBF1F010F00F0050EA0909A4F801
:1017E000089005B0BDE8F08300380140F3E9FFFF41
:1017F000C9B2002904D0828952F40052828104E0E7
:1018000082894DF6FF731A4082817047CA05D20D56
:10181000828070478088C005C00D7047F0B40023F7
:1018200000240025002689B240F66A17B942060056
:101830000F00FFB27F09FFB23B0089B211F01F0712
:101840003C000127A7403D00012B01D10C3604E0EC
:10185000022B01D1103600E01436D2B2002A03D098
:1018600037682F43376002E03768AF433760F0BC1A
:1018700070470200002089B2B1F5007F13880B4247
:1018800002D00123180001E000231800C0B2704705
:1018900089B28A0589B2CA430280704770B40300D6
:1018A000002400260025002089B240F66A129142E9
:1018B0000A00D2B25209D2B2150089B211F01F0249
:1018C0001600012212FA06F6012D02D19A8916405D
:1018D00006E0022D02D11A8A164001E09A8A1640CB
:1018E0000A0092B2120A92B21400012212FA04F40F
:1018F0001A881440002E04D0002C02D001221000BF
:1019000001E000221000C0B270BC70471C490143C6
:101910001C4A1160704770B4002300210F22C47864
:10192000002C21D0174C246814F4E064D4F5E06452
:10193000240A2300D3F104042100D2B21A414478CE
:101940008C4023008478144023431B010E4C0578FF
:101950002B550124057815F01F05AC400B4D06787A
:10196000761145F8264009E00124057815F01F0599
:10197000AC40074D0678761145F8264070BC70479C
:101980000000FA050CED00E000E400E000E100E0FA
:1019900080E100E0034608461146C268521E11F17C
:1019A000010FC26002D000680022184770472DE97D
:1019B000F04788B0054600914FF0FF361868019057
:1019C00034460020039002920FF2B8470FF2AC4861
:1019D0006FF0004902E00298401C029002980078E3
:1019E00000F054FAB0B10398401C03900122009813
:1019F0000021A847824600F049FA0028F3D1039855
:101A0000401E1AF1010F0390E5D0009800225146C4
:101A1000A847E0E7DDF808A09AF8000020B9002CFC
:101A2000B8BF00242046B3E0252805D10AF1010003
:101A30000290002005901BE00398401C03900122B7
:101A400000980021A8479AF800108842C3D00246A7
:101A500069462846FFF79EFFE1E70599494505D00D
:101A600001EB810302EB430130390591401C0290E8
:101A700002980278A2F130010A29EED30696017885
:101A8000404600F00DFA20B10298401C0290401E22
:101A900000788DF81C009DF81C00682801BF029991
:101AA0000A78682A622006D06C2802BF029908785A
:101AB0006C2804D171208DF81C00481C02900298FB
:101AC0000178384600F0ECF9A8B90398401C03905F
:101AD000012200980021A847824600F0D7F900288B
:101AE000F3D10398401E1AF1010F039003D0009820
:101AF00000225146A84700208DF81D00029800786A
:101B0000252812D0582832D0632835D0642818BF31
:101B100069282CD06F2818BF702828D073281BD0B4
:101B2000752818BF782822D012E00398401C039033
:101B3000012200980021A84725281FD00399491E9B
:101B400010F1010F039105D0014600980022A8472B
:101B5000002008E0304606E001226946284600F0F1
:101B60001AF801280ADA002C7FF55CAF10E069460C
:101B7000284600F067F8F4E70022EEE7002C48BFA3
:101B800000249DF81D0000283FF425AF641C22E7C7
:101B900008B0BDE8F0872DE9F8430D468046686936
:101BA00000270128164604DA002E14BF6FF000400B
:101BB00001202861686850F8044B686007E004F869
:101BC000019B012068770227A869401EA861E96887
:101BD0002869491C401E00282861E9601BD4286838
:101BE00001220021C047814619F1010F08D0012EC2
:101BF00002DB00F04BF918B9A8690028DFD10127F2
:101C00004A4629464046FFF7C5FE0EB1022F11D0C5
:101C1000022F03D112E04FF0FF39F1E7F80702D4A9
:101C200019F1010F03D14FF0FF30BDE8F28300201E
:101C3000BDE8F283A86910B1002020700120BDE842
:101C4000F28300002DE9F0430C4689B080466069BC
:101C50000128ACBF401E0F480028E946206113D47C
:101C6000E068401CE060012220680021C047074670
:101C70002B2F18BF2D2F17D18DF800700DF10109F2
:101C80002069401E206107D5E068401CE0604FF0ED
:101C9000FF3709E0FEFFFF7FE068401CE0600122A3
:101CA00020680021C0470746A06800780025642806
:101CB00014BF75280A260DD0692808BF002609D050
:101CC0006F2808BF082605D070281ABF40F02000F2
:101CD00078281026302F3CD1E16820690125491C65
:101CE000401E00282061E16005D420680122002107
:101CF000C047074601E04FF0FF3747F02000C0B271
:101D0000782823D1002E18BF102E2BD1E16820692E
:101D10001026491C401E00282061E16006D420687E
:101D200001220021C047074600251BE04FF0FF3786
:101D30000025E068401EE060002D5CD1E9450ABF47
:101D400017F1010F00204FF0FF3094E056B908263C
:101D500008E006BB0A261EE0206801220021C047D9
:101D600007460125302F0BD12069411EE068216113
:101D7000401C0029E060EFD54FF0FF37012500E05F
:101D80004DB1302009F8010B05E020680122002147
:101D9000C0470746012517F1010FCAD0F9B26129E2
:101DA000A8BF573909DA4129A8BF373905DAA1F1A7
:101DB00030020A2A34BF3039FF21C9B2F0B2814261
:101DC00011D20DF11F00814538BF09F8017B206950
:101DD000411EE0682161401C0029E060D5D54FF02C
:101DE000FF370125A5E7E068401EE060002220687B
:101DF0003946C047A0E7002089F80000A0680078B5
:101E0000642818BF692808D100233246002168469B
:101E100000F051F8012161770AE03246002168465E
:101E200000F030F901216177A168097870291CD090
:101E3000217F622907D068290BD06C291CBF742927
:101E40007A290CD011E0616851F8042B61601070A0
:101E500010E0616851F8042B616010800AE061684D
:101E600051F8042B6160106004E0616851F8042BA4
:101E700061601060012009B0BDE8F083686C747A7D
:101E80004C00000063436E5B0000000010B5044688
:101E9000012000F021F92046BDE8104000F028B9EB
:101EA0000278C9B28A421AB11CBF10F8012FF9E7B3
:101EB00018BF002070472DE9F84380460E00914678
:101EC0001D4608BF6E46474600E07F1C3878FFF786
:101ED000DDFF0028F9D138782D2816BF2B2817F8F8
:101EE000014B2B242B464A463146384600F028F851
:101EF00031688F4208BFC6F800803168884514D128
:101F000020B92D2C16D1B0F1004F15D900F0FAF8F8
:101F1000222101600DB1012028602D2C14BF6FF02B
:101F200000404FF00040BDE8F2832B2CE9D1B0F126
:101F3000004FEBD2BDE8F2834042BDE8F2830000DF
:101F40002DE9F04F85B004461E000D4690461CBF9B
:101F500000203060A14601E009F1010999F8000074
:101F6000FFF794FF0028F7D199F800002D2816BF3D
:101F70002B2819F8017B2B27B8F1000F55D4B8F1A5
:101F8000010F52D0B8F1250F4FDAB8F1010F0DDB78
:101F9000B8F1100F04BF99F80000302802BF99F87B
:101FA000010040F02000782814D10EE099F80000DC
:101FB000302818BF4FF00A080CD199F8010040F002
:101FC0002000782804D14FF0100809F1020901E03F
:101FD0004FF00808CDF8109001E009F1010999F8D7
:101FE00000003028F9D00FF2A00B4FF0000ACDF816
:101FF0000C908DF808B00AE09DF80810CDF804A008
:10200000401AC0B2009008FB0A0A09F1010999F8C8
:10201000000000F07DF801464246584600F082F884
:102020000028E9D10498484503D105B12C6000206F
:1020300025E00FF27C01039818F80110A9EB0000CD
:10204000401A14D4012808DA0098BAEB000004D32F
:102050000199B0FBF8F0884209D000F053F8222132
:1020600001600EB1012030604FF0FF3A03E02D2FE8
:1020700008BFCAF1000A0DB1C5F80090504605B07E
:10208000BDE8F08F00235BE730313233343536372B
:1020900038396162636465666768696A6B6C6D6E26
:1020A0006F707172737475767778797A00000000BA
:1020B00000002115110E0D0C0B0B0A0A0909090964
:1020C0000908080808080808070707070707070797
:1020D000070707070700000010B50446DFF80C00EB
:1020E00000F04CF850F8240010BD0000AC000020B7
:1020F000A0F10901052901D3202801D10120704751
:1021000000207047014800F039B80000A00000200E
:1021100010B504460120FFF7DFFF2046BDE8104060
:1021200000F02DB8C9B2830706D0521E22D310F892
:10213000013B9942F7D11FE0083A13D302F10402A0
:1021400041EA012141EA014150F8043B121F21BF3D
:102150004B40A3F1013C2CEA030C1CF0803FF3D070
:10216000C9B2001F083210F8013B521E28BF91EA85
:10217000030FF8D818BF0120401E70477047A0F128
:1021800041011A2938BF2030704770B504461E003F
:102190000846154604D015F8011BA047761EFAD153
:1021A00070BD2DE9F04784B08246894614461F462B
:1021B000E84607E00123224649465046FFF7E5FF7F
:1021C0008146641C207810B904B0BDE8F08725284A
:1021D000F0D16078A41C2528014618D058285CD07E
:1021E00063280ED0642818BF692814D06F2854D0F3
:1021F000702858D073285DD0752818BF78284CD027
:10220000E0E73868386050F8041B3860C9B24846C7
:10221000D0478146D6E73868386050F8045B3860AC
:10222000002D03D52D214846D047814664206F28D4
:1022300008BF082205D040F02001782914BF0A22E7
:1022400010220B216428AC4603D1002D48BFCCF1ED
:10225000000CBCFBF2F502FB15CC0CF130065FFA6A
:1022600086FC4B1EBCF13A0FA4BFA0F15106B4444A
:1022700003F808C019465FEA050C01D00129E8DA25
:1022800068460D184846D1F10B09C2D015F8011B5C
:10229000D047B9F10109F9D1BBE73968396051F884
:1022A000045B3960C3E73868386050F8045B386015
:1022B0007820BCE73868386050F8045B38602846FE
:1022C00000F00AF806004846A3D015F8011BD047D5
:1022D000761EFAD19DE7000000F10103810704D0CA
:1022E00010F8011B89B18107FAD10268B2F10131FE
:1022F000914311F0803F04BF50F8042FF6E710F827
:10230000011B11B110F8011BFBE7C01A7047000058
:1023100080B54048006850F480703E4908603E48EF
:1023200000683E4908403C4908603A4800683C491A
:102330000840384908603748006830F48020354943
:1023400008603548006830F47D003349086000209B
:102350003449086000F005F85FF000603249086019
:1023600001BD81B0002000902A480068800502D598
:102370000120009001E0002000900098012846D143
:102380002B48006840084000294908602848006838
:1023900030F00200264908602548006830F004004B
:1023A000234908602348006850F0805021490860A4
:1023B0004FF480502049086020480068C006FBD4D4
:1023C00015480068144908601348006812490860FD
:1023D00011480068104908601448006830F46040F3
:1023E000124908601148006850F420400F49086005
:1023F00009480068800880000749086006480068AE
:10240000054908600448006810F00C0FFAD101B0CB
:102410007047000000380240083802400CC0FF88B6
:10242000FEFFFEEE0C38024008ED00E004380240EA
:10243000003C02402438024000700040047000401C
:1024400080B500F08BF800F027F8FDF748FFFEE7B5
:10245000FEE7FEE7FEE710B50400304800F088F81C
:102460002F4800F085F82F492BA000F093F82D4855
:1024700001682D4800F07CF82A48006801280AD13C
:10248000012000F09DF84FF47A70FDF7F2FE002075
:1024900000F096F8E7E7E6E700B585B00020039086
:1024A00000200290214801900120009000234FF469
:1024B00000721F491F48FDF735FE002003900020E1
:1024C00002901D4801900220009000234FF40072FA
:1024D0001A491B48FDF726FE0020039000200290B9
:1024E000184801900320009000234FF40072164911
:1024F0001648FDF717FE00200390002002901448B4
:1025000001900420009000234FF4007211491248FA
:10251000FDF708FE05B000BD256400008027000817
:10252000BC270008D066002048280008C0660020AC
:102530000028000851240008C46600200C28000868
:1025400053240008C86600201828000855240008F5
:10255000CC660020242800085724000880B54FF4DA
:102560004070FFF7D3F9FEF7DFFB00F025F801BD5F
:102570000EB400B582B003A9009102466B4601215A
:10258000034878440A30FFF70CFE06BC5DF810FBE8
:10259000090200000EB400B582B003A90091024602
:1025A0006B460021034878440A30FFF700FA06BC66
:1025B0005DF810FB3D02000080B500F009F801BD98
:1025C00010B504002000C0B200F01BF810BD0000E0
:1025D00000B583B001210120FEF713FF01208DF823
:1025E000040000208DF806001020009001208DF8D6
:1025F000070003208DF8050069460748FFF700F83B
:1026000007BDC0B2002803D01021044A118002E0A7
:102610001021034A11807047000002401800024058
:102620002800024010B50446084600F024F814F1D2
:10263000010F1EBF816900F13C02914205D0028862
:102640004AF201031340012B02D04FF0FF340EE099
:102650004FF6FF631A4042F4A0420280426A1AB960
:102660000269426242680261491E81610C7000F099
:1026700003F8204610BD7047704719E050F8041B5E
:10268000CB0744BFA9F101035918121F0023042AE4
:1026900041F8043BF9D25FEA827C0B4604D54FF047
:1026A000000CA1F800C09B1CD10744BF0021197089
:1026B00050F8042B002AE1D1704730B50168426818
:1026C0008468091801EB5203D20748BF4C440C3010
:1026D000994200D130BD11F9012B11F8015B002A9C
:1026E00004F8015B02D5521CF9D1F1E7521EF4D572
:1026F000EEE7000010B5074979441831064C7C44D8
:10270000163404E00A68081D511888470146A142A2
:10271000F8D110BD08000000240000005FFFFFFF9B
:10272000FC5D000018090020000000008FFFFFFF83
:1027300028020000C40000000000002000F00BF898
:10274000002801D0FFF7D6FF0020C046C046FFF7A3
:1027500077FE00F002F80120704700F001B8000099
:102760000746384600F002F8FBE7000080B5C04697
:10277000C046024A11001820ABBEFBE7260002004B
:10278000D0C2B0E6CFE4D1BACEC0CABFD3B2BCFE8D
:10279000B2E2CAD4210D0A0038B504460D462846D7
:1027A00000F006F8A84218BF0024204632BD000001
:1027B0000149FEF75BBD00BF60000020312E20B74D
:1027C000E4C3F9C6F7B2E2CAD4A1A30D0A0000001F
:1027D0000148804701480047112300083D280008B0
:1027E0000248FEF77DBD0149FFF71CBF2000002015
:1027F000002A18BFFFF7F4BF0846FFF7F4BF000038
:10280000765461736B5573657249460076546173F3
:102810006B4C454400000000765461736B4D736748
:1028200050726F00765461736B5374617274000060
:102830007047FEE7FEE7FEE7FEE77047C046C0468A
:10284000C046C046FFF77AFF25640D0A000000006D
:1028500049444C450000000008000000FFF7E8BFB5
:10286000FFF7E7BFFFF7E6BFFFF7E5BFFFF7E4BFFE
:10287000FEF707B8FFF7E1BFFDF7DABFFEF7B6B81E
:10288000FFF7FEBFFFF7FEBFFFF7FEBFFFF7FEBF7C
:10289000FFF7FEBFFFF7FEBFFFF7FEBFFFF7FEBF6C
:1028A000FFF7FEBFFFF7FEBFFFF7FEBFFFF7FEBF5C
:1028B000FFF7FEBFFFF7FEBFFFF7FEBFFFF7FEBF4C
:1028C000FFF7FEBFFFF7FEBFFFF7FEBFFFF7FEBF3C
:1028D000FFF7FEBFFFF7FEBFFFF7FEBFFFF7FEBF2C
:1028E000FFF7FEBFFFF7FEBFFFF7FEBFFFF7FEBF1C
:1028F000FFF7FEBFFFF7FEBFFFF7FEBFFFF7FEBF0C
:10290000FFF7FEBFFFF7FEBFFFF7FEBFFFF7FEBFFB
:10291000FFF7FEBFFEF79BBCFEF79EBCFEF7A1BC17
:10292000FFF7FEBFFFF7FEBFFFF7FEBFFFF7FEBFDB
:10293000FFF7FEBFFFF7FEBFFFF7FEBFFFF7FEBFCB
:10294000FFF7FEBFFFF7FEBFFFF7FEBFFFF7FEBFBB
:10295000FFF7FEBFFFF7FEBFFCAA08030406080C42
:1029600010182030F9002B010203040102030406B1
:10297000070809010400005D0000205E0000205DE2
:102980000000205D0000205D0000205D000020446C
:10299000000020E0001F020401017C650020CC65DE
:1029A00000207C6500207C6500207C6500209D0067
:0A29B0000020840000208100E700F1
:040000050800283D8A
:00000001FF
