:020000040800F2
:10000000600800204D1D0008691D00086B1D0008D8
:100010006D1D00086F1D0008711D00080000000024
:10002000000000000000000000000000830800083D
:10003000731D00080000000031080008ED090008E9
:10004000B11D0008B51D0008B91D0008BD1D000840
:10005000C11D0008C51D0008C91D0008CD1D0008F0
:10006000D11D0008D51D0008D91D0008DD1D0008A0
:10007000E11D0008E51D0008E91D0008ED1D000850
:10008000F11D0008F51D0008F91D0008FD1D000800
:10009000011E0008051E0008091E00080D1E0008AC
:1000A000111E0008151E0008191E00081D1E00085C
:1000B000211E0008251E0008291E00082D1E00080C
:1000C000311E0008351E0008391E00083D1E0008BC
:1000D000411E0008B3110008BD110008C711000837
:1000E000511E0008551E0008591E00085D1E00081C
:1000F000611E000800000000651E0008691E00085F
:1001000000000000000000006D1E0008711E0008C5
:10011000751E0008791E00087D1E0008811E00085B
:10012000851E00082DE9FA4F83B0040015000E9ECD
:100130000F9FDDF84080DDF844902000002802D1B8
:1001400000F095FBFEE7052E02D300F090FBFEE7E2
:100150004146280080B200F00AFB8246BAF1000F47
:1001600070D0DAF83000ADB210EB8500001F834686
:100170005FEADB0B5FEACB0B1BF00700002802D025
:1001800000F075FBFEE7280080B200904B4632007D
:100190000399504600F032FA049A2100584600F0C4
:1001A00091FBCAF80000002F01D0C7F800A000F0B2
:1001B000F0FBDFF818040068401CDFF8101408603A
:1001C000DFF82C04006800280BD1DFF82404C0F805
:1001D00000A0DFF8F8030068012811D100F041FA0F
:1001E0000EE0DFF8EC030068002809D1DFF8000416
:1001F0000068C06A864203D3DFF8F403C0F800A0A9
:10020000DFF8D0030068401CDFF8C8130860DFF88F
:10021000E40300680121DAF82C2091400843DFF85C
:10022000D41308601AF10401DFF8CC03DAF82C20AB
:10023000142303FB020000F013FC0120019000F0E6
:10024000C0FB02E05FF0FF300190019801280CD163
:10025000DFF87C030068002807D0DFF8940300680B
:10026000C06AB04201D200F08BFB019805B0BDE836
:10027000F08F70B504000026002C2BD0DFF8680545
:100280000068002802D000F0F2FAFEE700F053F810
:10029000DFF88C04006820180500DFF854030068BC
:1002A000001D00F006FC00280ED1DFF844030068B2
:1002B000DFF8401309680122C06A12FA00F031EA3F
:1002C0000000DFF830130860280000F02BFA00F07F
:1002D0003AF80600002E01D100F052FB70BD1FB5A8
:1002E0000020039000200290002001900020009048
:1002F00000238022DFF8F8140FF2DD20FFF712FF51
:100300000400012C11D100F0B2FA5FF0FF30DFF8E9
:10031000E41408600120DFF8B81208600020DFF85C
:10032000E014086000F0E8FA04E0002C02D100F0CC
:100330009EFAFEE71FBDDFF8B0040068401CDFF83E
:10034000A8140860704738B50025DFF89C040068E1
:10035000002802D100F08BFAFEE700F01AFBDFF86C
:1003600088040068401EDFF880140860DFF8780415
:100370000068002857D1DFF854020068002852D0E6
:10038000DFF87404006800282AD0DFF86C04C06825
:10039000C068040014F1180000F08BFB201D00F071
:1003A00088FBDFF8500200680121E26A91400843AF
:1003B000DFF840120860211DDFF83C02E26A1423D6
:1003C00003FB020000F04CFBE06ADFF8241209682E
:1003D000C96A8842D4D30120DFF828140860CFE727
:1003E000DFF818040068002814D0DFF81004006853
:1003F00000280FD000F01BF8002803D00120DFF800
:1004000004140860DFF8F4030068401EDFF8EC1302
:100410000860EAE7DFF8EC030068012803D1012057
:10042000050000F0ADFA00F0CCFA280032BD2DE94D
:10043000F0410026DFF8B0030068002840F080801B
:10044000DFF8DC020068401CDFF8D4120860DFF837
:10045000D0020768002F1FD1DFF8B00300680068E2
:10046000002802D000F003FAFEE7DFF8A0030068DE
:100470008046DFF89C030068DFF890130860DFF81F
:100480009003C0F80080DFF88C030068401CDFF8A0
:100490008413086000F092F9DFF85803006887427F
:1004A00040D3DFF8680300680068002805D15FF0DA
:1004B000FF30DFF84013086034E0DFF850030068D5
:1004C000C068C068040060680500AF4203D2DFF86E
:1004D0002403056026E0201D00F0EBFAA06A002846
:1004E00003D014F1180000F0E4FADFF80801006806
:1004F0000121E26A91400843DFF8F8100860211DED
:10050000DFF8F400E26A142303FB020000F0A8FA0B
:10051000E06ADFF8DC100968C96A8842C1D30120AB
:100520000600BEE7DFF8D00031490968C96A142225
:1005300002FB01000068022809D30120060006E042
:10054000DFF8B8020068401CDFF8B0120860DFF87E
:10055000B4020068002801D0012006003000BDE888
:10056000F08110B5DFF880020068002804D0012077
:10057000DFF89012086028E00020DFF88812086099
:100580001C480068B0FA80F0D0F11F0004001A483F
:10059000142101FB04000068002802D100F067F973
:1005A000FEE71549142202FB04110800416849685E
:1005B0004160416810F10802914202D141684968E6
:1005C00041604068C0680A49086010BD206600208C
:1005D0002C6600203C66002010B5040000F06DF889
:1005E000DFF8340200680228F8D300F0C9F9F5E713
:1005F0001066002028660020606400202DE9F0418C
:1006000004000D0016001F0000208046B8F1100FF6
:100610000CD218F8050018EB040181F8340018F822
:100620000500002802D018F10108EFE7002084F847
:100630004300052E01D304200600E662201D00F0D1
:100640000CFA14F1180000F008FA2461D6F1050044
:10065000A061646200206064002084F84800BDE866
:10066000F08110B500200400052C08D2DFF8A801A5
:10067000142101FB040000F0E1F9641CF4E7DFF849
:100680009C0100F0DBF9DFF8980100F0D7F9DFF802
:10069000680100F0D3F9DFF88C0100F0CFF953487E
:1006A00000F0CCF9DFF87401DFF860110860DFF8C2
:1006B0007001DFF85C11086010BD38B5DFF8680123
:1006C000006800282BD0FFF736FEDFF858010068DD
:1006D000002801D1012400E00024FFF734FE002CA3
:1006E000ECD100F056F9DFF83C01C068C0680500A5
:1006F000281D00F0DEF9DFF810010068401EDFF869
:1007000008110860DFF820010068401EDFF81811AA
:10071000086000F056F9280000F047F8CEE731BD38
:100720002466002010B50400DFF800010068446072
:10073000DFF8CC000068844209D2DFF8F0000068DE
:10074000011DDFF8CC00006800F096F90EE0DFF83C
:10075000DC000068011DDFF8B400006800F08CF9CF
:1007600024480068844201D22248046010BDF8B5D4
:1007700004000D00002D04D1A4B2A00000F0AEF9D9
:1007800000E028000700002F0BD04C2000F0A6F955
:100790000600002E01D0376305E0380000F01BFA98
:1007A00001E0002006003000F2BD10B50400206B0F
:1007B00000F011FA200000F00EFA10BDDFF84C1026
:1007C00009680968002904D15FF0FF31094A116006
:1007D00008E0DFF838100968C968C968080041688E
:1007E000044A11607047000044660020DC65002068
:1007F000801D000840660020B4650020306600209F
:100800002466002034660020206600201466002044
:100810001866002038660020606400208C65002087
:10082000A0650020C86500201C660020106600201E
:10083000EFF30980BFF36F8F204B1A6820E9F00FA8
:10084000106008B54FF0100080F31188FFF789FEA3
:100850004FF0000080F31188BDE80840196808686F
:10086000B0E8F00F80F30988BFF36F8F7047EFF3A4
:1008700011804FF0100181F31188704780F31188C7
:1008800070470E4B19680868B0E8F00F80F30988CC
:10089000BFF36F8F4FF0000080F311884EF00D0E04
:1008A000704707480068006880F3088862B661B640
:1008B000BFF34F8FBFF36F8F00DF00001066002083
:1008C00008ED00E0001F5FF080730360001F01600F
:1008D000001F0FF20D0303601438026020387047C8
:1008E00080B54E48006810F1010F02D0FFF7BFFF3E
:1008F000FEE7FFF7BCFFFEE700B583B0484801788C
:100900000191FF21017001788DF800109DF8001011
:1009100011F01001434A11700721434A11609DF8FC
:10092000001009060AD540490968491E3E4A11606F
:100930009DF8001049008DF80010F0E73A49096869
:100940000902394A11603849096811F4E061364AF0
:100950001160019901703548006850F47000334906
:1009600008603248006850F070403049086000F07C
:100970004CF8002029490860FFF793FF00200EBDC6
:100980005FF080502A490860BFF34F8FBFF36F8F2D
:10099000704780B5FFF76BFF20480068401C1F4977
:1009A0000860BFF34F8FBFF36F8F1C4800680128AA
:1009B00006D11F480068000602D0FFF758FFFEE787
:1009C00001BD80B515480068002802D1FFF74FFF30
:1009D000FEE712480068401E104908600F48006892
:1009E000002802D10020FFF749FF01BD80B5FFF7C5
:1009F0003EFFFFF71CFD002803D05FF080500C493C
:100A000008600020FFF73AFF01BD40F2CF700949AE
:100A100008600720084908607047000000000020B7
:100A200000E400E0486600200C66002020ED00E0B5
:100A300004ED00E014E000E010E000E010F1080137
:100A400041605FF0FF31816010F10801C16010F179
:100A500008010161002101607047002101617047B8
:100A600042684A6093688B6093685960916008613E
:100A700003685B1C0360704710B40B6813F1010F2F
:100A800002D10469220008E010F108042200546831
:100A90002468A34201D35268F9E754684C604C685B
:100AA000A1608A60516008610468641C046010BC25
:100AB0007047010008698A684B689A604A688B68C9
:100AC0005A6042688A4201D18A68426000220A6103
:100AD0000268521E02600068704700002DE9F04174
:100AE00004005FF00008FFF726FC88480068002833
:100AF00001D100F0A2F88648006804425FD1002CC2
:100B000010D084480068041914F0070F0AD014F1BB
:100B1000080014F00701441A14F0070F02D0FFF781
:100B2000A6FEFEE7002C4AD07B480068A04246D3D0
:100B30007A4806007948006805006868A04205D236
:100B40002868002802D02E002D68F6E76F4800685C
:100B5000854234D030686F49096808188046286893
:100B600030606C48006840006968091B88420FD2F9
:100B70006019070017F00700002802D0FFF777FE82
:100B8000FEE76868001B78606C60380000F08CF845
:100B9000614800686968401A5F4908605E480068FB
:100BA0005F490968884203D25B4800685C49086075
:100BB0006868574909680843686000202860FFF7A3
:100BC000C2FB18F00700002802D0FFF750FEFEE736
:100BD0004046BDE8F08170B504002600002C2BD003
:100BE0004C480068361A3500686849490968084267
:100BF00002D1FFF73CFEFEE72868002802D0FFF78D
:100C000036FEFEE7686842490968084214D0286841
:100C1000002811D168683E49096888436860FFF779
:100C20008AFB3D480068696808183B49086028004D
:100C300000F03AF8FFF787FB70BD30B44FF48843FB
:100C4000384C220012F0070F05D0D21DD208D20076
:100C50009B1A344CE3181100304C216000242F4DB6
:100C60006C605C1822002B4C2468121BD208D20046
:100C7000264C22600024254D2D686C600024234DF5
:100C80002D682C600800141A4460204C246804600D
:100C90004468234D2C6044681F4D2C605FF0004475
:100CA0001B4D2C6030BC704710B41C4B1A001368ED
:100CB000834201D21268FAE7110053685B1883423D
:100CC00004D153684468E31853601000010043687E
:100CD0005B181468A34211D113680C4C2468A3421A
:100CE00008D0436814686468E318436013681B689D
:100CF000036005E0054B1B68036001E013680360B7
:100D0000824200D0106010BC70470000F8650020DF
:100D100004660020881D0008FC650020F0650020A6
:100D2000006600206008002080B500F02DF800F07B
:100D3000E3F800F0F0F901BD70B58CB004000D00CF
:100D4000160001215FF0807000F001FB300000F020
:100D50003DFB00940195102002904020039000205C
:100D6000049080200590002006900020079000202D
:100D700008904FF48050099000200A906946300096
:100D800000F0A9FB0CB070BDDFF86804DFF87C143C
:100D90000860DFF88404DFF874144860DFF87C042E
:100DA000DFF8681488604FF48060DFF86014888191
:100DB0004FF48060DFF85414C8810020DFF84C1431
:100DC00008820020DFF8441448820020DFF83C1439
:100DD000C8820020DFF8341408830020DFF82C14C8
:100DE00048830020DFF8241488820020DFF81C14D8
:100DF000C8610020DFF8141408620020DFF80C142A
:100E00004862DFF8F803DFF808140860DFF8100420
:100E1000DFF8FC134860DFF80C04DFF8F413886097
:100E20004FF48060DFF8E81388814FF48060DFF8CA
:100E3000E013C8810020DFF8D81308820020DFF813
:100E4000D01348820020DFF8C813C8820020DFF8E2
:100E5000C01308830020DFF8B81348830020DFF8B0
:100E6000B01388820020DFF8A813C8610020DFF8E3
:100E7000A01308620020DFF898134862DFF88403AB
:100E8000DFF890130860DFF8A003DFF888134860EC
:100E9000DFF89803DFF87C1388604FF48060DFF898
:100EA000741388814FF48060DFF86813C8810020D4
:100EB000DFF8601308820020DFF858134882002012
:100EC000DFF85013C8820020DFF8481308830020A1
:100ED000DFF8401348830020DFF8381388820020B1
:100EE000DFF83013C8610020DFF828130862002003
:100EF000DFF820134862704700B587B00121012058
:100F000000F025FA01214FF4804000F02FFA4FF451
:100F10000070009002208DF8040000208DF806007B
:100F200003208DF805006946DFF8040300F00EFB8E
:100F300007220921DFF8F80200F05AFB4FF4806025
:100F4000009002208DF8040001208DF8070069460A
:100F5000B74800F0FBFA07220A21B54800F048FB29
:100F60005FF4E13002900020ADF80C000020ADF8F5
:100F70000E000020ADF810000020ADF814000C2089
:100F8000ADF8120002A99B4800F060FB012240F27C
:100F90002551984800F0E8FB0121964800F0CEFB6F
:100FA0004021944800F01AFC934A9B49A148FFF75E
:100FB000C3FE0121012000F0CAF901215FF40030D5
:100FC00000F0E3F90420009002208DF804000020D6
:100FD0008DF8060003208DF805006946944800F05E
:100FE000B5FA07220221924800F002FB0820009087
:100FF00002208DF8040001208DF8070069468C4816
:1010000000F0A4FA07220321894800F0F1FA5FF406
:10101000E13002900020ADF80C000020ADF80E0089
:101020000020ADF810000020ADF814000C20ADF841
:10103000120002A9714800F009FB012240F225517B
:101040006E4800F091FB01216C4800F077FB4021D5
:101050006A4800F0C3FB6A4A71497748FFF76CFEA3
:101060000121022000F073F901215FF4802000F0DB
:101070008CF94FF48060009002208DF8040000206D
:101080008DF8060003208DF8050069466B4800F0D6
:101090005DFA07220A21694800F0AAFA4FF40060BD
:1010A000009002208DF8040001208DF807006946A9
:1010B000624800F04BFA07220B21604800F098FAD2
:1010C0004FF4165002900020ADF80C000020ADF84F
:1010D0000E000020ADF810000020ADF814000C2028
:1010E000ADF8120002A9474800F0B0FA012240F220
:1010F0002551444800F038FB0121424800F01EFB16
:101100004021404800F06AFB3F4A47494C48FFF7FE
:1011100013FE07B000BD80B525208DF8000000202B
:101120008DF8020001208DF80300684600F099FB5D
:1011300026208DF8000000208DF8020001208DF897
:101140000300684600F08DFB27208DF8000000208A
:101150008DF8020001208DF80300684600F081FB45
:1011600001BD38B5040040F22551206800F03CFB79
:1011700000281DD0206800F0F3FA0500A068E18A7D
:101180000D54E08A401CE082E18980B2884201D39C
:101190000020E082608BE189884202D2608B401C93
:1011A0006083606A002803D02800C0B2616A884763
:1011B00031BD80B51548FFF7D4FF01BD80B5144897
:1011C000FFF7CFFF01BD80B51248FFF7CAFF01BD91
:1011D00038B504000D002100C9B289B2074800F0FB
:1011E000BBFA4021054800F0EAFA0028F9D02000B7
:1011F00032BD00000038014044600240004400401D
:1012000080600240004800401C60024014650020DD
:101210003C65002064650020604C00206050002088
:101220006054002060580020605C00206060002056
:101230000000024004380140044400400004024021
:1012400004480040F0B400210022002300240025BF
:101250000026554F3F6817F00C0739000F00002F8C
:1012600006D0042F14D0082F15D00C2F16D039E03B
:101270004E4F3F68C7F342373E00012716F1010C7D
:1012800017FA0CF74FF4004C0CFB07F7076038E037
:10129000474F076035E0474F076032E0424F3F68F5
:1012A00017F470173A00404F3F6817F440073B00AF
:1012B000414F920CD25D9B0D5B1C3B4F3F6817F476
:1012C00080373C00002C06D1394F07FB02F7B7FBF3
:1012D000F3F7076005E0374F07FB02F7B7FBF3F7BB
:1012E00007600EE0314F3F68C7F342373E000127E9
:1012F00016F1010C17FA0CF74FF4004C0CFB07F732
:101300000760294F3F6817F0F007390009092B4F94
:10131000CF5D3D000768EF404760234F3F6817F4FB
:10132000E0673900090A254FCF5D3D004768EF406F
:1013300087601D4F3F6817F460573900C90A1F4F77
:10134000CF5D3D004768EF40C760F0BC7047C9B251
:10135000002905D01A4A12680243194B1A6004E0AA
:10136000174A12688243164B1A607047C9B20029A7
:1013700005D0144A12680243124B1A6004E0114A65
:10138000126882430F4B1A607047C9B2002905D01A
:101390000D4A126802430C4B1A6004E00A4A1268B4
:1013A0008243094B1A6070470838024004380240F3
:1013B0000024F40000127A00040000201000002035
:1013C0001C380240203802402438024001684FF6A1
:1013D000FE72114001600021016000214160002186
:1013E00081600021C1604B49884206D14A490968A1
:1013F00051F00F01484A11606CE04849884206D11B
:101400004549096851F0F001434A116062E04449DE
:10141000884206D14049096851F470613E4A116022
:1014200058E04049884206D13B49096851F470416F
:10143000394A11604EE03C49884206D13649096874
:1014400051F47021344A116044E03849884206D191
:101450003149096851F470012F4A11603AE034496A
:10146000884206D12C49096851F070612A4A1160FE
:1014700030E03049884206D12F49096851F00F0108
:101480002D4A116026E02D49884206D12A49096873
:1014900051F0F001284A11601CE02949884206D128
:1014A0002549096851F47061234A116012E0254909
:1014B000884206D12049096851F470411E4A1160E2
:1014C00008E02149884205D11B49096851F470217F
:1014D000194A1160704710B4002203681A006FF3B4
:1014E0000E128B680C6A23430C6923434C69234317
:1014F0008C692343CC6923434C6A23438C6A23437E
:101500001A430260CB6843600B6883604B68C3601A
:1015100010BC704708600240046002401C6002403A
:101520003060024044600240586002406C600240FB
:101530008060024008640240046402401C6402406F
:10154000306402404464024058640240F0B4002217
:1015500000230024002500263200102A46D201264E
:10156000964033000E681E4034009C423CD1066811
:10157000350003261700FFB27F00BE40B5430E7949
:101580001700FFB27F00BE40354305600E79012E83
:1015900002D00E79022E18D1866835000326170076
:1015A000FFB27F00BE40B5434E791700FFB27F0007
:1015B000BE40354385608688350001269640B54398
:1015C0008E799640B6B235438580C66835000326CD
:1015D0001700FFB27F00BE40B543CE791700FFB2BF
:1015E0007F00BE403543C560521CB6E7F0BC704773
:1015F000F0B400230024D2B211F00705EDB2AD0023
:1016000012FA05F52B0089B2CD1010EB850589B2D1
:10161000CE1010EB8606366A0F2711F0070C5FFA22
:101620008CFC5FEA8C0C17FA0CF7BE432E6289B271
:10163000CD1010EB85052D6A1D432C0089B2CD100D
:1016400010EB85052C62F0BC704700002DE9F043DB
:1016500085B004000D005FF00009002600275FF050
:101660000008A8890028208A814639F44059E88872
:1016700050EA0909A4F81090A08981462E4810EA82
:101680000909A888298908436989084350EA090992
:10169000A4F80C90A08A814639F44079A88950EAD0
:1016A0000909A4F814906846FFF7CCFD214884424C
:1016B00002D10398060001E002980600A089000408
:1016C00008D5192000FB06F029684900B0FBF1F0AD
:1016D000070007E0192000FB06F029688900B0FB2D
:1016E000F1F007006420B7FBF0F0000181465FEAEB
:1016F0001910642101FB10708046A08900040AD5EE
:101700005FEAC80032306421B0FBF1F010F007004E
:1017100050EA090909E05FEA081032306421B0FBA1
:10172000F1F010F00F0050EA0909A4F8089005B094
:10173000BDE8F08300380140F3E9FFFFC9B200299A
:1017400004D0828952F40052828104E082894DF6ED
:10175000FF731A4082817047CA05D20D828070479C
:101760008088C005C00D7047F0B400230024002518
:10177000002689B240F66A17B94206000F00FFB290
:101780007F09FFB23B0089B211F01F073C0001271F
:10179000A7403D00012B01D10C3604E0022B01D102
:1017A000103600E01436D2B2002A03D037682F4337
:1017B000376002E03768AF433760F0BC7047020023
:1017C000002089B2B1F5007F13880B4202D00123BB
:1017D000180001E000231800C0B2704789B28A05E2
:1017E00089B2CA430280704770B403000024002607
:1017F0000025002089B240F66A1291420A00D2B256
:101800005209D2B2150089B211F01F02160001224E
:1018100012FA06F6012D02D19A89164006E0022D31
:1018200002D11A8A164001E09A8A16400A0092B242
:10183000120A92B21400012212FA04F41A88144017
:10184000002E04D0002C02D00122100001E0002262
:101850001000C0B270BC70471C4901431C4A1160A3
:10186000704770B4002300210F22C478002C21D0CF
:10187000174C246814F4E064D4F5E064240A2300CF
:10188000D3F104042100D2B21A4144788C402300E1
:101890008478144023431B010E4C05782B550124FA
:1018A000057815F01F05AC400B4D0678761145F80C
:1018B000264009E00124057815F01F05AC40074DCE
:1018C0000678761145F8264070BC70470000FA058E
:1018D0000CED00E000E400E000E100E080E100E069
:1018E00070B504461E000846154604D015F8011BC5
:1018F000A047761EFAD170BD2DE9F04784B082462C
:10190000894614461F46E84607E001232246494619
:101910005046FFF7E5FF8146641C207810B904B0FB
:10192000BDE8F0872528F0D16078A41C2528014661
:1019300018D058285CD063280ED0642818BF6928B6
:1019400014D06F2854D0702858D073285DD07528D3
:1019500018BF78284CD0E0E73868386050F8041B8E
:101960003860C9B24846D0478146D6E73868386003
:1019700050F8045B3860002D03D52D214846D04730
:10198000814664206F2808BF082205D040F020015E
:10199000782914BF0A2210220B216428AC4603D1F7
:1019A000002D48BFCCF1000CBCFBF2F502FB15CCBE
:1019B0000CF130065FFA86FC4B1EBCF13A0FA4BF57
:1019C000A0F15106B44403F808C019465FEA050CBB
:1019D00001D00129E8DA68460D184846D1F10B0913
:1019E000C2D015F8011BD047B9F10109F9D1BBE705
:1019F0003968396051F8045B3960C3E7386838608A
:101A000050F8045B38607820BCE73868386050F8DC
:101A1000045B3860284600F009F806004846A3D069
:101A200015F8011BD047761EFAD19DE700F101039E
:101A3000810704D010F8011B89B18107FAD102682F
:101A4000B2F10131914311F0803F04BF50F8042FEF
:101A5000F6E710F8011B11B110F8011BFBE7C01AE3
:101A60007047000080B54048006850F480703E49DF
:101A700008603E4800683E4908403C4908603A48D2
:101A800000683C490840384908603748006830F42D
:101A90008020354908603548006830F47D003349BE
:101AA000086000203449086000F005F85FF000602D
:101AB0003249086001BD81B0002000902A480068CA
:101AC000800502D50120009001E0002000900098E0
:101AD000012846D12B480068400840002949086089
:101AE0002848006830F00200264908602548006850
:101AF00030F00400234908602348006850F080500B
:101B0000214908604FF4805020490860204800684F
:101B1000C006FBD4154800681449086013480068E3
:101B200012490860114800681049086014480068AC
:101B300030F46040124908601148006850F42040B9
:101B40000F4908600948006880088000074908605C
:101B500006480068054908600448006810F00C0F4A
:101B6000FAD101B070470000003802400838024046
:101B70000CC0FF88FEFFFEEE0C38024008ED00E0CE
:101B800004380240003C024024380240007000400B
:101B90000470004080B500F02BF800F00DF8FEF75F
:101BA0009EFBFEE710B504000DA000F029F84FF4ED
:101BB0007A70FEF75EFBF7E700B585B00020039072
:101BC00000200290074801900120009000234FF46C
:101BD000007205490548FEF7A5FA05B000BD0000F2
:101BE000410D0A00086600205C1D0008A51B0008C6
:101BF00080B54FF44070FFF72FFEFFF795F801BD59
:101C00000EB400B582B003A9009102466B460121D3
:101C1000034878440A30FFF76FFE06BC5DF810FBFE
:101C20000901000019E050F8041BCB0744BFA9F1DB
:101C300001035918121F0023042A41F8043BF9D26A
:101C40005FEA827C0B4604D54FF0000CA1F800C07F
:101C50009B1CD10744BF0021197050F8042B002AA7
:101C6000E1D1704730B5016842688468091801EB1A
:101C70005203D20748BF4C440C30994200D130BDCA
:101C800011F9012B11F8015B002A04F8015B02D560
:101C9000521CF9D1F1E7521EF4D5EEE710B5074911
:101CA00079441831064C7C44163404E00A68081D57
:101CB000511888470146A142F8D110BD0800000024
:101CC0002400000061FFFFFFEC5D000060080020C1
:101CD0000000000091FFFFFFB00100007A0000004B
:101CE0000000002000F00BF8002801D0FFF7D6FF1D
:101CF0000020C046C046FFF74DFF00F002F801206B
:101D0000704700F001B800000746384600F002F8BE
:101D1000FBE7000080B5C046C046024A110018200B
:101D2000ABBEFBE72600020038B504460D46284648
:101D300000F006F8A84218BF0024204632BD00007B
:101D40000149FFF745BA00BF200000200148804745
:101D500001480047651A0008751D00087654617334
:101D60006B557365724946007047FEE7FEE7FEE774
:101D7000FEE77047C046C046C046C046FFF7B2FF08
:101D800049444C450000000008000000FFF7ECBF8C
:101D9000FFF7EBBFFFF7EABFFFF7E9BFFFF7E8BFC9
:101DA000FEF76FBDFFF7E5BFFEF742BDFEF71EBEB3
:101DB000FFF7FEBFFFF7FEBFFFF7FEBFFFF7FEBF57
:101DC000FFF7FEBFFFF7FEBFFFF7FEBFFFF7FEBF47
:101DD000FFF7FEBFFFF7FEBFFFF7FEBFFFF7FEBF37
:101DE000FFF7FEBFFFF7FEBFFFF7FEBFFFF7FEBF27
:101DF000FFF7FEBFFFF7FEBFFFF7FEBFFFF7FEBF17
:101E0000FFF7FEBFFFF7FEBFFFF7FEBFFFF7FEBF06
:101E1000FFF7FEBFFFF7FEBFFFF7FEBFFFF7FEBFF6
:101E2000FFF7FEBFFFF7FEBFFFF7FEBFFFF7FEBFE6
:101E3000FFF7FEBFFFF7FEBFFFF7FEBFFFF7FEBFD6
:101E4000FFF7FEBFFFF7B5B9FFF7B8B9FFF7BBB9AA
:101E5000FFF7FEBFFFF7FEBFFFF7FEBFFFF7FEBFB6
:101E6000FFF7FEBFFFF7FEBFFFF7FEBFFFF7FEBFA6
:101E7000FFF7FEBFFFF7FEBFFFF7FEBFFFF7FEBF96
:101E8000FFF7FEBFFFF7FEBFFCAA08030406080C1D
:101E900010182030F9002B0102030401020304068C
:101EA00007080902040101C464002014650020C46D
:101EB000640020C4640020C46400205D000020444D
:051EC000000020E0001D
:0400000508001D755D
:00000001FF
