:020000040800F2
:10000000800B0020F1950008058F0008078F00087D
:10001000098F00080B8F00080D8F000800000000FA
:100020000000000000000000000000003B2300086A
:100030000F8F000800000000E9220008A524000836
:10004000A1960008A5960008A9960008AD9600089C
:10005000B1960008B5960008B9960008118F0008FF
:10006000C1960008C5960008C9960008CD960008FC
:10007000D1960008D5960008D9960008DD960008AC
:10008000E1960008E5960008E9960008ED9600085C
:10009000F1960008F5960008F9960008FD9600080C
:1000A0000197000805970008099700080D970008B8
:1000B0001197000815970008199700081D97000868
:1000C0002197000825970008299700082D97000818
:1000D0003197000837670008416700084B67000840
:1000E000418F000845970008499700084D97000880
:1000F0005197000800000000559700085997000824
:1001000000000000000000005D97000861970008F3
:1001100065970008699700086D97000871970008B7
:10012000759700082DE9F04FA1B0804600201746D2
:100130001D4602910B900DF1440A6FF000490AE050
:1001400017F8011B0298C0470028029000F0A78210
:100150000B98401C0B90387808B90B98A1E2252821
:10016000EED10020059006900790089009900A9023
:1001700001E040F0010017F8011F2029F9D02329E0
:100180000DD02B2904D02D2906D030290AD00CE01F
:1001900040F0020080B2EEE740F00400FAE740F0E1
:1001A0000800F7E740F01000F4E72A290ED129688B
:1001B000296051F8042B2960002A0D9204D5514280
:1001C00040F004000D9180B27F1C11E000210D91E0
:1001D00009E00D99494505D001EB810302EB43018C
:1001E00030390D917F1C3A78A2F130010A29F0D301
:1001F00039782E2903D04FF0FF310C911DE017F80C
:10020000011F2A2907D1296829607F1C51F8042B76
:1002100029600C9211E000210C9109E00C994945EC
:1002200005D001EB810302EB430130390C917F1CB7
:100230003A78A2F130010A29F0D3ADF838000FF670
:100240005840397800F070FE08B117F8010B8DF8AE
:100250003A009DF83A00682802BF39786829622080
:1002600005D06C2804BF38786C2803D171208DF834
:100270003A007F1C11A8049017F8014BB4F1250037
:1002800029D01C3800F0C280001F022840F2BE8036
:10029000133800F0E380093800F0B880801E00F0C9
:1002A0004A81401E00F02381401E022840F2AE80A9
:1002B000001F00F01C81401F79D0401E00F0CE804E
:1002C000401E24D0C01E0BD0801E00F0C780C01E70
:1002D00000F0C48039E125208DF8440001203DE183
:1002E0002868286050F8046B286003960C9C002C4A
:1002F00004D5304600F024FE044606E022460021E4
:10030000304600F039FE00B1841B069427E12968CD
:1003100029603C2451F8040B29600021CDE900013B
:1003200011A80390DDE90001049E11B908B90C9AE7
:10033000B2B10206120FA0EB02123032D2B2631E2B
:100340003A2AA8BF273200099A5540EA01700909E4
:1003500008BF00281C4603D0039AA3199A42E8D389
:10036000A0190390C4F13C010C980691814209DA6E
:10037000401A08904FF6EF71BDF838000840ADF80C
:100380003800ECE0002840F1EA809DF8380000F0E9
:100390001400102840F0E3800D98059A801A089AFE
:1003A000801A441A012CC0F2DA800894D7E09DF834
:1003B0003A0062281AD0682806D06A280CD06C2827
:1003C0001CD0712808D019E02868286050F8041B58
:1003D00028600B980880C2E02868286050F8042B39
:1003E00028600B98C117C2E90001B8E028682860AE
:1003F00050F8041B28600B980870B0E0286828604B
:1004000050F8041B28600B980860A8E02868C01DFD
:1004100020F007022A60D2E9000108322A60CDE903
:100420000001002902D505982D210AE0BDF8380009
:10043000810702D505982B2103E0C00705D5059853
:10044000202100F80A10401C059011A805990818F1
:1004500003902146684600F0E1F980E09DF83A00FB
:100460006C280DD0712818BF6A2809D12868C01DD2
:1004700020F007022A60D2E9000108322A6005E074
:100480002968296051F8040B29600021CDE9000199
:100490009DF83A00682803D1DDE9000180B20BE045
:1004A000622803D1DDE90001C0B205E0742818BF5D
:1004B0007A2804D1DDE900010021CDE900019DF891
:1004C000380000072ED5DDE90001002908BF00280B
:1004D00028D044F02000782824D10598302100F855
:1004E0000A10401C411C059100F80A401AE09DF8D2
:1004F0003A00294600F0D8F8CDE90001002902DAD7
:1005000005982D210AE0BDF83800810702D505982D
:100510002B2103E0C00705D50598202100F80A101B
:10052000401C059011A805990818039021466846BB
:1005300000F0F1F813E0012005902868286050F8D9
:10054000041B28608DF8441009E025208DF8440034
:10055000012005901CB18AF80140022005900D98F9
:100560000599401A0899401A0699401A0999401AA3
:100570000799401A0A99441A9DF83800400710D488
:100580002020012C8DF840000BDB2646012310AA09
:100590006946404600F069FC002840F08080761EE5
:1005A000F4D1DDF814B0BBF1000F11AE0CD016F889
:1005B000011B0298C0470028029070D00B98401C85
:1005C000BBF1010B0B90F2D130208DF84000089E5A
:1005D000012E09DB012310AA6946404600F045FCC4
:1005E00000285CD1761EF5D1DDF818B0039EBBF172
:1005F000000F0CD016F8011B0298C047002802908B
:100600004DD00B98401CBBF1010B0B90F2D1302068
:100610008DF84000099E012E09DB012310AA6946CE
:10062000404600F022FC002839D1761EF5D103980F
:100630000699DDF81CB00E18BBF1000F0BD016F8B0
:10064000011B0298C047029048B30B98401CBBF1B5
:10065000010B0B90F3D130208DF840000A9E012E43
:1006600008DB012310AA6946404600F0FEFBB0B942
:10067000761EF6D19DF8380040077FF56CAD20203E
:10068000012C8DF84000FFF666AD012310AA6946E3
:10069000404600F0EAFB10B9641EF6D15BE54FF06E
:1006A000FF3021B0BDE8F08F622826D068281DD029
:1006B0006A2808D06C2827D0712804D0742823D049
:1006C0007A280CD020E00868C01D20F007000860E0
:1006D000D0E90023083008601946104670470A68C0
:1006E0000A6052F8040B0A60002170470A680A6029
:1006F00052F8040B0A6000B20BE00A680A6052F874
:10070000040B0A6040B204E00A680A6052F8040B65
:100710000A60C11770472DE9FA4E05460A462F694F
:100720006F2A08BF082405D041F02000782814BFA4
:100730000A2410243C26D5E90001642A18BF692A3E
:1007400081468A4605D1002903DAD9F100096AEB0E
:100750004A0ABAF1000F08BFB9F1000F0CD1286B9B
:1007600050B9082C36D195F83800000732D5302022
:100770003B2687F83B002DE0E317484651462246CA
:1007800000F026FCA4FB0023A9EB02023032D2B217
:10079000A6F1010B3A2A5E4603DB9DF80030513B7F
:1007A0009A180BF8072081465FEA010A08BFB9F1E1
:1007B000000F03D0E868F1198842DDD3082C09D175
:1007C00095F83800000705D5F05D302802D0761E78
:1007D0003020F055C6F13C00A861F119E960296BA1
:1007E000884208DA081A28624FF6EF71288F08400D
:1007F0002887BDE8F38E00290ED595F8381001F052
:100800001401102908D1696B6A69891A2A6A891A40
:100810000E1A012EA8BF2E62BDE8F38E2DE9F24F0D
:1008200004468EB0D4E90001CDE9020104AF9DF881
:10083000380040F0200BBBF1610F0AD0206B00287C
:1008400048BF062004D408BFBBF1670F01D10120C7
:1008500020636168C1F30A5040F2FF7290421CD1DC
:10086000080304BF2068002809D10320A0619DF877
:10087000380061381A2836D30FF2306108E00320BF
:10088000A0619DF8380061381A2829D30FF214614D
:10089000E068032200F014FCBEE1012816DA2046CD
:1008A00000F049FC012811DB00250020BBF1610F9D
:1008B00020D1E168302201F8012B4A1CE2609DF84A
:1008C0003820612A0CBF782258220FE0626840F27B
:1008D000FE3161F31E52451A62604FF0FF30E5E7CA
:1008E0000FF2BC51D4E70FF2C051D1E70A70616931
:1008F000891C616110B90026002584E1BBF1610FFC
:1009000040F09880206B00284CBF2126461CD4E97B
:1009100000ABDDE902010022002300F02DFC36B21D
:100920003ABF8BF00040CDE902A0CDE902AB06F161
:1009300001082D1FB8F1010F8DF810200DF11107DE
:1009400036DBDDE902010022002300F02DFC2FD26E
:100950001C2102A800F040FCDDE9020100F0C2FC0D
:10096000A8F10708B8F1010F814609DB00F0E6FCA9
:1009700002460B46DDE9020100F0F8FCCDE9020178
:10098000F81D072105E009F00F0200F8012D4FEADC
:100990002919B9F1010F01DB491EF4D5491E5CBFCD
:1009A000002200F8012DF9D5C71DB8F1010FC8DAF2
:1009B0000DF11100391AB142B8BF0E4636B23000FF
:1009C0000DF111072FD4884206DA04A9411849789D
:1009D0000829A8BF0F2100DA002104AA821800E02C
:1009E000761E12F80139401E8B42F9D00F2904D12E
:1009F00004A941184A78521C4A70002802D504AF55
:100A0000761C2D1D36B2701E0DD4C1190A783032F5
:100A1000D2B23A2A03DB9DF838303A3B9A18401E8E
:100A200001F80129F2D5206B002840F1EC80701EFE
:100A30002063E8E0DDE902010022002300F09CFBD6
:100A40003CBF81F00041CDE902012DB247F2975041
:100A500068434B49DFF82C9190FBF1F52DB2C5F1BD
:100A6000070ABAF1010F90461CDBDDE902675FEA75
:100A7000CA7007D542464B463046394600F036FD2F
:100A800006460F464046494642464B464FEA6A0AEA
:100A900000F02CFDBAF1000F80468946E7D1CDE980
:100AA000026724E0CAF1000A0026374F14E05FEA2B
:100AB000CA7007D542464B463046394600F016FD0F
:100AC00006460F464046494642464B4600F00EFD5C
:100AD0004FEA6A0A80468946BAF1000FE7D1DDE99C
:100AE000020132463B4600F0D3FDCDE90201BBF1E5
:100AF000660F0CBF05F10A000620216BDFF88C9011
:100B00004618142EA8BF132630208DF810000DF1C2
:100B10001107012E3CDBDDE9020100F0F9FB07F1D2
:100B2000080104220A23B0FBF3F303EB8307A0EBD5
:100B30004700303001F8010C0A20B3FBF0F000EB65
:100B40008007A3EB47033033521E01F8023DE9D181
:100B5000083E012E01F10807DBDBDDE9020100F0B0
:100B6000D7FB00F0F5FB02460B46DDE9020100F081
:100B7000FDFB00224B4600F0B9FCCDE90201CAE7BB
:100B8000A0860100000024400000F03F84D7974178
:100B90000DF11100381A0DF1110702E0401E6D1E13
:100BA0007F1C39783029F9D0BBF1660F02D12DB204
:100BB000691C04E0BBF1650F0CBF01210021226B11
:100BC0008E1836B2B042B8BF064636B231001AD4DB
:100BD000814204DAC85D3528A8BF392000DA302008
:100BE000CA19521E00E0761E12F80139491E8342CE
:100BF000F9D0392802D1C85D401CC855002902D55A
:100C00007F1E761C6D1C2DB29DF83810009533B2F6
:100C10003A46204600F003F80FB0BDE8F08F2DE90A
:100C2000F04786B006468A4690461D4600F079FE9B
:100C3000012D406A376B90F8009002DA01250FF21F
:100C400070284AF02000BDF93840662808BF641CAF
:100C500012D0672876D114F1040F79DBBC4277DA21
:100C600096F83800641C000702D4BD42B8BF2F4676
:100C700024B23F1B48BF002724B2F068B169012CA1
:100C800021DA4A1C30230B54012F03DA96F838106E
:100C9000090702D502F80090521CB261E742B8BFC2
:100CA0007C4224B26142E7197162AF42B8BF3D464F
:100CB000B3692DB2F5612A464146181800F000FAD2
:100CC000781BB062BAE00818A54216DA2A464146F7
:100CD00000F0F6F9B1696918601B012FB16170620B
:100CE00003DA96F83800000705D5F06801F800909F
:100CF000F069401CF061B762A0E02246414600F076
:100D0000DFF9B06920182D1B012F03DA96F838108F
:100D1000090703D5F16800F80190401C2DB2B061BD
:100D2000AF42B8BF3D46F068B3692DB22A4604EB26
:100D30000801181800F0C4F9B0692818B061781BD0
:100D400070627BE0BAF1610F14D14FF0700A16E0C7
:100D5000BD4204DA96F83810090758BF2F467F1EA7
:100D600048BF0027BAF1670F14BF4FF0450A4FF094
:100D7000650A04E0BAF1410F08BF4FF0500AB169AB
:100D8000F0684A1CB261012F18F8013B0B5403DADA
:100D900096F83810090715D5531CB36102F8009076
:100DA000012F0FDB6D1E2DB2AF42B8BF3D462DB2F5
:100DB0002A464146181800F083F9B0692818B06136
:100DC000781B7062F068B1690918200081F800A0F2
:100DD00004D42B20487001F1020804E02D224A704F
:100DE00001F102086442002502AF08E00A226846C9
:100DF00000F0B0FD019807F8010B6D1C009C21B2BA
:100E00000129F3DA022D06DA4AF02000652804BF32
:100E1000302008F8010B4DB9302008F8010B07E02D
:100E20006D1E02A8285C303008F8010B012DF7DA9E
:100E3000F068B1690818A8EB0000F06196F8380076
:100E400000F0140010280DD17069B1690818716A9A
:100E50000818F1690818B16A0818716B8842BCBF9C
:100E6000081A306206B0BDE8F087F8B504460D46B2
:100E700016461F46002077B116F8011BA868A04748
:100E8000A86030B1E86A401CE86200207F1EF3D100
:100E9000F2BD4FF0FF30F2BD686A6C747A4C00000E
:100EA0006E616E004E414E00696E6600494E46000E
:100EB0003000F0B4016844688368091801EB5402FB
:100EC000E40748BF4B440C3091422BD011F8014B42
:100ED00014F0030504BF11F8015BED1C26090F2E69
:100EE00007D111F8016B0F3603E011F8017B03F80D
:100EF000017B6D1EF9D1002EE6D0A40811F8015B2C
:100F000004F00304032C08BF11F8014B05EB042483
:100F10001C1BB51CD8D014F8016B03F8016B6D1EB7
:100F2000F9D1D1E7F0BC70470278C9B28A421AB150
:100F30001CBF10F8012FF9E718BF00207047000010
:100F400000F10103810704D010F8011B89B181076A
:100F5000FAD10268B2F10131914311F0803F04BF30
:100F600050F8042FF6E710F8011B11B110F8011B1F
:100F7000FBE7C01A70470000C9B2830706D0521EB3
:100F800022D310F8013B9942F7D11FE0083A13D35E
:100F900002F1040241EA012141EA014150F8043B17
:100FA000121F21BF4B40A3F1013C2CEA030C1CF0A3
:100FB000803FF3D0C9B2001F083210F8013B521E27
:100FC00028BF91EA030FF8D818BF0120401E7047D0
:100FD0001B4213D1094236D12AB18446B0FBF2F04C
:100FE00002FB10C2704700F0BDBCFCD300220023FE
:100FF00070470B000200002100207047904271EB07
:10100000030CF6D370B5B1FA81F4B3FA83F52C1B57
:10101000A340C4F1200532FA05F63343A2405FF045
:101020000046E64002E05B085FEA3202841A71EB98
:10103000030524BF204629467641F4D302000B0065
:101040003000002170BD012ACFD970B5140C20D01A
:10105000B1FA81F4B2FA82F5C4F120046419B4F152
:101060002006D6D3B2405FF00044F440002502E0F1
:1010700052085FEA3303C61A71EB020E24BF3046F2
:10108000714664416D41F3D302000B00200029003A
:1010900070BD0C46B1FBF2F102FB11452D0445EA8F
:1010A0001045B5FBF2F402FB145580B240EA054549
:1010B000B5FBF2F002FB105240EA044070BD0000A4
:1010C00062B38B0708D0521E11F8013B00F8013BB8
:1010D00000F024808B07F6D1830740F0208000BF0A
:1010E000103A07D330B4B1E83810103AA0E83810FD
:1010F000F9D230BC530724BFB1E80810A0E80810AB
:1011000044BF51F8043B40F8043BD20724BF31F8F8
:10111000022B20F8022B44BF0B7803707047083A6B
:1011200007D3B1E80810083A40F8043B40F804CB74
:10113000F7D25307E4E730B4436803F000420121DB
:101140001B031B0B436004BF0368002B08D10DE099
:101150000368DD0F45EA440444605B000360491EF8
:101160004468E302F4D523031B0B436043681A432E
:101170004260084630BC70474FF4001C1CEB410F26
:1011800094BF1CEB430F09E041EA030C50EA4C0CFE
:1011900052EA0C0C03D2994208BF9042704714BF28
:1011A0008B428242704700004FF4001C1CEB410F41
:1011B00094BF1CEB430F09E041EA030C50EA4C0CCE
:1011C00052EA0C0C03D28B4208BF8242704714BF14
:1011D000994290427047000070B504460D46606821
:1011E000C0F30A5040F2FF71884207D160680003E3
:1011F00004BF2068002817D0022070BD20B9204607
:10120000FFF799FF012866DA012D0FDB40F2FF712D
:10121000091A8D420AD36068002847BF00202F4971
:1012200000202F49C4E90001012070BD4142A942BC
:10123000616806DA6FF31E51401941EA00506060A0
:1012400040E0401E63684519012205F1350062F354
:101250001F53352801F00041636003D36160002013
:10126000206070BD002015F11F0F04DA2068236094
:101270000022203562606A4212D0401E25688041FB
:10128000C2F12003C0439D4045EAD07025686668DE
:10129000D54006FA03F32B4323606368D3406360B1
:1012A00062680A43B0F1004F626003D80DD1207824
:1012B000C0070AD52068401C2060206828B96068F3
:1012C000401C60604FF0FF3070BD6068884204BF12
:1012D00020680028F6D1002070BD00BF0000F0FF9C
:1012E0000000F07FF446400D40EAC120490006D2DC
:1012F00000F014F8004248BF6FF00040604700F073
:101300000DF84FF0004188428CBF084640426047CC
:10131000400D40EAC120490080F00D8040F00040BF
:10132000490DA1F58061491C05D4D1F11F0154BFBD
:10133000C840C01770474FF000007047010040F1EF
:101340000980F446404200F005F851F00041604742
:10135000010000BF09D0B0FA80F18840C91CC1F576
:101360008461090501EBD02140057047F0B44FF0CE
:10137000004591EA030F44BF6B4000F0FFBA00BF85
:10138000841A71EB030604D26E40001BB14112199E
:1013900073414FF4001C1CEB410F34BF7CEB430640
:1013A00084E00C0DA4EB1356362E7DDC012E43DCBD
:1013B00045EAC32343EA525312BFD20292025B08AA
:1013C000240545EAC12141EA5051D2EBC0209941A0
:1013D00025D407D1B0FA80F610FA06F164D00020C7
:1013E000203608E0B1FA81F6B140C6F1200220FAB9
:1013F00002F21143B0404FEAF474B4EB465434F0B7
:1014000001064FEA74040AD8D6F50016760D04F0EA
:101410000044F04061FA06F25040F1404840C00AF2
:1014200040EA415021F0004128BF5FEA500550F1E9
:10143000000044EBD12137E045EAC323DB0A45EA4B
:10144000C121C90AB6F120050EDD42EA0242120CA2
:10145000C5F1200603FA06F6EB4042EA06056D42A6
:10146000984161F100010DE062FA06F5F240554045
:1014700063FA06FC82EA0C02F3405A406D42904146
:1014800061EB030111F4801F05D1641E620502D0D7
:101490006D004041494121F48011430875F100433A
:1014A00050F1000041EB0451F0BC70471CEB410FC0
:1014B00015D223F0004352EA43060BD04FEA4C0CFE
:1014C000BCEB410F04D80C0D661E342EB7DDEBE7E4
:1014D000801A994150EA410608BF0021E4E708BF9D
:1014E0001CEB430F28BF6FF00001DDE7B0B581EAC8
:1014F000030C0CF0004C40F2FF7515EA11541DBFAF
:1015000015EA1357AC42AF4239E0E41923EA4553D8
:1015100043F48013C90241F0004141EA505EC70222
:101520001100A7FB020200284FF00000EEFB012093
:101530004FF00001E3FB072118BF42F00102401801
:1015400000214941E3FB0E01A4F580640F0302D2A0
:1015500052004041494154F101046CDD470872F1E9
:10156000004250F1000051EB0451A1F580115CBF25
:1015700041EA0C01B0BD4CEA05510020B0BD05EABE
:101580001357AC4214BFAF4241E050EA410E1CBFBA
:1015900052EA430E02E061460020B0BD24423C44C2
:1015A0001BD15FEA070EF6D0090302BF01460020F7
:1015B000AEF1140EB1FA81F7AEEB070401FA07FEA3
:1015C0000C37C7F1200100FA07F7C8404EEA000EB9
:1015D00023EA455343F48013A2E733F00043B3FA00
:1015E00083F704BFB2FA82FE77440B3FE41BB7F1E6
:1015F000200E2FBF02FA0EF3BB40C7F1200E22FAD5
:101600000EFE38BF43EA0E03BA40641C82E750EA7C
:10161000410E14BF52EA430E6FF000014FF4001761
:1016200017EB430F8ABF194617EB410FB5E74CEA9A
:1016300005510020B0BDD4F10104B4F120070FDA48
:10164000C4F12007520828BF42F0010210FA07F542
:1016500001FA07F7E1BF2A43E0403843E1400FE0D9
:10166000352C98DCC7F1200452EA400220FA07F238
:1016700018BF42F0010231FA07F0A1400A430021ED
:1016800072F1004250F1000051EB0C01B0BD0000BE
:101690002DE9F04140F2FF7581EA030C0CF0004C9B
:1016A00015EA11541DBF15EA1357AC42AF42E9E0E9
:1016B000BC41C1F31301C3F31303801A994143F4EE
:1016C000801304D2641E4000494180185941C90268
:1016D00041EA5051B1FBF3F603FB1611A2FB06756C
:1016E000D7EBC020A94102D2761E80185941C90209
:1016F00041EA5051B1FBF3FE03FB1E11A2FB0E7534
:10170000D7EBC020A94103D2AEF1010E8018594198
:10171000890241EA9051760546EA8E2EB1FBF3F636
:1017200003FB1611A2FB0675D7EB8020A94102D25C
:10173000761E80185941C90241EA50514EEA060E00
:10174000B1FBF3F603FB1611A2FB0675D7EBC02025
:10175000A94102D2761E80185941C90241EA50516E
:10176000B1FBF3F703FB1711A2FB0735D3EBC02046
:10177000A94167F100070CBF004247F0010766F37B
:10178000D5274FEA1E31B80814F5806414DDBD0773
:1017900075F1004250EB0E5051EB045111F5801FD2
:1017A0005CBF41EA0C01BDE8F0814CF07F6141F083
:1017B000E0410020BDE8F081BD076D0840EA0E5011
:1017C00041F48011D4F10104B4F120060ADAC4F125
:1017D00020060200E04001FA06F3E1401843B2405F
:1017E00015430EE0342C14DCC6F1200445EA400514
:1017F0006D0820FA06F2154321FA06F0A1400D43C8
:10180000002175F1004250F1000051EB0C01BDE8E0
:10181000F08100205FEA0C01BDE8F081CFB9921899
:101820005B41B3FA83F704BFB2FA82F6BF190B3FEC
:10183000B7F120062FBF02FA06F3BB40C7F120061E
:1018400022FA06F638BF3343BA401CB1E419641ECD
:101850002FE77F4231F00041B1FA81F404BFB0FAC2
:1018600080F6A4190B3CB4F120062FBF00FA06F154
:10187000A140C4F1200620FA06F638BF3143A0404B
:101880003C1B16E7AC421ABF05EA1357AF4214E0FF
:1018900050EA41061CBF52EA4306BFE750EA41073F
:1018A000304661461CBF41EA0551BDE8F08152EA6D
:1018B000430C08BFC143BDE8F08100204FF400167F
:1018C00016EB410F98BF16EB430F08BF16EB410F05
:1018D00024BFC14305E016EB430F0CBF61464CEA41
:1018E0000551BDE8F081000080B5134800F0B0F864
:1018F0000FF24C020FF244010160426241600FF2AC
:101900004402826381600FF24402C160016141615F
:1019100081618162C16201634163C26301644164A8
:1019200001BD10B5044800F093F80446206808B9DA
:10193000FFF7DAFF204610BD8402002000000000FF
:101940002E00000066616C7365000000747275659E
:101950000000000091FBF2F303FB1211C0E900311B
:101960007047000070470000F0B44FF0004591EA66
:10197000030C44BF6B40FFF703BD00BF841A71EB3B
:10198000030603D2001BB141121973414FF4001C2E
:101990001CEB410F34BF7CEB430443E00C0DA4EB84
:1019A0001356352E50DC45EAC323DB0A45EAC12134
:1019B000C912B6F120050DDD63FA05F6EB4086EAA3
:1019C0000305124218BF45F00105C01851F100018E
:1019D0000CD213E062FA06F5F2405540F3415A404A
:1019E000B340F3405A408018594107D349085FEA91
:1019F00030005FEA350528BF45F0010501F580118B
:101A0000420875F1004250F1000041EB0451F0BC76
:101A10004FF4001C1CEB410F38BF70470020090D2C
:101A2000090570471CEB410F10D252EA43060BD058
:101A3000BCEB410F05D80C0DAB43661E342EB5DD53
:101A400002E0AB4380185941F0BC7047F0BC7047CE
:101A5000704700002DE9FA4F83B0040015000E9E78
:101A60000F9FDDF84080DDF844902000002802D16F
:101A700000F059FCFEE7052E02D300F054FCFEE70F
:101A80004146280080B200F0CEFB8246BAF1000F3A
:101A900070D0DAF83000ADB210EB8500001F83463D
:101AA0005FEADB0B5FEACB0B1BF00700002802D0DC
:101AB00000F039FCFEE7280080B200904B4632006F
:101AC0000399504600F0F6FA049A2100584600F0B7
:101AD00055FCCAF80000002F01D0C7F800A000F0A4
:101AE000B4FCDFF820050068401CDFF8181508601A
:101AF000DFF8B405006800280BD1DFF8AC05C0F8AA
:101B000000A0DFF800050068012811D100F005FBF6
:101B10000EE0DFF874050068002809D1DFF88805B9
:101B20000068C06A864203D3DFF87C05C0F800A0D5
:101B3000DFF858050068401CDFF850150860DFF832
:101B40006C0500680121DAF82C2091400843DFF889
:101B50005C1508601AF10401DFF85405DAF82C204E
:101B6000142303FB020000F0F9FC0120019000F0B7
:101B700084FC02E05FF0FF300190019801280CD155
:101B8000DFF804050068002807D0DFF81C050068AE
:101B9000C06AB04201D200F04FFC019805B0BDE828
:101BA000F08F70B504000026002C2BD0DFF8F00673
:101BB0000068002802D000F0B6FBFEE700F053F802
:101BC000DFF81406006820180500DFF8DC04006860
:101BD000001D00F0ECFC00280ED1DFF8CC040068FA
:101BE000DFF8C81409680122C06A12FA00F031EA6D
:101BF0000000DFF8B8140860280000F0EFFA00F0E9
:101C00003AF80600002E01D100F016FC70BD1FB599
:101C100000200390002002900020019000200090FE
:101C200000238022DFF880160FF26540FFF712FFD5
:101C30000400012C11D100F076FB5FF0FF30DFF8DB
:101C40006C1608600120DFF8401408600020DFF8FF
:101C50006816086000F0ACFB04E0002C02D100F034
:101C600062FBFEE71FBDDFF838060068401CDFF8A6
:101C700030160860704738B50025DFF82406006884
:101C8000002802D100F04FFBFEE700F0DEFBDFF89A
:101C900010060068401EDFF808160860DFF800062E
:101CA0000068002857D1DFF85C030068002852D094
:101CB000DFF8FC05006800282AD0DFF8F405C068CA
:101CC000C068040014F1180000F071FC201D00F041
:101CD0006EFCDFF8D80300680121E26A91400843F6
:101CE000DFF8C8130860211DDFF8C403E26A14237B
:101CF00003FB020000F032FCE06ADFF8AC13096875
:101D0000C96A8842D4D30120DFF8B0150860CFE754
:101D1000DFF8A0050068002814D0DFF898050068F7
:101D200000280FD000F01BF8002803D00120DFF8B6
:101D30008C150860DFF87C050068401EDFF874151C
:101D40000860EAE7DFF874050068012803D1012084
:101D5000050000F071FB00F090FB280032BD2DE97A
:101D6000F0410026DFF838050068002840F0808048
:101D7000DFF864040068401CDFF85C140860DFF8DA
:101D800058040768002F1FD1DFF838050068006885
:101D9000002802D000F0C7FAFEE7DFF82805006847
:101DA0008046DFF824050068DFF818150860DFF8C2
:101DB0001805C0F80080DFF814050068401CDFF843
:101DC0000C15086000F056FADFF8E004006887425E
:101DD00040D3DFF8F00400680068002805D15FF008
:101DE000FF30DFF8C814086034E0DFF8D80400687A
:101DF000C068C068040060680500AF4203D2DFF825
:101E0000AC04056026E0201D00F0D1FBA06A00288C
:101E100003D014F1180000F0CAFBDFF8900200684C
:101E20000121E26A91400843DFF880120860211D19
:101E3000DFF87C02E26A142303FB020000F08EFB51
:101E4000E06ADFF864120968C96A8842C1D30120D8
:101E50000600BEE7DFF8580293490968C96A1422F0
:101E600002FB01000068022809D30120060006E0F9
:101E7000DFF840040068401CDFF838140860DFF821
:101E80003C040068002801D0012006003000BDE8B5
:101E9000F08110B5DFF808040068002804D00120A4
:101EA000DFF81814086028E00020DFF8101408603C
:101EB0007E480068B0FA80F0D0F11F0004007C4832
:101EC000142101FB04000068002802D100F02BFA65
:101ED000FEE77749142202FB0411080041684968B3
:101EE0004160416810F10802914202D1416849689D
:101EF00041604068C0686C49086010BD70B504005E
:101F00000D00002C02D100F00EFAFEE766480068D2
:101F100010F11801200000F02DFB63480068001D3F
:101F200000F045FB00280BD15F4800685F49096855
:101F30000122C06A12FA00F031EA00005B49086031
:101F400015F1010F07D158480068011DDFF854034F
:101F500000F004FB07E0DFF86003006828180600C3
:101F6000300000F03BF970BD70B50400E068C06857
:101F70000500002D02D100F0D6F9FEE715F118009A
:101F800000F015FBDFF818030068002813D1281DA6
:101F900000F00DFB454800680121EA6A91400843C2
:101FA00042490860291D4248EA6A142303FB0200E3
:101FB00000F0D4FA05E015F11801DFF8F40200F0A2
:101FC000CDFA39480068C06AE96A884206D2012021
:101FD00006000120DFF8E412086001E0002006009E
:101FE000300070BD10B50400002C02D100F09BF948
:101FF000FEE7DFF8D80200682060DFF8BC02006866
:10200000606010BD60690020F8B504000D00002C70
:1020100002D100F088F9FEE7002D02D100F083F92B
:10202000FEE700F012FA6C480768286810F1010F0B
:1020300002D1002006001DE0DFF890020068216850
:10204000884205D06068874202D30120060011E073
:102050006068381A296888420AD22868C01B6168FB
:10206000081828602000FFF7BDFF0020060001E0EF
:102070000120060000F001FA3000F2BD0120DFF877
:102080003C120860704700006C6900207C690020E9
:1020900010B5040000F06DF8DFF834020068022883
:1020A000F8D300F0C9F9F5E750690020686900200D
:1020B000806700202DE9F04104000D0016001F008C
:1020C00000208046B8F1100F0CD218F8050018EB6C
:1020D000040181F8340018F80500002802D018F136
:1020E0000108EFE7002084F84300052E01D3042007
:1020F0000600E662201D00F02EFA14F1180000F030
:102100002AFA2461D6F10500A061646200206064AF
:10211000002084F84800BDE8F08110B500200400DC
:10212000052C08D2DFF8A801142101FB040000F0FF
:1021300003FA641CF4E7DFF89C0100F0FDF9DFF816
:10214000980100F0F9F9DFF8680100F0F5F9DFF81F
:102150008C0100F0F1F9534800F0EEF9DFF874015A
:10216000DFF860110860DFF87001DFF85C110860CB
:1021700010BD38B5DFF86801006800282BD0FFF7E4
:1021800072FDDFF858010068002801D1012400E049
:102190000024FFF770FD002CECD100F056F9DFF8B9
:1021A0003C01C068C0680500281D00F000FADFF897
:1021B00010010068401EDFF808110860DFF82001F8
:1021C0000068401EDFF81811086000F056F928007A
:1021D00000F047F8CEE731BD6469002010B5040077
:1021E000DFF8000100684460DFF8CC00006884423A
:1021F00009D2DFF8F0000068011DDFF8CC000068AC
:1022000000F0B8F90EE0DFF8DC000068011DDFF82F
:10221000B400006800F0AEF924480068844201D29E
:102220002248046010BDF8B504000D00002D04D153
:10223000A4B2A00000F0D0F900E028000700002FB1
:102240000BD04C2000F0C8F90600002E01D03763F7
:1022500005E0380000F03DFA01E000200600300003
:10226000F2BD10B50400206B00F033FA200000F03E
:1022700030FA10BDDFF84C1009680968002904D154
:102280005FF0FF31094A116008E0DFF83810096893
:10229000C968C96808004168044A116070470000B5
:1022A00084690020FC6800206C960008806900208A
:1022B000D4680020706900206469002074690020DF
:1022C0006069002054690020586900207869002066
:1022D00080670020AC680020C0680020E86800200B
:1022E0005C69002050690020EFF30980BFF36F8F15
:1022F000204B1A6820E9F00F106008B54FF010006D
:1023000080F31188FFF7C5FD4FF0000080F31188BE
:10231000BDE8084019680868B0E8F00F80F3098844
:10232000BFF36F8F7047EFF311804FF0100181F30F
:102330001188704780F3118870470E4B1968086840
:10234000B0E8F00F80F30988BFF36F8F4FF0000003
:1023500080F311884EF00D0E704707480068006842
:1023600080F3088862B661B6BFF34F8FBFF36F8FFB
:1023700000DF00005069002008ED00E0001F5FF062
:1023800080730360001F0160001F0FF20D030360E4
:10239000143802602038704780B55D48006810F13D
:1023A000010F02D0FFF7BFFFFEE7FFF7BCFFFEE71C
:1023B00000B583B0574801780191FF210170017881
:1023C0008DF800109DF8001011F01001524A1170A4
:1023D0000721524A11609DF8001009060AD54F499D
:1023E0000968491E4D4A11609DF8001049008DF89A
:1023F0000010F0E7494909680902484A1160474955
:10240000096811F4E061454A11600199017044487E
:10241000006850F47000424908604148006850F07C
:1024200070403F49086000F04CF8002038490860CF
:10243000FFF793FF00200EBD5FF080503949086020
:10244000BFF34F8FBFF36F8F704780B5FFF76BFF00
:102450002F480068401C2E490860BFF34F8FBFF320
:102460006F8F2B480068012806D12E4800680006AF
:1024700002D0FFF758FFFEE701BD80B52448006891
:10248000002802D1FFF74FFFFEE721480068401EF9
:102490001F4908601E480068002802D10020FFF78D
:1024A00049FF01BD80B5FFF73EFFFFF758FC00284C
:1024B00003D05FF080501B4908600020FFF73AFF0F
:1024C00001BD40F2CF701849086007201749086025
:1024D0007047000038B5EFF305800400102C0BD3D3
:1024E00013480068205C05000B480078EDB2854277
:1024F00002D2FFF718FFFEE7084800680D49096897
:1025000011F4E061884202D2FFF70DFFFEE731BD12
:102510000000002000E400E08A69002048690020F3
:1025200020ED00E004ED00E014E000E010E000E049
:10253000789600080CED00E010F1080141605FF0B2
:10254000FF31816010F10801C16010F108010161E3
:1025500000210160704700210161704742684A60B4
:1025600093688B60936859609160086103685B1C95
:102570000360704710B40B6813F1010F02D10469B6
:10258000220008E010F10804220054682468A342E5
:1025900001D35268F9E754684C604C68A1608A60C6
:1025A000516008610468641C046010BC704701003D
:1025B00008698A684B689A604A688B685A60426802
:1025C0008A4201D18A68426000220A610268521E72
:1025D00002600068704700002DE9F04104005FF0E0
:1025E0000008FFF740FB88480068002801D100F090
:1025F000A2F88648006804425FD1002C10D08448BD
:102600000068041914F0070F0AD014F1080014F040
:102610000701441A14F0070F02D0FFF784FEFEE70B
:10262000002C4AD07B480068A04246D37A48060076
:102630007948006805006868A04205D2286800282B
:1026400002D02E002D68F6E76F480068854234D02E
:1026500030686F49096808188046286830606C48FF
:10266000006840006968091B88420FD260190700A2
:1026700017F00700002802D0FFF755FEFEE7686854
:10268000001B78606C60380000F08CF861480068CE
:102690006968401A5F4908605E4800685F490968D8
:1026A000884203D25B4800685C4908606868574903
:1026B00009680843686000202860FFF7DCFA18F01A
:1026C0000700002802D0FFF72EFEFEE74046BDE8D7
:1026D000F08170B504002600002C2BD04C48006817
:1026E000361A3500686849490968084202D1FFF77F
:1026F0001AFEFEE72868002802D0FFF714FEFEE766
:10270000686842490968084214D02868002811D135
:1027100068683E49096888436860FFF7A4FA3D4845
:102720000068696808183B490860280000F03AF81A
:10273000FFF7A1FA70BD30B44FF48843384C220043
:1027400012F0070F05D0D21DD208D2009B1A344CCC
:10275000E3181100304C216000242F4D6C605C1890
:1027600022002B4C2468121BD208D200264C226077
:102770000024254D2D686C600024234D2D682C60AD
:102780000800141A4460204C246804604468234DF7
:102790002C6044681F4D2C605FF000441B4D2C6082
:1027A00030BC704710B41C4B1A001368834201D22E
:1027B0001268FAE7110053685B18834204D153682A
:1027C0004468E31853601000010043685B18146804
:1027D000A34211D113680C4C2468A34208D043686B
:1027E00014686468E318436013681B68036005E0BD
:1027F000054B1B68036001E013680360824200D050
:10280000106010BC704700002C690020386900205F
:102810007496000830690020106900203469002097
:10282000800B002038B504000D004FF42040DFF885
:10283000341808605FF40031DFF82C0800F037FD31
:1028400000280CD0DFF81C080068411EDFF81428AF
:1028500011600028EED100F097FD0020ABE00121CF
:10286000DFF8040800F0CCFC4FF48050DFF8F417D8
:102870000860DFF8F817DFF8F00700F0FCFC00282C
:102880000CD1DFF8E0070068411EDFF8D82711609F
:102890000028EED100F078FD00208CE00022882195
:1028A000DFF8C40700F0D6FC4FF48050DFF8B4170F
:1028B0000860DFF8BC17DFF8B00700F0DCFC002888
:1028C0000CD1DFF8A0070068411EDFF898271160DF
:1028D0000028EED100F058FD00206CE00121DFF867
:1028E000880700F07FFC2100C9B2DFF87C0700F008
:1028F000BCFC4FF48050DFF86C170860DFF87417E9
:10290000DFF8640700F0B7FC00280CD1DFF85407AB
:102910000068411EDFF84C2711600028EED100F05E
:1029200033FD002047E0280080B2010AC9B2DFF879
:10293000380700F09AFC4FF48050DFF82817086041
:10294000DFF83017DFF8200700F095FC00280CD1E5
:10295000DFF810070068411EDFF808271160002823
:10296000EED100F011FD002025E02900C9B2DFF80A
:10297000F80600F07AFC4FF48050DFF8E8160860A3
:10298000DFF8F016DFF8E00600F075FC00280CD147
:10299000DFF8D0060068411EDFF8C8261160002865
:1029A000EED100F0F1FC002005E00121DFF8B806CF
:1029B00000F034FC012032BD70B582B004004FF449
:1029C0002040DFF8A01608605FF40031DFF89806B9
:1029D00000F06DFC002812D0DFF888060068411E68
:1029E000DFF8802611600028EED100F0CDFC002039
:1029F0008DF802000020ADF80000009821E10121CF
:102A0000DFF8640600F0FCFB4FF48050DFF854164A
:102A10000860DFF85816DFF8500600F02CFC00289C
:102A200012D1DFF840060068411EDFF83826116039
:102A30000028EED100F0A8FC00208DF80200002054
:102A4000ADF800000098FCE000228821DFF81806AD
:102A500000F000FC4FF48050DFF808160860DFF843
:102A60001016DFF8040600F006FC002812D1DFF88B
:102A7000F4050068411EDFF8EC2511600028EED156
:102A800000F082FC00208DF802000020ADF800006C
:102A90000098D6E02100C9B2DFF8CC0500F0E5FBD4
:102AA0004FF48050DFF8BC150860DFF8C815DFF878
:102AB000B80500F0E0FB002812D1DFF8A805006897
:102AC000411EDFF8A02511600028EED100F05CFC6B
:102AD00000208DF802000020ADF800000098B0E062
:102AE0000121DFF8840500F099FB0121DFF878056A
:102AF00000F086FB4FF48050DFF868150860DFF8BF
:102B00006C15DFF8640500F0B6FB002812D1DFF881
:102B100054050068411EDFF84C2511600028EED1F5
:102B200000F032FC00208DF802000020ADF800001B
:102B3000009886E001228921DFF82C0500F08AFB4D
:102B40004FF48050DFF81C150860DFF82C15DFF813
:102B5000180500F090FB002812D1DFF80805006886
:102B6000411EDFF8002511600028EED100F00CFCBA
:102B700000208DF802000020ADF80000009860E011
:102B80004FF48050DFF8DC140860DFF8F014DFF851
:102B9000D80400F070FB002812D1DFF8C8040068E8
:102BA000411EDFF8C02411600028EED100F0ECFBDC
:102BB00000208DF802000020ADF80000009840E0F1
:102BC000DFF8A40400F054FB05000021DFF89804AE
:102BD00000F032FB4FF48050DFF888140860DFF813
:102BE0009C14DFF8840400F046FB002812D1DFF8C3
:102BF00074040068411EDFF86C2411600028EED1D7
:102C000000F0C2FB00208DF802000020ADF80000AB
:102C1000009816E0DFF8500400F02AFB06000121BE
:102C2000DFF8440400F0FAFA0121DFF83C0400F078
:102C300003FB56EA0520ADF8000001208DF80200E4
:102C4000009876BD00B585B00121022000F08CFC13
:102C500000208DF810000220039003A9DFF8200463
:102C600000F00CFD0121012000F08DFC012101206C
:102C700000F08BFD0220019000208DF808000C2050
:102C80008DF8090001208DF80A0001A800F0AAFDC6
:102C900007208DF8000005208DF8010000208DF838
:102CA000020001208DF80300684600F0FEFD05B02B
:102CB00000BD10B582B04FF44040ADF80000BDF843
:102CC00000004FF2FF710840ADF800000220BDF88F
:102CD000001060F34A21ADF80010BDF8000050F07C
:102CE0001000ADF80000BDF800004FF6F771084085
:102CF000ADF80000BDF800004FF6FB710840ADF8DC
:102D00000000BDF800004FF6FC710840ADF800006F
:102D1000BDF800100120FFF785FD04002000C0B2BF
:102D200016BD38B50400D748210000F0FDFD00F0C5
:102D300067FE0500002D10D0B5F5805F0DD2BDF8FF
:102D400000000005000DADF800002800BDF80010DF
:102D500060F30B01ADF80010EDE0B5F5805F12D324
:102D600041F6FF7085420ED20120BDF8001060F3DD
:102D70000F31ADF800106808BDF8001060F30B01CA
:102D8000ADF80010D7E041F6FF70854212D343F64C
:102D9000FD7085420ED20220BDF8001060F30F31A5
:102DA000ADF80010A808BDF8001060F30B01ADF8F5
:102DB0000010C0E043F6FD70854212D347F6F9706B
:102DC00085420ED20320BDF8001060F30F31ADF83C
:102DD0000010E808BDF8001060F30B01ADF800101A
:102DE000A9E047F6F970854212D34FF6F17085429B
:102DF0000ED20420BDF8001060F30F31ADF80010C2
:102E00002809BDF8001060F30B01ADF8001092E046
:102E10004FF6F170854211D39B4885420ED20520B2
:102E2000BDF8001060F30F31ADF800106809BDF86F
:102E3000001060F30B01ADF800107CE09248854271
:102E400011D3924885420ED20620BDF8001060F3DF
:102E50000F31ADF80010A809BDF8001060F30B01A8
:102E6000ADF8001067E08948854211D38848854253
:102E70000ED20720BDF8001060F30F31ADF800103E
:102E8000E809BDF8001060F30B01ADF8001052E046
:102E90007F48854211D37F4885420ED20820BDF875
:102EA000001060F30F31ADF80010280ABDF80010D3
:102EB00060F30B01ADF800103DE07648854211D378
:102EC000754885420ED20920BDF8001060F30F311D
:102ED000ADF80010680ABDF8001060F30B01ADF802
:102EE000001028E06C48854211D36C4885420ED210
:102EF0000A20BDF8001060F30F31ADF80010A80AE9
:102F0000BDF8001060F30B01ADF8001013E063484A
:102F1000854210D3624885420DD20B20BDF80010C7
:102F200060F30F31ADF80010E80ABDF8001060F34F
:102F30000B01ADF80010009832BD7CB504000D0007
:102F40002000FFF7EEFE01902800FFF7EAFE009058
:102F5000BDF804100220FFF765FC0600BDF8001064
:102F60000320FFF75FFC06003000C0B276BD7FB5DE
:102F70000600FFF79EFE0020FFF71EFD0090BDF843
:102F80000000ADF804009DF802008DF80C00BDF8BB
:102F9000040080B2000B80B2FEF7DAF902000B00E9
:102FA00000205FF0804100F04EFF3E4A3E4BFEF7AE
:102FB0009DFA04000D00BDF804000005000DFEF7A9
:102FC000C7F922002B00FEF791FA01F055F90290A3
:102FD000DDE90201C6E9000104B070BD70B586B03C
:102FE00006000020FFF7E8FC00900120FFF7E4FC5A
:102FF0000290BDF80000ADF80400BDF8040080B2F6
:10300000000B80B2FEF7A4F902000B0000205FF075
:10301000804100F018FF234A234BFEF767FA0400B3
:103020000D00BDF804000005000DFEF791F9220027
:103030002B00FEF75BFA01F01FF903909DF80A00E0
:103040009DF80210084203D001208DF8100002E024
:1030500000208DF81000DDE90301C6E9000106B08B
:1030600070BD0000446900200054004001000300CE
:1030700082000700840007000200030040000300F4
:10308000000402400000C842E1FF0100C1FF03004C
:1030900081FF070001FF0F0001FE1F0001FC3F0040
:1030A00001F87F007B14AE47E17A843F10B504003D
:1030B000484884420AD101215FF4001000F090FAE0
:1030C00000215FF4001000F08BFA09E001215FF4A9
:1030D000800000F085FA00215FF4800000F080FAA3
:1030E00010BD2DE9F04385B004000D005FF000092C
:1030F00000260427DFF8E080A08881464FF6C070E4
:1031000010EA0909684600F0AAF902988046334897
:10311000B8FBF0F0060056EA0909A4F804902088EC
:103120004FF6FE71084020800020814628682C4917
:1031300088420ED228684000B8FBF0F00700BFB20A
:10314000042F01DA0420070057EA0909701C2084C3
:1031500026E0E8884BF6FF71884206D128680321F3
:103160004843B8FBF0F0070007E0286819214843FE
:10317000B8FBF0F0070057F48047380501D157F04D
:10318000010757F4004050EA0909B6B24FF49670AF
:1031900000FB06F04FF47A7190FBF1F0401C2084A4
:1031A000A4F81C90208850F00100208020888146DF
:1031B0004FF6F53010EA0909A8886989084350EAF2
:1031C0000909A4F80090A88929890843208105B03D
:1031D000BDE8F0830054004000127A0040420F0026
:1031E000A1860100C9B2002904D0028852F0010270
:1031F000028004E002884FF6FE731A400280704796
:10320000C9B2002904D0028852F48072028004E01E
:1032100002884FF6FF631A4002807047C9B2002946
:1032200004D0028852F40072028004E002884FF653
:10323000FF531A4002807047C9B2002904D00288A7
:1032400052F48062028004E002884FF6FF331A4095
:1032500002807047D2B2002A02D051F0010101E091
:1032600011F0FE01C9B201827047C9B201827047F4
:10327000008AC0B2704770B4020000230024002509
:103280000020968A3400168B35002D0455EA04067A
:103290003602360A330011EA03068E4202D10126B5
:1032A000300001E000263000C0B270BC704782B030
:1032B00002000020002301930023009300920B0FD3
:1032C00001930902090A019B002B03D0009B1433D0
:1032D000009303E0090C009B18330093009B1B68CC
:1032E0000B4202D00123180001E000231800C0B2F5
:1032F00002B0704700B587B001215FF4001000F004
:1033000051F90121022000F02FF9042208214E4832
:1033100000F008FA042209214B4800F003FA4FF4A8
:103320004070009002208DF8040003208DF8050005
:1033300001208DF806006946434800F09FF9434894
:10334000FFF7B4FE0020ADF80C004BF6FF70ADF8AF
:103350000E000020ADF810004FF48060ADF81200B0
:103360004FF48040ADF814003948029001213748ED
:10337000FFF738FF02A93548FFF7B3FE01213348B4
:10338000FFF75AFF07B000BD00B587B04FF440709B
:10339000009001208DF8040001208DF80700032023
:1033A0008DF805006946284800F068F94FF440712F
:1033B000254800F0B5F92548008850F4004023491D
:1033C0000880224800884004400C204908804FF4BF
:1033D0004070009002208DF8040003208DF8050055
:1033E00001208DF806006946174800F047F90422CD
:1033F0000821154800F096F904220921124800F02E
:1034000091F90020ADF80C004BF6FF70ADF80E00FE
:103410000020ADF810004FF48060ADF812004FF4BA
:103420008040ADF814000A48029001210748FFF7D8
:10343000D9FE02A90548FFF754FE01210348FFF712
:10344000FBFE07B000BD0000000402400054004035
:10345000A0860100C0B2DFF8F81108607047F0B430
:10346000002100220023002400250026764F3F681B
:1034700017F00C0739000F00002F06D0042F14D0CE
:10348000082F15D00C2F16D039E0704F3F68C7F3C6
:1034900042373E00012716F1010C17FA0CF74FF4E2
:1034A000004C0CFB07F7076038E06A4F076035E017
:1034B000694F076032E0644F3F6817F470173A00B5
:1034C000614F3F6817F440073B00644F920CD25D98
:1034D0009B0D5B1C5C4F3F6817F480373C00002C51
:1034E00006D15C4F07FB02F7B7FBF3F7076005E077
:1034F000594F07FB02F7B7FBF3F707600EE0534F96
:103500003F68C7F342373E00012716F1010C17FA56
:103510000CF74FF4004C0CFB07F707604A4F3F686D
:1035200017F0F007390009094D4FCF5D3D000768DE
:10353000EF404760444F3F6817F4E0673900090ADD
:10354000474FCF5D3D004768EF4087603E4F3F6883
:1035500017F460573900C90A414FCF5D3D004768F5
:10356000EF40C760F0BC7047C9B2002905D03E4AA1
:10357000126802433C4B1A6004E03B4A12688243E3
:10358000394B1A607047C9B2002905D0374A126812
:103590000243364B1A6004E0344A12688243334BCC
:1035A0001A607047C9B2002905D0314A1268024337
:1035B0002F4B1A6004E02E4A126882432C4B1A608B
:1035C0007047C9B2002905D02A4A12680243294B24
:1035D0001A6004E0274A12688243264B1A6070473B
:1035E000C9B2002905D0244A12680243224B1A604E
:1035F00004E0214A126882431F4B1A60704710B4DE
:1036000002000023002400201100C9B24909C9B2F8
:103610000B00012B03D10B4909680C0002E0114992
:1036200009680C00D2B212F01F010B002100D94032
:10363000C90702D50121080001E000210800C0B23D
:1036400010BC70470038024008380240043802407D
:10365000000047420024F40000127A000400002019
:1036600010000020343802401C380240203802404C
:10367000243802401438024018380240F0B40022C6
:1036800000230024002500263200102A46D20126FD
:10369000964033000E681E4034009C423CD10668C0
:1036A000350003261700FFB27F00BE40B5430E79F8
:1036B0001700FFB27F00BE40354305600E79012E32
:1036C00002D00E79022E18D1866835000326170025
:1036D000FFB27F00BE40B5434E791700FFB27F00B6
:1036E000BE40354385608688350001269640B54347
:1036F0008E799640B6B235438580C668350003267C
:103700001700FFB27F00BE40B543CE791700FFB26D
:103710007F00BE403543C560521CB6E7F0BC704721
:1037200001837047F0B400230024D2B211F00705E2
:10373000EDB2AD0012FA05F52B0089B2CD1010EBF9
:10374000850589B2CE1010EB8606366A0F2711F078
:10375000070C5FFA8CFC5FEA8C0C17FA0CF7BE437F
:103760002E6289B2CD1010EB85052D6A1D432C0009
:1037700089B2CD1010EB85052C62F0BC70470000BB
:103780001648006810F44070704730B400220F23D0
:1037900011F00304E4B2A400A3401A00104BC9B214
:1037A0008C1053F8243093430D4CC9B28D1044F85B
:1037B00025300B4BC9B28C1053F82430C0B211F035
:1037C0000304E4B2A40010FA04F42343044CC9B285
:1037D0008D1044F8253030BC7047000000000140D7
:1037E000080001400021294A11008279002A36D0C0
:1037F000264A126803689A43244B1A60244A1268C6
:1038000003689A43224B1A60027951180A680368C8
:103810001A430A601F4A126803689A431D4B1A60D4
:103820001D4A126803689A431B4B1A604279102A9A
:103830000CD1184A126803681A43164B1A60164ACC
:10384000126803681A43144B1A600EE00F4A110005
:10385000427951180A6803681A430A6005E0027940
:1038600051180A6803689A430A60704701000020F3
:103870000A4A12680A4202D00122100001E0002226
:103880001000C0B27047054908607047000401404D
:1038900004040140080401400C04014014040140E8
:1038A0001C4901431C4A1160704770B40023002179
:1038B0000F22C478002C21D0174C246814F4E06443
:1038C000D4F5E064240A2300D3F104042100D2B229
:1038D0001A4144788C4023008478144023431B0110
:1038E0000E4C05782B550124057815F01F05AC40CA
:1038F0000B4D0678761145F8264009E0012405783D
:1039000015F01F05AC40074D0678761145F82640A6
:1039100070BC70470000FA050CED00E000E400E028
:1039200000E100E080E100E0FF2212EAD05C1DBF70
:1039300012EAD153944593422BE09C44D30780EA8A
:1039400001021A4043EA002043EA0121A1FB0030B2
:10395000410038BF40007CF17F010BDBFE294ADAD1
:103960005B0842EAC15153EA006373F1004C51EB2A
:1039700010207047D1F1080CDCF120012FDB5B082F
:1039800010FA01F10B4373F1004120FA0CF05041A1
:10399000704794451CBF02EAD153934280EA01026A
:1039A00002F000421DD0400019D0490017D05BB989
:1039B000634514D00902B1FA81F39940BCEB030CC2
:1039C000C00140F00040C1E70002B0FA80FC10FAEC
:1039D0000CF0B3EB0C0CC90141F00041B6E710004C
:1039E000704740000AD0490008D010F1807F94BF92
:1039F00011F1807F02E042F0FF407047D0437047F2
:103A000040000DD2010E7F390AD4D1F11F0104D438
:103A1000C00140F00040C84070477FF00000704790
:103A200000207047000000002DE9FF4D86B0DDE961
:103A30000801CDE904010798C0F30A5040F2FF7174
:103A4000884208D107980027000305BF0698002880
:103A50000224012412E0012807DA06A8FDF76BFB17
:103A6000012802DB0027002408E0079A40F2FE311B
:103A700061F31E520792471A4FF0FF34002104A849
:103A800000F042FC0546129810B1129900200880FF
:103A900035B9DDE908230020002100F073FC11D0C6
:103AA000002C11D53FB2012F13D1DDE906230020F0
:103AB000CA4900F067FC05D0012D0AD1C84900F0C1
:103AC00061FC2ED1C749BBE1022C04D1DDE906011E
:103AD000B6E1012D59DB022D08BFDDE9080100F038
:103AE000AF81012C1BD107980028099802D4002827
:103AF00048D532E0002809D4002D43D14FF0FF31E2
:103B000004A800F001FC00283CD538E02DBB4FF0A4
:103B1000FF3104A800F0F8FB00281ED519E0012DA4
:103B200009D1099800283FB202D4012F2ADA14E003
:103B3000012F12DA26E00998002811D46DB94FF050
:103B4000FF3104A800F0E0FB002844BF07980028DC
:103B500003D500204FF0004172E1002000216FE109
:103B600000F020FC2221016065B94FF0FF3104A86C
:103B700000F0CAFB002844BF0798002802D50020A7
:103B800099495DE1002099495AE10798002848BF0A
:103B9000002D08D500F006FC212101604FF0FF3018
:103BA0006FF000414CE1DDE9060100220023FDF742
:103BB000FBFA38BFADF804200AD381F00041CDE90B
:103BC00006014FF0FF3104A800F09EFBADF80400A1
:103BD000012F13D1DDE90601854A864BFDF7CCFAAA
:103BE0000CD2DDE9062300204FF08041FDF77EFC7A
:103BF000CDE90601002600247A4D1BE0DDE906230D
:103C000000207D49754DFDF771FC00222B46FDF724
:103C1000ABFEFDF767FBA0F120063046FDF78EFBFB
:103C20000022764BFDF762FC00222B46FDF79CFE3E
:103C300004460D460FF2202000EB4610009022466D
:103C4000DDE906012B46FDF791FB82468B46DDE957
:103C5000060122462B46FDF787FE02460B465046DC
:103C60005946FDF715FDCDE90401DDE90423FDF713
:103C70003DFCCDE906AB0646884600F099FB32468E
:103C80004346FDF733FCDDE90623FDF76FFB0646EF
:103C900088460020534922462B46FDF767FB002249
:103CA0004FF08043FDF722FC32464346FDF75CFEB1
:103CB000DDE90423FDF71AFC02460B46DDE90601A7
:103CC000FDF752FE04460D464D4A4E4BFDF7E0FC13
:103CD000CDE904013846FDF731FB009A07468B46D3
:103CE000D2E900013A465B46FDF73EFEDDE90423DA
:103CF000FDF73AFECDE90401DDE90823FDF7F6FB07
:103D0000CDE902010022404BFDF736FAC0F0808079
:103D100001223E4BFDF748FA40F27E80002200234C
:103D2000FDF72AFADDE9022339BF00202C490020E3
:103D30002A49FDF719FEFDF7D5FA0646DDE9080127
:103D400022462B46FDF7D2FBCDE90201009A2C4C0E
:103D50002C4DD2E902019046D8E90423FDF704FE78
:103D6000DDE90823FDF7C2FB22462B46FDF7BEFB2B
:103D7000DDE90223FDF7F8FDCDE90201DDF8008061
:103D80003A46D8E900015B46FDF7EEFDDDE9082380
:103D9000FDF7ACFB07468B463046FDF7CFFA0246EF
:103DA0000B4638465946FDF7E1FA22462B46FDF709
:103DB0009DFBDDE90223FDF7D7FDCDE90201129855
:103DC00008B10680002600960022064B02A800F0EB
:103DD00045FBE8B101281FD02AE000BF0000E03F0A
:103DE0000000E0BF0000F03F0000F0FF0000F07FA7
:103DF000CD3B7F669EA0E63F000050400000903F14
:103E0000EF39FAFE422EE63F0000E0C00000E0403D
:103E10000020CDE9020007E00020014902E000BFD8
:103E20000000F07FCDE9020100F0BCFA2221016020
:103E3000BDF904000028DDE9020118BF81F000414E
:103E40000AB0BDE8F08D10B582B000240094FFF7F1
:103E5000EBFD1CBD00000000000000000000F0BFF2
:103E60000000000000000080000000000000008052
:103E70000000000000000000000000C05294EEBFEF
:103E800000000048204E51BE000000F86467BCBC32
:103E90000000000000000000000000208133EDBFA2
:103EA00000000080B3DB14BE000000506706A3BC16
:103EB0000000000000000000000000D0E9DCEBBFC3
:103EC00000000008C39259BE00000080B0D3B8BC07
:103ED000000000000000000000000070F98FEABF41
:103EE000000000C0A51028BE000000E8BFC0B0BCA4
:103EF000000000000000000000000070284CE9BF36
:103F000000000060134B42BE000000C03D20B8BC62
:103F1000000000000000000000000050FA10E8BFA0
:103F2000000000C05FF62BBE000000905C71A7BCD3
:103F3000000000000000000000000020FCDDE6BFE3
:103F4000000000C0F8F154BE00000018E9F6B9BC4A
:103F50000000000000000000000000D0C3B2E5BF78
:103F600000000070E43254BE00000050DB06B4BC18
:103F7000000000000000000000000010EF8EE4BF11
:103F800000000020F36252BE000000C02A879ABCE5
:103F90000000000000000000000000B02272E3BF3B
:103FA000000000F0E8E056BE00000028352DBDBC42
:103FB0000000000000000000000000000A5CE2BFFA
:103FC000000000B0FA8E41BE00000040AE6FBDBCE4
:103FD000000000000000000000000000564CE1BF9F
:103FE000000000F015CD5FBE00000000141C90BC66
:103FF000000000000000000000000040BD42E0BFE3
:1040000000000030F93457BE000000E06C1E93BC85
:104010000000000000000000000000E0F57DDEBFB1
:10402000000000B08A535EBE00000080DA77AABCB0
:104030000000000000000000000000C09D81DCBF07
:1040400000000000FFA226BE0000006057E2B0BCE6
:10405000000000000000000000000060F98FDABFDF
:10406000000000580A8151BE000000F05F60B8BC3B
:1040700000000000000000000000000098A8D8BF69
:10408000000000607A7F45BE000000D05433A3BC1E
:104090000000000000000000000000600FCBD6BF51
:1040A000000000D091CB40BE000000406D1BA0BCC2
:1040B0000000000000000000000000A0FBF6D4BFDC
:1040C00000000098C5CE52BE000000003A397EBC08
:1040D0000000000000000000000000E0FE2BD3BF45
:1040E0000000004073872BBE00000000926879BC7E
:1040F000000000000000000000000040C069D1BFC7
:1041000000000058F16353BE00000080438D7CBC6A
:10411000000000000000000000000080D85FCFBF5A
:10412000000000181F8354BE000000B03F42A2BC34
:1041300000000000000000000000008067FCCBBF12
:1041400000000060FAFF53BE00000050E00DB8BC54
:1041500000000000000000000000000098A8C8BF98
:10416000000000607A7F35BE000000C0543393BC6D
:10417000000000000000000000000000DC63C5BF7C
:1041800000000058D6FF54BE00000000396490BC07
:104190000000000000000000000000C0AD2DC2BF04
:1041A00000000080A45915BE000000E0484BABBCE5
:1041B0000000000000000000000000801A0BBEBFDD
:1041C00000000050BF3C5ABE000000A0B364B6BC63
:1041D00000000000000000000000008004D6B7BF0F
:1041E00000000040BBCF36BE0000008076CEA8BCE9
:1041F00000000000000000000000008032BBB1BFE2
:10420000000000402A0043BE00000028C60CBDBCD0
:104210000000000000000000000000009473A7BF31
:10422000000000182B3B59BE000000C0E55DA5BC96
:10423000000000000000000000000000EE4397BFF7
:10424000000000A0E6C340BE00000020958DB5BC74
:1042500000000000000000000000000000000080DE
:10426000000000000000008000000000000000804E
:1042700000000000000000004FEAF17CBCF1E04CBF
:104280002CBFBCF5001F11E05FEA4C0C34BFBCF141
:104290007F5F2EE05FEA9C0C4FEA0C1C4FEA3C0C5F
:1042A000C10071F100414CEB50707047C90241EA06
:1042B0005051C00218BF41F0010141F000414FEAE6
:1042C0006C50C0F10900212810D240EACC7CCCF11E
:1042D000200C11FA0CF070F10040CCF1200C21FA06
:1042E0000CF00CF0004C40EB0C0070474FEACC7027
:1042F0007047490011F5001F04D84FEACC10FF3079
:10430000C0057047C81770474268C2F30A5240F2AE
:10431000FF739A4207D14168090303BF0068002870
:1043200001200220704743685B0004BF0368002B34
:1043300025D040F233439A1A521A012A1FDB352A3C
:1043400006DB416801F0004141600021016013E09B
:10435000012102F01F039940491E920607D54268C9
:1043600011404A40426002681143002202E00268A4
:1043700011404A40026011B14FF0FF3070470020F9
:104380007047000090420CD141EA030C50EA4C0CFB
:1043900007D0994205D14FF4001C1CEB410F38BFE8
:1043A000894270470148FDF753BB0000800200209E
:1043B00038B504460D461B481B4922462B46FDF7DF
:1043C00095F81A4A1A4BFDF7CFFA22462B46FDF70D
:1043D0008DF8184A184BFDF7C7FA22462B46FDF711
:1043E00085F8164A164BFDF7BFFA22462B46FDF715
:1043F0007DF8144A144BFDF7B7FA22462B46FDF719
:1044000075F8124A124BFDF7AFFA22462B46FDF71C
:104410006DF801B0BDE830400E4A0F4BFDF7A4BA6D
:1044200000000000F7DE29BFD8F8C23FF4B3FECC8D
:104430001A99C33F62CB68D96F46C73FC6C912DA23
:10444000C471CC3F4AE98A942449D23FF75F9799D7
:104450009999D93FBC5555555555E53F2DE9F04D36
:10446000804686B0D8E9006714461D463046394676
:1044700000F052F982462046294600F04DF9BAF183
:10448000000F06D500284DD4022806D1C8E9004502
:104490003FE1BAF1020FF7D121E050B90022524BAF
:1044A00030463946FFF76EFF0FD0C8E900450020BF
:1044B0002FE1012815D100224C4B30463946FFF739
:1044C00061FF18BFC8E900454FD1FFF76BFF2121FD
:1044D00001604FF0FF306FF00041C8E90001022099
:1044E00017E1BAF1000F0FD1C8E900450E99404617
:1044F000FCF772FE040018BF012C40F00981FFF7A1
:1045000051FF2221016003E10022374B304639463A
:10451000FFF738FF0DD120462946FCF7E7FFC8E931
:10452000000122E0304639460022314BFCF724FEE0
:104530000AD2002320462946FCF7D8FFC8E900012B
:1045400006B00020BDE8F08D01222A4BFCF72CFEBE
:104550000DD80022244B20462946FCF7C7FFC8E9A6
:104560000001FFF71FFF222101600120D1E0224A54
:10457000224BFCF7BBFF00220023FCF7FDFD34BFFC
:104580001F4B414BFDF7F0F9FCF7ACFE0290FCF736
:10459000D5FE82468B464FF078421A4BFCF7A6FFB9
:1045A00002460B4630463946FCF7E0FE06460F460B
:1045B000154A164B50465946FCF798FF02460B46E3
:1045C00030463946FCF7D2FE6FF00102104BFCF783
:1045D000EBFD06460F461FD800220E4BFCF7CCFD24
:1045E0001AD22046294683E00000F07F0000F0FF49
:1045F00000C89CC000C89C40FE822B654715F73F51
:104600000000E0BF422EE63FF2E4D5BCE7E84B3EB7
:10461000FFFF8FBC0000903C32463B46FCF766FF34
:1046200082468B46194A1A4BFCF760FF194A1A4B0F
:10463000FDF79AF902460B4650465946FCF756FFDD
:10464000CDE90401154A164B50465946FCF74EFF7A
:10465000144A154BFDF788F902460B465046594659
:10466000FCF744FF0022084BFDF77EF902460B469B
:1046700030463946FCF73AFFDDE9042306468B460F
:10468000FDF772F9094F13E00000E03F112E57814A
:10469000A03F503F5843128C8F71BC3F4BE8A5415F
:1046A000B752013F0BBDF3DAE8708C3F0000F03FDA
:1046B00002460B4600203946FDF756F9CDE90001C8
:1046C0003246DDE904015B46FCF750FE02460B462C
:1046D00000203946FDF748F902460B46DDE90001A6
:1046E000FCF7D6FF02460B4620462946FCF7FEFEA5
:1046F000C8E9000102980E9909184046FCF76CFDC4
:10470000040018BF012C03D1FFF74CFE22210160E9
:10471000204606B0BDE8F08DC1F30A5240F2FF73A7
:104720009A420AD012B14FF0FF307047090350EAA5
:10473000113009D06FF001007047090350EA1130C1
:1047400001D00220704701207047000010B582B0F0
:1047500004004FF42040DFF8B41708605FF4003124
:10476000DFF8AC07FEF7A3FD002812D0DFF89C07A6
:104770000068411EDFF8942711600028EED1FEF793
:1047800003FE00208DF8010000208DF80000009845
:10479000FEE00121DFF87807FEF732FD4FF480508C
:1047A000DFF868170860DFF86C17DFF86407FEF7BA
:1047B00062FD002812D1DFF854070068411EDFF8BF
:1047C0004C2711600028EED1FEF7DEFD00208DF8A9
:1047D000010000208DF800000098D9E000223A2165
:1047E000DFF82C07FEF736FD4FF48050DFF81C177A
:1047F0000860DFF82417DFF81807FEF73CFD0028F3
:1048000012D1DFF808070068411EDFF800271160A9
:104810000028EED1FEF7B8FD00208DF80100002041
:104820008DF800000098B3E00121DFF8E406FEF700
:10483000D9FC2100C9B2DFF8D806FEF716FD4FF407
:104840008050DFF8C8160860DFF8D016DFF8C00621
:10485000FEF711FD002812D1DFF8B0060068411EF6
:10486000DFF8A82611600028EED1FEF78DFD0020AC
:104870008DF8010000208DF80000009888E00121EB
:10488000DFF88C06FEF7CAFC0121DFF88406FEF78C
:10489000B7FC4FF48050DFF874160860DFF8741628
:1048A000DFF86C06FEF7E7FC002812D1DFF85C06A3
:1048B0000068411EDFF8542611600028EED1FEF793
:1048C00063FD00208DF8010000208DF800000098A5
:1048D0005EE001223B21DFF83806FEF7BBFC4FF417
:1048E0008050DFF828160860DFF83416DFF820065D
:1048F000FEF7C1FC002812D1DFF810060068411E47
:10490000DFF8082611600028EED1FEF73DFD0020FB
:104910008DF8010000208DF80000009838E000219B
:10492000DFF8EC05FEF788FC4FF48050DFF8DC156B
:104930000860DFF8F015DFF8D805FEF79CFC0028CA
:1049400012D1DFF8C8050068411EDFF8C0251160EC
:104950000028EED1FEF718FD00208DF801000020A0
:104960008DF80000009813E0DFF8A405FEF780FC46
:104970008DF800000121DFF89805FEF74FFC0121BA
:10498000DFF88C05FEF758FC01208DF80100009837
:1049900016BD38B504000D004FF42040DFF86C154B
:1049A00008605FF40031DFF86805FEF780FC00283E
:1049B0000CD0DFF858050068411EDFF85025116063
:1049C0000028EED1FEF7E0FC002089E00121DFF8AD
:1049D0004005FEF715FC4FF48050DFF830150860F5
:1049E000DFF83015DFF82805FEF745FC00280CD16C
:1049F000DFF818050068411EDFF810251160002857
:104A0000EED1FEF7C1FC00206AE000223A21DFF877
:104A10000005FEF71FFC4FF48050DFF8F01408602B
:104A2000DFF8F414DFF8E804FEF725FC00280CD1C9
:104A3000DFF8D8040068411EDFF8D0241160002898
:104A4000EED1FEF7A1FC00204AE00121DFF8C0040E
:104A5000FEF7C8FB2100C9B2DFF8B404FEF705FC7D
:104A60004FF48050DFF8A4140860DFF8B014DFF8CA
:104A7000A004FEF700FC00280CD1DFF890040068C9
:104A8000411EDFF8882411600028EED1FEF77CFC7F
:104A9000002025E02900C9B2DFF87404FEF7E5FB29
:104AA0004FF48050DFF864140860DFF87014DFF80A
:104AB0006004FEF7E0FB00280CD1DFF8500400682A
:104AC000411EDFF8482411600028EED1FEF75CFC9F
:104AD000002005E00121DFF83804FEF79FFB0120EC
:104AE00032BDF0B583B007000C0015004FF4204034
:104AF000DFF8181408605FF40031DFF81404FEF7E3
:104B0000D6FB002813D0DFF804040068411EDFF84C
:104B1000FC2311600028EED1FEF736FC00208DF852
:104B20000600380069460722FCF7CAFA3AE101217B
:104B3000DFF8DC03FEF764FB4FF48050DFF8CC13A2
:104B40000860DFF8D013DFF8C803FEF794FB0028F5
:104B500013D1DFF8B8030068411EDFF8B0231160FD
:104B60000028EED1FEF710FC00208DF8060038007A
:104B700069460722FCF7A4FA14E100223A21DFF883
:104B80009003FEF767FB4FF48050DFF88013086056
:104B9000DFF88413DFF87803FEF76DFB002813D1EC
:104BA000DFF868030068411EDFF860231160002809
:104BB000EED1FEF7E9FB00208DF8060038006946CB
:104BC0000722FCF77DFAEDE00121DFF84403FEF750
:104BD00009FB2100C9B2DFF83803FEF746FB4FF4AA
:104BE0008050DFF828130860DFF83013DFF8200367
:104BF000FEF741FB002813D1DFF810030068411EC7
:104C0000DFF8082311600028EED1FEF7BDFB00207D
:104C10008DF80600380069460722FCF751FAC1E01A
:104C20000121DFF8EC02FEF7F9FA0121DFF8E002DA
:104C3000FEF7E6FA4FF48050DFF8D0120860DFF894
:104C4000D412DFF8CC02FEF716FB002813D1DFF8F0
:104C5000BC020068411EDFF8B42211600028EED1CA
:104C6000FEF792FB00208DF8060038006946072207
:104C7000FCF726FA96E001223B21DFF89402FEF7CA
:104C8000E9FA4FF48050DFF884120860DFF89012E0
:104C9000DFF87C02FEF7EFFA002813D1DFF86C0290
:104CA0000068411EDFF8642211600028EED1FEF793
:104CB0006BFB00208DF80600380069460722FCF7E0
:104CC000FFF96FE000200600F6B2EDB2681E8642E2
:104CD00029DA4FF48050DFF834120860DFF844120C
:104CE000DFF82C02FEF7C7FA002813D1DFF81C0208
:104CF0000068411EDFF8142211600028EED1FEF793
:104D000043FB00208DF80600380069460722FCF7B7
:104D1000D7F947E0DFF8F801FEF7AAFA6946F6B2DC
:104D20007054761CD0E70021DFF8E401FEF784FA26
:104D30004FF48050DFF8D4110860DFF8E811DFF895
:104D4000D001FEF798FA002813D1DFF8C0010068FF
:104D5000411EDFF8B82111600028EED1FEF714FBE8
:104D600000208DF80600380069460722FCF7A8F9F4
:104D700018E0DFF89C01FEF77BFA6946F6B2705442
:104D80000121DFF88C01FEF749FA0121DFF88001EB
:104D9000FEF752FA01208DF8060038006946072216
:104DA000FCF78EF9FEBD38B500250020FFF7CEFCDC
:104DB00000906D1CEDB20B2D01DB002053E09DF83F
:104DC00001000028F1D0DFF86001007850F0080001
:104DD000DFF854110870DFF85001007850F003003C
:104DE000DFF844110870DFF8400101783120FFF747
:104DF000D0FD0400E4B2002C01D1002033E0DFF844
:104E00002C01007810F0EF00DFF820110870DFF8B7
:104E10001C01007810F0F00050F00A00DFF80C11CF
:104E20000870DFF8080101782C20FFF7B2FD0400BC
:104E3000E4B2002C01D1002015E0DFF8F400007886
:104E400050F00800DFF8E8100870DFF8E40001789F
:104E50002D20FFF79EFD0400E4B2002C01D10020BC
:104E600001E02000C0B232BD10B588B004000622B7
:104E700032216846FFF735FE9DF801009DF80010CD
:104E800051EA0020ADF808009DF803009DF80210DB
:104E900051EA0020ADF80A009DF805009DF80410C5
:104EA00051EA0020ADF80C00BDF9080000F044F80C
:104EB0005FF08141FEF738FDDFF8781000F056F81A
:104EC0000490BDF90A0000F037F85FF08141FEF769
:104ED0002BFDDFF8601000F049F80590BDF90C00DB
:104EE00000F02AF85FF08141FEF71EFDDFF8441064
:104EF00000F03CF806909DF806008DF81C0020009C
:104F000004A91022FCF7ECF808B010BD24690020B9
:104F100000540040010003008200070084000700E5
:104F200002000300400003001869002020690020EF
:104F30001C69002000007A44002840F10980F446F2
:104F4000404200F005F850F000406047002800BFE4
:104F50000AD0B0FA80F18840D1F19D01C90502065E
:104F600072F1004241EB10207047000010B5FF23A2
:104F700013EAD0541DBF13EAD1529C429A4239E041
:104F8000A41ADA0780EA0103134042EA012142EA47
:104F90000020421A3CBF641E01EB4202090AB2FB28
:104FA000F1FE01FB1E221202B2FBF1F001FB102206
:104FB0006EF30F201202B2FBF1FE4EEA00207F34A6
:104FC00006DDFE2C24DA53EA500050EBC45010BD2D
:104FD000D4F1020401FB1E2240F08071192C1DDC6B
:104FE00021FA04F0C4F12004A140114371F1004200
:104FF000584110BD9C421ABF03EAD1529A420FE0B9
:1050000080EA010E0EF00043400004D0490016D1A2
:1050100043F0FF4010BD490008BFD343180010BD46
:105020009C4205D1D21AF7D001F00041484010BD92
:105030004A0212BF0846484000F0004010BD4AB97D
:105040000902B1FA81F2914044B1A418C00140F0C4
:1050500000409EE7C90141F0004152420002B0FA0F
:1050600080F4A040141B94E780B500F09DFB00F095
:1050700005F800F0EBFAFCF7CAFDFEE780B5002268
:1050800001210A2000F0E2FBDFF8EC150860DFF8F0
:10509000E8050068002803D1DFF8E00500F0A6FD70
:1050A00001BD38B5002400208DF8000000208DF8E7
:1050B000010000208DF8020000208DF8030000257B
:1050C000694629A000F0A4FD641C9DF800000D288D
:1050D0001DD00DF1010124A000F09AFD641C9DF883
:1050E00001000D2813D00DF102011FA000F090FD6A
:1050F000641C9DF802000D2809D00DF103011AA0CF
:1051000000F086FD641C9DF803000D28D8D1E4B2A0
:10511000022C04D024D3042C11D005D320E09DF818
:105120000000303805001DE09DF800000A219DF8C0
:10513000012001FB0020B0F50470050012E09DF88D
:10514000000064219DF801200A235A4301FB00203E
:105150009DF802100818DFF828150818050001E06E
:1051600000200500280032BD256300002DE9F14F25
:10517000A2B0DFF8100500F039FDDFF80C0500F0F3
:1051800035FDDFF8080500F031FDDFF8040500F01B
:105190002DFDDFF8000500F029FDDFF8FC0400F02C
:1051A00025FDDFF8F80400F021FDDFF8F40400F03D
:1051B0001DFDDFF8F00400F019FDDFF8EC0400F04D
:1051C00015FDDFF8E80400F011FDDFF8E40400F05D
:1051D0000DFDDFF8E00400F009FDDFF8DC0400F06D
:1051E00005FDDFF8D80400F001FDDFF8D40400F07D
:1051F000FDFCDFF8D00400F0F9FCDFF8CC0400F08F
:10520000F5FCDFF8C80400F0F1FCDFF8C414A4A03A
:1052100000F0FEFCDFF8B8040178DFF8B80400F015
:10522000E5FCDFF8AC04007831282BD0322834D0EC
:10523000332835D034283CD0352843D036284AD0BE
:10524000372860D0382868D039286FD0412800F03E
:105250008580422800F09D80432800F0B8804428D3
:1052600000F0E180452800F01D81462800F07B8198
:10527000472800F08281482800F08081492800F00A
:105280009F81B3E1012000F0D9FC4FF47A70FCF764
:1052900088FC002000F0D2FCB7E700F0D6FCB4E7B1
:1052A0000DA800F0D6FC0D99DFF82C0400F09EFC50
:1052B000ABE70CA800F0D3FC0C99DFF8200400F059
:1052C00095FCA2E70BA800F0D0FC0B99DFF81004C6
:1052D00000F08CFC99E71AA800F0CDFCDFF804047C
:1052E00000F084FC00200400E4B20C2C07DA1AA8B9
:1052F000E4B2215CBEA000F079FC641CF4E7BDA020
:1053000000F074FC81E704A800F0BBFC9DF81010CD
:10531000DFF8D40300F06AFC77E70AA800F0B7FCD6
:105320000A99DFF8C80300F061FC6EE700F0B5FCF5
:105330000EA800F0C8FC9DF83C00012809D10E9889
:1053400000F0D6FC02000B00DFF8A40300F04EFCD6
:1053500003E0DFF8A00300F049FC56E714A800F0D2
:10536000EEFC9DF8580001280ED1159800F0C0FC05
:10537000CDE90001149800F0BBFC02000B00DFF83F
:10538000780300F033FC03E0DFF8700300F02EFC3C
:105390003BE710A800F0E0FC9DF84C00012812D17A
:1053A000129800F0A5FCCDE90201119800F0A0FCD4
:1053B000CDE90001109800F09BFC02000B00D048E2
:1053C00000F014FC02E0CF4800F010FC1DE705A837
:1053D00000F037FD9DF81400012820D1CA4800F0E4
:1053E00005FC9DF8151082A000F000FC82A000F0E2
:1053F000FDFB9DF818309DF817209DF81610C34846
:1054000000F0F4FB7CA000F0F1FB9DF81B309DF850
:105410001A209DF81910BE4800F0E8FB02E0BD48D4
:1054200000F0E4FBF1E6BC4800F0E0FBBB4800F014
:10543000DDFBFFF736FE80464146B94800F0D6FB5B
:10544000B84800F0D3FBB84800F0D0FBFFF729FEC6
:1054500005002900B54800F0C9FBB54800F0C6FBBF
:10546000FFF71FFE06003100B24800F0BFFBB24854
:1054700000F0BCFBFFF715FE07003900AF4800F055
:10548000B5FB38000300DBB230000200D2B22800C6
:105490000100C9B24046C0B200F0DEFCB5E600BF74
:1054A00025630000A64800F0A1FB07A800F0E4FC7B
:1054B0009DF8220003909DF8210002909DF82000A5
:1054C00001909DF81F0000909DF81E309DF81D2052
:1054D0009DF81C109B4800F089FB9B4800F086FB60
:1054E000012000F0ABFD022000F0A8FD032000F039
:1054F000A5FD042000F0A2FD052000F09FFD062080
:1055000000F09CFD072000F099FD904800F06EFB34
:1055100001211DA800F0F8FC8D4800F067FB002079
:105520000400E4B2102C07DA1DA8E4B2215C89481B
:1055300000F05CFB641CF4E72EA000F057FB8648EB
:1055400000F054FB854800F0CEFD854800F04EFB8E
:1055500009A800F0EAFD0999824800F047FB25A060
:1055600000F044FB51E60DF1120000F0FDFDBDF826
:1055700012107D4800F03AFB47E646E67B4800F013
:1055800035FB7B4800F032FB7A4800F02FFB7A496C
:1055900038A000F03DFB784801784E4800F026FB2B
:1055A00075480078612808D100F077FB00F07CFB9B
:1055B0007249734800F07CFBFFE700F01FF824E617
:1055C0005FF00A095FF0400A0DF15C0B5246494654
:1055D000584600F0CFFD0A2217A9002000F009FE6E
:1055E0000A2217A9002000F0F8FD0EE60DE60000E3
:1055F000253258000D0A00003A00000010B584B0B2
:1056000000235FF0FF3269461B48006800F0B2F9E2
:105610000400012CF4D19DF80000012806D00228D6
:1056200005D004280FD008280ED00EE0E8E701A826
:1056300000F053FB019800F05BFB02000B005148A7
:1056400000F0D4FADCE7DBE7DAE7D9E700B585B0AC
:1056500000200390002002904B480190042000900D
:1056600000234FF4007249494948FCF7F3F905B0AB
:1056700000BD000025630000286900202491000877
:1056800030EBFFFF8C920008189400082C9400085F
:1056900084910008A0910008BC910008D8910008EE
:1056A000F491000840940008A4920008BC920008FD
:1056B000D492000854940008EC9200086894000802
:1056C0007C94000890940008049300081C93000840
:1056D000886900205C960008A494000810920008D5
:1056E000B894000880950008CC94000890950008B4
:1056F000A0950008E094000874900008B095000898
:1057000044910008F4940008209600082C960008A4
:10571000389600080895000898900008288E000820
:105720003493000864910008A48E00081C950008BA
:10573000BC9000084C930008E090000864930008B7
:10574000C095000824900008D0950008E095000856
:105750002C920008649600087C9300087856341256
:1057600094930008AC930008C49300083095000897
:10577000DC930008449500088969002000007A4401
:1057800000002041589500083C690020449600081C
:105790006D51000800200021080041F28831884244
:1057A00001DA401CF9E7704780B5FFF7F3FF4FF4CB
:1057B0004070FEF775F800F02BFD00F03BFAFDF7A6
:1057C00099FD01F00DF800F0D3FA00F0D5FA01F0E0
:1057D00085F901BD70B504000D002600002E02D130
:1057E000FCF7A1FDFEE7FCF730FE3068F16B326C90
:1057F00002FB010070600020B0633068B060306868
:10580000F16B491E326C02FB0100F0605FF0FF306B
:1058100070645FF0FF30B064002D0BD13069002858
:1058200010D016F11000FCF79FFB01280AD1FCF7FD
:1058300003FE07E016F11000FCF77EFE16F12400CF
:10584000FCF77AFEFCF719FE012070BD2DE9F84344
:1058500004000D0016005FF00009002C02D1FCF7D7
:1058600062FDFEE7002D02D10020804603E005FB2B
:1058700004F0401C804618F14C00FCF7ADFE070018
:10588000002F0DD0002D01D13F6002E017F14C0038
:105890003860FC633D6401213800FFF79BFFB94687
:1058A000B9F1000F02D1FCF73EFDFEE74846BDE826
:1058B000F2832DE9F04704000D0016001F00A246F8
:1058C000BAF1000F02D1FCF72EFDFEE7002D03D147
:1058D000DAF84000002801D1012000E00020C0B229
:1058E000002802D1FCF71FFDFEE7022F03D1DAF8F2
:1058F0003C00012801D1012000E00020C0B20028B6
:1059000002D1FCF710FDFEE7FCF7E4FDFCF70BFD10
:105910008146DAF83800DAF83C10884201D3022FC9
:1059200020D13A002900504600F0C1F8DAF84800CA
:1059300010F1010F0ED1DAF8240000280FD01AF16F
:105940002400FCF711FB002809D0002E07D001200D
:10595000306004E0DAF84800401CCAF84800012032
:10596000804601E0002080464846FCF7E3FC4046C4
:10597000BDE8F0872DE9F74304000D001E00002765
:10598000A146B9F1000F02D1FCF7CDFCFEE7002DD6
:1059900003D1D9F84000002801D1012000E0002007
:1059A000C0B2002802D1FCF7BEFCFEE7FCF74DFDBB
:1059B000D9F8380000282CD0D9F80C0080462900EE
:1059C000484600F0B6F8002E11D1D9F83800401E34
:1059D000C9F83800D9F81000002816D019F11000C5
:1059E000FCF7C2FA012810D1FCF726FD0DE0C9F83A
:1059F0000C80D9F82400002807D019F12400FCF706
:105A0000B3FA002801D0FCF717FDFCF736FD0120A2
:105A10004BE00298002803D1FCF72FFD002044E062
:105A2000002F04D16846FCF7DDFA01200700FCF7DF
:105A300024FDFCF718F9FCF708FDD9F8440010F133
:105A4000010F02D10020C9F84400D9F8480010F134
:105A5000010F02D10020C9F84800FCF70EFD02A991
:105A60006846FCF7D1FA002819D1484600F0AEF894
:105A700000280ED0029919F12400FCF73FFA48469D
:105A800000F06FF8FCF7F7F800288FD1FCF7D4FC92
:105A90008CE7484600F065F8FCF7EDF886E74846E5
:105AA00000F05FF8FCF7E7F80020BDE8FE832DE981
:105AB000F84304000D0016000027206C002832D0A7
:105AC000002E13D1D4F84080D4F808904246290023
:105AD0004846FBF7F5FAA068216C0818A060A0689A
