:020000040800F2
:10000000800B00209D7D0008217E0008237E0008D3
:10001000257E0008277E0008297E000800000000D9
:10002000000000000000000000000000973E0008F3
:100030002B7E000800000000453E0008014000083B
:10004000717E0008757E0008797E00087D7E0008BC
:10005000817E0008857E0008897E00088D7E00086C
:10006000917E0008957E0008997E00089D7E00081C
:10007000A17E0008A57E0008A97E0008AD7E0008CC
:10008000B17E0008B57E0008B97E0008BD7E00087C
:10009000C17E0008C57E0008C97E0008CD7E00082C
:1000A000D17E0008D57E0008D97E0008DD7E0008DC
:1000B000E17E0008E57E0008E97E0008ED7E00088C
:1000C000F17E0008F57E0008F97E0008FD7E00083C
:1000D000017F00080B510008155100081F5100084E
:1000E000117F0008157F0008197F00081D7F000898
:1000F000217F000800000000257F0008297F0008FC
:1001000000000000000000002D7F0008317F000883
:10011000357F0008397F00083D7F0008417F0008D7
:10012000457F00082DE9F04FA1B08046002017461A
:100130001D4602910B900DF1440A6FF000490AE050
:1001400017F8011B0298C0470028029000F0A78210
:100150000B98401C0B90387808B90B98A1E2252821
:10016000EED10020059006900790089009900A9023
:1001700001E040F0010017F8011F2029F9D02329E0
:100180000DD02B2904D02D2906D030290AD00CE01F
:1001900040F0020080B2EEE740F00400FAE740F0E1
:1001A0000800F7E740F01000F4E72A290ED129688B
:1001B000296051F8042B2960002A0D9204D5514280
:1001C00040F004000D9180B27F1C11E000210D91E0
:1001D00009E00D99494505D001EB810302EB43018C
:1001E00030390D917F1C3A78A2F130010A29F0D301
:1001F00039782E2903D04FF0FF310C911DE017F80C
:10020000011F2A2907D1296829607F1C51F8042B76
:1002100029600C9211E000210C9109E00C994945EC
:1002200005D001EB810302EB430130390C917F1CB7
:100230003A78A2F130010A29F0D3ADF838000FF670
:100240005840397800F070FE08B117F8010B8DF8AE
:100250003A009DF83A00682802BF39786829622080
:1002600005D06C2804BF38786C2803D171208DF834
:100270003A007F1C11A8049017F8014BB4F1250037
:1002800029D01C3800F0C280001F022840F2BE8036
:10029000133800F0E380093800F0B880801E00F0C9
:1002A0004A81401E00F02381401E022840F2AE80A9
:1002B000001F00F01C81401F79D0401E00F0CE804E
:1002C000401E24D0C01E0BD0801E00F0C780C01E70
:1002D00000F0C48039E125208DF8440001203DE183
:1002E0002868286050F8046B286003960C9C002C4A
:1002F00004D5304600F024FE044606E022460021E4
:10030000304600F039FE00B1841B069427E12968CD
:1003100029603C2451F8040B29600021CDE900013B
:1003200011A80390DDE90001049E11B908B90C9AE7
:10033000B2B10206120FA0EB02123032D2B2631E2B
:100340003A2AA8BF273200099A5540EA01700909E4
:1003500008BF00281C4603D0039AA3199A42E8D389
:10036000A0190390C4F13C010C980691814209DA6E
:10037000401A08904FF6EF71BDF838000840ADF80C
:100380003800ECE0002840F1EA809DF8380000F0E9
:100390001400102840F0E3800D98059A801A089AFE
:1003A000801A441A012CC0F2DA800894D7E09DF834
:1003B0003A0062281AD0682806D06A280CD06C2827
:1003C0001CD0712808D019E02868286050F8041B58
:1003D00028600B980880C2E02868286050F8042B39
:1003E00028600B98C117C2E90001B8E028682860AE
:1003F00050F8041B28600B980870B0E0286828604B
:1004000050F8041B28600B980860A8E02868C01DFD
:1004100020F007022A60D2E9000108322A60CDE903
:100420000001002902D505982D210AE0BDF8380009
:10043000810702D505982B2103E0C00705D5059853
:10044000202100F80A10401C059011A805990818F1
:1004500003902146684600F0E1F980E09DF83A00FB
:100460006C280DD0712818BF6A2809D12868C01DD2
:1004700020F007022A60D2E9000108322A6005E074
:100480002968296051F8040B29600021CDE9000199
:100490009DF83A00682803D1DDE9000180B20BE045
:1004A000622803D1DDE90001C0B205E0742818BF5D
:1004B0007A2804D1DDE900010021CDE900019DF891
:1004C000380000072ED5DDE90001002908BF00280B
:1004D00028D044F02000782824D10598302100F855
:1004E0000A10401C411C059100F80A401AE09DF8D2
:1004F0003A00294600F0D8F8CDE90001002902DAD7
:1005000005982D210AE0BDF83800810702D505982D
:100510002B2103E0C00705D50598202100F80A101B
:10052000401C059011A805990818039021466846BB
:1005300000F0F1F813E0012005902868286050F8D9
:10054000041B28608DF8441009E025208DF8440034
:10055000012005901CB18AF80140022005900D98F9
:100560000599401A0899401A0699401A0999401AA3
:100570000799401A0A99441A9DF83800400710D488
:100580002020012C8DF840000BDB2646012310AA09
:100590006946404600F069FC002840F08080761EE5
:1005A000F4D1DDF814B0BBF1000F11AE0CD016F889
:1005B000011B0298C0470028029070D00B98401C85
:1005C000BBF1010B0B90F2D130208DF84000089E5A
:1005D000012E09DB012310AA6946404600F045FCC4
:1005E00000285CD1761EF5D1DDF818B0039EBBF172
:1005F000000F0CD016F8011B0298C047002802908B
:100600004DD00B98401CBBF1010B0B90F2D1302068
:100610008DF84000099E012E09DB012310AA6946CE
:10062000404600F022FC002839D1761EF5D103980F
:100630000699DDF81CB00E18BBF1000F0BD016F8B0
:10064000011B0298C047029048B30B98401CBBF1B5
:10065000010B0B90F3D130208DF840000A9E012E43
:1006600008DB012310AA6946404600F0FEFBB0B942
:10067000761EF6D19DF8380040077FF56CAD20203E
:10068000012C8DF84000FFF666AD012310AA6946E3
:10069000404600F0EAFB10B9641EF6D15BE54FF06E
:1006A000FF3021B0BDE8F08F622826D068281DD029
:1006B0006A2808D06C2827D0712804D0742823D049
:1006C0007A280CD020E00868C01D20F007000860E0
:1006D000D0E90023083008601946104670470A68C0
:1006E0000A6052F8040B0A60002170470A680A6029
:1006F00052F8040B0A6000B20BE00A680A6052F874
:10070000040B0A6040B204E00A680A6052F8040B65
:100710000A60C11770472DE9FA4E05460A462F694F
:100720006F2A08BF082405D041F02000782814BFA4
:100730000A2410243C26D5E90001642A18BF692A3E
:1007400081468A4605D1002903DAD9F100096AEB0E
:100750004A0ABAF1000F08BFB9F1000F0CD1286B9B
:1007600050B9082C36D195F83800000732D5302022
:100770003B2687F83B002DE0E317484651462246CA
:1007800000F026FCA4FB0023A9EB02023032D2B217
:10079000A6F1010B3A2A5E4603DB9DF80030513B7F
:1007A0009A180BF8072081465FEA010A08BFB9F1E1
:1007B000000F03D0E868F1198842DDD3082C09D175
:1007C00095F83800000705D5F05D302802D0761E78
:1007D0003020F055C6F13C00A861F119E960296BA1
:1007E000884208DA081A28624FF6EF71288F08400D
:1007F0002887BDE8F38E00290ED595F8381001F052
:100800001401102908D1696B6A69891A2A6A891A40
:100810000E1A012EA8BF2E62BDE8F38E2DE9F24F0D
:1008200004468EB0D4E90001CDE9020104AF9DF881
:10083000380040F0200BBBF1610F0AD0206B00287C
:1008400048BF062004D408BFBBF1670F01D10120C7
:1008500020636168C1F30A5040F2FF7290421CD1DC
:10086000080304BF2068002809D10320A0619DF877
:10087000380061381A2836D30FF2306108E00320BF
:10088000A0619DF8380061381A2829D30FF214614D
:10089000E068032200F014FCBEE1012816DA2046CD
:1008A00000F049FC012811DB00250020BBF1610F9D
:1008B00020D1E168302201F8012B4A1CE2609DF84A
:1008C0003820612A0CBF782258220FE0626840F27B
:1008D000FE3161F31E52451A62604FF0FF30E5E7CA
:1008E0000FF2BC51D4E70FF2C051D1E70A70616931
:1008F000891C616110B90026002584E1BBF1610FFC
:1009000040F09880206B00284CBF2126461CD4E97B
:1009100000ABDDE902010022002300F02DFC36B21D
:100920003ABF8BF00040CDE902A0CDE902AB06F161
:1009300001082D1FB8F1010F8DF810200DF11107DE
:1009400036DBDDE902010022002300F02DFC2FD26E
:100950001C2102A800F040FCDDE9020100F0C2FC0D
:10096000A8F10708B8F1010F814609DB00F0E6FCA9
:1009700002460B46DDE9020100F0F8FCCDE9020178
:10098000F81D072105E009F00F0200F8012D4FEADC
:100990002919B9F1010F01DB491EF4D5491E5CBFCD
:1009A000002200F8012DF9D5C71DB8F1010FC8DAF2
:1009B0000DF11100391AB142B8BF0E4636B23000FF
:1009C0000DF111072FD4884206DA04A9411849789D
:1009D0000829A8BF0F2100DA002104AA821800E02C
:1009E000761E12F80139401E8B42F9D00F2904D12E
:1009F00004A941184A78521C4A70002802D504AF55
:100A0000761C2D1D36B2701E0DD4C1190A783032F5
:100A1000D2B23A2A03DB9DF838303A3B9A18401E8E
:100A200001F80129F2D5206B002840F1EC80701EFE
:100A30002063E8E0DDE902010022002300F09CFBD6
:100A40003CBF81F00041CDE902012DB247F2975041
:100A500068434B49DFF82C9190FBF1F52DB2C5F1BD
:100A6000070ABAF1010F90461CDBDDE902675FEA75
:100A7000CA7007D542464B463046394600F036FD2F
:100A800006460F464046494642464B464FEA6A0AEA
:100A900000F02CFDBAF1000F80468946E7D1CDE980
:100AA000026724E0CAF1000A0026374F14E05FEA2B
:100AB000CA7007D542464B463046394600F016FD0F
:100AC00006460F464046494642464B4600F00EFD5C
:100AD0004FEA6A0A80468946BAF1000FE7D1DDE99C
:100AE000020132463B4600F0D3FDCDE90201BBF1E5
:100AF000660F0CBF05F10A000620216BDFF88C9011
:100B00004618142EA8BF132630208DF810000DF1C2
:100B10001107012E3CDBDDE9020100F0F9FB07F1D2
:100B2000080104220A23B0FBF3F303EB8307A0EBD5
:100B30004700303001F8010C0A20B3FBF0F000EB65
:100B40008007A3EB47033033521E01F8023DE9D181
:100B5000083E012E01F10807DBDBDDE9020100F0B0
:100B6000D7FB00F0F5FB02460B46DDE9020100F081
:100B7000FDFB00224B4600F0B9FCCDE90201CAE7BB
:100B8000A0860100000024400000F03F84D7974178
:100B90000DF11100381A0DF1110702E0401E6D1E13
:100BA0007F1C39783029F9D0BBF1660F02D12DB204
:100BB000691C04E0BBF1650F0CBF01210021226B11
:100BC0008E1836B2B042B8BF064636B231001AD4DB
:100BD000814204DAC85D3528A8BF392000DA302008
:100BE000CA19521E00E0761E12F80139491E8342CE
:100BF000F9D0392802D1C85D401CC855002902D55A
:100C00007F1E761C6D1C2DB29DF83810009533B2F6
:100C10003A46204600F003F80FB0BDE8F08F2DE90A
:100C2000F04786B006468A4690461D4600F079FE9B
:100C3000012D406A376B90F8009002DA01250FF21F
:100C400070284AF02000BDF93840662808BF641CAF
:100C500012D0672876D114F1040F79DBBC4277DA21
:100C600096F83800641C000702D4BD42B8BF2F4676
:100C700024B23F1B48BF002724B2F068B169012CA1
:100C800021DA4A1C30230B54012F03DA96F838106E
:100C9000090702D502F80090521CB261E742B8BFC2
:100CA0007C4224B26142E7197162AF42B8BF3D464F
:100CB000B3692DB2F5612A464146181800F000FAD2
:100CC000781BB062BAE00818A54216DA2A464146F7
:100CD00000F0F6F9B1696918601B012FB16170620B
:100CE00003DA96F83800000705D5F06801F800909F
:100CF000F069401CF061B762A0E02246414600F076
:100D0000DFF9B06920182D1B012F03DA96F838108F
:100D1000090703D5F16800F80190401C2DB2B061BD
:100D2000AF42B8BF3D46F068B3692DB22A4604EB26
:100D30000801181800F0C4F9B0692818B061781BD0
:100D400070627BE0BAF1610F14D14FF0700A16E0C7
:100D5000BD4204DA96F83810090758BF2F467F1EA7
:100D600048BF0027BAF1670F14BF4FF0450A4FF094
:100D7000650A04E0BAF1410F08BF4FF0500AB169AB
:100D8000F0684A1CB261012F18F8013B0B5403DADA
:100D900096F83810090715D5531CB36102F8009076
:100DA000012F0FDB6D1E2DB2AF42B8BF3D462DB2F5
:100DB0002A464146181800F083F9B0692818B06136
:100DC000781B7062F068B1690918200081F800A0F2
:100DD00004D42B20487001F1020804E02D224A704F
:100DE00001F102086442002502AF08E00A226846C9
:100DF00000F0B0FD019807F8010B6D1C009C21B2BA
:100E00000129F3DA022D06DA4AF02000652804BF32
:100E1000302008F8010B4DB9302008F8010B07E02D
:100E20006D1E02A8285C303008F8010B012DF7DA9E
:100E3000F068B1690818A8EB0000F06196F8380076
:100E400000F0140010280DD17069B1690818716A9A
:100E50000818F1690818B16A0818716B8842BCBF9C
:100E6000081A306206B0BDE8F087F8B504460D46B2
:100E700016461F46002077B116F8011BA868A04748
:100E8000A86030B1E86A401CE86200207F1EF3D100
:100E9000F2BD4FF0FF30F2BD686A6C747A4C00000E
:100EA0006E616E004E414E00696E6600494E46000E
:100EB0003000F0B4016844688368091801EB5402FB
:100EC000E40748BF4B440C3091422BD011F8014B42
:100ED00014F0030504BF11F8015BED1C26090F2E69
:100EE00007D111F8016B0F3603E011F8017B03F80D
:100EF000017B6D1EF9D1002EE6D0A40811F8015B2C
:100F000004F00304032C08BF11F8014B05EB042483
:100F10001C1BB51CD8D014F8016B03F8016B6D1EB7
:100F2000F9D1D1E7F0BC70470278C9B28A421AB150
:100F30001CBF10F8012FF9E718BF00207047000010
:100F400000F10103810704D010F8011B89B181076A
:100F5000FAD10268B2F10131914311F0803F04BF30
:100F600050F8042FF6E710F8011B11B110F8011B1F
:100F7000FBE7C01A70470000C9B2830706D0521EB3
:100F800022D310F8013B9942F7D11FE0083A13D35E
:100F900002F1040241EA012141EA014150F8043B17
:100FA000121F21BF4B40A3F1013C2CEA030C1CF0A3
:100FB000803FF3D0C9B2001F083210F8013B521E27
:100FC00028BF91EA030FF8D818BF0120401E7047D0
:100FD0001B4213D1094236D12AB18446B0FBF2F04C
:100FE00002FB10C2704700F0BDBCFCD300220023FE
:100FF00070470B000200002100207047904271EB07
:10100000030CF6D370B5B1FA81F4B3FA83F52C1B57
:10101000A340C4F1200532FA05F63343A2405FF045
:101020000046E64002E05B085FEA3202841A71EB98
:10103000030524BF204629467641F4D302000B0065
:101040003000002170BD012ACFD970B5140C20D01A
:10105000B1FA81F4B2FA82F5C4F120046419B4F152
:101060002006D6D3B2405FF00044F440002502E0F1
:1010700052085FEA3303C61A71EB020E24BF3046F2
:10108000714664416D41F3D302000B00200029003A
:1010900070BD0C46B1FBF2F102FB11452D0445EA8F
:1010A0001045B5FBF2F402FB145580B240EA054549
:1010B000B5FBF2F002FB105240EA044070BD0000A4
:1010C00062B38B0708D0521E11F8013B00F8013BB8
:1010D00000F024808B07F6D1830740F0208000BF0A
:1010E000103A07D330B4B1E83810103AA0E83810FD
:1010F000F9D230BC530724BFB1E80810A0E80810AB
:1011000044BF51F8043B40F8043BD20724BF31F8F8
:10111000022B20F8022B44BF0B7803707047083A6B
:1011200007D3B1E80810083A40F8043B40F804CB74
:10113000F7D25307E4E730B4436803F000420121DB
:101140001B031B0B436004BF0368002B08D10DE099
:101150000368DD0F45EA440444605B000360491EF8
:101160004468E302F4D523031B0B436043681A432E
:101170004260084630BC70474FF4001C1CEB410F26
:1011800094BF1CEB430F09E041EA030C50EA4C0CFE
:1011900052EA0C0C03D2994208BF9042704714BF28
:1011A0008B428242704700004FF4001C1CEB410F41
:1011B00094BF1CEB430F09E041EA030C50EA4C0CCE
:1011C00052EA0C0C03D28B4208BF8242704714BF14
:1011D000994290427047000070B504460D46606821
:1011E000C0F30A5040F2FF71884207D160680003E3
:1011F00004BF2068002817D0022070BD20B9204607
:10120000FFF799FF012866DA012D0FDB40F2FF712D
:10121000091A8D420AD36068002847BF00202F4971
:1012200000202F49C4E90001012070BD4142A942BC
:10123000616806DA6FF31E51401941EA00506060A0
:1012400040E0401E63684519012205F1350062F354
:101250001F53352801F00041636003D36160002013
:10126000206070BD002015F11F0F04DA2068236094
:101270000022203562606A4212D0401E25688041FB
:10128000C2F12003C0439D4045EAD07025686668DE
:10129000D54006FA03F32B4323606368D3406360B1
:1012A00062680A43B0F1004F626003D80DD1207824
:1012B000C0070AD52068401C2060206828B96068F3
:1012C000401C60604FF0FF3070BD6068884204BF12
:1012D00020680028F6D1002070BD00BF0000F0FF9C
:1012E0000000F07FF446400D40EAC120490006D2DC
:1012F00000F014F8004248BF6FF00040604700F073
:101300000DF84FF0004188428CBF084640426047CC
:10131000400D40EAC120490080F00D8040F00040BF
:10132000490DA1F58061491C05D4D1F11F0154BFBD
:10133000C840C01770474FF000007047010040F1EF
:101340000980F446404200F005F851F00041604742
:10135000010000BF09D0B0FA80F18840C91CC1F576
:101360008461090501EBD02140057047F0B44FF0CE
:10137000004591EA030F44BF6B4000F0FFBA00BF85
:10138000841A71EB030604D26E40001BB14112199E
:1013900073414FF4001C1CEB410F34BF7CEB430640
:1013A00084E00C0DA4EB1356362E7DDC012E43DCBD
:1013B00045EAC32343EA525312BFD20292025B08AA
:1013C000240545EAC12141EA5051D2EBC0209941A0
:1013D00025D407D1B0FA80F610FA06F164D00020C7
:1013E000203608E0B1FA81F6B140C6F1200220FAB9
:1013F00002F21143B0404FEAF474B4EB465434F0B7
:1014000001064FEA74040AD8D6F50016760D04F0EA
:101410000044F04061FA06F25040F1404840C00AF2
:1014200040EA415021F0004128BF5FEA500550F1E9
:10143000000044EBD12137E045EAC323DB0A45EA4B
:10144000C121C90AB6F120050EDD42EA0242120CA2
:10145000C5F1200603FA06F6EB4042EA06056D42A6
:10146000984161F100010DE062FA06F5F240554045
:1014700063FA06FC82EA0C02F3405A406D42904146
:1014800061EB030111F4801F05D1641E620502D0D7
:101490006D004041494121F48011430875F100433A
:1014A00050F1000041EB0451F0BC70471CEB410FC0
:1014B00015D223F0004352EA43060BD04FEA4C0CFE
:1014C000BCEB410F04D80C0D661E342EB7DDEBE7E4
:1014D000801A994150EA410608BF0021E4E708BF9D
:1014E0001CEB430F28BF6FF00001DDE7B0B581EAC8
:1014F000030C0CF0004C40F2FF7515EA11541DBFAF
:1015000015EA1357AC42AF4239E0E41923EA4553D8
:1015100043F48013C90241F0004141EA505EC70222
:101520001100A7FB020200284FF00000EEFB012093
:101530004FF00001E3FB072118BF42F00102401801
:1015400000214941E3FB0E01A4F580640F0302D2A0
:1015500052004041494154F101046CDD470872F1E9
:10156000004250F1000051EB0451A1F580115CBF25
:1015700041EA0C01B0BD4CEA05510020B0BD05EABE
:101580001357AC4214BFAF4241E050EA410E1CBFBA
:1015900052EA430E02E061460020B0BD24423C44C2
:1015A0001BD15FEA070EF6D0090302BF01460020F7
:1015B000AEF1140EB1FA81F7AEEB070401FA07FEA3
:1015C0000C37C7F1200100FA07F7C8404EEA000EB9
:1015D00023EA455343F48013A2E733F00043B3FA00
:1015E00083F704BFB2FA82FE77440B3FE41BB7F1E6
:1015F000200E2FBF02FA0EF3BB40C7F1200E22FAD5
:101600000EFE38BF43EA0E03BA40641C82E750EA7C
:10161000410E14BF52EA430E6FF000014FF4001761
:1016200017EB430F8ABF194617EB410FB5E74CEA9A
:1016300005510020B0BDD4F10104B4F120070FDA48
:10164000C4F12007520828BF42F0010210FA07F542
:1016500001FA07F7E1BF2A43E0403843E1400FE0D9
:10166000352C98DCC7F1200452EA400220FA07F238
:1016700018BF42F0010231FA07F0A1400A430021ED
:1016800072F1004250F1000051EB0C01B0BD0000BE
:101690002DE9F04140F2FF7581EA030C0CF0004C9B
:1016A00015EA11541DBF15EA1357AC42AF42E9E0E9
:1016B000BC41C1F31301C3F31303801A994143F4EE
:1016C000801304D2641E4000494180185941C90268
:1016D00041EA5051B1FBF3F603FB1611A2FB06756C
:1016E000D7EBC020A94102D2761E80185941C90209
:1016F00041EA5051B1FBF3FE03FB1E11A2FB0E7534
:10170000D7EBC020A94103D2AEF1010E8018594198
:10171000890241EA9051760546EA8E2EB1FBF3F636
:1017200003FB1611A2FB0675D7EB8020A94102D25C
:10173000761E80185941C90241EA50514EEA060E00
:10174000B1FBF3F603FB1611A2FB0675D7EBC02025
:10175000A94102D2761E80185941C90241EA50516E
:10176000B1FBF3F703FB1711A2FB0735D3EBC02046
:10177000A94167F100070CBF004247F0010766F37B
:10178000D5274FEA1E31B80814F5806414DDBD0773
:1017900075F1004250EB0E5051EB045111F5801FD2
:1017A0005CBF41EA0C01BDE8F0814CF07F6141F083
:1017B000E0410020BDE8F081BD076D0840EA0E5011
:1017C00041F48011D4F10104B4F120060ADAC4F125
:1017D00020060200E04001FA06F3E1401843B2405F
:1017E00015430EE0342C14DCC6F1200445EA400514
:1017F0006D0820FA06F2154321FA06F0A1400D43C8
:10180000002175F1004250F1000051EB0C01BDE8E0
:10181000F08100205FEA0C01BDE8F081CFB9921899
:101820005B41B3FA83F704BFB2FA82F6BF190B3FEC
:10183000B7F120062FBF02FA06F3BB40C7F120061E
:1018400022FA06F638BF3343BA401CB1E419641ECD
:101850002FE77F4231F00041B1FA81F404BFB0FAC2
:1018600080F6A4190B3CB4F120062FBF00FA06F154
:10187000A140C4F1200620FA06F638BF3143A0404B
:101880003C1B16E7AC421ABF05EA1357AF4214E0FF
:1018900050EA41061CBF52EA4306BFE750EA41073F
:1018A000304661461CBF41EA0551BDE8F08152EA6D
:1018B000430C08BFC143BDE8F08100204FF400167F
:1018C00016EB410F98BF16EB430F08BF16EB410F05
:1018D00024BFC14305E016EB430F0CBF61464CEA41
:1018E0000551BDE8F081000080B5134800F0B0F864
:1018F0000FF24C020FF244010160426241600FF2AC
:101900004402826381600FF24402C160016141615F
:1019100081618162C16201634163C26301644164A8
:1019200001BD10B5044800F093F80446206808B9DA
:10193000FFF7DAFF204610BD8402002000000000FF
:101940002E00000066616C7365000000747275659E
:101950000000000091FBF2F303FB1211C0E900311B
:101960007047000070470000F0B44FF0004591EA66
:10197000030C44BF6B40FFF703BD00BF841A71EB3B
:10198000030603D2001BB141121973414FF4001C2E
:101990001CEB410F34BF7CEB430443E00C0DA4EB84
:1019A0001356352E50DC45EAC323DB0A45EAC12134
:1019B000C912B6F120050DDD63FA05F6EB4086EAA3
:1019C0000305124218BF45F00105C01851F100018E
:1019D0000CD213E062FA06F5F2405540F3415A404A
:1019E000B340F3405A408018594107D349085FEA91
:1019F00030005FEA350528BF45F0010501F580118B
:101A0000420875F1004250F1000041EB0451F0BC76
:101A10004FF4001C1CEB410F38BF70470020090D2C
:101A2000090570471CEB410F10D252EA43060BD058
:101A3000BCEB410F05D80C0DAB43661E342EB5DD53
:101A400002E0AB4380185941F0BC7047F0BC7047CE
:101A500070470000000000002DE9FF4D86B0DDE971
:101A60000801CDE904010798C0F30A5040F2FF7164
:101A7000884208D107980027000305BF0698002870
:101A80000224012412E0012807DA06A8FFF753FB1D
:101A9000012802DB0027002408E0079A40F2FE310B
:101AA00061F31E520792471A4FF0FF34002104A839
:101AB00000F0FAFB0546129810B112990020088038
:101AC00035B9DDE908230020002100F02BFC11D0FE
:101AD000002C11D53FB2012F13D1DDE906230020E0
:101AE000CA4900F01FFC05D0012D0AD1C84900F0F9
:101AF00019FC2ED1C749BBE1022C04D1DDE9060156
:101B0000B6E1012D59DB022D08BFDDE9080100F027
:101B1000AF81012C1BD107980028099802D4002816
:101B200048D532E0002809D4002D43D14FF0FF31D1
:101B300004A800F0B9FB00283CD538E02DBB4FF0DD
:101B4000FF3104A800F0B0FB00281ED519E0012DDC
:101B500009D1099800283FB202D4012F2ADA14E0F3
:101B6000012F12DA26E00998002811D46DB94FF040
:101B7000FF3104A800F098FB002844BF0798002814
:101B800003D500204FF0004172E1002000216FE1F9
:101B900000F0D8FB2221016065B94FF0FF3104A8A5
:101BA00000F082FB002844BF0798002802D50020DF
:101BB00099495DE1002099495AE10798002848BFFA
:101BC000002D08D500F0BEFB212101604FF0FF3051
:101BD0006FF000414CE1DDE9060100220023FFF730
:101BE000E3FA38BFADF804200AD381F00041CDE913
:101BF00006014FF0FF3104A800F056FBADF80400D9
:101C0000012F13D1DDE90601854A864BFFF7B4FAAF
:101C10000CD2DDE9062300204FF08041FFF766FC7F
:101C2000CDE90601002600247A4D1BE0DDE90623FC
:101C300000207D49754DFFF759FC00222B46FFF728
:101C400093FEFFF74FFBA0F120063046FFF776FB2F
:101C50000022764BFFF74AFC00222B46FFF784FE5A
:101C600004460D460FF2202000EB4610009022465D
:101C7000DDE906012B46FFF779FB82468B46DDE95D
:101C8000060122462B46FFF76FFE02460B465046E2
:101C90005946FFF7FDFCCDE90401DDE90423FFF718
:101CA00025FCCDE906AB0646884600F051FB3246DE
:101CB0004346FFF71BFCDDE90623FFF757FB06460B
:101CC00088460020534922462B46FFF74FFB00224F
:101CD0004FF08043FFF70AFC32464346FFF744FECD
:101CE000DDE90423FFF702FC02460B46DDE90601AD
:101CF000FFF73AFE04460D464D4A4E4BFFF7C8FC2F
:101D0000CDE904013846FFF719FB009A07468B46D8
:101D1000D2E900013A465B46FFF726FEDDE90423DF
:101D2000FFF722FECDE90401DDE90823FFF7DEFB22
:101D3000CDE902010022404BFFF71EFAC0F080807F
:101D400001223E4BFFF730FA40F27E800022002352
:101D5000FFF712FADDE9022339BF00202C490020E9
:101D60002A49FFF701FEFFF7BDFA0646DDE9080143
:101D700022462B46FFF7BAFBCDE90201009A2C4C14
:101D80002C4DD2E902019046D8E90423FFF7ECFD7F
:101D9000DDE90823FFF7AAFB22462B46FFF7A6FB47
:101DA000DDE90223FFF7E0FDCDE90201DDF8008067
:101DB0003A46D8E900015B46FFF7D6FDDDE9082386
:101DC000FFF794FB07468B463046FFF7B7FA02460B
:101DD0000B4638465946FFF7C9FA22462B46FFF70D
:101DE00085FBDDE90223FFF7BFFDCDE90201129873
:101DF00008B10680002600960022064B02A800F0DB
:101E0000FDFAE8B101281FD02AE000BF0000E03F42
:101E10000000E0BF0000F03F0000F0FF0000F07F96
:101E2000CD3B7F669EA0E63F000050400000903F03
:101E3000EF39FAFE422EE63F0000E0C00000E0402D
:101E40000020CDE9020007E00020014902E000BFC8
:101E50000000F07FCDE9020100F074FA2221016058
:101E6000BDF904000028DDE9020118BF81F000413E
:101E70000AB0BDE8F08D10B582B000240094FFF7E1
:101E8000EBFD1CBD00000000000000000000F0BFE2
:101E90000000000000000080000000000000008042
:101EA0000000000000000000000000C05294EEBFDF
:101EB00000000048204E51BE000000F86467BCBC22
:101EC0000000000000000000000000208133EDBF92
:101ED00000000080B3DB14BE000000506706A3BC06
:101EE0000000000000000000000000D0E9DCEBBFB3
:101EF00000000008C39259BE00000080B0D3B8BCF7
:101F0000000000000000000000000070F98FEABF30
:101F1000000000C0A51028BE000000E8BFC0B0BC93
:101F2000000000000000000000000070284CE9BF25
:101F300000000060134B42BE000000C03D20B8BC52
:101F4000000000000000000000000050FA10E8BF90
:101F5000000000C05FF62BBE000000905C71A7BCC3
:101F6000000000000000000000000020FCDDE6BFD3
:101F7000000000C0F8F154BE00000018E9F6B9BC3A
:101F80000000000000000000000000D0C3B2E5BF68
:101F900000000070E43254BE00000050DB06B4BC08
:101FA000000000000000000000000010EF8EE4BF01
:101FB00000000020F36252BE000000C02A879ABCD5
:101FC0000000000000000000000000B02272E3BF2B
:101FD000000000F0E8E056BE00000028352DBDBC32
:101FE0000000000000000000000000000A5CE2BFEA
:101FF000000000B0FA8E41BE00000040AE6FBDBCD4
:10200000000000000000000000000000564CE1BF8E
:10201000000000F015CD5FBE00000000141C90BC55
:10202000000000000000000000000040BD42E0BFD2
:1020300000000030F93457BE000000E06C1E93BC75
:102040000000000000000000000000E0F57DDEBFA1
:10205000000000B08A535EBE00000080DA77AABCA0
:102060000000000000000000000000C09D81DCBFF7
:1020700000000000FFA226BE0000006057E2B0BCD6
:10208000000000000000000000000060F98FDABFCF
:10209000000000580A8151BE000000F05F60B8BC2B
:1020A00000000000000000000000000098A8D8BF59
:1020B000000000607A7F45BE000000D05433A3BC0E
:1020C0000000000000000000000000600FCBD6BF41
:1020D000000000D091CB40BE000000406D1BA0BCB2
:1020E0000000000000000000000000A0FBF6D4BFCC
:1020F00000000098C5CE52BE000000003A397EBCF8
:102100000000000000000000000000E0FE2BD3BF34
:102110000000004073872BBE00000000926879BC6D
:10212000000000000000000000000040C069D1BFB6
:1021300000000058F16353BE00000080438D7CBC5A
:10214000000000000000000000000080D85FCFBF4A
:10215000000000181F8354BE000000B03F42A2BC24
:1021600000000000000000000000008067FCCBBF02
:1021700000000060FAFF53BE00000050E00DB8BC44
:1021800000000000000000000000000098A8C8BF88
:10219000000000607A7F35BE000000C0543393BC5D
:1021A000000000000000000000000000DC63C5BF6C
:1021B00000000058D6FF54BE00000000396490BCF7
:1021C0000000000000000000000000C0AD2DC2BFF4
:1021D00000000080A45915BE000000E0484BABBCD5
:1021E0000000000000000000000000801A0BBEBFCD
:1021F00000000050BF3C5ABE000000A0B364B6BC53
:1022000000000000000000000000008004D6B7BFFE
:1022100000000040BBCF36BE0000008076CEA8BCD8
:1022200000000000000000000000008032BBB1BFD1
:10223000000000402A0043BE00000028C60CBDBCC0
:102240000000000000000000000000009473A7BF21
:10225000000000182B3B59BE000000C0E55DA5BC86
:10226000000000000000000000000000EE4397BFE7
:10227000000000A0E6C340BE00000020958DB5BC64
:1022800000000000000000000000000000000080CE
:10229000000000000000008000000000000000803E
:1022A00000000000000000004268C2F30A5240F241
:1022B000FF739A4207D14168090303BF00680028F1
:1022C00001200220704743685B0004BF0368002BB5
:1022D00025D040F233439A1A521A012A1FDB352ABD
:1022E00006DB416801F0004141600021016013E01C
:1022F000012102F01F039940491E920607D542684A
:1023000011404A40426002681143002202E0026824
:1023100011404A40026011B14FF0FF307047002079
:102320007047000090420CD141EA030C50EA4C0C7B
:1023300007D0994205D14FF4001C1CEB410F38BF68
:10234000894270470148FFF783BB000080020020EC
:1023500038B504460D461B481B4922462B46FFF75D
:10236000C5F81A4A1A4BFFF7FFFA22462B46FFF729
:10237000BDF8184A184BFFF7F7FA22462B46FFF72D
:10238000B5F8164A164BFFF7EFFA22462B46FFF731
:10239000ADF8144A144BFFF7E7FA22462B46FFF735
:1023A000A5F8124A124BFFF7DFFA22462B46FFF739
:1023B0009DF801B0BDE830400E4A0F4BFFF7D4BA8C
:1023C00000000000F7DE29BFD8F8C23FF4B3FECC0E
:1023D0001A99C33F62CB68D96F46C73FC6C912DAA4
:1023E000C471CC3F4AE98A942449D23FF75F979958
:1023F0009999D93FBC5555555555E53F2DE9F04DB7
:10240000804686B0D8E9006714461D4630463946F6
:1024100000F052F982462046294600F04DF9BAF103
:10242000000F06D500284DD4022806D1C8E9004582
:102430003FE1BAF1020FF7D121E050B90022524B2F
:1024400030463946FFF76EFF0FD0C8E9004500203F
:102450002FE1012815D100224C4B30463946FFF7B9
:1024600061FF18BFC8E900454FD1FFF76BFF21217D
:1024700001604FF0FF306FF00041C8E90001022019
:1024800017E1BAF1000F0FD1C8E900450E99404697
:10249000FEF7A2FE040018BF012C40F00981FFF7EF
:1024A00051FF2221016003E10022374B30463946BB
:1024B000FFF738FF0DD120462946FFF717F8C8E986
:1024C000000122E0304639460022314BFEF754FE2F
:1024D0000AD2002320462946FFF708F8C8E9000180
:1024E00006B00020BDE8F08D01222A4BFEF75CFE0D
:1024F0000DD80022244B20462946FEF7F7FFC8E9F5
:102500000001FFF71FFF222101600120D1E0224AD4
:10251000224BFEF7EBFF00220023FEF72DFE34BF17
:102520001F4B414BFFF720FAFEF7DCFE0290FEF74F
:1025300005FF82468B464FF078421A4BFEF7D6FFD6
:1025400002460B4630463946FEF710FF06460F4658
:10255000154A164B50465946FEF7C8FF02460B4631
:1025600030463946FEF702FF6FF00102104BFEF7CE
:102570001BFE06460F461FD800220E4BFEF7FCFD41
:102580001AD22046294683E00000F07F0000F0FFC9
:1025900000C89CC000C89C40FE822B654715F73FD1
:1025A0000000E0BF422EE63FF2E4D5BCE7E84B3E38
:1025B000FFFF8FBC0000903C32463B46FEF796FF83
:1025C00082468B46194A1A4BFEF790FF194A1A4B5E
:1025D000FFF7CAF902460B4650465946FEF786FFFA
:1025E000CDE90401154A164B50465946FEF77EFFC9
:1025F000144A154BFFF7B8F902460B4650465946A8
:10260000FEF774FF0022084BFFF7AEF902460B46B7
:1026100030463946FEF76AFFDDE9042306468B465D
:10262000FFF7A2F9094F13E00000E03F112E578198
:10263000A03F503F5843128C8F71BC3F4BE8A541DF
:10264000B752013F0BBDF3DAE8708C3F0000F03F5A
:1026500002460B4600203946FFF786F9CDE9000116
:102660003246DDE904015B46FEF780FE02460B467A
:1026700000203946FFF778F902460B46DDE90001F4
:10268000FFF706F802460B4620462946FEF72EFFC6
:10269000C8E9000102980E9909184046FEF79CFD12
:1026A000040018BF012C03D1FFF74CFE222101606A
:1026B000204606B0BDE8F08DC1F30A5240F2FF7328
:1026C0009A420AD012B14FF0FF307047090350EA26
:1026D000113009D06FF001007047090350EA113042
:1026E00001D00220704701207047000010B582B071
:1026F00004004FF42040DFF8B41708605FF40031A5
:10270000DFF8AC0700F0E9FC002812D0DFF89C07E6
:102710000068411EDFF8942711600028EED100F018
:1027200049FD00208DF8010000208DF80000009880
:10273000FEE00121DFF8780700F078FC4FF48050CC
:10274000DFF868170860DFF86C17DFF8640700F03F
:10275000A8FC002812D1DFF854070068411EDFF8FA
:102760004C2711600028EED100F024FD00208DF8E8
:10277000010000208DF800000098D9E000223A21E5
:10278000DFF82C0700F07CFC4FF48050DFF81C17BA
:102790000860DFF82417DFF8180700F082FC002833
:1027A00012D1DFF808070068411EDFF8002711602A
:1027B0000028EED100F0FEFC00208DF80100002082
:1027C0008DF800000098B3E00121DFF8E40600F086
:1027D0001FFC2100C9B2DFF8D80600F05CFC4FF402
:1027E0008050DFF8C8160860DFF8D016DFF8C006A2
:1027F00000F057FC002812D1DFF8B0060068411E37
:10280000DFF8A82611600028EED100F0D3FC0020EC
:102810008DF8010000208DF80000009888E001216B
:10282000DFF88C0600F010FC0121DFF8840600F0D0
:10283000FDFB4FF48050DFF874160860DFF8741663
:10284000DFF86C0600F02DFC002812D1DFF85C06E2
:102850000068411EDFF8542611600028EED100F018
:10286000A9FC00208DF8010000208DF800000098E0
:102870005EE001223B21DFF8380600F001FC4FF456
:102880008050DFF828160860DFF83416DFF82006DD
:1028900000F007FC002812D1DFF810060068411E86
:1028A000DFF8082611600028EED100F083FC00203C
:1028B0008DF8010000208DF80000009838E000211C
:1028C000DFF8EC0500F0CEFB4FF48050DFF8DC15AC
:1028D0000860DFF8F015DFF8D80500F0E2FB00280B
:1028E00012D1DFF8C8050068411EDFF8C02511606D
:1028F0000028EED100F05EFC00208DF801000020E1
:102900008DF80000009813E0DFF8A40500F0C6FB86
:102910008DF800000121DFF8980500F095FB0121FA
:10292000DFF88C0500F09EFB01208DF80100009877
:1029300016BD38B504000D004FF42040DFF86C15CB
:1029400008605FF40031DFF8680500F0C6FB00287E
:102950000CD0DFF858050068411EDFF850251160E3
:102960000028EED100F026FC002089E00121DFF8EC
:10297000400500F05BFB4FF48050DFF83015086035
:10298000DFF83015DFF8280500F08BFB00280CD1AC
:10299000DFF818050068411EDFF8102511600028D7
:1029A000EED100F007FC00206AE000223A21DFF8B7
:1029B000000500F065FB4FF48050DFF8F01408606C
:1029C000DFF8F414DFF8E80400F06BFB00280CD10A
:1029D000DFF8D8040068411EDFF8D0241160002819
:1029E000EED100F0E7FB00204AE00121DFF8C0044F
:1029F00000F00EFB2100C9B2DFF8B40400F04BFB7D
:102A00004FF48050DFF8A4140860DFF8B014DFF84A
:102A1000A00400F046FB00280CD1DFF89004006809
:102A2000411EDFF8882411600028EED100F0C2FBBF
:102A3000002025E02900C9B2DFF8740400F02BFB68
:102A40004FF48050DFF864140860DFF87014DFF88A
:102A5000600400F026FB00280CD1DFF85004006869
:102A6000411EDFF8482411600028EED100F0A2FBDF
:102A7000002005E00121DFF8380400F0E5FA01202C
:102A800032BDF0B583B007000C0015004FF42040B4
:102A9000DFF8181408605FF40031DFF8140400F068
:102AA0001CFB002813D0DFF804040068411EDFF887
:102AB000FC2311600028EED100F07CFB00208DF893
:102AC0000600380069460722FEF7FAFA3AE10121CA
:102AD000DFF8DC0300F0AAFA4FF48050DFF8CC13E3
:102AE0000860DFF8D013DFF8C80300F0DAFA002836
:102AF00013D1DFF8B8030068411EDFF8B02311607E
:102B00000028EED100F056FB00208DF806003800BA
:102B100069460722FEF7D4FA14E100223A21DFF8D1
:102B2000900300F0ADFA4FF48050DFF88013086096
:102B3000DFF88413DFF8780300F0B3FA002813D12C
:102B4000DFF868030068411EDFF860231160002889
:102B5000EED100F02FFB00208DF80600380069460A
:102B60000722FEF7ADFAEDE00121DFF8440300F0A3
:102B70004FFA2100C9B2DFF8380300F08CFA4FF4A5
:102B80008050DFF828130860DFF83013DFF82003E7
:102B900000F087FA002813D1DFF810030068411E07
:102BA000DFF8082311600028EED100F003FB0020BD
:102BB0008DF80600380069460722FEF781FAC1E069
:102BC0000121DFF8EC0200F03FFA0121DFF8E0021A
:102BD00000F02CFA4FF48050DFF8D0120860DFF8D4
:102BE000D412DFF8CC0200F05CFA002813D1DFF831
:102BF000BC020068411EDFF8B42211600028EED14B
:102C000000F0D8FA00208DF8060038006946072247
:102C1000FEF756FA96E001223B21DFF8940200F01D
:102C20002FFA4FF48050DFF884120860DFF890121A
:102C3000DFF87C0200F035FA002813D1DFF86C02CF
:102C40000068411EDFF8642211600028EED100F018
:102C5000B1FA00208DF80600380069460722FEF719
:102C60002FFA6FE000200600F6B2EDB2681E864231
:102C700029DA4FF48050DFF834120860DFF844128C
:102C8000DFF82C0200F00DFA002813D1DFF81C0247
:102C90000068411EDFF8142211600028EED100F018
:102CA00089FA00208DF80600380069460722FEF7F1
:102CB00007FA47E0DFF8F80100F0F0F96946F6B2EC
:102CC0007054761CD0E70021DFF8E40100F0CAF967
:102CD0004FF48050DFF8D4110860DFF8E811DFF816
:102CE000D00100F0DEF9002813D1DFF8C001006840
:102CF000411EDFF8B82111600028EED100F05AFA29
:102D000000208DF80600380069460722FEF7D8F942
:102D100018E0DFF89C0100F0C1F96946F6B2705482
:102D20000121DFF88C0100F08FF90121DFF880012B
:102D300000F098F901208DF8060038006946072256
:102D4000FEF7BEF9FEBD38B500250020FFF7CEFC2A
:102D500000906D1CEDB20B2D01DB002053E09DF8BF
:102D600001000028F1D0DFF86001007850F0080081
:102D7000DFF854110870DFF85001007850F00300BC
:102D8000DFF844110870DFF8400101783120FFF7C7
:102D9000D0FD0400E4B2002C01D1002033E0DFF8C4
:102DA0002C01007810F0EF00DFF820110870DFF838
:102DB0001C01007810F0F00050F00A00DFF80C1150
:102DC0000870DFF8080101782C20FFF7B2FD04003D
:102DD000E4B2002C01D1002015E0DFF8F400007807
:102DE00050F00800DFF8E8100870DFF8E400017820
:102DF0002D20FFF79EFD0400E4B2002C01D100203D
:102E000001E02000C0B232BD10B588B00400062237
:102E100032216846FFF735FE9DF801009DF800104D
:102E200051EA0020ADF808009DF803009DF802105B
:102E300051EA0020ADF80A009DF805009DF8041045
:102E400051EA0020ADF80C00BDF9080000F018FAB6
:102E50005FF0814100F02EFADFF8781000F096FA6A
:102E60000490BDF90A0000F00BFA5FF0814100F018
:102E700021FADFF8601000F089FA0590BDF90C0026
:102E800000F0FEF95FF0814100F014FADFF8441021
:102E900000F07CFA06909DF806008DF81C002000DA
:102EA00004A91022FEF71CF908B010BD2469002007
:102EB0000054004001000300820007008400070066
:102EC0000200030040000300186900202069002070
:102ED0001C69002000007A4410B504004848844270
:102EE0000AD101215FF4001000F080FB00215FF4A3
:102EF000001000F07BFB09E001215FF4800000F08E
:102F000075FB00215FF4800000F070FB10BD2DE91F
:102F1000F04385B004000D005FF00009002604278F
:102F2000DFF8E080A08881464FF6C07010EA0909FA
:102F3000684600F0A9FA029880463348B8FBF0F0E2
:102F4000060056EA0909A4F8049020884FF6FE719D
:102F5000084020800020814628682C4988420ED2F3
:102F600028684000B8FBF0F00700BFB2042F01DA78
:102F70000420070057EA0909701C208426E0E8882D
:102F80004BF6FF71884206D1286803214843B8FBFD
:102F9000F0F0070007E0286819214843B8FBF0F07B
:102FA000070057F48047380501D157F0010757F45F
:102FB000004050EA0909B6B24FF4967000FB06F0E3
:102FC0004FF47A7190FBF1F0401C2084A4F81C901F
:102FD000208850F001002080208881464FF6F5308F
:102FE00010EA0909A8886989084350EA0909A4F880
:102FF0000090A88929890843208105B0BDE8F083A5
:103000000054004000127A0040420F00A1860100E7
:10301000C9B2002904D0028852F00102028004E003
:1030200002884FF6FE731A4002807047C9B2002929
:1030300004D0028852F48072028004E002884FF6C5
:10304000FF631A4002807047C9B2002904D0028889
:1030500052F40072028004E002884FF6FF531A40D7
:1030600002807047C9B2002904D0028852F48062FD
:10307000028004E002884FF6FF331A400280704756
:10308000D2B2002A02D051F0010101E011F0FE019C
:10309000C9B201827047C9B201827047008AC0B2CA
:1030A000704770B402000023002400250020968A97
:1030B0003400168B35002D0455EA04063602360A14
:1030C000330011EA03068E4202D10126300001E0EE
:1030D00000263000C0B270BC704782B002000020F1
:1030E000002301930023009300920B0F0193090228
:1030F000090A019B002B03D0009B1433009303E0CB
:10310000090C009B18330093009B1B680B4202D0F4
:103110000123180001E000231800C0B202B070477C
:1031200000B587B001215FF4001000F050FA0121D2
:10313000022000F02EFA042208214E4800F0CEFAB8
:10314000042209214B4800F0C9FA4FF44070009066
:1031500002208DF8040003208DF8050001208DF871
:1031600006006946434800F065FA4348FFF7B4FE9D
:103170000020ADF80C004BF6FF70ADF80E000020FB
:10318000ADF810004FF48060ADF812004FF48040AD
:10319000ADF814003948029001213748FFF738FF95
:1031A00002A93548FFF7B3FE01213348FFF75AFF64
:1031B00007B000BD00B587B04FF44070009001200B
:1031C0008DF8040001208DF8070003208DF805001C
:1031D0006946284800F02EFA4FF44071254800F067
:1031E0007BFA2548008850F4004023490880224893
:1031F00000884004400C204908804FF44070009043
:1032000002208DF8040003208DF8050001208DF8C0
:1032100006006946174800F00DFA042208211548F7
:1032200000F05CFA04220921124800F057FA00204D
:10323000ADF80C004BF6FF70ADF80E000020ADF8B5
:1032400010004FF48060ADF812004FF48040ADF8EC
:1032500014000A48029001210748FFF7D9FE02A98D
:103260000548FFF754FE01210348FFF7FBFE07B0B6
:1032700000BD00000004024000540040A086010090
:10328000002840F10980F446404200F005F850F073
:1032900000406047002800BF0AD0B0FA80F18840A3
:1032A000D1F19D01C905020672F1004241EB1020E7
:1032B00070470000FF2212EAD05C1DBF12EAD15312
:1032C000944593422BE09C44D30780EA01021A40C4
:1032D00043EA002043EA0121A1FB0030410038BF4E
:1032E00040007CF17F010BDBFE294ADA5B0842EAF1
:1032F000C15153EA006373F1004C51EB1020704749
:10330000D1F1080CDCF120012FDB5B0810FA01F190
:103310000B4373F1004120FA0CF050417047944583
:103320001CBF02EAD153934280EA010202F000423C
:103330001DD0400019D0490017D05BB9634514D0A7
:103340000902B1FA81F39940BCEB030CC00140F0D3
:103350000040C1E70002B0FA80FC10FA0CF0B3EBB9
:103360000C0CC90141F00041B6E710007047400065
:103370000AD0490008D010F1807F94BF11F1807FFE
:1033800002E042F0FF407047D043704710B5FF2382
:1033900013EAD0541DBF13EAD1529C429A4239E03D
:1033A000A41ADA0780EA0103134042EA012142EA43
:1033B0000020421A3CBF641E01EB4202090AB2FB24
:1033C000F1FE01FB1E221202B2FBF1F001FB102202
:1033D0006EF30F201202B2FBF1FE4EEA00207F34A2
:1033E00006DDFE2C24DA53EA500050EBC45010BD29
:1033F000D4F1020401FB1E2240F08071192C1DDC67
:1034000021FA04F0C4F12004A140114371F10042FB
:10341000584110BD9C421ABF03EAD1529A420FE0B4
:1034200080EA010E0EF00043400004D0490016D19E
:1034300043F0FF4010BD490008BFD343180010BD42
:103440009C4205D1D21AF7D001F00041484010BD8E
:103450004A0212BF0846484000F0004010BD4AB979
:103460000902B1FA81F2914044B1A418C00140F0C0
:1034700000409EE7C90141F0004152420002B0FA0B
:1034800080F4A040141B94E7F0B400210022002334
:103490000024002500265D4F3F6817F00C07390017
:1034A0000F00002F06D0042F14D0082F15D00C2F9A
:1034B00016D039E0564F3F68C7F342373E00012728
:1034C00016F1010C17FA0CF74FF4004C0CFB07F740
:1034D000076038E04F4F076035E04F4F076032E03C
:1034E0004A4F3F6817F470173A00484F3F6817F487
:1034F00040073B00494F920CD25D9B0D5B1C434F34
:103500003F6817F480373C00002C06D1414F07FB81
:1035100002F7B7FBF3F7076005E03F4F07FB02F741
:10352000B7FBF3F707600EE0394F3F68C7F3423748
:103530003E00012716F1010C17FA0CF74FF4004C6E
:103540000CFB07F70760314F3F6817F0F0073900B1
:103550000909334FCF5D3D000768EF4047602B4FAF
:103560003F6817F4E0673900090A2D4FCF5D3D0031
:103570004768EF408760254F3F6817F46057390070
:10358000C90A274FCF5D3D004768EF40C760F0BCD8
:103590007047C9B2002905D0224A12680243214B64
:1035A0001A6004E01F4A126882431E4B1A6070477B
:1035B000C9B2002905D01C4A126802431A4B1A608E
:1035C00004E0194A12688243174B1A607047C9B267
:1035D000002905D0154A12680243144B1A6004E012
:1035E000124A12688243114B1A607047C9B200290F
:1035F00005D00F4A126802430D4B1A6004E00C4AD2
:10360000126882430A4B1A60704700000838024073
:10361000043802400024F40000127A000400002064
:10362000100000201C38024020380240243802409C
:1036300018380240F0B400220023002400250026A0
:103640003200102A46D20126964033000E681E40F2
:1036500034009C423CD10668350003261700FFB2B7
:103660007F00BE40B5430E791700FFB27F00BE4019
:10367000354305600E79012E02D00E79022E18D145
:103680008668350003261700FFB27F00BE40B543B1
:103690004E791700FFB27F00BE40354385608688B3
:1036A000350001269640B5438E799640B6B2354333
:1036B0008580C668350003261700FFB27F00BE4034
:1036C000B543CE791700FFB27F00BE403543C560D9
:1036D000521CB6E7F0BC704701837047F0B400237A
:1036E0000024D2B211F00705EDB2AD0012FA05F5D3
:1036F0002B0089B2CD1010EB850589B2CE1010EBEE
:103700008606366A0F2711F0070C5FFA8CFC5FEA19
:103710008C0C17FA0CF7BE432E6289B2CD1010EB59
:1037200085052D6A1D432C0089B2CD1010EB85054F
:103730002C62F0BC704700002DE9FA4F83B0040002
:1037400015000E9E0F9FDDF84080DDF844902000AC
:10375000002802D100F095FBFEE7052E02D300F011
:1037600090FBFEE74146280080B200F00AFB82464B
:10377000BAF1000F70D0DAF83000ADB210EB85006E
:10378000001F83465FEADB0B5FEACB0B1BF00700F1
:10379000002802D000F075FBFEE7280080B2009000
:1037A0004B4632000399504600F032FA049A210049
:1037B000584600F091FBCAF80000002F01D0C7F86E
:1037C00000A000F0F0FBDFF818040068401CDFF8F0
:1037D00010140860DFF82C04006800280BD1DFF813
:1037E0002404C0F800A0DFF8F8030068012811D114
:1037F00000F041FA0EE0DFF8EC030068002809D180
:10380000DFF800040068C06A864203D3DFF8F403DF
:10381000C0F800A0DFF8D0030068401CDFF8C81330
:103820000860DFF8E40300680121DAF82C209140F9
:103830000843DFF8D41308601AF10401DFF8CC0361
:10384000DAF82C20142303FB020000F013FC012003
:10385000019000F0C0FB02E05FF0FF3001900198A2
:1038600001280CD1DFF87C030068002807D0DFF8BE
:1038700094030068C06AB04201D200F08BFB01984B
:1038800005B0BDE8F08F70B504000026002C2BD0E9
:10389000DFF868050068002802D000F0F2FAFEE7C1
:1038A00000F053F8DFF88C04006820180500DFF8FA
:1038B00054030068001D00F006FC00280ED1DFF85C
:1038C00044030068DFF8401309680122C06A12FA55
:1038D00000F031EA0000DFF830130860280000F043
:1038E0002BFA00F03AF80600002E01D100F052FB4E
:1038F00070BD1FB5002003900020029000200190B1
:103900000020009000238022DFF8F8140FF2DD2061
:10391000FFF712FF0400012C11D100F0B2FA5FF0A2
:10392000FF30DFF8E41408600120DFF8B812086007
:103930000020DFF8E014086000F0E8FA04E0002C52
:1039400002D100F09EFAFEE71FBDDFF8B004006868
:10395000401CDFF8A8140860704738B50025DFF870
:103960009C040068002802D100F08BFAFEE700F00A
:103970001AFBDFF888040068401EDFF88014086036
:10398000DFF878040068002857D1DFF85402006897
:10399000002852D0DFF87404006800282AD0DFF82D
:1039A0006C04C068C068040014F1180000F08BFBC0
:1039B000201D00F088FBDFF8500200680121E26A58
:1039C00091400843DFF840120860211DDFF83C02F7
:1039D000E26A142303FB020000F04CFBE06ADFF80C
:1039E00024120968C96A8842D4D30120DFF8281458
:1039F0000860CFE7DFF818040068002814D0DFF86B
:103A00001004006800280FD000F01BF8002803D035
:103A10000120DFF804140860DFF8F4030068401E9A
:103A2000DFF8EC130860EAE7DFF8EC030068012830
:103A300003D10120050000F0ADFA00F0CCFA280017
:103A400032BD2DE9F0410026DFF8B0030068002800
:103A500040F08080DFF8DC020068401CDFF8D41200
:103A60000860DFF8D0020768002F1FD1DFF8B0032D
:103A700000680068002802D000F003FAFEE7DFF8D3
:103A8000A00300688046DFF89C030068DFF890130D
:103A90000860DFF89003C0F80080DFF88C0300684E
:103AA000401CDFF88413086000F092F9DFF8580337
:103AB0000068874240D3DFF8680300680068002888
:103AC00005D15FF0FF30DFF84013086034E0DFF825
:103AD00050030068C068C068040060680500AF4219
:103AE00003D2DFF82403056026E0201D00F0EBFA86
:103AF000A06A002803D014F1180000F0E4FADFF8FF
:103B0000080100680121E26A91400843DFF8F810DB
:103B10000860211DDFF8F400E26A142303FB0200B1
:103B200000F0A8FAE06ADFF8DC100968C96A884288
:103B3000C1D301200600BEE7DFF8D0003149096893
:103B4000C96A142202FB01000068022809D301207F
:103B5000060006E0DFF8B8020068401CDFF8B0128B
:103B60000860DFF8B4020068002801D001200600D8
:103B70003000BDE8F08110B5DFF880020068002851
:103B800004D00120DFF89012086028E00020DFF860
:103B9000881208601C480068B0FA80F0D0F11F005D
:103BA00004001A48142101FB04000068002802D117
:103BB00000F067F9FEE71549142202FB0411080022
:103BC000416849684160416810F10802914202D1A0
:103BD0004168496841604068C0680A49086010BD92
:103BE00068690020746900208469002010B5040011
:103BF00000F06DF8DFF8340200680228F8D300F016
:103C0000C9F9F5E758690020706900208067002035
:103C10002DE9F04104000D0016001F000020804631
:103C2000B8F1100F0CD218F8050018EB040181F858
:103C3000340018F80500002802D018F10108EFE759
:103C4000002084F84300052E01D304200600E6621C
:103C5000201D00F00CFA14F1180000F008FA24619D
:103C6000D6F10500A061646200206064002084F841
:103C70004800BDE8F08110B500200400052C08D2F2
:103C8000DFF8A801142101FB040000F0E1F9641C35
:103C9000F4E7DFF89C0100F0DBF9DFF8980100F0B1
:103CA000D7F9DFF8680100F0D3F9DFF88C0100F0F4
:103CB000CFF9534800F0CCF9DFF87401DFF8601158
:103CC0000860DFF87001DFF85C11086010BD38B5DE
:103CD000DFF86801006800282BD0FFF736FEDFF818
:103CE00058010068002801D1012400E00024FFF7FA
:103CF00034FE002CECD100F056F9DFF83C01C0682E
:103D0000C0680500281D00F0DEF9DFF8100100682A
:103D1000401EDFF808110860DFF820010068401E2F
:103D2000DFF81811086000F056F9280000F047F895
:103D3000CEE731BD6C69002010B50400DFF800014A
:103D400000684460DFF8CC000068844209D2DFF8E4
:103D5000F0000068011DDFF8CC00006800F096F963
:103D60000EE0DFF8DC000068011DDFF8B400006839
:103D700000F08CF924480068844201D22248046093
:103D800010BDF8B504000D00002D04D1A4B2A000B0
:103D900000F0AEF900E028000700002F0BD04C2007
:103DA00000F0A6F90600002E01D0376305E03800C8
:103DB00000F01BFA01E0002006003000F2BD10B553
:103DC0000400206B00F011FA200000F00EFA10BD84
:103DD000DFF84C1009680968002904D15FF0FF3151
:103DE000094A116008E0DFF838100968C968C96835
:103DF00008004168044A1160704700008C69002087
:103E0000FC680020407E000888690020D4680020FB
:103E1000786900206C6900207C69002068690020B6
:103E20005C690020606900208069002080670020B4
:103E3000AC680020C0680020E868002064690020A9
:103E400058690020EFF30980BFF36F8F204B1A6889
:103E500020E9F00F106008B54FF0100080F31188D2
:103E6000FFF789FE4FF0000080F31188BDE808409D
:103E700019680868B0E8F00F80F30988BFF36F8F06
:103E80007047EFF311804FF0100181F311887047F4
:103E900080F3118870470E4B19680868B0E8F00F7E
:103EA00080F30988BFF36F8F4FF0000080F3118813
:103EB0004EF00D0E704707480068006880F30888D0
:103EC00062B661B6BFF34F8FBFF36F8F00DF0000A4
:103ED0005869002008ED00E0001F5FF08073036068
:103EE000001F0160001F0FF20D0303601438026011
:103EF0002038704780B54E48006810F1010F02D09D
:103F0000FFF7BFFFFEE7FFF7BCFFFEE700B583B09A
:103F1000484801780191FF21017001788DF8001067
:103F20009DF8001011F01001434A11700721434A17
:103F300011609DF8001009060AD540490968491E1C
:103F40003E4A11609DF8001049008DF80010F0E71E
:103F50003A4909680902394A11603849096811F477
:103F6000E061364A1160019901703548006850F4EB
:103F70007000334908603248006850F070403049A2
:103F8000086000F04CF8002029490860FFF793FF13
:103F900000200EBD5FF080502A490860BFF34F8FAC
:103FA000BFF36F8F704780B5FFF76BFF2048006845
:103FB000401C1F490860BFF34F8FBFF36F8F1C4831
:103FC0000068012806D11F480068000602D0FFF7EC
:103FD00058FFFEE701BD80B515480068002802D1F2
:103FE000FFF74FFFFEE712480068401E10490860C7
:103FF0000F480068002802D10020FFF749FF01BDEB
:1040000080B5FFF73EFFFFF71CFD002803D05FF0EF
:1040100080500C4908600020FFF73AFF01BD40F2D4
:10402000CF70094908600720084908607047000000
:104030000000002000E400E09169002050690020A9
:1040400020ED00E004ED00E014E000E010E000E00E
:1040500010F1080141605FF0FF31816010F108014B
:10406000C16010F108010161002101607047002169
:104070000161704742684A6093688B609368596039
:104080009160086103685B1C0360704710B40B68A3
:1040900013F1010F02D10469220008E010F10804B5
:1040A000220054682468A34201D35268F9E7546897
:1040B0004C604C68A1608A60516008610468641CAF
:1040C000046010BC7047010008698A684B689A60F8
:1040D0004A688B685A6042688A4201D18A684260A5
:1040E00000220A610268521E0260006870470000E8
:1040F0002DE9F04104005FF00008FFF726FC884836
:104100000068002801D100F0A2F886480068044247
:104110005FD1002C10D084480068041914F0070FF8
:104120000AD014F1080014F00701441A14F0070F24
:1041300002D0FFF7A6FEFEE7002C4AD07B480068BD
:10414000A04246D37A4806007948006805006868AE
:10415000A04205D22868002802D02E002D68F6E77C
:104160006F480068854234D030686F490968081884
:104170008046286830606C48006840006968091B08
:1041800088420FD26019070017F00700002802D0FC
:10419000FFF777FEFEE76868001B78606C60380008
:1041A00000F08CF8614800686968401A5F4908604F
:1041B0005E4800685F490968884203D25B4800682E
:1041C0005C490860686857490968084368600020CE
:1041D0002860FFF7C2FB18F00700002802D0FFF7A5
:1041E00050FEFEE74046BDE8F08170B504002600B1
:1041F000002C2BD04C480068361A350068684949B5
:104200000968084202D1FFF73CFEFEE72868002853
:1042100002D0FFF736FEFEE76868424909680842A7
:1042200014D02868002811D168683E49096888437D
:104230006860FFF78AFB3D480068696808183B49D9
:104240000860280000F03AF8FFF787FB70BD30B433
:104250004FF48843384C220012F0070F05D0D21DCE
:10426000D208D2009B1A344CE3181100304C216064
:1042700000242F4D6C605C1822002B4C2468121B0C
:10428000D208D200264C22600024254D2D686C6097
:104290000024234D2D682C600800141A4460204C23
:1042A000246804604468234D2C6044681F4D2C60D2
:1042B0005FF000441B4D2C6030BC704710B41C4BA9
:1042C0001A001368834201D21268FAE7110053689A
:1042D0005B18834204D153684468E31853601000AC
:1042E000010043685B181468A34211D113680C4C99
:1042F0002468A34208D0436814686468E3184360E4
:1043000013681B68036005E0054B1B68036001E050
:1043100013680360824200D0106010BC7047000038
:104320002869002034690020487E00082C6900209C
:104330001069002030690020800B0020F0B583B0A8
:1043400006004FF42040DFF8E81508605FF4003104
:10435000DFF8E005FEF7C1FE002814D0DFF8D00535
:104360000068411EDFF8C82511600028EED1FEF775
:1043700021FF00208DF8040000200090DDE90001FD
:10438000C6E9000174E10121DFF8A805FEF74EFE41
:104390004FF48050DFF898150860DFF89C15DFF8BF
:1043A0009405FEF77EFE002814D1DFF8840500682E
:1043B000411EDFF87C2511600028EED1FEF7FAFEE1
:1043C00000208DF8040000200090DDE90001C6E91E
:1043D00000014DE100228021DFF85805FEF750FE74
:1043E0004FF48050DFF848150860DFF85015DFF80B
:1043F0004405FEF756FE002814D1DFF834050068A6
:10440000411EDFF82C2511600028EED1FEF7D2FE08
:1044100000208DF8040000200090DDE90001C6E9CD
:10442000000125E10121DFF80C05FEF7F1FDF32184
:10443000DFF80005FEF72FFE4FF48050DFF8F01490
:104440000860DFF8FC14DFF8EC04FEF72AFE002811
:1044500014D1DFF8DC040068411EDFF8D4241160B9
:104460000028EED1FEF7A6FE00208DF80400002003
:104470000090DDE90001C6E90001F9E00121DFF863
:10448000B404FEF7E1FD4620FFF7FDF90121DFF856
:10449000A404FEF7CBFD4FF48050DFF894140860BD
:1044A000DFF89414DFF88C04FEF7FBFD002814D12C
:1044B000DFF87C040068411EDFF8742411600028D6
:1044C000EED1FEF777FE00208DF80400002000906A
:1044D000DDE90001C6E90001CAE001228121DFF81F
:1044E0005404FEF7CDFD4FF48050DFF8441408600B
:1044F000DFF85014DFF83C04FEF7D3FD002814D198
:10450000DFF82C040068411EDFF824241160002825
:10451000EED1FEF74FFE00208DF804000020009041
:10452000DDE90001C6E90001A2E04FF48050DFF8A8
:1045300000140860DFF81014DFF8F803FEF7B1FD8F
:10454000002814D1DFF8E8030068411EDFF8E023FB
:1045500011600028EED1FEF72DFE00208DF804003A
:1045600000200090DDE90001C6E9000180E0DFF8ED
:10457000C403FEF793FD04004FF48050DFF8B0133E
:104580000860DFF8C413DFF8AC03FEF78AFD0028EB
:1045900014D1DFF89C030068411EDFF894231160FA
:1045A0000028EED1FEF706FE00208DF80400002062
:1045B0000090DDE90001C6E9000159E0DFF874036D
:1045C000FEF76CFD07000021DFF86803FEF74AFDE7
:1045D0004FF48050DFF858130860DFF86C13DFF8F1
:1045E0005403FEF75EFD002814D1DFF84403006891
:1045F000411EDFF83C2311600028EED1FEF7DAFD02
:1046000000208DF8040000200090DDE90001C6E9DB
:1046100000012DE0C748FEF741FD0121C548FEF726
:1046200013FD0121C348FEF71DFD17F0FC07E4B29E
:10463000FFB257EA04200500ADB22800FEF72AFEBB
:104640005FF08F41FEF7A2FE00F0AEF9BF4AC04B0B
:10465000FCF74CFFBF4AC04BFDF786F900F0CCF9E0
:10466000009001208DF80400DDE90001C6E9000199
:10467000FEBDF0B583B007004FF42040AC490860A0
:104680005FF40031AB48FEF728FD002812D0A8489F
:104690000068411EA64A11600028F1D1FEF78AFD8C
:1046A00000208DF8040000200090DDE90001C7E93A
:1046B00000013CE101219F48FEF7B8FC4FF4805017
:1046C0009B4908609C499B48FEF7EBFC002812D1EF
:1046D00097480068411E964A11600028F2D1FEF703
:1046E00069FD00208DF8040000200090DDE9000144
:1046F000C7E900011BE1002280218E48FEF7C0FCC3
:104700004FF480508A4908608C498A48FEF7C9FCFA
:10471000002812D186480068411E854A1160002891
:10472000F2D1FEF747FD00208DF804000020009034
:10473000DDE90001C7E90001F9E001217D48FEF74C
:1047400067FCF5217B48FEF7A6FC4FF480507849C2
:1047500008607B497748FEF7A4FC002812D1744812
:104760000068411E724A11600028F2D1FEF722FD56
:1047700000208DF8040000200090DDE90001C7E969
:104780000001D4E001216B48FEF75EFC1E20FFF71C
:104790007AF801216748FEF749FC4FF480506449DC
:1047A000086065496348FEF77CFC002812D1604828
:1047B0000068411E5E4A11600028F2D1FEF7FAFC43
:1047C00000208DF8040000200090DDE90001C7E919
:1047D0000001ACE0012281215648FEF751FC4FF464
:1047E00080505349086057495248FEF75AFC002848
:1047F00012D14F480068411E4D4A11600028F2D185
:10480000FEF7D8FC00208DF8040000200090DDE9C0
:104810000001C7E900018AE04FF480504449086074
:1048200049494448FEF73DFC002812D14048006841
:10483000411E3F4A11600028F2D1FEF7BBFC002068
:104840008DF8040000200090DDE90001C7E90001B7
:104850006DE03848FEF722FC04004FF480503449E4
:10486000086039493348FEF71CFC002812D1304853
:104870000068411E2E4A11600028F2D1FEF79AFC12
:1048800000208DF8040000200090DDE90001C7E958
:1048900000014CE02748FEF701FC050000212548F7
:1048A000FEF7E0FB4FF4805021490860264921487B
:1048B000FEF7F7FB002812D11D480068411E1C4A74
:1048C00011600028F2D1FEF775FC00208DF804007D
:1048D00000200090DDE90001C7E9000127E015484C
:1048E000FEF7DCFB01211348FEF7AEFB0121114866
:1048F000FEF7B8FB15F0FC05E4B2EDB255EA042072
:104900000600B6B23000FEF7C5FC5FF08F41FEF73F
:104910003DFD1249FEF7CEFC114900F0B5F80090BC
:1049200001208DF80400DDE90001C7E90001FEBDAA
:104930005469002000540040010003008200070079
:10494000840007000200030040000300D7A3703D6D
:104950000AF76540CDCCCCCCCC6C47C00000FA4205
:104960000000C0C010B588B0040002A8FFF7E6FC44
:104970006846FFF77EFE02980490009805909DF827
:104980000C009DF80410084203D001208DF8180097
:1049900002E000208DF8180004A80EC80EC40C38E0
:1049A0000C3C08B010BD00005FF0FF0C1CEAD051B9
:1049B00014BF614506E0C110400721F0E04101F15C
:1049C0006051704779B900F0004100020AD0B0FA96
:1049D00080FC00FA0CF001F16051A1EB0C5101EBED
:1049E000D0214005704741020CBF40F4E0016FF058
:1049F00000010020704700004FEAF17CBCF1E04C60
:104A00002CBFBCF5001F11E05FEA4C0C34BFBCF1B9
:104A10007F5F2EE05FEA9C0C4FEA0C1C4FEA3C0CD7
:104A2000C10071F100414CEB50707047C90241EA7E
:104A30005051C00218BF41F0010141F000414FEA5E
:104A40006C50C0F10900212810D240EACC7CCCF196
:104A5000200C11FA0CF070F10040CCF1200C21FA7E
:104A60000CF00CF0004C40EB0C0070474FEACC709F
:104A70007047490011F5001F04D84FEACC10FF30F1
:104A8000C0057047C817704790EA010F44BF81F016
:104A9000004100F03BB800BF421A3CBF801A8918A1
:104AA0004FF0004CC0F3C752FF2A24D0C1F3C753C4
:104AB00013B3D21AD2F1190327DD4CEA01214CFAC3
:104AC00003F321EA0303D140C20D4CEA0020401851
:104AD00034BF20EA0C004CEA5000D20553EA0063D0
:104AE00073EB0C0C52EB1020420012F1807F38BFA8
:104AF0007047C00DC0057047490212BF9A4200EBD3
:104B00005120F8E7D2F11703D9D57047431A4FF077
:104B100000423EBF5340C01AC91800BFD3095FEA24
:104B2000D05C13EB400F34BFB3EB410F40E07CEBA4
:104B3000D1530CD342EA012122D8D1EB402009D332
:104B4000400A28BF5FEA500140EBCC507047401A42
:104B500015D04002B0FA80F2521C9040400A4FEA51
:104B60003C23B3EB026384BF00EB730007E040F427
:104B700000001A16DB07C2F10102D040184370474B
:104B8000182BFCDC31FA03F202FA03F3591A38BF8E
:104B900042F00102D2EB40203CBF4000ACF1010CDE
:104BA0005FEACC5CC20572F100414CEB50207047CB
:104BB00013EB400F0FD24B0009D0ACEBD153022BBB
:104BC00003DB4902172BDDDD70479143401A430098
:104BD000D5D10020704713EB410FD0D36FF0000008
:104BE0007047000080B500F053F800F009F900F0BC
:104BF00016FA01BD70B58CB004000D00160001213D
:104C00005FF08070FEF7C5FC300000F0D3FA00942E
:104C100001951020029040200390002004908020F5
:104C200005900020069000200790002008904FF487
:104C30008050099000200A906946300000F03FFB48
:104C40000CB070BD0100C9B2002902D1DFF8140513
:104C50000CE0C9B2012902D1DFF80C0506E0C9B2A7
:104C6000022902D1DFF8040500E00020704770B58A
:104C700004000D002000C0B2FFF7E4FF0600002E84
:104C800001D1002003E02900300000F0EEF970BDF2
:104C9000DFF8B804DFF8CC140860DFF8D404DFF8DC
:104CA000C4144860DFF8CC04DFF8B81488604FF40F
:104CB0008060DFF8B01488814FF48060DFF8A414BE
:104CC000C8810020DFF89C1408820020DFF89414CB
:104CD00048820020DFF88C14C8820020DFF884149A
:104CE00008830020DFF87C1448830020DFF8741468
:104CF00088820020DFF86C14C8610020DFF864149B
:104D000008620020DFF85C144862DFF84804DFF82E
:104D100058140860DFF86004DFF84C144860DFF8CE
:104D20005C04DFF8441488604FF48060DFF83814C6
:104D300088814FF48060DFF83014C8810020DFF8EC
:104D4000281408820020DFF8201448820020DFF8B1
:104D50001814C8820020DFF8101408830020DFF840
:104D6000081448830020DFF8001488820020DFF850
:104D7000F813C8610020DFF8F01308620020DFF8A4
:104D8000E8134862DFF8D403DFF8E0130860DFF8C7
:104D9000F003DFF8D8134860DFF8E803DFF8CC133E
:104DA00088604FF48060DFF8C41388814FF480601E
:104DB000DFF8B813C8810020DFF8B01308820020A4
:104DC000DFF8A81348820020DFF8A013C882002073
:104DD000DFF8981308830020DFF890134883002041
:104DE000DFF8881388820020DFF88013C861002074
:104DF000DFF8781308620020DFF87013486270470C
:104E000000B587B001210120FEF7C3FB01214FF45B
:104E10008040FEF7CDFB4FF40070009002208DF82B
:104E2000040000208DF8060003208DF80500694677
:104E3000DFF85403FEF7FEFB07220921DFF84803E1
:104E4000FEF74CFC4FF48060009002208DF80400C7
:104E500001208DF807006946CB48FEF7EBFB0722DF
:104E60000A21C948FEF73AFC5FF4E13002900020C5
:104E7000ADF80C000020ADF80E000020ADF81000D9
:104E80000020ADF814000C20ADF8120002A9AF48C4
:104E900000F082FA012240F22551AC4800F00AFBF2
:104EA0000121AA4800F0F0FA4021A84800F03CFB9C
:104EB000A74AAF49B548FFF79DFE01210120FEF743
:104EC00068FB01215FF40030FEF781FB04200090B5
:104ED00002208DF8040000208DF8060003208DF8D4
:104EE00005006946A848FEF7A5FB07220221A6484F
:104EF000FEF7F4FB0820009002208DF8040001204A
:104F00008DF807006946A048FEF794FB07220321AD
:104F10009D48FEF7E3FB5FF4E13002900020ADF81E
:104F20000C000020ADF80E000020ADF810000020AD
:104F3000ADF814000C20ADF8120002A9854800F06D
:104F40002BFA012240F22551824800F0B3FA0121E8
:104F5000804800F099FA40217E4800F0E5FA7E4A48
:104F600085498B48FFF746FE01210220FEF711FB21
:104F700001215FF48020FEF72AFB4FF4806000904F
:104F800002208DF8040000208DF8060003208DF823
:104F9000050069467F48FEF74DFB07220A217D4840
:104FA000FEF79CFB4FF40060009002208DF8040097
:104FB00001208DF8070069467648FEF73BFB072283
:104FC0000B217448FEF78AFB4FF416500290002024
:104FD000ADF80C000020ADF80E000020ADF8100078
:104FE0000020ADF814000C20ADF8120002A95B48B7
:104FF00000F0D2F9012240F22551584800F05AFA47
:105000000121564800F040FA4021544800F08CFA43
:10501000534A5B496048FFF7EDFD07B000BD80B51E
:1050200025208DF8000000208DF8020001208DF869
:105030000300684600F0BBFA26208DF8000000202F
:105040008DF8020001208DF80300684600F0AFFAE9
:1050500027208DF8000000208DF8020001208DF837
:105060000300684600F0A3FA01BD10B4020001205D
:1050700080F31088508B0300002080F310889BB2CF
:10508000002B01D1002016E09068148B205C087082
:10509000012080F31088108B401C1083D48980B2CB
:1050A000A04201D300201083508B401E508300206B
:1050B00080F31088012010BC704738B5040040F21E
:1050C0002551206800F036FA00281DD0206800F035
:1050D000EDF90500A068E18A0D54E08A401CE082E9
:1050E000E18980B2884201D30020E082608BE189AF
:1050F000884202D2608B401C6083606A002803D023
:105100002800C0B2616A884731BD80B51548FFF7F5
:10511000D4FF01BD80B51448FFF7CFFF01BD80B5B6
:105120001248FFF7CAFF01BD38B504000D00210089
:10513000C9B289B2074800F0B5F98021054800F0EE
:10514000E4F90028F9D0200032BD00000038014009
:10515000446002400044004080600240004800403B
:105160001C600240346800205C68002084680020D5
:10517000804F00208053002080570020805B00205B
:10518000805F00208063002000000240043801405E
:1051900004440040000402400448004010B582B0BE
:1051A000040069460120FFF762FD0028F9D09DF850
:1051B000000016BD01684FF6FE721140016000212B
:1051C000016000214160002181600021C1606249CD
:1051D000884206D16149096851F00F015F4A1160A8
:1051E0006CE05F49884206D15C49096851F0F001E2
:1051F0005A4A116062E05B49884206D15749096802
:1052000051F47061554A116058E05749884206D1FF
:105210005249096851F47041504A11604EE05349B7
:10522000884206D14D49096851F470214B4A1160FA
:1052300044E04F49884206D14849096851F4700159
:10524000464A11603AE04B49884206D14349096811
:1052500051F07061414A116030E04749884206D1FF
:105260004649096851F00F01444A116026E044495B
:10527000884206D14149096851F0F0013F4A116066
:105280001CE04049884206D13C49096851F47061EC
:105290003A4A116012E03C49884206D13749096810
:1052A00051F47041354A116008E03849884205D10F
:1052B0003249096851F47021304A1160704710B4C6
:1052C000002203681A006FF30E128B680C6A2343E6
:1052D0000C6923434C6923438C692343CC692343E2
:1052E0004C6A23438C6A23431A430260CB684360B1
:1052F0000B6883604B68C36010BC7047C9B200295B
:1053000004D0026852F00102026004E002684FF625
:10531000FE731A400260704789B241607047010015
:1053200000200022CB0003D4194B1B681A0002E0B6
:10533000184B1B681A000A4202D00123180001E032
:1053400000231800C0B27047C10002D403490860AE
:1053500001E00A49086070470860024004600240AA
:105360001C600240306002404460024058600240CD
:105370006C600240806002400864024004640240A5
:105380001C6402403064024044640240586402409D
:1053900000600240006402402DE9F04385B0040043
:1053A0000D005FF00009002600275FF00008A889C3
:1053B0000028208A814639F44059E88850EA0909D2
:1053C000A4F81090A08981462E4810EA0909A888FF
:1053D000298908436989084350EA0909A4F80C900F
:1053E000A08A814639F44079A88950EA0909A4F8CD
:1053F00014906846FEF748F82148844202D1039889
:10540000060001E002980600A089000408D51920D2
:1054100000FB06F029684900B0FBF1F0070007E047
:10542000192000FB06F029688900B0FBF1F00700A5
:105430006420B7FBF0F0000181465FEA1910642197
:1054400001FB10708046A08900040AD55FEAC800FD
:1054500032306421B0FBF1F010F0070050EA090986
:1054600009E05FEA081032306421B0FBF1F010F07F
:105470000F0050EA0909A4F8089005B0BDE8F083D0
:1054800000380140F3E9FFFFC9B2002904D0828946
:1054900052F40052828104E082894DF6FF731A4073
:1054A00082817047CA05D20D828070478088C0050E
:1054B000C00D7047F0B4002300240025002689B2F7
:1054C00040F66A17B94206000F00FFB27F09FFB22B
:1054D0003B0089B211F01F073C000127A7403D00A7
:1054E000012B01D10C3604E0022B01D1103600E073
:1054F0001436D2B2002A03D037682F43376002E057
:105500003768AF433760F0BC70470200002089B2B3
:10551000B1F5007F13880B4202D00123180001E08F
:1055200000231800C0B2704789B28A0589B2CA4305
:105530000280704770B4030000240026002500207C
:1055400089B240F66A1291420A00D2B25209D2B22E
:10555000150089B211F01F021600012212FA06F698
:10556000012D02D19A89164006E0022D02D11A8A35
:10557000164001E09A8A16400A0092B2120A92B2CC
:105580001400012212FA04F41A881440002E04D0E8
:10559000002C02D00122100001E000221000C0B255
:1055A00070BC70471C4901431C4A1160704770B4BD
:1055B000002300210F22C478002C21D0174C24682E
:1055C00014F4E064D4F5E064240A2300D3F1040465
:1055D0002100D2B21A4144788C40230084781440D0
:1055E00023431B010E4C05782B550124057815F03B
:1055F0001F05AC400B4D0678761145F8264009E0B2
:105600000124057815F01F05AC40074D067876118A
:1056100045F8264070BC70470000FA050CED00E02C
:1056200000E400E000E100E080E100E080B500F08F
:10563000BDFA00F0FFF9FEF75CF9FEE7FEE7FEE7D2
:10564000FEE738B5002400208DF8000000208DF81A
:10565000010000208DF8020000208DF803000025D5
:10566000694629A000F0B4FA641C9DF800000D28DA
:105670001DD00DF1010124A000F0AAFA641C9DF8D0
:1056800001000D2813D00DF102011FA000F0A0FAB7
:10569000641C9DF802000D2809D00DF103011AA029
:1056A00000F096FA641C9DF803000D28D8D1E4B2EE
:1056B000022C04D024D3042C11D005D320E09DF873
:1056C0000000303805001DE09DF800000A219DF81B
:1056D000012001FB0020B0F50470050012E09DF8E8
:1056E000000064219DF801200A235A4301FB002099
:1056F0009DF802100818DFF8C0130818050001E033
:1057000000200500280032BD256300002DE9F0438C
:105710009DB08146DFF8A40300F06CFADFF8A00327
:1057200000F068FADFF89C0300F064FADFF89803F1
:1057300000F060FADFF8940300F05CFADFF8900301
:1057400000F058FADFF88C0300F054FADFF8880311
:1057500000F050FADFF8840300F04CFADFF8800321
:1057600000F048FADFF87C0300F044FADFF8780331
:1057700000F040FADFF8740300F03CFADFF8700341
:1057800000F038FADFF86C0300F034FADFF8681341
:10579000A5A000F01DFADFF860030178DFF85C03D4
:1057A00000F028FAD448007831281ED0322827D0BB
:1057B000332828D034282ED0352834D036283AD073
:1057C00037284FD0382856D039285CD0412870D09F
:1057D000422800F08780432800F0A280442800F08F
:1057E000D180452800F00A811DE1012000F018FA5F
:1057F0004FF47A70FEF747F8002000F011FAC5E781
:1058000000F015FAC2E70AA800F015FA0A99BC4898
:1058100000F0F0F9BAE709A800F013FA0999B948BD
:1058200000F0E8F9B2E708A800F011FA0899B648C4
:1058300000F0E0F9AAE716A800F00FFAB34800F06C
:10584000D9F900200400E4B20C2C07DA16A8E4B25F
:10585000215C76A000F0CEF9641CF4E774A000F09F
:10586000C9F993E704A800F0FEF99DF81010A848C4
:1058700000F0C0F98AE707A800F0FBF90799A548EE
:1058800000F0B8F982E700F0FAF90BA800F0FEF991
:105890009DF83000012808D10B98FFF785F8020029
:1058A0000B009D4800F0A6F902E09C4800F0A2F928
:1058B0006CE713A800F0F4F99DF8540001280DD10D
:1058C0001498FFF771F8CDE900011398FFF76CF811
:1058D00002000B00924800F08DF902E0914800F0C0
:1058E00089F953E70FA800F0E8F99DF8480001286E
:1058F00012D11198FFF758F8CDE902011098FFF77F
:1059000053F8CDE900010F98FFF74EF802000B00A5
:10591000854800F06FF902E0844800F06BF935E744
:1059200000F0DBF900F0DDF905A800F0F2F99DF8D0
:105930001400012820D17E4800F05CF99DF8151074
:105940003AA000F057F95BA000F054F99DF8183028
:105950009DF817209DF81610764800F04BF955A0D9
:1059600000F048F99DF81B309DF81A209DF8191099
:10597000714800F03FF902E0704800F03BF900F098
:10598000B4F903E76E4800F035F96E4800F032F9DB
:10599000FFF757FE804641466B4800F02BF96B48F5
:1059A00000F028F96A4800F025F9FFF74AFE0500E3
:1059B0002900684800F01EF9674800F01BF9FFF75E
:1059C00040FE06003100654800F014F9644800F01C
:1059D00011F9FFF736FE07003900624800F00AF9B6
:1059E00038000300DBB230000200D2B22800010010
:1059F000C9B24046C0B200F097F9C7E600F06DF9B1
:105A000000F06FF90DA800F09FF99DF8370001280C
:105A100003D1042119A800F0DFF90A20FDF733FFB4
:105A200000F063F9B2E6B1E62563000025325800C4
:105A30000D0A000000B585B0002003900020029000
:105A4000494801900120009000234FF4007247491B
:105A50004748FDF771FE0020039000200290454862
:105A600001900220009000234FF400724249434805
:105A7000FDF762FE00200390002002904048019054
:105A80000320009000234FF400723E493E48FDF78A
:105A900053FE00200390002002903C480190042017
:105AA000009000234FF4007239493A48FDF744FE54
:105AB00005B000BD3A00000030EBFFFF747B00082A
:105AC000587C00086C7C0008887A0008A47A0008DA
:105AD000C07A0008DC7A0008F87A0008807C0008A8
