:020000040800F2
:10000000800B0020C5790008497A00084B7A000867
:100010004D7A00084F7A0008517A0008000000006D
:100020000000000000000000000000004B2E00084F
:10003000537A000800000000F92D0008B52F0008D1
:10004000997A00089D7A0008A17A0008A57A00082C
:10005000A97A0008AD7A0008B17A0008B57A0008DC
:10006000B97A0008BD7A0008C17A0008C57A00088C
:10007000C97A0008CD7A0008D17A0008D57A00083C
:10008000D97A0008DD7A0008E17A0008E57A0008EC
:10009000E97A0008ED7A0008F17A0008F57A00089C
:1000A000F97A0008FD7A0008017B0008057B00084A
:1000B000097B00080D7B0008117B0008157B0008F8
:1000C000197B00081D7B0008217B0008257B0008A8
:1000D000297B0008FB4E0008054F00080F4F000861
:1000E000397B00083D7B0008417B0008457B000808
:1000F000497B0008000000004D7B0008517B000890
:100100000000000000000000557B0008597B00083B
:100110005D7B0008617B0008657B0008697B000847
:100120006D7B00082DE9F04FA1B0804600201746F6
:100130001D4602910B900DF1440A6FF000490AE050
:1001400017F8011B0298C0470028029000F0A78210
:100150000B98401C0B90387808B90B98A1E2252821
:10016000EED10020059006900790089009900A9023
:1001700001E040F0010017F8011F2029F9D02329E0
:100180000DD02B2904D02D2906D030290AD00CE01F
:1001900040F0020080B2EEE740F00400FAE740F0E1
:1001A0000800F7E740F01000F4E72A290ED129688B
:1001B000296051F8042B2960002A0D9204D5514280
:1001C00040F004000D9180B27F1C11E000210D91E0
:1001D00009E00D99494505D001EB810302EB43018C
:1001E00030390D917F1C3A78A2F130010A29F0D301
:1001F00039782E2903D04FF0FF310C911DE017F80C
:10020000011F2A2907D1296829607F1C51F8042B76
:1002100029600C9211E000210C9109E00C994945EC
:1002200005D001EB810302EB430130390C917F1CB7
:100230003A78A2F130010A29F0D3ADF838000FF670
:100240005840397800F070FE08B117F8010B8DF8AE
:100250003A009DF83A00682802BF39786829622080
:1002600005D06C2804BF38786C2803D171208DF834
:100270003A007F1C11A8049017F8014BB4F1250037
:1002800029D01C3800F0C280001F022840F2BE8036
:10029000133800F0E380093800F0B880801E00F0C9
:1002A0004A81401E00F02381401E022840F2AE80A9
:1002B000001F00F01C81401F79D0401E00F0CE804E
:1002C000401E24D0C01E0BD0801E00F0C780C01E70
:1002D00000F0C48039E125208DF8440001203DE183
:1002E0002868286050F8046B286003960C9C002C4A
:1002F00004D5304600F024FE044606E022460021E4
:10030000304600F039FE00B1841B069427E12968CD
:1003100029603C2451F8040B29600021CDE900013B
:1003200011A80390DDE90001049E11B908B90C9AE7
:10033000B2B10206120FA0EB02123032D2B2631E2B
:100340003A2AA8BF273200099A5540EA01700909E4
:1003500008BF00281C4603D0039AA3199A42E8D389
:10036000A0190390C4F13C010C980691814209DA6E
:10037000401A08904FF6EF71BDF838000840ADF80C
:100380003800ECE0002840F1EA809DF8380000F0E9
:100390001400102840F0E3800D98059A801A089AFE
:1003A000801A441A012CC0F2DA800894D7E09DF834
:1003B0003A0062281AD0682806D06A280CD06C2827
:1003C0001CD0712808D019E02868286050F8041B58
:1003D00028600B980880C2E02868286050F8042B39
:1003E00028600B98C117C2E90001B8E028682860AE
:1003F00050F8041B28600B980870B0E0286828604B
:1004000050F8041B28600B980860A8E02868C01DFD
:1004100020F007022A60D2E9000108322A60CDE903
:100420000001002902D505982D210AE0BDF8380009
:10043000810702D505982B2103E0C00705D5059853
:10044000202100F80A10401C059011A805990818F1
:1004500003902146684600F0E1F980E09DF83A00FB
:100460006C280DD0712818BF6A2809D12868C01DD2
:1004700020F007022A60D2E9000108322A6005E074
:100480002968296051F8040B29600021CDE9000199
:100490009DF83A00682803D1DDE9000180B20BE045
:1004A000622803D1DDE90001C0B205E0742818BF5D
:1004B0007A2804D1DDE900010021CDE900019DF891
:1004C000380000072ED5DDE90001002908BF00280B
:1004D00028D044F02000782824D10598302100F855
:1004E0000A10401C411C059100F80A401AE09DF8D2
:1004F0003A00294600F0D8F8CDE90001002902DAD7
:1005000005982D210AE0BDF83800810702D505982D
:100510002B2103E0C00705D50598202100F80A101B
:10052000401C059011A805990818039021466846BB
:1005300000F0F1F813E0012005902868286050F8D9
:10054000041B28608DF8441009E025208DF8440034
:10055000012005901CB18AF80140022005900D98F9
:100560000599401A0899401A0699401A0999401AA3
:100570000799401A0A99441A9DF83800400710D488
:100580002020012C8DF840000BDB2646012310AA09
:100590006946404600F069FC002840F08080761EE5
:1005A000F4D1DDF814B0BBF1000F11AE0CD016F889
:1005B000011B0298C0470028029070D00B98401C85
:1005C000BBF1010B0B90F2D130208DF84000089E5A
:1005D000012E09DB012310AA6946404600F045FCC4
:1005E00000285CD1761EF5D1DDF818B0039EBBF172
:1005F000000F0CD016F8011B0298C047002802908B
:100600004DD00B98401CBBF1010B0B90F2D1302068
:100610008DF84000099E012E09DB012310AA6946CE
:10062000404600F022FC002839D1761EF5D103980F
:100630000699DDF81CB00E18BBF1000F0BD016F8B0
:10064000011B0298C047029048B30B98401CBBF1B5
:10065000010B0B90F3D130208DF840000A9E012E43
:1006600008DB012310AA6946404600F0FEFBB0B942
:10067000761EF6D19DF8380040077FF56CAD20203E
:10068000012C8DF84000FFF666AD012310AA6946E3
:10069000404600F0EAFB10B9641EF6D15BE54FF06E
:1006A000FF3021B0BDE8F08F622826D068281DD029
:1006B0006A2808D06C2827D0712804D0742823D049
:1006C0007A280CD020E00868C01D20F007000860E0
:1006D000D0E90023083008601946104670470A68C0
:1006E0000A6052F8040B0A60002170470A680A6029
:1006F00052F8040B0A6000B20BE00A680A6052F874
:10070000040B0A6040B204E00A680A6052F8040B65
:100710000A60C11770472DE9FA4E05460A462F694F
:100720006F2A08BF082405D041F02000782814BFA4
:100730000A2410243C26D5E90001642A18BF692A3E
:1007400081468A4605D1002903DAD9F100096AEB0E
:100750004A0ABAF1000F08BFB9F1000F0CD1286B9B
:1007600050B9082C36D195F83800000732D5302022
:100770003B2687F83B002DE0E317484651462246CA
:1007800000F026FCA4FB0023A9EB02023032D2B217
:10079000A6F1010B3A2A5E4603DB9DF80030513B7F
:1007A0009A180BF8072081465FEA010A08BFB9F1E1
:1007B000000F03D0E868F1198842DDD3082C09D175
:1007C00095F83800000705D5F05D302802D0761E78
:1007D0003020F055C6F13C00A861F119E960296BA1
:1007E000884208DA081A28624FF6EF71288F08400D
:1007F0002887BDE8F38E00290ED595F8381001F052
:100800001401102908D1696B6A69891A2A6A891A40
:100810000E1A012EA8BF2E62BDE8F38E2DE9F24F0D
:1008200004468EB0D4E90001CDE9020104AF9DF881
:10083000380040F0200BBBF1610F0AD0206B00287C
:1008400048BF062004D408BFBBF1670F01D10120C7
:1008500020636168C1F30A5040F2FF7290421CD1DC
:10086000080304BF2068002809D10320A0619DF877
:10087000380061381A2836D30FF2306108E00320BF
:10088000A0619DF8380061381A2829D30FF214614D
:10089000E068032200F014FCBEE1012816DA2046CD
:1008A00000F049FC012811DB00250020BBF1610F9D
:1008B00020D1E168302201F8012B4A1CE2609DF84A
:1008C0003820612A0CBF782258220FE0626840F27B
:1008D000FE3161F31E52451A62604FF0FF30E5E7CA
:1008E0000FF2BC51D4E70FF2C051D1E70A70616931
:1008F000891C616110B90026002584E1BBF1610FFC
:1009000040F09880206B00284CBF2126461CD4E97B
:1009100000ABDDE902010022002300F02DFC36B21D
:100920003ABF8BF00040CDE902A0CDE902AB06F161
:1009300001082D1FB8F1010F8DF810200DF11107DE
:1009400036DBDDE902010022002300F02DFC2FD26E
:100950001C2102A800F040FCDDE9020100F0C2FC0D
:10096000A8F10708B8F1010F814609DB00F0E6FCA9
:1009700002460B46DDE9020100F0F8FCCDE9020178
:10098000F81D072105E009F00F0200F8012D4FEADC
:100990002919B9F1010F01DB491EF4D5491E5CBFCD
:1009A000002200F8012DF9D5C71DB8F1010FC8DAF2
:1009B0000DF11100391AB142B8BF0E4636B23000FF
:1009C0000DF111072FD4884206DA04A9411849789D
:1009D0000829A8BF0F2100DA002104AA821800E02C
:1009E000761E12F80139401E8B42F9D00F2904D12E
:1009F00004A941184A78521C4A70002802D504AF55
:100A0000761C2D1D36B2701E0DD4C1190A783032F5
:100A1000D2B23A2A03DB9DF838303A3B9A18401E8E
:100A200001F80129F2D5206B002840F1EC80701EFE
:100A30002063E8E0DDE902010022002300F09CFBD6
:100A40003CBF81F00041CDE902012DB247F2975041
:100A500068434B49DFF82C9190FBF1F52DB2C5F1BD
:100A6000070ABAF1010F90461CDBDDE902675FEA75
:100A7000CA7007D542464B463046394600F036FD2F
:100A800006460F464046494642464B464FEA6A0AEA
:100A900000F02CFDBAF1000F80468946E7D1CDE980
:100AA000026724E0CAF1000A0026374F14E05FEA2B
:100AB000CA7007D542464B463046394600F016FD0F
:100AC00006460F464046494642464B4600F00EFD5C
:100AD0004FEA6A0A80468946BAF1000FE7D1DDE99C
:100AE000020132463B4600F0D3FDCDE90201BBF1E5
:100AF000660F0CBF05F10A000620216BDFF88C9011
:100B00004618142EA8BF132630208DF810000DF1C2
:100B10001107012E3CDBDDE9020100F0F9FB07F1D2
:100B2000080104220A23B0FBF3F303EB8307A0EBD5
:100B30004700303001F8010C0A20B3FBF0F000EB65
:100B40008007A3EB47033033521E01F8023DE9D181
:100B5000083E012E01F10807DBDBDDE9020100F0B0
:100B6000D7FB00F0F5FB02460B46DDE9020100F081
:100B7000FDFB00224B4600F0B9FCCDE90201CAE7BB
:100B8000A0860100000024400000F03F84D7974178
:100B90000DF11100381A0DF1110702E0401E6D1E13
:100BA0007F1C39783029F9D0BBF1660F02D12DB204
:100BB000691C04E0BBF1650F0CBF01210021226B11
:100BC0008E1836B2B042B8BF064636B231001AD4DB
:100BD000814204DAC85D3528A8BF392000DA302008
:100BE000CA19521E00E0761E12F80139491E8342CE
:100BF000F9D0392802D1C85D401CC855002902D55A
:100C00007F1E761C6D1C2DB29DF83810009533B2F6
:100C10003A46204600F003F80FB0BDE8F08F2DE90A
:100C2000F04786B006468A4690461D4600F079FE9B
:100C3000012D406A376B90F8009002DA01250FF21F
:100C400070284AF02000BDF93840662808BF641CAF
:100C500012D0672876D114F1040F79DBBC4277DA21
:100C600096F83800641C000702D4BD42B8BF2F4676
:100C700024B23F1B48BF002724B2F068B169012CA1
:100C800021DA4A1C30230B54012F03DA96F838106E
:100C9000090702D502F80090521CB261E742B8BFC2
:100CA0007C4224B26142E7197162AF42B8BF3D464F
:100CB000B3692DB2F5612A464146181800F000FAD2
:100CC000781BB062BAE00818A54216DA2A464146F7
:100CD00000F0F6F9B1696918601B012FB16170620B
:100CE00003DA96F83800000705D5F06801F800909F
:100CF000F069401CF061B762A0E02246414600F076
:100D0000DFF9B06920182D1B012F03DA96F838108F
:100D1000090703D5F16800F80190401C2DB2B061BD
:100D2000AF42B8BF3D46F068B3692DB22A4604EB26
:100D30000801181800F0C4F9B0692818B061781BD0
:100D400070627BE0BAF1610F14D14FF0700A16E0C7
:100D5000BD4204DA96F83810090758BF2F467F1EA7
:100D600048BF0027BAF1670F14BF4FF0450A4FF094
:100D7000650A04E0BAF1410F08BF4FF0500AB169AB
:100D8000F0684A1CB261012F18F8013B0B5403DADA
:100D900096F83810090715D5531CB36102F8009076
:100DA000012F0FDB6D1E2DB2AF42B8BF3D462DB2F5
:100DB0002A464146181800F083F9B0692818B06136
:100DC000781B7062F068B1690918200081F800A0F2
:100DD00004D42B20487001F1020804E02D224A704F
:100DE00001F102086442002502AF08E00A226846C9
:100DF00000F0B0FD019807F8010B6D1C009C21B2BA
:100E00000129F3DA022D06DA4AF02000652804BF32
:100E1000302008F8010B4DB9302008F8010B07E02D
:100E20006D1E02A8285C303008F8010B012DF7DA9E
:100E3000F068B1690818A8EB0000F06196F8380076
:100E400000F0140010280DD17069B1690818716A9A
:100E50000818F1690818B16A0818716B8842BCBF9C
:100E6000081A306206B0BDE8F087F8B504460D46B2
:100E700016461F46002077B116F8011BA868A04748
:100E8000A86030B1E86A401CE86200207F1EF3D100
:100E9000F2BD4FF0FF30F2BD686A6C747A4C00000E
:100EA0006E616E004E414E00696E6600494E46000E
:100EB0003000F0B4016844688368091801EB5402FB
:100EC000E40748BF4B440C3091422BD011F8014B42
:100ED00014F0030504BF11F8015BED1C26090F2E69
:100EE00007D111F8016B0F3603E011F8017B03F80D
:100EF000017B6D1EF9D1002EE6D0A40811F8015B2C
:100F000004F00304032C08BF11F8014B05EB042483
:100F10001C1BB51CD8D014F8016B03F8016B6D1EB7
:100F2000F9D1D1E7F0BC70470278C9B28A421AB150
:100F30001CBF10F8012FF9E718BF00207047000010
:100F400000F10103810704D010F8011B89B181076A
:100F5000FAD10268B2F10131914311F0803F04BF30
:100F600050F8042FF6E710F8011B11B110F8011B1F
:100F7000FBE7C01A70470000C9B2830706D0521EB3
:100F800022D310F8013B9942F7D11FE0083A13D35E
:100F900002F1040241EA012141EA014150F8043B17
:100FA000121F21BF4B40A3F1013C2CEA030C1CF0A3
:100FB000803FF3D0C9B2001F083210F8013B521E27
:100FC00028BF91EA030FF8D818BF0120401E7047D0
:100FD0001B4213D1094236D12AB18446B0FBF2F04C
:100FE00002FB10C2704700F0BDBCFCD300220023FE
:100FF00070470B000200002100207047904271EB07
:10100000030CF6D370B5B1FA81F4B3FA83F52C1B57
:10101000A340C4F1200532FA05F63343A2405FF045
:101020000046E64002E05B085FEA3202841A71EB98
:10103000030524BF204629467641F4D302000B0065
:101040003000002170BD012ACFD970B5140C20D01A
:10105000B1FA81F4B2FA82F5C4F120046419B4F152
:101060002006D6D3B2405FF00044F440002502E0F1
:1010700052085FEA3303C61A71EB020E24BF3046F2
:10108000714664416D41F3D302000B00200029003A
:1010900070BD0C46B1FBF2F102FB11452D0445EA8F
:1010A0001045B5FBF2F402FB145580B240EA054549
:1010B000B5FBF2F002FB105240EA044070BD0000A4
:1010C00062B38B0708D0521E11F8013B00F8013BB8
:1010D00000F024808B07F6D1830740F0208000BF0A
:1010E000103A07D330B4B1E83810103AA0E83810FD
:1010F000F9D230BC530724BFB1E80810A0E80810AB
:1011000044BF51F8043B40F8043BD20724BF31F8F8
:10111000022B20F8022B44BF0B7803707047083A6B
:1011200007D3B1E80810083A40F8043B40F804CB74
:10113000F7D25307E4E730B4436803F000420121DB
:101140001B031B0B436004BF0368002B08D10DE099
:101150000368DD0F45EA440444605B000360491EF8
:101160004468E302F4D523031B0B436043681A432E
:101170004260084630BC70474FF4001C1CEB410F26
:1011800094BF1CEB430F09E041EA030C50EA4C0CFE
:1011900052EA0C0C03D2994208BF9042704714BF28
:1011A0008B428242704700004FF4001C1CEB410F41
:1011B00094BF1CEB430F09E041EA030C50EA4C0CCE
:1011C00052EA0C0C03D28B4208BF8242704714BF14
:1011D000994290427047000070B504460D46606821
:1011E000C0F30A5040F2FF71884207D160680003E3
:1011F00004BF2068002817D0022070BD20B9204607
:10120000FFF799FF012866DA012D0FDB40F2FF712D
:10121000091A8D420AD36068002847BF00202F4971
:1012200000202F49C4E90001012070BD4142A942BC
:10123000616806DA6FF31E51401941EA00506060A0
:1012400040E0401E63684519012205F1350062F354
:101250001F53352801F00041636003D36160002013
:10126000206070BD002015F11F0F04DA2068236094
:101270000022203562606A4212D0401E25688041FB
:10128000C2F12003C0439D4045EAD07025686668DE
:10129000D54006FA03F32B4323606368D3406360B1
:1012A00062680A43B0F1004F626003D80DD1207824
:1012B000C0070AD52068401C2060206828B96068F3
:1012C000401C60604FF0FF3070BD6068884204BF12
:1012D00020680028F6D1002070BD00BF0000F0FF9C
:1012E0000000F07FF446400D40EAC120490006D2DC
:1012F00000F014F8004248BF6FF00040604700F073
:101300000DF84FF0004188428CBF084640426047CC
:10131000400D40EAC120490080F00D8040F00040BF
:10132000490DA1F58061491C05D4D1F11F0154BFBD
:10133000C840C01770474FF000007047010040F1EF
:101340000980F446404200F005F851F00041604742
:10135000010000BF09D0B0FA80F18840C91CC1F576
:101360008461090501EBD02140057047F0B44FF0CE
:10137000004591EA030F44BF6B4000F0FFBA00BF85
:10138000841A71EB030604D26E40001BB14112199E
:1013900073414FF4001C1CEB410F34BF7CEB430640
:1013A00084E00C0DA4EB1356362E7DDC012E43DCBD
:1013B00045EAC32343EA525312BFD20292025B08AA
:1013C000240545EAC12141EA5051D2EBC0209941A0
:1013D00025D407D1B0FA80F610FA06F164D00020C7
:1013E000203608E0B1FA81F6B140C6F1200220FAB9
:1013F00002F21143B0404FEAF474B4EB465434F0B7
:1014000001064FEA74040AD8D6F50016760D04F0EA
:101410000044F04061FA06F25040F1404840C00AF2
:1014200040EA415021F0004128BF5FEA500550F1E9
:10143000000044EBD12137E045EAC323DB0A45EA4B
:10144000C121C90AB6F120050EDD42EA0242120CA2
:10145000C5F1200603FA06F6EB4042EA06056D42A6
:10146000984161F100010DE062FA06F5F240554045
:1014700063FA06FC82EA0C02F3405A406D42904146
:1014800061EB030111F4801F05D1641E620502D0D7
:101490006D004041494121F48011430875F100433A
:1014A00050F1000041EB0451F0BC70471CEB410FC0
:1014B00015D223F0004352EA43060BD04FEA4C0CFE
:1014C000BCEB410F04D80C0D661E342EB7DDEBE7E4
:1014D000801A994150EA410608BF0021E4E708BF9D
:1014E0001CEB430F28BF6FF00001DDE7B0B581EAC8
:1014F000030C0CF0004C40F2FF7515EA11541DBFAF
:1015000015EA1357AC42AF4239E0E41923EA4553D8
:1015100043F48013C90241F0004141EA505EC70222
:101520001100A7FB020200284FF00000EEFB012093
:101530004FF00001E3FB072118BF42F00102401801
:1015400000214941E3FB0E01A4F580640F0302D2A0
:1015500052004041494154F101046CDD470872F1E9
:10156000004250F1000051EB0451A1F580115CBF25
:1015700041EA0C01B0BD4CEA05510020B0BD05EABE
:101580001357AC4214BFAF4241E050EA410E1CBFBA
:1015900052EA430E02E061460020B0BD24423C44C2
:1015A0001BD15FEA070EF6D0090302BF01460020F7
:1015B000AEF1140EB1FA81F7AEEB070401FA07FEA3
:1015C0000C37C7F1200100FA07F7C8404EEA000EB9
:1015D00023EA455343F48013A2E733F00043B3FA00
:1015E00083F704BFB2FA82FE77440B3FE41BB7F1E6
:1015F000200E2FBF02FA0EF3BB40C7F1200E22FAD5
:101600000EFE38BF43EA0E03BA40641C82E750EA7C
:10161000410E14BF52EA430E6FF000014FF4001761
:1016200017EB430F8ABF194617EB410FB5E74CEA9A
:1016300005510020B0BDD4F10104B4F120070FDA48
:10164000C4F12007520828BF42F0010210FA07F542
:1016500001FA07F7E1BF2A43E0403843E1400FE0D9
:10166000352C98DCC7F1200452EA400220FA07F238
:1016700018BF42F0010231FA07F0A1400A430021ED
:1016800072F1004250F1000051EB0C01B0BD0000BE
:101690002DE9F04140F2FF7581EA030C0CF0004C9B
:1016A00015EA11541DBF15EA1357AC42AF42E9E0E9
:1016B000BC41C1F31301C3F31303801A994143F4EE
:1016C000801304D2641E4000494180185941C90268
:1016D00041EA5051B1FBF3F603FB1611A2FB06756C
:1016E000D7EBC020A94102D2761E80185941C90209
:1016F00041EA5051B1FBF3FE03FB1E11A2FB0E7534
:10170000D7EBC020A94103D2AEF1010E8018594198
:10171000890241EA9051760546EA8E2EB1FBF3F636
:1017200003FB1611A2FB0675D7EB8020A94102D25C
:10173000761E80185941C90241EA50514EEA060E00
:10174000B1FBF3F603FB1611A2FB0675D7EBC02025
:10175000A94102D2761E80185941C90241EA50516E
:10176000B1FBF3F703FB1711A2FB0735D3EBC02046
:10177000A94167F100070CBF004247F0010766F37B
:10178000D5274FEA1E31B80814F5806414DDBD0773
:1017900075F1004250EB0E5051EB045111F5801FD2
:1017A0005CBF41EA0C01BDE8F0814CF07F6141F083
:1017B000E0410020BDE8F081BD076D0840EA0E5011
:1017C00041F48011D4F10104B4F120060ADAC4F125
:1017D00020060200E04001FA06F3E1401843B2405F
:1017E00015430EE0342C14DCC6F1200445EA400514
:1017F0006D0820FA06F2154321FA06F0A1400D43C8
:10180000002175F1004250F1000051EB0C01BDE8E0
:10181000F08100205FEA0C01BDE8F081CFB9921899
:101820005B41B3FA83F704BFB2FA82F6BF190B3FEC
:10183000B7F120062FBF02FA06F3BB40C7F120061E
:1018400022FA06F638BF3343BA401CB1E419641ECD
:101850002FE77F4231F00041B1FA81F404BFB0FAC2
:1018600080F6A4190B3CB4F120062FBF00FA06F154
:10187000A140C4F1200620FA06F638BF3143A0404B
:101880003C1B16E7AC421ABF05EA1357AF4214E0FF
:1018900050EA41061CBF52EA4306BFE750EA41073F
:1018A000304661461CBF41EA0551BDE8F08152EA6D
:1018B000430C08BFC143BDE8F08100204FF400167F
:1018C00016EB410F98BF16EB430F08BF16EB410F05
:1018D00024BFC14305E016EB430F0CBF61464CEA41
:1018E0000551BDE8F081000080B5134800F0B0F864
:1018F0000FF24C020FF244010160426241600FF2AC
:101900004402826381600FF24402C160016141615F
:1019100081618162C16201634163C26301644164A8
:1019200001BD10B5044800F093F80446206808B9DA
:10193000FFF7DAFF204610BD8402002000000000FF
:101940002E00000066616C7365000000747275659E
:101950000000000091FBF2F303FB1211C0E900311B
:101960007047000070470000F0B44FF0004591EA66
:10197000030C44BF6B40FFF703BD00BF841A71EB3B
:10198000030603D2001BB141121973414FF4001C2E
:101990001CEB410F34BF7CEB430443E00C0DA4EB84
:1019A0001356352E50DC45EAC323DB0A45EAC12134
:1019B000C912B6F120050DDD63FA05F6EB4086EAA3
:1019C0000305124218BF45F00105C01851F100018E
:1019D0000CD213E062FA06F5F2405540F3415A404A
:1019E000B340F3405A408018594107D349085FEA91
:1019F00030005FEA350528BF45F0010501F580118B
:101A0000420875F1004250F1000041EB0451F0BC76
:101A10004FF4001C1CEB410F38BF70470020090D2C
:101A2000090570471CEB410F10D252EA43060BD058
:101A3000BCEB410F05D80C0DAB43661E342EB5DD53
:101A400002E0AB4380185941F0BC7047F0BC7047CE
:101A500070470000000000002DE9FF4D86B0DDE971
:101A60000801CDE904010798C0F30A5040F2FF7164
:101A7000884208D107980027000305BF0698002870
:101A80000224012412E0012807DA06A8FFF753FB1D
:101A9000012802DB0027002408E0079A40F2FE310B
:101AA00061F31E520792471A4FF0FF34002104A839
:101AB00000F0FAFB0546129810B112990020088038
:101AC00035B9DDE908230020002100F02BFC11D0FE
:101AD000002C11D53FB2012F13D1DDE906230020E0
:101AE000CA4900F01FFC05D0012D0AD1C84900F0F9
:101AF00019FC2ED1C749BBE1022C04D1DDE9060156
:101B0000B6E1012D59DB022D08BFDDE9080100F027
:101B1000AF81012C1BD107980028099802D4002816
:101B200048D532E0002809D4002D43D14FF0FF31D1
:101B300004A800F0B9FB00283CD538E02DBB4FF0DD
:101B4000FF3104A800F0B0FB00281ED519E0012DDC
:101B500009D1099800283FB202D4012F2ADA14E0F3
:101B6000012F12DA26E00998002811D46DB94FF040
:101B7000FF3104A800F098FB002844BF0798002814
:101B800003D500204FF0004172E1002000216FE1F9
:101B900000F0D8FB2221016065B94FF0FF3104A8A5
:101BA00000F082FB002844BF0798002802D50020DF
:101BB00099495DE1002099495AE10798002848BFFA
:101BC000002D08D500F0BEFB212101604FF0FF3051
:101BD0006FF000414CE1DDE9060100220023FFF730
:101BE000E3FA38BFADF804200AD381F00041CDE913
:101BF00006014FF0FF3104A800F056FBADF80400D9
:101C0000012F13D1DDE90601854A864BFFF7B4FAAF
:101C10000CD2DDE9062300204FF08041FFF766FC7F
:101C2000CDE90601002600247A4D1BE0DDE90623FC
:101C300000207D49754DFFF759FC00222B46FFF728
:101C400093FEFFF74FFBA0F120063046FFF776FB2F
:101C50000022764BFFF74AFC00222B46FFF784FE5A
:101C600004460D460FF2202000EB4610009022465D
:101C7000DDE906012B46FFF779FB82468B46DDE95D
:101C8000060122462B46FFF76FFE02460B465046E2
:101C90005946FFF7FDFCCDE90401DDE90423FFF718
:101CA00025FCCDE906AB0646884600F051FB3246DE
:101CB0004346FFF71BFCDDE90623FFF757FB06460B
:101CC00088460020534922462B46FFF74FFB00224F
:101CD0004FF08043FFF70AFC32464346FFF744FECD
:101CE000DDE90423FFF702FC02460B46DDE90601AD
:101CF000FFF73AFE04460D464D4A4E4BFFF7C8FC2F
:101D0000CDE904013846FFF719FB009A07468B46D8
:101D1000D2E900013A465B46FFF726FEDDE90423DF
:101D2000FFF722FECDE90401DDE90823FFF7DEFB22
:101D3000CDE902010022404BFFF71EFAC0F080807F
:101D400001223E4BFFF730FA40F27E800022002352
:101D5000FFF712FADDE9022339BF00202C490020E9
:101D60002A49FFF701FEFFF7BDFA0646DDE9080143
:101D700022462B46FFF7BAFBCDE90201009A2C4C14
:101D80002C4DD2E902019046D8E90423FFF7ECFD7F
:101D9000DDE90823FFF7AAFB22462B46FFF7A6FB47
:101DA000DDE90223FFF7E0FDCDE90201DDF8008067
:101DB0003A46D8E900015B46FFF7D6FDDDE9082386
:101DC000FFF794FB07468B463046FFF7B7FA02460B
:101DD0000B4638465946FFF7C9FA22462B46FFF70D
:101DE00085FBDDE90223FFF7BFFDCDE90201129873
:101DF00008B10680002600960022064B02A800F0DB
:101E0000FDFAE8B101281FD02AE000BF0000E03F42
:101E10000000E0BF0000F03F0000F0FF0000F07F96
:101E2000CD3B7F669EA0E63F000050400000903F03
:101E3000EF39FAFE422EE63F0000E0C00000E0402D
:101E40000020CDE9020007E00020014902E000BFC8
:101E50000000F07FCDE9020100F074FA2221016058
:101E6000BDF904000028DDE9020118BF81F000413E
:101E70000AB0BDE8F08D10B582B000240094FFF7E1
:101E8000EBFD1CBD00000000000000000000F0BFE2
:101E90000000000000000080000000000000008042
:101EA0000000000000000000000000C05294EEBFDF
:101EB00000000048204E51BE000000F86467BCBC22
:101EC0000000000000000000000000208133EDBF92
:101ED00000000080B3DB14BE000000506706A3BC06
:101EE0000000000000000000000000D0E9DCEBBFB3
:101EF00000000008C39259BE00000080B0D3B8BCF7
:101F0000000000000000000000000070F98FEABF30
:101F1000000000C0A51028BE000000E8BFC0B0BC93
:101F2000000000000000000000000070284CE9BF25
:101F300000000060134B42BE000000C03D20B8BC52
:101F4000000000000000000000000050FA10E8BF90
:101F5000000000C05FF62BBE000000905C71A7BCC3
:101F6000000000000000000000000020FCDDE6BFD3
:101F7000000000C0F8F154BE00000018E9F6B9BC3A
:101F80000000000000000000000000D0C3B2E5BF68
:101F900000000070E43254BE00000050DB06B4BC08
:101FA000000000000000000000000010EF8EE4BF01
:101FB00000000020F36252BE000000C02A879ABCD5
:101FC0000000000000000000000000B02272E3BF2B
:101FD000000000F0E8E056BE00000028352DBDBC32
:101FE0000000000000000000000000000A5CE2BFEA
:101FF000000000B0FA8E41BE00000040AE6FBDBCD4
:10200000000000000000000000000000564CE1BF8E
:10201000000000F015CD5FBE00000000141C90BC55
:10202000000000000000000000000040BD42E0BFD2
:1020300000000030F93457BE000000E06C1E93BC75
:102040000000000000000000000000E0F57DDEBFA1
:10205000000000B08A535EBE00000080DA77AABCA0
:102060000000000000000000000000C09D81DCBFF7
:1020700000000000FFA226BE0000006057E2B0BCD6
:10208000000000000000000000000060F98FDABFCF
:10209000000000580A8151BE000000F05F60B8BC2B
:1020A00000000000000000000000000098A8D8BF59
:1020B000000000607A7F45BE000000D05433A3BC0E
:1020C0000000000000000000000000600FCBD6BF41
:1020D000000000D091CB40BE000000406D1BA0BCB2
:1020E0000000000000000000000000A0FBF6D4BFCC
:1020F00000000098C5CE52BE000000003A397EBCF8
:102100000000000000000000000000E0FE2BD3BF34
:102110000000004073872BBE00000000926879BC6D
:10212000000000000000000000000040C069D1BFB6
:1021300000000058F16353BE00000080438D7CBC5A
:10214000000000000000000000000080D85FCFBF4A
:10215000000000181F8354BE000000B03F42A2BC24
:1021600000000000000000000000008067FCCBBF02
:1021700000000060FAFF53BE00000050E00DB8BC44
:1021800000000000000000000000000098A8C8BF88
:10219000000000607A7F35BE000000C0543393BC5D
:1021A000000000000000000000000000DC63C5BF6C
:1021B00000000058D6FF54BE00000000396490BCF7
:1021C0000000000000000000000000C0AD2DC2BFF4
:1021D00000000080A45915BE000000E0484BABBCD5
:1021E0000000000000000000000000801A0BBEBFCD
:1021F00000000050BF3C5ABE000000A0B364B6BC53
:1022000000000000000000000000008004D6B7BFFE
:1022100000000040BBCF36BE0000008076CEA8BCD8
:1022200000000000000000000000008032BBB1BFD1
:10223000000000402A0043BE00000028C60CBDBCC0
:102240000000000000000000000000009473A7BF21
:10225000000000182B3B59BE000000C0E55DA5BC86
:10226000000000000000000000000000EE4397BFE7
:10227000000000A0E6C340BE00000020958DB5BC64
:1022800000000000000000000000000000000080CE
:10229000000000000000008000000000000000803E
:1022A00000000000000000004268C2F30A5240F241
:1022B000FF739A4207D14168090303BF00680028F1
:1022C00001200220704743685B0004BF0368002BB5
:1022D00025D040F233439A1A521A012A1FDB352ABD
:1022E00006DB416801F0004141600021016013E01C
:1022F000012102F01F039940491E920607D542684A
:1023000011404A40426002681143002202E0026824
:1023100011404A40026011B14FF0FF307047002079
:102320007047000090420CD141EA030C50EA4C0C7B
:1023300007D0994205D14FF4001C1CEB410F38BF68
:10234000894270470148FFF783BB000080020020EC
:1023500038B504460D461B481B4922462B46FFF75D
:10236000C5F81A4A1A4BFFF7FFFA22462B46FFF729
:10237000BDF8184A184BFFF7F7FA22462B46FFF72D
:10238000B5F8164A164BFFF7EFFA22462B46FFF731
:10239000ADF8144A144BFFF7E7FA22462B46FFF735
:1023A000A5F8124A124BFFF7DFFA22462B46FFF739
:1023B0009DF801B0BDE830400E4A0F4BFFF7D4BA8C
:1023C00000000000F7DE29BFD8F8C23FF4B3FECC0E
:1023D0001A99C33F62CB68D96F46C73FC6C912DAA4
:1023E000C471CC3F4AE98A942449D23FF75F979958
:1023F0009999D93FBC5555555555E53F2DE9F04DB7
:10240000804686B0D8E9006714461D4630463946F6
:1024100000F052F982462046294600F04DF9BAF103
:10242000000F06D500284DD4022806D1C8E9004582
:102430003FE1BAF1020FF7D121E050B90022524B2F
:1024400030463946FFF76EFF0FD0C8E9004500203F
:102450002FE1012815D100224C4B30463946FFF7B9
:1024600061FF18BFC8E900454FD1FFF76BFF21217D
:1024700001604FF0FF306FF00041C8E90001022019
:1024800017E1BAF1000F0FD1C8E900450E99404697
:10249000FEF7A2FE040018BF012C40F00981FFF7EF
:1024A00051FF2221016003E10022374B30463946BB
:1024B000FFF738FF0DD120462946FFF717F8C8E986
:1024C000000122E0304639460022314BFEF754FE2F
:1024D0000AD2002320462946FFF708F8C8E9000180
:1024E00006B00020BDE8F08D01222A4BFEF75CFE0D
:1024F0000DD80022244B20462946FEF7F7FFC8E9F5
:102500000001FFF71FFF222101600120D1E0224AD4
:10251000224BFEF7EBFF00220023FEF72DFE34BF17
:102520001F4B414BFFF720FAFEF7DCFE0290FEF74F
:1025300005FF82468B464FF078421A4BFEF7D6FFD6
:1025400002460B4630463946FEF710FF06460F4658
:10255000154A164B50465946FEF7C8FF02460B4631
:1025600030463946FEF702FF6FF00102104BFEF7CE
:102570001BFE06460F461FD800220E4BFEF7FCFD41
:102580001AD22046294683E00000F07F0000F0FFC9
:1025900000C89CC000C89C40FE822B654715F73FD1
:1025A0000000E0BF422EE63FF2E4D5BCE7E84B3E38
:1025B000FFFF8FBC0000903C32463B46FEF796FF83
:1025C00082468B46194A1A4BFEF790FF194A1A4B5E
:1025D000FFF7CAF902460B4650465946FEF786FFFA
:1025E000CDE90401154A164B50465946FEF77EFFC9
:1025F000144A154BFFF7B8F902460B4650465946A8
:10260000FEF774FF0022084BFFF7AEF902460B46B7
:1026100030463946FEF76AFFDDE9042306468B465D
:10262000FFF7A2F9094F13E00000E03F112E578198
:10263000A03F503F5843128C8F71BC3F4BE8A541DF
:10264000B752013F0BBDF3DAE8708C3F0000F03F5A
:1026500002460B4600203946FFF786F9CDE9000116
:102660003246DDE904015B46FEF780FE02460B467A
:1026700000203946FFF778F902460B46DDE90001F4
:10268000FFF706F802460B4620462946FEF72EFFC6
:10269000C8E9000102980E9909184046FEF79CFD12
:1026A000040018BF012C03D1FFF74CFE222101606A
:1026B000204606B0BDE8F08DC1F30A5240F2FF7328
:1026C0009A420AD012B14FF0FF307047090350EA26
:1026D000113009D06FF001007047090350EA113042
:1026E00001D0022070470120704700002DE9FA4F09
:1026F00083B0040015000E9E0F9FDDF84080DDF8CA
:1027000044902000002802D100F095FBFEE7052E42
:1027100002D300F090FBFEE74146280080B200F0B3
:102720000AFB8246BAF1000F70D0DAF83000ADB281
:1027300010EB8500001F83465FEADB0B5FEACB0BE3
:102740001BF00700002802D000F075FBFEE7280010
:1027500080B200904B4632000399504600F032FAA6
:10276000049A2100584600F091FBCAF80000002F9F
:1027700001D0C7F800A000F0F0FBDFF818040068F3
:10278000401CDFF810140860DFF82C0400680028F3
:102790000BD1DFF82404C0F800A0DFF8F8030068CC
:1027A000012811D100F041FA0EE0DFF8EC030068D7
:1027B000002809D1DFF800040068C06A864203D30C
:1027C000DFF8F403C0F800A0DFF8D0030068401C75
:1027D000DFF8C8130860DFF8E40300680121DAF8C5
:1027E0002C2091400843DFF8D41308601AF104014B
:1027F000DFF8CC03DAF82C20142303FB020000F0EE
:1028000013FC0120019000F0C0FB02E05FF0FF30FC
:102810000190019801280CD1DFF87C0300680028A2
:1028200007D0DFF894030068C06AB04201D200F01C
:102830008BFB019805B0BDE8F08F70B50400002651
:10284000002C2BD0DFF868050068002802D000F0CB
:10285000F2FAFEE700F053F8DFF88C040068201865
:102860000500DFF854030068001D00F006FC002896
:102870000ED1DFF844030068DFF840130968012235
:10288000C06A12FA00F031EA0000DFF83013086085
:10289000280000F02BFA00F03AF80600002E01D1D3
:1028A00000F052FB70BD1FB5002003900020029085
:1028B000002001900020009000238022DFF8F8140F
:1028C0000FF2DD20FFF712FF0400012C11D100F000
:1028D000B2FA5FF0FF30DFF8E41408600120DFF89F
:1028E000B81208600020DFF8E014086000F0E8FA91
:1028F00004E0002C02D100F09EFAFEE71FBDDFF8D5
:10290000B0040068401CDFF8A8140860704738B5B0
:102910000025DFF89C040068002802D100F08BFA43
:10292000FEE700F01AFBDFF888040068401EDFF8BD
:1029300080140860DFF878040068002857D1DFF8B9
:1029400054020068002852D0DFF8740400680028A0
:102950002AD0DFF86C04C068C068040014F11800C5
:1029600000F08BFB201D00F088FBDFF850020068B0
:102970000121E26A91400843DFF840120860211DFE
:10298000DFF83C02E26A142303FB020000F04CFB78
:10299000E06ADFF824120968C96A8842D4D30120AA
:1029A000DFF828140860CFE7DFF818040068002873
:1029B00014D0DFF81004006800280FD000F01BF8D6
:1029C000002803D00120DFF804140860DFF8F403C6
:1029D0000068401EDFF8EC130860EAE7DFF8EC035C
:1029E0000068012803D10120050000F0ADFA00F0D5
:1029F000CCFA280032BD2DE9F0410026DFF8B00303
:102A00000068002840F08080DFF8DC020068401C8D
:102A1000DFF8D4120860DFF8D0020768002F1FD15A
:102A2000DFF8B00300680068002802D000F003FA65
:102A3000FEE7DFF8A00300688046DFF89C0300682B
:102A4000DFF890130860DFF89003C0F80080DFF82B
:102A50008C030068401CDFF88413086000F092F9D2
:102A6000DFF858030068874240D3DFF86803006846
:102A70000068002805D15FF0FF30DFF840130860E0
:102A800034E0DFF850030068C068C0680400606884
:102A90000500AF4203D2DFF82403056026E0201DC5
:102AA00000F0EBFAA06A002803D014F1180000F03F
:102AB000E4FADFF8080100680121E26A9140084366
:102AC000DFF8F8100860211DDFF8F400E26A142333
:102AD00003FB020000F0A8FAE06ADFF8DC100968E6
:102AE000C96A8842C1D301200600BEE7DFF8D000E2
:102AF00031490968C96A142202FB010000680228F2
:102B000009D30120060006E0DFF8B8020068401C87
:102B1000DFF8B0120860DFF8B4020068002801D0C6
:102B2000012006003000BDE8F08110B5DFF880021A
:102B30000068002804D00120DFF89012086028E027
:102B40000020DFF8881208601C480068B0FA80F0A6
:102B5000D0F11F0004001A48142101FB0400006892
:102B6000002802D100F067F9FEE71549142202FBA4
:102B700004110800416849684160416810F1080289
:102B8000914202D14168496841604068C0680A4981
:102B9000086010BD5C690020686900207869002029
:102BA00010B5040000F06DF8DFF834020068022868
:102BB000F8D300F0C9F9F5E74C69002064690020FA
:102BC000806700202DE9F04104000D0016001F0071
:102BD00000208046B8F1100F0CD218F8050018EB51
:102BE000040181F8340018F80500002802D018F11B
:102BF0000108EFE7002084F84300052E01D30420EC
:102C00000600E662201D00F00CFA14F1180000F036
:102C100008FA2461D6F10500A061646200206064B6
:102C2000002084F84800BDE8F08110B500200400C1
:102C3000052C08D2DFF8A801142101FB040000F0E4
:102C4000E1F9641CF4E7DFF89C0100F0DBF9DFF840
:102C5000980100F0D7F9DFF8680100F0D3F9DFF848
:102C60008C0100F0CFF9534800F0CCF9DFF8740183
:102C7000DFF860110860DFF87001DFF85C110860B0
:102C800010BD38B5DFF86801006800282BD0FFF7C9
:102C900036FEDFF858010068002801D1012400E069
:102CA0000024FFF734FE002CECD100F056F9DFF8D9
:102CB0003C01C068C0680500281D00F0DEF9DFF89F
:102CC00010010068401EDFF808110860DFF82001DD
:102CD0000068401EDFF81811086000F056F928005F
:102CE00000F047F8CEE731BD6069002010B5040060
:102CF000DFF8000100684460DFF8CC00006884421F
:102D000009D2DFF8F0000068011DDFF8CC00006890
:102D100000F096F90EE0DFF8DC000068011DDFF836
:102D2000B400006800F08CF924480068844201D2A5
:102D30002248046010BDF8B504000D00002D04D138
:102D4000A4B2A00000F0AEF900E028000700002FB8
:102D50000BD04C2000F0A6F90600002E01D03763FE
:102D600005E0380000F01BFA01E00020060030000A
:102D7000F2BD10B50400206B00F011FA200000F045
:102D80000EFA10BDDFF84C1009680968002904D15B
:102D90005FF0FF31094A116008E0DFF83810096878
:102DA000C968C96808004168044A1160704700009A
:102DB00080690020FC680020687A00087C69002097
:102DC000D46800206C6900206069002070690020D0
:102DD0005C6900205069002054690020746900205B
:102DE00080670020AC680020C0680020E8680020F0
:102DF000586900204C690020EFF30980BFF36F8F02
:102E0000204B1A6820E9F00F106008B54FF0100051
:102E100080F31188FFF789FE4FF0000080F31188DE
:102E2000BDE8084019680868B0E8F00F80F3098829
:102E3000BFF36F8F7047EFF311804FF0100181F3F4
:102E40001188704780F3118870470E4B1968086825
:102E5000B0E8F00F80F30988BFF36F8F4FF00000E8
:102E600080F311884EF00D0E704707480068006827
:102E700080F3088862B661B6BFF34F8FBFF36F8FE0
:102E800000DF00004C69002008ED00E0001F5FF04B
:102E900080730360001F0160001F0FF20D030360C9
:102EA000143802602038704780B54E48006810F131
:102EB000010F02D0FFF7BFFFFEE7FFF7BCFFFEE701
:102EC00000B583B0484801780191FF210170017875
:102ED0008DF800109DF8001011F01001434A117098
:102EE0000721434A11609DF8001009060AD54049A0
:102EF0000968491E3E4A11609DF8001049008DF88E
:102F00000010F0E73A4909680902394A1160384966
:102F1000096811F4E061364A116001990170354881
:102F2000006850F47000334908603248006850F07F
:102F300070403049086000F04CF8002029490860D2
:102F4000FFF793FF00200EBD5FF080502A49086014
:102F5000BFF34F8FBFF36F8F704780B5FFF76BFFE5
:102F600020480068401C1F490860BFF34F8FBFF323
:102F70006F8F1C480068012806D11F4800680006B2
:102F800002D0FFF758FFFEE701BD80B51548006885
:102F9000002802D1FFF74FFFFEE712480068401EED
:102FA000104908600F480068002802D10020FFF790
:102FB00049FF01BD80B5FFF73EFFFFF71CFD00286C
:102FC00003D05FF080500C4908600020FFF73AFF03
:102FD00001BD40F2CF700949086007200849086028
:102FE000704700000000002000E400E08569002038
:102FF0004469002020ED00E004ED00E014E000E072
:1030000010E000E010F1080141605FF0FF318160E5
:1030100010F10801C16010F1080101610021016097
:10302000704700210161704742684A6093688B6075
:10303000936859609160086103685B1C0360704786
:1030400010B40B6813F1010F02D10469220008E0EB
:1030500010F10804220054682468A34201D3526886
:10306000F9E754684C604C68A1608A60516008615F
:103070000468641C046010BC7047010008698A6819
:103080004B689A604A688B685A6042688A4201D1EC
:103090008A68426000220A610268521E026000686B
:1030A000704700002DE9F04104005FF00008FFF7D1
:1030B00026FC88480068002801D100F0A2F8864864
:1030C000006804425FD1002C10D0844800680419C5
:1030D00014F0070F0AD014F1080014F00701441A85
:1030E00014F0070F02D0FFF7A6FEFEE7002C4AD02F
:1030F0007B480068A04246D37A48060079480068B9
:1031000005006868A04205D22868002802D02E0079
:103110002D68F6E76F480068854234D030686F4903
:10312000096808188046286830606C4800684000CC
:103130006968091B88420FD26019070017F0070061
:10314000002802D0FFF777FEFEE76868001B786072
:103150006C60380000F08CF8614800686968401ABB
:103160005F4908605E4800685F490968884203D289
:103170005B4800685C49086068685749096808430B
:10318000686000202860FFF7C2FB18F007000028E5
:1031900002D0FFF750FEFEE74046BDE8F08170B573
:1031A00004002600002C2BD04C480068361A35004D
:1031B000686849490968084202D1FFF73CFEFEE70A
:1031C0002868002802D0FFF736FEFEE7686842490B
:1031D0000968084214D02868002811D168683E495F
:1031E000096888436860FFF78AFB3D4800686968A2
:1031F00008183B490860280000F03AF8FFF787FB01
:1032000070BD30B44FF48843384C220012F0070FE1
:1032100005D0D21DD208D2009B1A344CE3181100FD
:10322000304C216000242F4D6C605C1822002B4C28
:103230002468121BD208D200264C22600024254D9F
:103240002D686C600024234D2D682C600800141A32
:103250004460204C246804604468234D2C6044681A
:103260001F4D2C605FF000441B4D2C6030BC70473C
:1032700010B41C4B1A001368834201D21268FAE79B
:10328000110053685B18834204D153684468E31803
:1032900053601000010043685B181468A34211D109
:1032A00013680C4C2468A34208D04368146864680F
:1032B000E318436013681B68036005E0054B1B6857
:1032C000036001E013680360824200D0106010BC0C
:1032D000704700001C69002028690020707A0008EF
:1032E000206900201069002024690020800B002044
:1032F000F0B583B006004FF42040DFF8E815086011
:103300005FF40031DFF8E00500F029FC002814D05C
:10331000DFF8D0050068411EDFF8C82511600028DD
:10332000EED100F089FC00208DF804000020009010
:10333000DDE90001C6E9000174E10121DFF8A8051B
:1033400000F0B6FB4FF48050DFF898150860DFF806
:103350009C15DFF8940500F0E6FB002814D1DFF897
:1033600084050068411EDFF87C2511600028EED13D
:1033700000F062FC00208DF8040000200090DDE9E0
:103380000001C6E900014DE100228021DFF8580567
:1033900000F0B8FB4FF48050DFF848150860DFF804
:1033A0005015DFF8440500F0BEFB002814D1DFF80B
:1033B00034050068411EDFF82C2511600028EED18D
:1033C00000F03AFC00208DF8040000200090DDE9B8
:1033D0000001C6E9000125E10121DFF80C0500F03C
:1033E00059FBF321DFF8000500F097FB4FF4805004
:1033F000DFF8F0140860DFF8FC14DFF8EC0400F0EC
:1034000092FB002814D1DFF8DC040068411EDFF8CD
:10341000D42411600028EED100F00EFC00208DF8BD
:10342000040000200090DDE90001C6E90001F9E098
:103430000121DFF8B40400F049FB4620FFF7FDF955
:103440000121DFF8A40400F033FB4FF48050DFF8D3
:1034500094140860DFF89414DFF88C0400F063FB28
:10346000002814D1DFF87C040068411EDFF87424C2
:1034700011600028EED100F0DFFB00208DF8040081
:1034800000200090DDE90001C6E90001CAE0012248
:103490008121DFF8540400F035FB4FF48050DFF851
:1034A00044140860DFF85014DFF83C0400F03BFBE4
:1034B000002814D1DFF82C040068411EDFF8242412
:1034C00011600028EED100F0B7FB00208DF8040059
:1034D00000200090DDE90001C6E90001A2E04FF400
:1034E0008050DFF800140860DFF81014DFF8F803EC
:1034F00000F019FB002814D1DFF8E8030068411E32
:10350000DFF8E02311600028EED100F095FB0020E9
:103510008DF8040000200090DDE90001C6E90001FB
:1035200080E0DFF8C40300F0FBFA04004FF48050A1
:10353000DFF8B0130860DFF8C413DFF8AC0300F065
:10354000F2FA002814D1DFF89C030068411EDFF86E
:10355000942311600028EED100F06EFB00208DF85E
:10356000040000200090DDE90001C6E9000159E0F7
:10357000DFF8740300F0D4FA07000021DFF86803D5
:1035800000F0B2FA4FF48050DFF858130860DFF80B
:103590006C13DFF8540300F0C6FA002814D1DFF8EA
:1035A00044030068411EDFF83C2311600028EED17F
:1035B00000F042FB00208DF8040000200090DDE9BF
:1035C0000001C6E900012DE0C74800F0A9FA012179
:1035D000C54800F07BFA0121C34800F085FA17F0D6
:1035E000FC07E4B2FFB257EA04200500ADB22800A0
:1035F00000F092FB5FF08F4100F09EFB00F01AFCA0
:10360000BF4AC04BFDF772FFBF4AC04BFEF7ACF993
:1036100000F038FC009001208DF80400DDE9000185
:10362000C6E90001FEBDF0B583B007004FF42040AD
:10363000AC4908605FF40031AB4800F090FA002814
:1036400012D0A8480068411EA64A11600028F1D196
:1036500000F0F2FA00208DF8040000200090DDE96F
:103660000001C7E900013CE101219F4800F020FA78
:103670004FF480509B4908609C499B4800F053FAE6
:10368000002812D197480068411E964A1160002810
:10369000F2D100F0D1FA00208DF804000020009053
:1036A000DDE90001C7E900011BE1002280218E480D
:1036B00000F028FA4FF480508A4908608C498A4803
:1036C00000F031FA002812D186480068411E854A70
:1036D00011600028F2D100F0AFFA00208DF804004C
:1036E00000200090DDE90001C7E90001F9E00121B7
:1036F0007D4800F0CFF9F5217B4800F00EFA4FF439
:103700008050784908607B49774800F00CFA00281F
:1037100012D174480068411E724A11600028F2D12B
:1037200000F08AFA00208DF8040000200090DDE906
:103730000001C7E90001D4E001216B4800F0C6F99F
:103740001E20FFF77AF80121674800F0B1F94FF425
:103750008050644908606549634800F0E4F9002836
:1037600012D160480068411E5E4A11600028F2D103
:1037700000F062FA00208DF8040000200090DDE9DE
:103780000001C7E90001ACE001228121564800F0A8
:10379000B9F94FF48050534908605749524800F036
:1037A000C2F9002812D14F480068411E4D4A1160ED
:1037B0000028F2D100F040FA00208DF8040000202B
:1037C0000090DDE90001C7E900018AE04FF4805074
:1037D000444908604949444800F0A5F9002812D13D
:1037E00040480068411E3F4A11600028F2D100F0B5
:1037F00023FA00208DF8040000200090DDE900018C
:10380000C7E900016DE0384800F08AF904004FF480
:103810008050344908603949334800F084F9002861
:1038200012D130480068411E2E4A11600028F2D1A2
:1038300000F002FA00208DF8040000200090DDE97D
:103840000001C7E900014CE0274800F069F90500D4
:103850000021254800F048F94FF4805021490860C4
:103860002649214800F05FF9002812D11D48006860
:10387000411E1C4A11600028F2D100F0DDF9002041
:103880008DF8040000200090DDE90001C7E9000187
:1038900027E0154800F044F90121134800F016F91B
:1038A0000121114800F020F915F0FC05E4B2EDB259
:1038B00055EA04200600B6B2300000F02DFA5FF0A1
:1038C0008F4100F039FA124900F024FB114900F051
:1038D0008DFB009001208DF80400DDE90001C7E9AF
:1038E0000001FEBD486900200054004001000300B3
:1038F000820007008400070002000300400003006C
:10390000D7A3703D0AF76540CDCCCCCCCC6C47C07A
:103910000000FA420000C0C010B588B0040002A840
:10392000FFF7E6FC6846FFF77EFE029804900098D9
:1039300005909DF80C009DF80410084203D001206A
:103940008DF8180002E000208DF8180004A80EC8B9
:103950000EC40C380C3C08B010BD000010B50400BB
:10396000484884420AD101215FF4001000F032FC83
:1039700000215FF4001000F02DFC09E001215FF44C
:10398000800000F027FC00215FF4800000F022FCA2
:1039900010BD2DE9F04385B004000D005FF0000973
:1039A00000260427DFF8E080A08881464FF6C0702B
:1039B00010EA0909684600F05BFB0298804633482C
:1039C000B8FBF0F0060056EA0909A4F80490208834
:1039D0004FF6FE71084020800020814628682C495F
:1039E00088420ED228684000B8FBF0F00700BFB252
:1039F000042F01DA0420070057EA0909701C20840B
:103A000026E0E8884BF6FF71884206D1286803213A
:103A10004843B8FBF0F0070007E028681921484345
:103A2000B8FBF0F0070057F48047380501D157F094
:103A3000010757F4004050EA0909B6B24FF49670F6
:103A400000FB06F04FF47A7190FBF1F0401C2084EB
:103A5000A4F81C90208850F0010020802088814626
:103A60004FF6F53010EA0909A8886989084350EA39
:103A70000909A4F80090A88929890843208105B084
:103A8000BDE8F0830054004000127A0040420F006D
:103A9000A1860100C9B2002904D0028852F00102B7
:103AA000028004E002884FF6FE731A4002807047DD
:103AB000C9B2002904D0028852F48072028004E066
:103AC00002884FF6FF631A4002807047C9B200298E
:103AD00004D0028852F40072028004E002884FF69B
:103AE000FF531A4002807047C9B2002904D00288EF
:103AF00052F48062028004E002884FF6FF331A40DD
:103B000002807047D2B2002A02D051F0010101E0D8
:103B100011F0FE01C9B201827047C9B2018270473B
:103B2000008AC0B2704770B4020000230024002550
:103B30000020968A3400168B35002D0455EA0406C1
:103B40003602360A330011EA03068E4202D10126FC
:103B5000300001E000263000C0B270BC704782B077
:103B600002000020002301930023009300920B0F1A
:103B700001930902090A019B002B03D0009B143317
:103B8000009303E0090C009B18330093009B1B6813
:103B90000B4202D00123180001E000231800C0B23C
:103BA00002B0704700B587B001215FF4001000F04B
:103BB00002FB0121022000F0E0FA042208214E4815
:103BC00000F080FB042209214B4800F07BFB4FF4FE
:103BD0004070009002208DF8040003208DF805004D
:103BE00001208DF806006946434800F017FB434862
:103BF000FFF7B4FE0020ADF80C004BF6FF70ADF8F7
:103C00000E000020ADF810004FF48060ADF81200F7
:103C10004FF48040ADF81400394802900121374834
:103C2000FFF738FF02A93548FFF7B3FE01213348FB
:103C3000FFF75AFF07B000BD00B587B04FF44070E2
:103C4000009001208DF8040001208DF8070003206A
:103C50008DF805006946284800F0E0FA4FF44071FD
:103C6000254800F02DFB2548008850F400402349EA
:103C70000880224800884004400C204908804FF406
:103C80004070009002208DF8040003208DF805009C
:103C900001208DF806006946174800F0BFFA04229B
:103CA0000821154800F00EFB04220921124800F0FB
:103CB00009FB0020ADF80C004BF6FF70ADF80E00CC
:103CC0000020ADF810004FF48060ADF812004FF402
:103CD0008040ADF814000A48029001210748FFF720
:103CE000D9FE02A90548FFF754FE01210348FFF75A
:103CF000FBFE07B000BD000000040240005400407D
:103D0000A0860100002840F10980F446404200F0FE
:103D100005F850F000406047002800BF0AD0B0FA14
:103D200080F18840D1F19D01C905020672F100427F
:103D300041EB10207047000010B5FF2313EAD05468
:103D40001DBF13EAD1529C429A4239E0A41ADA0705
:103D500080EA0103134042EA012142EA0020421AAC
:103D60003CBF641E01EB4202090AB2FBF1FE01FBFB
:103D70001E221202B2FBF1F001FB10226EF30F20A3
:103D80001202B2FBF1FE4EEA00207F3406DDFE2C6B
:103D900024DA53EA500050EBC45010BDD4F10204B1
:103DA00001FB1E2240F08071192C1DDC21FA04F069
:103DB000C4F12004A140114371F10042584110BDEB
:103DC0009C421ABF03EAD1529A420FE080EA010EE8
:103DD0000EF00043400004D0490016D143F0FF40EC
:103DE00010BD490008BFD343180010BD9C4205D147
:103DF000D21AF7D001F00041484010BD4A0212BF6C
:103E00000846484000F0004010BD4AB90902B1FA26
:103E100081F2914044B1A418C00140F000409EE7F7
:103E2000C90141F0004152420002B0FA80F4A040C2
:103E3000141B94E75FF0FF0C1CEAD05114BF6145DE
:103E400006E0C110400721F0E04101F160517047E8
:103E500079B900F0004100020AD0B0FA80FC00FA03
:103E60000CF001F16051A1EB0C5101EBD0214005A8
:103E7000704741020CBF40F4E0016FF000010020E8
:103E8000704700004FEAF17CBCF1E04C2CBFBCF560
:103E9000001F11E05FEA4C0C34BFBCF17F5F2EE0E5
:103EA0005FEA9C0C4FEA0C1C4FEA3C0CC10071F11C
:103EB00000414CEB50707047C90241EA5051C002BA
:103EC00018BF41F0010141F000414FEA6C50C0F1D0
:103ED0000900212810D240EACC7CCCF1200C11FA48
:103EE0000CF070F10040CCF1200C21FA0CF00CF039
:103EF000004C40EB0C0070474FEACC707047490013
:103F000011F5001F04D84FEACC10FF30C0057047F0
:103F1000C8177047FF2212EAD05C1DBF12EAD153C6
:103F2000944593422BE09C44D30780EA01021A4057
:103F300043EA002043EA0121A1FB0030410038BFE1
:103F400040007CF17F010BDBFE294ADA5B0842EA84
:103F5000C15153EA006373F1004C51EB10207047DC
:103F6000D1F1080CDCF120012FDB5B0810FA01F124
:103F70000B4373F1004120FA0CF050417047944517
:103F80001CBF02EAD153934280EA010202F00042D0
:103F90001DD0400019D0490017D05BB9634514D03B
:103FA0000902B1FA81F39940BCEB030CC00140F067
:103FB0000040C1E70002B0FA80FC10FA0CF0B3EB4D
:103FC0000C0CC90141F00041B6E7100070474000F9
:103FD0000AD0490008D010F1807F94BF11F1807F92
:103FE00002E042F0FF407047D043704790EA010F73
:103FF00044BF81F0004100F093B900BF421A3CBFBA
:10400000801A89184FF0004CC0F3C752FF2A24D001
:10401000C1F3C75313B3D21AD2F1190327DD4CEA07
:1040200001214CFA03F321EA0303D140C20D4CEA0B
:104030000020401834BF20EA0C004CEA5000D205A2
:1040400053EA006373EB0C0C52EB1020420012F1A8
:10405000807F38BF7047C00DC0057047490212BF4E
:104060009A4200EB5120F8E7D2F11703D9D57047F7
:10407000F0B40021002200230024002500265D4F1B
:104080003F6817F00C0739000F00002F06D0042FEF
:1040900014D0082F15D00C2F16D039E0564F3F689A
:1040A000C7F342373E00012716F1010C17FA0CF74F
:1040B0004FF4004C0CFB07F7076038E04F4F0760E8
:1040C00035E04F4F076032E04A4F3F6817F47017F2
:1040D0003A00484F3F6817F440073B00494F920CA5
:1040E000D25D9B0D5B1C434F3F6817F480373C004B
:1040F000002C06D1414F07FB02F7B7FBF3F707602F
:1041000005E03F4F07FB02F7B7FBF3F707600EE050
:10411000394F3F68C7F342373E00012716F1010CC3
:1041200017FA0CF74FF4004C0CFB07F70760314F00
:104130003F6817F0F00739000909334FCF5D3D00A4
:104140000768EF4047602B4F3F6817F4E06739007E
:10415000090A2D4FCF5D3D004768EF408760254F2E
:104160003F6817F460573900C90A274FCF5D3D00FB
:104170004768EF40C760F0BC7047C9B2002905D05E
:10418000224A12680243214B1A6004E01F4A126857
:1041900082431E4B1A607047C9B2002905D01C4AE1
:1041A000126802431A4B1A6004E0194A12688243EB
:1041B000174B1A607047C9B2002905D0154A12681A
:1041C0000243144B1A6004E0124A12688243114BF6
:1041D0001A607047C9B2002905D00F4A126802431D
:1041E0000D4B1A6004E00C4A126882430A4B1A60B5
:1041F0007047000008380240043802400024F400F0
:1042000000127A0004000020100000201C38024038
:10421000203802402438024018380240F0B400220E
:1042200000230024002500263200102A46D2012651
:10423000964033000E681E4034009C423CD1066814
:10424000350003261700FFB27F00BE40B5430E794C
:104250001700FFB27F00BE40354305600E79012E86
:1042600002D00E79022E18D1866835000326170079
:10427000FFB27F00BE40B5434E791700FFB27F000A
:10428000BE40354385608688350001269640B5439B
:104290008E799640B6B235438580C66835000326D0
:1042A0001700FFB27F00BE40B543CE791700FFB2C2
:1042B0007F00BE403543C560521CB6E7F0BC704776
:1042C00001837047F0B400230024D2B211F0070537
:1042D000EDB2AD0012FA05F52B0089B2CD1010EB4E
:1042E000850589B2CE1010EB8606366A0F2711F0CD
:1042F000070C5FFA8CFC5FEA8C0C17FA0CF7BE43D4
:104300002E6289B2CD1010EB85052D6A1D432C005D
:1043100089B2CD1010EB85052C62F0BC704700000F
:10432000431A4FF000423EBF5340C01AC91800BFA5
:10433000D3095FEAD05C13EB400F34BFB3EB410FFE
:1043400040E07CEBD1530CD342EA012122D8D1EBDF
:10435000402009D3400A28BF5FEA500140EBCC500F
:104360007047401A15D04002B0FA80F2521C9040BB
:10437000400A4FEA3C23B3EB026384BF00EB7300B7
:1043800007E040F400001A16DB07C2F10102D0403A
:1043900018437047182BFCDC31FA03F202FA03F3DE
:1043A000591A38BF42F00102D2EB40203CBF400016
:1043B000ACF1010C5FEACC5CC20572F100414CEB40
:1043C0005020704713EB400F0FD24B0009D0ACEBDD
:1043D000D153022B03DB4902172BDDDD70479143DC
:1043E000401A4300D5D10020704713EB410FD0D3C2
:1043F0006FF000007047000010B582B004004FF469
:104400002040DFF8B01508605FF40031DFF8A80540
:10441000FFF7A5FB002812D0DFF898050068411EC1
:10442000DFF8902511600028EED1FFF705FC002091
:104430008DF8010000208DF800000098FEE00121B9
:10444000DFF87405FFF734FB4FF48050DFF8641594
:104450000860DFF86815DFF86005FFF764FB0028E7
:1044600012D1DFF850050068411EDFF848251160C1
:104470000028EED1FFF7E0FB00208DF801000020BE
:104480008DF800000098D9E000223A21DFF82805D5
:10449000FFF738FB4FF48050DFF818150860DFF89D
:1044A0002015DFF81405FFF73EFB002812D1DFF8D6
:1044B00004050068411EDFF8FC2411600028EED1DD
:1044C000FFF7BAFB00208DF8010000208DF80000F6
:1044D0000098B3E00121DFF8E004FFF7DBFA2100E8
:1044E000C9B2DFF8D404FFF718FB4FF48050DFF8AF
:1044F000C4140860DFF8CC14DFF8BC04FFF713FB2A
:10450000002812D1DFF8AC040068411EDFF8A424B3
:1045100011600028EED1FFF78FFB00208DF801001D
:1045200000208DF80000009888E00121DFF8880461
:10453000FFF7CCFA0121DFF88004FFF7B9FA4FF456
:104540008050DFF870140860DFF87014DFF868043A
:10455000FFF7E9FA002812D1DFF858040068411E7D
:10456000DFF8502411600028EED1FFF765FB002032
:104570008DF8010000208DF8000000985EE0012217
:104580003B21DFF83404FFF7BDFA4FF48050DFF829
:1045900024140860DFF83014DFF81C04FFF7C3FAB6
:1045A000002812D1DFF80C040068411EDFF8042453
:1045B00011600028EED1FFF73FFB00208DF80100CD
:1045C00000208DF80000009838E00021DFF8E803B3
:1045D000FFF78AFA4FF48050DFF8D8130860DFF84D
:1045E000EC13DFF8D403FFF79EFA002812D1DFF8AE
:1045F000C4030068411EDFF8BC2311600028EED11F
:10460000FFF71AFB00208DF8010000208DF8000054
:10461000009813E0DFF8A003FFF782FA8DF800009E
:104620000121DFF89403FFF751FA0121DFF8880335
:10463000FFF75AFA01208DF80100009816BDF0B579
:1046400083B007000C0015004FF42040DFF864131E
:1046500008605FF40031DFF86003FFF780FA00289C
:1046600013D0DFF850030068411EDFF848231160C3
:104670000028EED1FFF7E0FA00208DF806003800A0
:1046800069460722FCF71CFD3AE10121DFF8280307
:10469000FFF70EFA4FF48050DFF818130860DFF8C8
:1046A0001C13DFF81403FFF73EFA002813D1DFF8DC
:1046B00004030068411EDFF8FC2211600028EED1DF
:1046C000FFF7BAFA00208DF8060038006946072285
:1046D000FCF7F6FC14E100223A21DFF8DC02FFF7D8
:1046E00011FA4FF48050DFF8CC120860DFF8D012D6
:1046F000DFF8C402FFF717FA002813D1DFF8B4027D
:104700000068411EDFF8AC2211600028EED1FFF7EF
:1047100093FA00208DF80600380069460722FCF75E
:10472000CFFCEDE00121DFF89002FFF7B3F92100A3
:10473000C9B2DFF88402FFF7F0F94FF48050DFF8D8
:1047400074120860DFF87C12DFF86C02FFF7EBF9F7
:10475000002813D1DFF85C020068411EDFF8542204
:1047600011600028EED1FFF767FA00208DF80600EF
:10477000380069460722FCF7A3FCC1E00121DFF8FD
:104780003802FFF7A3F90121DFF82C02FFF790F9B7
:104790004FF48050DFF81C120860DFF82012DFF8B9
:1047A0001802FFF7C0F9002813D1DFF808020068EB
:1047B000411EDFF8002211600028EED1FFF73CFA1D
:1047C00000208DF80600380069460722FCF778FCC7
:1047D00096E001223B21DFF8E001FFF793F94FF467
:1047E0008050DFF8D0110860DFF8DC11DFF8C80175
:1047F000FFF799F9002813D1DFF8B8010068411ECE
:10480000DFF8B02111600028EED1FFF715FA002083
:104810008DF80600380069460722FCF751FC6FE06E
:1048200000200600F6B2EDB2681E864229DA4FF487
:104830008050DFF880110860DFF89011DFF8780110
:10484000FFF771F9002813D1DFF868010068411EF5
:10485000DFF8602111600028EED1FFF7EDF90020AC
:104860008DF80600380069460722FCF729FC47E06E
:10487000DFF84401FFF754F96946F6B27054761C2C
:10488000D0E70021DFF83001FFF72EF94FF4805018
:10489000DFF820110860DFF83411DFF81C01FFF7A2
:1048A00042F9002813D1DFF80C010068411EDFF83F
:1048B000042111600028EED1FFF7BEF900208DF829
:1048C0000600380069460722FCF7FAFB18E0DFF81B
:1048D000E800FFF725F96946F6B270540121DFF8C8
:1048E000D800FFF7F3F80121DFF8CC00FFF7FCF860
:1048F00001208DF80600380069460722FCF7E0FB2E
:10490000FEBD10B50020FFF777FD040010BD10B507
:1049100088B00400062232216846FFF790FE9DF819
:1049200001009DF8001051EA0020ADF808009DF844
:1049300003009DF8021051EA0020ADF80A009DF82E
:1049400005009DF8041051EA0020ADF80C00BDF9F7
:104950000800FFF7D7F95FF08141FFF7DBFADFF8D6
:104960007010FFF7E9F90490BDF90A00FFF7CAF9E2
:104970005FF08141FFF7CEFADFF85410FFF7DCF962
:104980000590BDF90C00FFF7BDF95FF08141FFF71D
:10499000C1FADFF83C10FFF7CFF906909DF806004A
:1049A0008DF81C00200004A91022FCF799FB08B028
:1049B00010BD0000186900200054004001000300F1
:1049C000820007008400070002000300400003008B
:1049D00000007A4480B500F053F800F009F900F0C7
:1049E00016FA01BD70B58CB004000D00160001214F
:1049F0005FF08070FFF7C1FB300000F0D3FA009445
:104A00000195102002904020039000200490802007
:104A100005900020069000200790002008904FF499
:104A20008050099000200A906946300000F03FFB5A
:104A30000CB070BD0100C9B2002902D1DFF8140525
:104A40000CE0C9B2012902D1DFF80C0506E0C9B2B9
:104A5000022902D1DFF8040500E00020704770B59C
:104A600004000D002000C0B2FFF7E4FF0600002E96
:104A700001D1002003E02900300000F0EEF970BD04
:104A8000DFF8B804DFF8CC140860DFF8D404DFF8EE
:104A9000C4144860DFF8CC04DFF8B81488604FF421
:104AA0008060DFF8B01488814FF48060DFF8A414D0
:104AB000C8810020DFF89C1408820020DFF89414DD
:104AC00048820020DFF88C14C8820020DFF88414AC
:104AD00008830020DFF87C1448830020DFF874147A
:104AE00088820020DFF86C14C8610020DFF86414AD
:104AF00008620020DFF85C144862DFF84804DFF841
:104B000058140860DFF86004DFF84C144860DFF8E0
:104B10005C04DFF8441488604FF48060DFF83814D8
:104B200088814FF48060DFF83014C8810020DFF8FE
:104B3000281408820020DFF8201448820020DFF8C3
:104B40001814C8820020DFF8101408830020DFF852
:104B5000081448830020DFF8001488820020DFF862
:104B6000F813C8610020DFF8F01308620020DFF8B6
:104B7000E8134862DFF8D403DFF8E0130860DFF8D9
:104B8000F003DFF8D8134860DFF8E803DFF8CC1350
:104B900088604FF48060DFF8C41388814FF4806030
:104BA000DFF8B813C8810020DFF8B01308820020B6
:104BB000DFF8A81348820020DFF8A013C882002085
:104BC000DFF8981308830020DFF890134883002053
:104BD000DFF8881388820020DFF88013C861002086
:104BE000DFF8781308620020DFF87013486270471E
:104BF00000B587B001210120FFF7BFFA01214FF472
:104C00008040FFF7C9FA4FF40070009002208DF841
:104C1000040000208DF8060003208DF80500694689
:104C2000DFF85403FFF7FAFA07220921DFF84803F7
:104C3000FFF748FB4FF48060009002208DF80400DD
:104C400001208DF807006946CB48FFF7E7FA0722F5
:104C50000A21C948FFF736FB5FF4E13002900020DB
:104C6000ADF80C000020ADF80E000020ADF81000EB
:104C70000020ADF814000C20ADF8120002A9AF48D6
:104C800000F082FA012240F22551AC4800F00AFB04
:104C90000121AA4800F0F0FA4021A84800F03CFBAE
:104CA000A74AAF49B548FFF79DFE01210120FFF754
:104CB00064FA01215FF40030FFF77DFA04200090D0
:104CC00002208DF8040000208DF8060003208DF8E6
:104CD00005006946A848FFF7A1FA07220221A64865
:104CE000FFF7F0FA0820009002208DF80400012060
:104CF0008DF807006946A048FFF790FA07220321C4
:104D00009D48FFF7DFFA5FF4E13002900020ADF834
:104D10000C000020ADF80E000020ADF810000020BF
:104D2000ADF814000C20ADF8120002A9854800F07F
:104D30002BFA012240F22551824800F0B3FA0121FA
:104D4000804800F099FA40217E4800F0E5FA7E4A5A
:104D500085498B48FFF746FE01210220FFF70DFA37
:104D600001215FF48020FFF726FA4FF48060009065
:104D700002208DF8040000208DF8060003208DF835
:104D8000050069467F48FFF749FA07220A217D4856
:104D9000FFF798FA4FF40060009002208DF80400AD
:104DA00001208DF8070069467648FFF737FA072299
:104DB0000B217448FFF786FA4FF41650029000203A
:104DC000ADF80C000020ADF80E000020ADF810008A
:104DD0000020ADF814000C20ADF8120002A95B48C9
:104DE00000F0D2F9012240F22551584800F05AFA59
:104DF0000121564800F040FA4021544800F08CFA56
:104E0000534A5B496048FFF7EDFD07B000BD80B530
:104E100025208DF8000000208DF8020001208DF87B
:104E20000300684600F0BBFA26208DF80000002041
:104E30008DF8020001208DF80300684600F0AFFAFB
:104E400027208DF8000000208DF8020001208DF849
:104E50000300684600F0A3FA01BD10B4020001206F
:104E600080F31088508B0300002080F310889BB2E1
:104E7000002B01D1002016E09068148B205C087094
:104E8000012080F31088108B401C1083D48980B2DD
:104E9000A04201D300201083508B401E508300207D
:104EA00080F31088012010BC704738B5040040F230
:104EB0002551206800F036FA00281DD0206800F047
:104EC000EDF90500A068E18A0D54E08A401CE082FB
:104ED000E18980B2884201D30020E082608BE189C1
:104EE000884202D2608B401C6083606A002803D035
:104EF0002800C0B2616A884731BD80B51548FFF708
:104F0000D4FF01BD80B51448FFF7CFFF01BD80B5C8
:104F10001248FFF7CAFF01BD38B504000D0021009B
:104F2000C9B289B2074800F0B5F98021054800F000
:104F3000E4F90028F9D0200032BD0000003801401B
:104F4000446002400044004080600240004800404D
:104F50001C600240346800205C68002084680020E7
:104F6000804F00208053002080570020805B00206D
:104F7000805F002080630020000002400438014070
:104F800004440040000402400448004010B582B0D0
:104F9000040069460120FFF762FD0028F9D09DF862
:104FA000000016BD01684FF6FE721140016000213D
:104FB000016000214160002181600021C1606249DF
:104FC000884206D16149096851F00F015F4A1160BA
:104FD0006CE05F49884206D15C49096851F0F001F4
:104FE0005A4A116062E05B49884206D15749096814
:104FF00051F47061554A116058E05749884206D112
:105000005249096851F47041504A11604EE05349C9
:10501000884206D14D49096851F470214B4A11600C
:1050200044E04F49884206D14849096851F470016B
:10503000464A11603AE04B49884206D14349096823
:1050400051F07061414A116030E04749884206D111
:105050004649096851F00F01444A116026E044496D
:10506000884206D14149096851F0F0013F4A116078
:105070001CE04049884206D13C49096851F47061FE
:105080003A4A116012E03C49884206D13749096822
:1050900051F47041354A116008E03849884205D121
:1050A0003249096851F47021304A1160704710B4D8
:1050B000002203681A006FF30E128B680C6A2343F8
:1050C0000C6923434C6923438C692343CC692343F4
:1050D0004C6A23438C6A23431A430260CB684360C3
:1050E0000B6883604B68C36010BC7047C9B200296D
:1050F00004D0026852F00102026004E002684FF638
:10510000FE731A400260704789B241607047010027
:1051100000200022CB0003D4194B1B681A0002E0C8
:10512000184B1B681A000A4202D00123180001E044
:1051300000231800C0B27047C10002D403490860C0
:1051400001E00A49086070470860024004600240BC
:105150001C600240306002404460024058600240DF
:105160006C600240806002400864024004640240B7
:105170001C640240306402404464024058640240AF
:1051800000600240006402402DE9F04385B0040055
:105190000D005FF00009002600275FF00008A889D5
:1051A0000028208A814639F44059E88850EA0909E4
:1051B000A4F81090A08981462E4810EA0909A88811
:1051C000298908436989084350EA0909A4F80C9021
:1051D000A08A814639F44079A88950EA0909A4F8DF
:1051E00014906846FEF744FF2148844202D1039898
:1051F000060001E002980600A089000408D51920E5
:1052000000FB06F029684900B0FBF1F0070007E059
:10521000192000FB06F029688900B0FBF1F00700B7
:105220006420B7FBF0F0000181465FEA19106421A9
:1052300001FB10708046A08900040AD55FEAC8000F
:1052400032306421B0FBF1F010F0070050EA090998
:1052500009E05FEA081032306421B0FBF1F010F091
:105260000F0050EA0909A4F8089005B0BDE8F083E2
:1052700000380140F3E9FFFFC9B2002904D0828958
:1052800052F40052828104E082894DF6FF731A4085
:1052900082817047CA05D20D828070478088C00520
:1052A000C00D7047F0B4002300240025002689B209
:1052B00040F66A17B94206000F00FFB27F09FFB23D
:1052C0003B0089B211F01F073C000127A7403D00B9
:1052D000012B01D10C3604E0022B01D1103600E085
:1052E0001436D2B2002A03D037682F43376002E069
:1052F0003768AF433760F0BC70470200002089B2C6
:10530000B1F5007F13880B4202D00123180001E0A1
:1053100000231800C0B2704789B28A0589B2CA4317
:105320000280704770B4030000240026002500208E
:1053300089B240F66A1291420A00D2B25209D2B240
:10534000150089B211F01F021600012212FA06F6AA
:10535000012D02D19A89164006E0022D02D11A8A47
:10536000164001E09A8A16400A0092B2120A92B2DE
:105370001400012212FA04F41A881440002E04D0FA
:10538000002C02D00122100001E000221000C0B267
:1053900070BC70471C4901431C4A1160704770B4CF
:1053A000002300210F22C478002C21D0174C246840
:1053B00014F4E064D4F5E064240A2300D3F1040477
:1053C0002100D2B21A4144788C40230084781440E2
:1053D00023431B010E4C05782B550124057815F04D
:1053E0001F05AC400B4D0678761145F8264009E0C4
:1053F0000124057815F01F05AC40074D067876119D
:1054000045F8264070BC70470000FA050CED00E03E
:1054100000E400E000E100E080E100E000B583B0DE
:1054200001210220FEF7A9FE4FF4805000900120D8
:105430008DF8040000208DF8060001208DF805008D
:105440006946DFF8E404FEF7E9FE07BD00B585B064
:105450004FF48050DFF8D41408800021684600F033
:105460000DF834223C21002000F065F905B000BDA4
:105470004FF48050DFF8B8140880704770B586B0DC
:1054800006000C004FF42040DFF8A81408605FF419
:105490000031DFF8A404FEF762FB002813D0DFF828
:1054A00094040068411EDFF88C2411600028EED1BE
:1054B000FEF7C2FB00208DF8000030006946112283
:1054C000FBF7FEFD07E10121DFF86C04FEF7F0FABF
:1054D0004FF48050DFF85C140860DFF86014DFF8E8
:1054E0005804FEF720FB002813D1DFF848040068B9
:1054F000411EDFF8402411600028EED1FEF79CFB2E
:1055000000208DF80000300069461122FBF7D8FD1D
:10551000E1E00022AA21DFF82004FEF7F3FA4FF4BD
:105520008050DFF810140860DFF81414DFF8080466
:10553000FEF7F9FA002813D1DFF8F8030068411EDE
:10554000DFF8F02311600028EED1FEF775FB002094
:105550008DF80000300069461122FBF7B1FDBAE07A
:105560000121DFF8D403FEF795FA2100C9B2DFF874
:10557000C803FEF7D2FA4FF48050DFF8B813086082
:10558000DFF8C013DFF8B003FEF7CDFA002813D11F
:10559000DFF8A0030068411EDFF89823116000289F
:1055A000EED1FEF749FB00208DF80000300069467F
:1055B0001122FBF785FD8EE00121DFF87C03FEF769
:1055C00085FA0121DFF87003FEF772FA4FF480507C
:1055D000DFF860130860DFF86413DFF85C03FEF7A0
:1055E000A2FA002813D1DFF84C030068411EDFF84F
:1055F000442311600028EED1FEF71EFB00208DF839
:105600000000300069461122FBF75AFD63E00122D9
:10561000AB21DFF82403FEF775FA4FF48050DFF872
:1056200014130860DFF82013DFF80C03FEF77BFA91
:10563000002813D1DFF8FC020068411EDFF8F422D5
:1056400011600028EED1FEF7F7FA00208DF8000077
:10565000300069461122FBF733FD3CE000200500D5
:10566000EDB2102D2ADA4FF48050DFF8C81208602E
:10567000DFF8D812DFF8C002FEF755FA002813D180
:10568000DFF8B0020068411EDFF8A8221160002890
:10569000EED1FEF7D1FA00208DF800003000694607
:1056A0001122FBF70DFD16E0DFF88C02FEF738FA49
:1056B0006946EDB2691848706D1CD1E70121DFF829
:1056C0007802FEF703FA01208DF8000030006946E9
:1056D0001122FBF7F5FC06B070BD10B588B00400D0
:1056E000002102A8FFF7CAFE9DF808008DF800000F
:1056F0009DF809008DF801009DF80A008DF8020060
:105700009DF80B008DF803009DF80C008DF8040047
:105710009DF80D008DF805009DF80E008DF806002F
:105720009DF80F008DF80700200069460822FBF75E
:10573000C7FC08B010BD70B504000D0016004FF492
:1057400020407C4908605FF400317B48FEF707FA8F
:1057500000280AD077480068411E764A1160002868
:10576000F1D1FEF769FA0020A2E001217248FEF7AC
:105770009FF94FF480506F49086070496E48FEF7FA
:10578000D2F900280AD16B480068411E694A1160AD
:105790000028F2D1FEF750FA002089E00022AA2169
:1057A0006548FEF7AFF94FF48050624908606449DC
:1057B0006148FEF7B8F900280AD15E480068411E2A
:1057C0005C4A11600028F2D1FEF736FA00206FE043
:1057D00001215948FEF75EF9FE215748FEF79DF971
:1057E0004FF480505349086056495348FEF79BF9DF
:1057F00000280AD14F480068411E4E4A1160002817
:10580000F2D1FEF719FA002052E02100C9B24A484D
:10581000FEF783F94FF480504649086049494648ED
:10582000FEF781F900280AD142480068411E414A2A
:1058300011600028F2D1FEF7FFF9002038E02900BE
:10584000C9B23D48FEF769F94FF480503949086004
:105850003C493948FEF767F900280AD13548006805
:10586000411E344A11600028F2D1FEF7E5F900200C
:105870001EE03100C9B23048FEF74FF94FF48050B6
:105880002C4908602F492C48FEF74DF900280AD111
:1058900028480068411E274A11600028F2D1FEF70F
:1058A000CBF9002004E001212348FEF70FF9012085
:1058B00070BD00B585B001210820FEF75EFC002018
:1058C0008DF810001020039001208DF8130003A91B
:1058D0001F48FEF7A3FC01210120FEF75DFC042117
:1058E000032000F042F81020019000208DF80800FD
:1058F0000C208DF8090001208DF80A0001A800F0A5
:1059000061F80A208DF8000005208DF801000020C4
:105910008DF8020001208DF803006846FFF73FFD77
:1059200005B000BD00000000000402401804024061
:105930001A0402403C6900200054004001000300AA
:1059400082000700840007000200030040000300FB
:10595000000C024080B5FFF761FDFFF7AAFF01BD13
:105960001648006810F44070704730B400220F23CE
:1059700011F00304E4B2A400A3401A00104BC9B212
:105980008C1053F8243093430D4CC9B28D1044F859
:1059900025300B4BC9B28C1053F82430C0B211F033
:1059A0000304E4B2A40010FA04F42343044CC9B283
:1059B0008D1044F8253030BC7047000000000140D5
:1059C000080001400021214A11008279002A36D0C6
:1059D0001E4A126803689A431C4B1A601C4A1268DC
:1059E00003689A431A4B1A60027951180A680368CF
:1059F0001A430A60174A126803689A43154B1A60E3
:105A0000154A126803689A43134B1A604279102AA8
:105A10000CD1104A126803681A430E4B1A600E4AE2
:105A2000126803681A430C4B1A600EE0074A110013
:105A3000427951180A6803681A430A6005E002793E
:105A400051180A6803689A430A60704700040140CD
:105A500004040140080401400C04014038B504006E
:105A60000D004FF42040DFF8F41408605FF40031BB
:105A7000DFF8EC04FEF773F800280CD0DFF8DC0444
:105A80000068411EDFF8D42411600028EED1FEF733
:105A9000D3F80020ABE00121DFF8C404FEF708F8DA
:105AA0004FF48050DFF8B4140860DFF8B814DFF862
:105AB000B004FEF738F800280CD1DFF8A004006825
:105AC000411EDFF8982411600028EED1FEF7B4F8EB
:105AD00000208CE000228821DFF88404FEF712F811
