:020000040800F2
:10000000001D002001010008FD040008F90200089D
:10001000F904000859010008550E0008000000000E
:10002000000000000000000000000000E5060008DD
:10003000DF0100080000000085050008C90700086E
:100040001B0100081B0100081B0100081B01000820
:100050001B0100081B0100081B0100081B01000810
:100060001B0100081B0100081B0100081B01000800
:100070001B0100081B0100081B0100081B010008F0
:100080001B0100081B0100081B0100081B010008E0
:100090002D0C00081B0100081B0100081B010008B3
:1000A0001B0100081B0100081B0100081B010008C0
:1000B000B50800081B0100081B0100081B0100080F
:1000C0001B0100081B0100081B0100081B010008A0
:1000D0001B010008490A0008590A0008690A0008BB
:1000E0001B0100081B0100081B010008DFF80CD0F1
:1000F00000F020F80048004749140008001D0020C7
:100100000648804706480047FEE7FEE7FEE7FEE7B1
:10011000FEE7FEE7FEE7FEE7FEE7FEE7550800081C
:10012000ED000008421C10F8011B0029FBD1801AC9
:1001300070470000064C074D06E0E06840F0010300
:1001400094E8070098471034AC42F6D3FFF7D2FF8B
:10015000281600084816000800BFFEE7014609B946
:1001600009487047012901D10848FAE7022901D15D
:100170000748F6E7032901D10020F2E7042901D15D
:100180000020EEE70020ECE784000020AC0800200F
:10019000D410002008B525208DF8000000208DF82F
:1001A000020001208DF80300684600F0A9F926201E
:1001B0008DF8000001208DF802008DF803006846DC
:1001C00000F09EF927208DF8000002208DF8020033
:1001D00001208DF80300684600F092F908BD7047D1
:1001E0002DE9F041024600250026002000230024CE
:1001F000002791F803C00CF00F0591F803C00CF034
:10020000100CBCF1000F03D091F802C04CEA0505B8
:1002100091F800C0BCF1000F31D0146800202BE031
:100220004FF0010C0CFA00F3B1F800C00CEA030621
:100230009E4220D183004FF00F0C0CFA03F7BC4311
:1002400005FA03FC4CEA040491F803C0BCF1280F42
:1002500006D14FF0010C0CFA00FCC2F814C00AE001
:1002600091F803C0BCF1480F05D14FF0010C0CFA16
:1002700000FCC2F810C0401C0828D1D31460B1F8AB
:1002800000C0BCF1FF0F34DD546800202EE000F107
:10029000080C4FF0010808FA0CF3B1F800C00CEAA2
:1002A00003069E4221D183004FF00F0C0CFA03F796
:1002B000BC4305FA03FC4CEA040491F803C0BCF10A
:1002C000280F05D100F1080C08FA0CF8C2F81480C8
:1002D00091F803C0BCF1480F07D100F1080C4FF0B2
:1002E000010808FA0CF8C2F81080401C0828CED388
:1002F0005460BDE8F08100000EE00849096881F40F
:100300008071064A1160002001E0411C88B242F26F
:1003100010718842F9DB00BFEFE700000C080140D4
:1003200000B585B00121052000F03EF901218803C8
:1003300000F03AF94FF40070ADF8100018208DF875
:10034000130003208DF8120004A96648FFF748FF48
:100350004FF48060ADF8100004208DF8130004A95C
:100360006048FFF73DFF4FF4E13000900020ADF80A
:100370000400ADF80600ADF80800ADF80C000C2044
:10038000ADF80A006946584800F0DAFB012240F255
:100390002551554800F0AFFB0121534800F075FB93
:1003A0004021514800F068FB0121052000F0FCF8D5
:1003B0000121480400F0E8F80420ADF810001820EE
:1003C0008DF8130003208DF8120004A94548FFF7AB
:1003D00007FF0820ADF8100004208DF8130004A9D1
:1003E0004048FFF7FDFE04A93E48FFF7F9FE4FF431
:1003F000E13000900020ADF80400ADF80600ADF843
:100400000800ADF80C000C20ADF80A00694637482A
:1004100000F096FB012240F22551344800F06BFBBE
:100420000121324800F031FB4021304800F024FB2C
:100430000121082000F0B8F810208DF813000320E7
:100440008DF812000420ADF8100004A92848FFF729
:10045000C7FE0121092000F0A7F80121880400F05F
:1004600093F84FF48060ADF8100018208DF8130059
:1004700003208DF8120004A91D48FFF7B1FE4FF4C8
:100480000060ADF8100004208DF8130004A918488E
:10049000FFF7A6FE04A91648FFF7A2FE4FF4165078
:1004A00000900020ADF80400ADF80600ADF808009B
:1004B000ADF80C000C20ADF80A0069460D4800F0BC
:1004C0003FFB012240F225510A4800F014FB0121B4
:1004D000084800F0DAFA4021064800F0CDFA05B0ED
:1004E00000BD000000080140003801400044004009
:1004F000000C01400048004000BFFEE770470000CC
:1005000070B5002100230F22C47804B3154C246871
:1005100004F4E064C4F5E064210AC1F10403CA40B4
:10052000447804FA03F184781440214309010E4C05
:100530000678A155047804F01F050124AC40057825
:100540006D11AD0005F1E025C5F8004109E0047822
:1005500004F01F050124AC40044D0678761145F8DF
:10056000264070BD0CED00E000E400E080E100E01A
:1005700002490143024A1160704700000000FA0579
:100580000CED00E07047000029B1064AD269024331
:10059000044BDA6104E0034AD2698243014BDA6119
:1005A000704700000010024029B1064A92690243D8
:1005B000044B9A6104E0034A92698243014B9A61B9
:1005C000704700000010024030B5002100220024D6
:1005D00000232D4D6D6805F00C0121B1042905D0D3
:1005E000082923D105E0294D056022E0274D05604B
:1005F0001FE0254D6D6805F47012234D6D6805F4FC
:100600008034022505EB92421CB9214D554305600B
:100610000BE01D4D6D6805F400351DB11C4D5543B3
:10062000056002E0194D5543056002E0174D056075
:1006300000BF00BF144D6D6805F0F0010909154DAC
:100640006B5C0568DD4045600F4D6D6805F4E06149
:10065000090A104D6B5C4568DD4085600A4D6D6888
:1006600005F46051C90A0B4D6B5C4568DD40C560FF
:10067000054D6D6805F44041890B074D6B5CC568FD
:10068000B5FBF3F5056130BD0010024000127A00A1
:1006900000093D00250000203500002008B501219B
:1006A0000820FFF781FF03208DF8020010208DF84D
:1006B00003000420ADF8000069460248FFF790FDF2
:1006C00008BD0000000C01407047000004200149F3
:1006D00008607047100C0140042001490860704711
:1006E000140C0140704710B500F002F810BD000076
:1006F0000CB50020019000903148006840F4803033
:100700002F49086000BF2E48006800F400300090B8
:100710000198401C0190009818B90198B0F5A06F9D
:10072000F1D12748006800F4003010B1012000909A
:1007300001E000200090009801283FD12148006886
:1007400040F010001F4908600846006820F00300D0
:100750000860084600680860194840681849486001
:100760000846406848600846406848600846406857
:1007700020F47C1048600846406840F498104860B7
:100780000846006840F08070086000BF0C480068B0
:1007900000F000700028F9D00948406820F00300FC
:1007A000074948600846406840F00200486000BFC2
:1007B0000348406800F00C000828F9D10CBD000087
:1007C000001002400020024010B500F001F810BDFA
:1007D00010B51B48006840B119480068401E184910
:1007E000086010B9012017490870002408E004EBE4
:1007F0004401154A02EB810000F010FD601CC4B2F8
:10080000042CF4DB11480068401C104908600846BD
:1008100000686FF00041884202D100200B49086057
:1008200000F0FBFC0A480078401CC0B20849087080
:100830000A2803DB0020087000F0EEFC10BD000069
:10084000080000200C0000205400002010000020B0
:100850002400002010B51348006840F00100114941
:10086000086008464068104908400E49486008463C
:1008700000680E4908400B4908600846006820F4EB
:10088000802008600846406820F4FE0048604FF46D
:100890001F008860FFF727FF4FF0006004490860E1
:1008A00010BD0000001002400000FFF8FFFFF6FE40
:1008B00008ED00E010B50221480700F058F858B1E3
:1008C0000221480700F044F800220221480700F006
:1008D0005FF81B48006880470421080700F047F8CC
:1008E00058B10421080700F033F80022042108075A
:1008F00000F04EF81348006880470821C80600F051
:1009000036F858B10821C80600F022F80022082164
:10091000C80600F03DF80C480068804710218806A2
:1009200000F025F858B11021880600F011F80022D7
:100930001021880600F02CF804480068804710BD9C
:1009400014000020180000201C00002020000020BF
:10095000CA430282704721B1028842F0010202803C
:1009600004E002884FF6FE731A400280704730B5EB
:100970000246002000230024158A05EA0103958918
:1009800005EA010413B10CB1012000E0002030BDE4
:100990001AB183890B43838102E083898B4383816E
:1009A00070470000002202881D4B98420ED01D4B5C
:1009B00098420BD0B0F1804F08D01B4B984205D025
:1009C0001A4B984202D01A4B984204D14FF68F73BB
:1009D0001A404B881A43174B984207D0164B98423F
:1009E00004D04FF6FF431A40CB881A4302808B880D
:1009F00083850B8803850A4B98420BD0094B98429C
:100A000008D00E4B984205D00D4B984202D00D4BAA
:100A1000984201D10B7A038601238382704700003C
:100A2000002C014000340140000400400008004058
:100A3000000C004000100040001400400040014045
:100A4000004401400048014010B5024800F0F4F8AD
:100A500010BD00008400002010B5024800F0ECF842
:100A600010BD0000AC08002010B5024800F0E4F80A
:100A700010BD0000D410002001F40072B2F5007F18
:100A800000D100BFCA430280704721B1828942F47D
:100A90000052828104E082894DF6FF731A40828100
:100AA000704770B50246002400230025002040F660
:100AB0006A16B14200D100BFC1F3421501F01F0315
:100AC000012606FA03F3012D02D19689334006E090
:100AD000022D02D1168A334001E0968A33400C126F
:100AE000012606FA04F41688344013B10CB1012033
:100AF00000E0002070BDF0B503460024002600256C
:100B0000002040F66A17B94200D100BF1846C1F371
:100B1000421401F01F06012707FA06F5012C01D146
:100B20000C3004E0022C01D1103000E014301AB176
:100B300007682F43076002E00768AF430760F0BD16
:100B40002DE9F04786B005460E460024A24600BFB8
:100B5000A1460027B08900B100BF2F462C8A4CF671
:100B6000FF700440F08804432C82AC894EF6F310E9
:100B70000440B08831890843718908430443AC813B
:100B8000AC8A4FF6FF400440B0890443AC8201A810
:100B9000FFF71AFD1F48874202D1DDF810A001E0DF
:100BA000DDF80CA0A88900F4004040B10AEBCA00AF
:100BB00000EB0A1031684900B0FBF1F807E00AEBDE
:100BC000CA0000EB0A1031688900B0FBF1F864201C
:100BD000B8FBF0F004012009642101FB1089A88909
:100BE00000F4004040B1322000EBC900B0FBF1F04E
:100BF00000F00700044308E0322000EB09106421F4
:100C0000B0FBF1F000F00F0004432C8106B0BDE80A
:100C1000F08700000038014001468888C0F30800D2
:100C20007047C1F308028280704700000148C06924
:100C3000704700000010024070B5044640F2255194
:100C40002068FFF72EFFE0B12068FFF7E5FFC5B28F
:100C5000E18AA0684554E08A401C80B2E082E189C4
:100C6000884201DB0020E082608BE189884202DA61
:100C7000608B401C6083606A10B12846616A8847B7
:100C800000BF40F227712068FFF70BFF08B3A08A6E
:100C900060B9002240F227712068FFF72CFF012283
:100CA00040F226612068FFF726FF37E0638A62681A
:100CB000D15C2068FFF7B5FF608A401C80B260827B
:100CC000A189884201DB00206082A08A401EA082A8
:100CD00024E040F226612068FFF7E3FEF0B1A08A2D
:100CE00050B9002240F226612068FFF704FF206A15
:100CF000A0B1206A804711E0638A6268D15C2068F5
:100D0000FFF78FFF608A401C80B26082A189884211
:100D100001DB00206082A08A401EA08270BDF8B571
:100D200004460E461746002529E00EE0012000F09B
:100D3000B5F8A08A0090002000F0B0F8A089BDF8B6
:100D40000010884200DD01E000BFEFE700BF705DEA
:100D5000228A61688854012000F0A0F8208A401C93
:100D600080B22082A189884201DB00202082A08AF3
:100D7000401CA082002000F091F8681C85B2BD42A2
:100D8000D3DB012240F227712068FFF7B4FEF8BDE3
:100D900021482249086022484860224888604FF470
:100DA00080608881C881002008824882C8820883C8
:100DB00048838882C861086248621B481B490860F2
:100DC0001B4848601B4888604FF480608881C88158
:100DD000002008824882C882088348838882C861CC
:100DE000086248621448154908601548486015486B
:100DF00088604FF480608881C88100200882488222
:100E0000C8820883488388820F48C8610F480862F7
:100E10000F484862704700000038014084000020FD
:100E2000AC000020AC04002000440040AC080020CE
:100E3000D4080020D40C002000480040D41000202A
:100E4000FC100020FC140020CD060008D906000884
:100E5000C906000800BFFEE70FB4054B10B503A993
:100E6000044A029800F01DF810BC5DF814FB000065
:100E7000371400085000002002E008C8121F08C103
:100E8000002AFAD170477047002001E001C1121F0B
:100E9000002AFBD1704780F31088704780F31088D8
:100EA00070472DE9F84F9946924688460546002737
:100EB00006E025280AD051464A4690476D1C7F1C03
:100EC00028780028F5D13846BDE8F88F002315F8BA
:100ED000011F18462E2915D115F8011F04232A29B0
:100EE0000DD06FF02F022978A1F13004092C09D818
:100EF00000EB800002EB400008446D1CF3E758F85B
:100F0000040B6D1C2A78002ADDD0632A07D0732ACF
:100F10000FD0104651464A4690477F1C2AE018F8E9
:100F2000042B8DF8002000218DF801106E46012160
:100F300003E058F8046B4FF0FF315A074FF00004FC
:100F400001D409E0641C84420BDA8C42FADB325D86
:100F5000002AF7D105E0641C8C42FCDB305D0028E0
:100F6000F9D1274404E016F8010B51464A46904750
:100F7000641EF8D26D1CA3E70146042901DB0020A2
:100F8000704701EB4100084A02EB800040780128DD
:100F900008D1002001EB4102034B03EB82025070A9
:100FA0000120EDE70020EBE754000020704710B56A
:100FB0004FF44070FFF7DCFA00F03AF800F0C0F8A8
:100FC00000F06EF810BD00007FB501210846FFF764
:100FD000DBFA1548006846081448B6FBF0F085B205
:100FE0004FF6FF74ADF80840ADF804500020ADF89E
:100FF0000A00ADF8060001A94FF08040FFF7D2FCCF
:1010000001218807FFF7A7FC1C208DF800000420B1
:101010008DF8010000208DF8020001208DF80300FA
:101020006846FFF76DFA7FBD3C00002040420F008C
:1010300008B501218020FFF7B7FA012000F08AF8F7
:10104000022000F087F8032000F084F8042000F06C
:1010500081F803208DF8020010208DF80300C001F4
:10106000ADF8000069460D48FFF7BAF88020ADF8EA
:10107000000069460948FFF7B3F84FF48070ADF8F7
:10108000000069460548FFF7ABF84FF40070ADF873
:10109000000069460148FFF7A3F808BD001C0140A5
:1010A00070B5002416E0002004EB4401204A02EB56
:1010B0008101486004EB440102EB8101886004EB8C
:1010C000440102EB8101487004EB440102F8210065
:1010D000601CC4B2042CE6DB164800684FF47A7238
:1010E000B0FBF2F1B1F1807F00D31DE021F07F4031
:1010F000401E4FF0E022506150170F22002807DAFF
:1011000013071E0E0C4B00F00F052D1F5E5503E05C
:1011100013071D0E094B1D5400BF00204FF0E022A5
:1011200090610720106100BFFFF74EFF70BD000007
:10113000540000203C00002018ED00E000E400E036
:1011400010B5FFF725FEFFF7EBF8FFF7A7FAFFF75B
:1011500021F810BD411EC8B220B94FF400610B4AFE
:10116000116011E0012803D18021084A11600BE0D1
:10117000022803D1C101054A116005E0032803D10B
:101180004FF40071014A116070470000101C0140CB
:10119000411EC8B220B94FF400610B4A116011E042
:1011A000012803D18021084A11600BE0022803D1F5
:1011B000C101054A116005E0032803D14FF4007115
:1011C000014A116070470000141C0140012806D13B
:1011D0001049096881F400610E4A116019E0022883
:1011E00006D10C49096881F080010A4A116010E0BB
:1011F000032806D10749096881F48071054A116006
:1012000007E0042805D10349096881F40071014A07
:10121000116070470C1C014070477047416851B124
:101220004168491E416031B90121417001780129AD
:1012300001D181684160704770B504460D46042CA9
:1012400006DB124A12A11AA0FFF706FE00BFFEE756
:101250000120FFF720FE04EB44001D4901EB800054
:10126000456004EB440001EB80008560002004EB46
:101270004401174A02EB81014870012004EB44014C
:1012800002F821000020FFF706FE70BDFD150008E2
:101290002E2E5C2E2E5C557365725C6273705C73CF
:1012A00072635C6273705F74696D65722E630000B7
:1012B0004572726F723A2066696C652025732C2026
:1012C00066756E6374696F6E20257328290D0A0098
:1012D0005400002070B504460D46042C06DB114A6C
:1012E00011A119A0FFF7B8FD00BFFEE70120FFF72D
:1012F000D2FD04EB44001C4901EB8000456004EB87
:10130000440001EB80008560002004EB4401164A94
:1013100002EB8101487004EB440102F82100FFF761
:10132000BAFD70BDEE1500082E2E5C2E2E5C557396
:1013300065725C6273705C7372635C6273705F741D
:10134000696D65722E6300004572726F723A206695
:10135000696C652025732C2066756E6374696F6EE9
:1013600020257328290D0A005400002010B50446DA
:10137000042C06DB0E4A0FA116A0FFF76DFD00BF7F
:10138000FEE70120FFF787FD002004EB4401194A26
:1013900002EB8101486004EB440102EB81014870DB
:1013A00004EB440102F82100FFF775FD10BD0000B9
:1013B000101600082E2E5C2E2E5C557365725C6232
:1013C00073705C7372635C6273705F74696D657275
:1013D0002E6300004572726F723A2066696C652058
:1013E00025732C2066756E6374696F6E20257328D3
:1013F000290D0A00540000202DE9F04105460E4653
:1014000017462846FEF7AAFE04460CB9BDE8F0814F
:10141000E06908B1E06980473A4631462046FFF767
:101420007EFC00BFF2E713B50446012201A9204665
:10143000FFF7E2FF1CBD70B504460D46E1B2002087
:10144000FFF7F1FF204670BDFFF7B1FD0020164900
:10145000087016480068FEF765FE84B222461348FD
:1014600001680020FFF7C8FF1DE00F48007820B199
:1014700001280BD0022815D10EE000F01DF8012044
:10148000094908700AA0FFF7E7FC0BE000F043F8F9
:1014900002200549087005E000F073F801200249B8
:1014A000087000BF00BFE0E700000020040000203B
:1014B000414243442100000010B50120FFF74AFEDD
:1014C0000220FFF747FE0320FFF744FE0420FFF74A
:1014D00041FE0120FFF75CFE40F6B8310020FFF727
:1014E000F9FE4FF4FA710120FFF7A6FE0DE0FFF7B9
:1014F0005DFD0120FFF740FD10B10120FFF766FE02
:101500000020FFF739FD00B100E0F0E700BF012047
:10151000FFF72CFF10BD10B5012441F288310020E7
:10152000FFF7D8FEC8210120FFF786FE0120FFF754
:101530002FFE00BF1FE0FFF739FD0020FFF71CFD65
:1015400000B119E00120FFF717FDA0B10120FFF75E
:1015500001FE0220FFF7FEFD0320FFF7FBFD042044
:10156000FFF7F8FD601CC0B20446052800D1012435
:101570002046FFF70DFEDEE700BF0120FFF7F6FE75
:1015800010BD10B5012441F288310020FFF7A2FE02
:10159000C8210120FFF750FE0120FFF7F9FD00BF31
:1015A0001FE0FFF703FD0020FFF7E6FC00B119E0A4
:1015B0000120FFF7E1FCA0B10120FFF7E9FD0220C7
:1015C000FFF7E6FD0320FFF7E3FD0420FFF7E0FD52
:1015D000601CC0B20446052800D101242046FFF754
:1015E000B9FDDEE700BF0120FFF7C0FE10BD62734A
:1015F000705F537461727454696D657200627370C8
:101600005F53746172744175746F54696D657200D3
:101610006273705F53746F7054696D65720000007F
:1016200041424344210D0A004816000800000020F2
:1016300054000000780E00089C160008540000209A
:10164000AC1C0000880E00080000000020160008F6
:10165000000000000000000000000000000000008A
:10166000000000000000000000000000000000007A
:10167000000102030401020304060708090204062C
:101680000800000000366E010000000000000000AD
:0C16900001020304060708090000000026
:04000005080000ED02
:00000001FF
