:020000040800F2
:10000000581E002039010008350A00083306000890
:10001000310A00088F020008551400080000000093
:10002000000000000000000000000000230D000898
:100030002104000800000000A90A0008510E000871
:100040005301000853010008530100085301000840
:10005000530100085301000853010008450400083B
:1000600061040008530100087D04000853010008E2
:100070005301000853010008530100085301000810
:100080005301000853010008530100085301000800
:1000900053010008530100085301000853010008F0
:1000A00053010008530100085301000853010008E0
:1000B00053010008530100085301000853010008D0
:1000C00053010008530100085301000853010008C0
:1000D0005301000851100008611000087110000859
:1000E00025040008530100085301000853010008CB
:1000F0005301000853010008530100085301000890
:10010000530100085301000853010008530100087F
:10011000530100085301000853010008530100086F
:1001200053010008DFF80CD000F070F800480047D9
:10013000E9180008581E0020064880470648004776
:10014000FEE7FEE7FEE7FEE7FEE7FEE7FEE7FEE787
:10015000FEE7FEE7550E00082501000840EA01030E
:100160009B0703D009E008C9121F08C0042AFAD26D
:1001700003E011F8013B00F8013B521EF9D2704731
:1001800080EA010210B502F00043400022D04A008C
:100190001FD0010E01EB1261C0F35600C2F35602EC
:1001A00040F4000042F40002A0FB022000047F396A
:1001B000140400D0401C50EA124001D44000491EF3
:1001C000C2B20C0604EBD010401C4008802A02D0BA
:1001D00003E0002010BD20F00100002900DA00201B
:1001E000184310BD20F00040C10DC0F3160040F4CC
:1001F00000007F2901DA00207047962903DCC1F155
:100200009601C8407047963988407047064C074DA4
:1002100006E0E06840F0010394E8070098471034D6
:10022000AC42F6D3FFF782FF142400083424000800
:1002300070B58D1810F8014B14F0030201D110F8BD
:10024000012B231106D110F8013B03E010F8016BDC
:1002500001F8016B521EF9D1ABB110F8012B04F07B
:100260000C048A1A0C2C03D0A2EB84129B1C08E00D
:1002700010F8014BA2EB0422F8E712F8014B01F849
:10028000014B5B1EF9D5A942D4D3002070BD00BF3D
:10029000FEE70000014609B909487047012901D16C
:1002A0000848FAE7022901D10748F6E7032901D1F6
:1002B0000020F2E7042901D10020EEE70020ECE75E
:1002C000DC010020040A00202C12002008B52520A3
:1002D0008DF8000000208DF8020001208DF8030049
:1002E000684600F0A9FB26208DF8000000208DF85C
:1002F000020001208DF80300684600F09DFB2720D6
:100300008DF8000000208DF8020001208DF8030018
:10031000684600F091FB08BD01684FF6FE7211407F
:1003200001600021016041608160C1602C49884208
:1003300008D12B490839496841F00F01284A083A89
:1003400051604CE026491431884208D124490839CB
:10035000496841F0F001224A083A51603FE02049E3
:100360002831884208D11E490839496841F4706132
:100370001B4A083A516032E019493C31884208D1A1
:1003800017490839496841F47041154A083A5160E3
:1003900025E013495031884208D11149083949688C
:1003A00041F470210E4A083A516018E00C4964315A
:1003B000884208D10A490839496841F47001084A5D
:1003C000083A51600BE006497831884207D1044968
:1003D0000839496841F07061014A083A5160704734
:1003E0000860024010B50022026847F6F0739A4395
:1003F0000C6A8B6823430C6923434C6923438C6943
:100400002343CC6923434C6A23438C6A23431A4316
:100410000260CB6843600B6883604B68C36010BDAB
:100420007047000010B54FF4004000F037F828B1D5
:10043000012003490870C00300F02AF810BD000035
:10044000AC01002010B5022000F028F828B10120EE
:1004500002490870022000F01BF810BDA401002022
:1004600010B5042000F01AF828B1012002490870E4
:10047000042000F00DF810BDAC01002010B51020D4
:1004800000F00CF810B1102000F002F810BD0000D0
:100490000149086070470000140401400146002033
:1004A0000022074B1B6803EA0102054B14331B684B
:1004B0000B4013B10AB1012000E00020704700009A
:1004C00000040140002123498279002A3AD00A46DB
:1004D000126803689A430B461A600A1D1268036883
:1004E0009A430B1D1A60027911440A6803681A4383
:1004F0000A60184A0832126803689A43154B083399
:100500001A601A1D126803689A43124B0C331A6062
:100510004279102A0ED11A1F126803681A430D4B34
:1005200008331A601A1D126803681A43094B0C330A
:100530001A600DE00749427911440A6803681A43BA
:100540000A6005E0027911440A6803689A430A6068
:100550007047000000040140F0B50A460021002366
:10056000002400BF3DE0012505FA01F3156805EA06
:1005700003049C4234D105684F000326BE40B543B6
:10058000056015794E00B54006683543056015795C
:10059000012D02D01579022D16D185684F00032652
:1005A000BE40B543856055794E00B54086683543F9
:1005B0008560858801268E40B5438580858896793B
:1005C0008E40B6B235438580C5684F000326BE40D5
:1005D000B543C560D5794E00B540C6683543C560A2
:1005E000491C1029BFD3F0BDF0B5002300244D07EE
:1005F000ED0E02FA05F3CE1000F1200555F8265055
:100600004E07F70E0F26BE40B543CF1000F120066F
:1006100046F82750CE1000F1200555F8265045EA3F
:100620000304CE1000F1200545F82640F0BD0183FB
:10063000704700BFFEE721B1028842F48062028069
:1006400004E002884FF6FF331A400280704770B50D
:1006500002460024002500230020958A138B1B04EA
:1006600045EA030626F07F4404EA01068E4201D1E2
:10067000012000E0002070BD21B1028842F001029B
:10068000028004E002884FF6FE731A400280704731
:1006900010B504460B48844209D10121480500F0F9
:1006A00025FA00214FF4001000F020FA08E00121A3
:1006B000880500F01BFA00214FF4800000F016FAC4
:1006C00010BD00000054004021B1028842F4807245
:1006D000028004E002884FF6FF631A4002807047F0
:1006E00021B1028842F40072028004E002884FF6D1
:1006F000FF531A40028070470CB5024600200023C9
:100700000193009300920B0F019321F07F41019B15
:100710001BB1009B1433009303E0090C009B1833BA
:100720000093009B1B680B400BB1012000E00020F0
:100730000CBD00002DE9FF4704460D460026B146DA
:100740000427DFF8CC80A6884FF6C07006406846C4
:1007500000F0ECF9DDF808802E48B8FBF0F01FFA45
:1007600080F946EA0906A68020884FF6FE71084007
:10077000208000262849286888420CD82868400034
:10078000B8FBF0F087B2042F00DA04273E4309F1EA
:100790000100208427E0E8884BF6FF71884206D1EB
:1007A000286800EB4000B8FBF0F087B209E0286849
:1007B00000EBC00101EB0010B8FBF0F087B247F48A
:1007C0008047C7F30B0008B947F0010747F4004022
:1007D00006434FF4967009FB00F04FF47A7190FBDA
:1007E000F1F0401C2084A683208840F00100208086
:1007F00026884FF6F5300640A888698908430643E5
:100800002680A889298908432081BDE8FF87000048
:1008100000127A0040420F00A08601000146088ABB
:10082000C0B2704712B141F0010101E001F0FE01D8
:10083000018270470182704700B587B001210846E8
:1008400000F034F90121880300F060F94FF40070E2
:10085000059002208DF8180000208DF81A00032062
:100860008DF8190005A96D48FFF776FE07220921CA
:100870006A48FFF7B9FE4FF48060059002208DF8BA
:10088000180001208DF81B0005A96448FFF764FEDD
:1008900007220A216148FFF7A7FE4FF41650019086
:1008A0000020ADF80800ADF80A00ADF80C00ADF876
:1008B00010000C20ADF80E0001A9594800F036FCDC
:1008C000012240F22551564800F00FFC0121544806
:1008D00000F0D9FB4021524800F0D2FB012108462C
:1008E00000F0E4F80121480400F0F0F8042005903D
:1008F00002208DF8180000208DF81A0003208DF8D2
:10090000190005A94548FFF727FE072202214348A1
:10091000FFF76AFE0820059002208DF818000120DC
:100920008DF81B0005A93D48FFF716FE072203219D
:100930003A48FFF759FE4FF4165001900020ADF8E9
:100940000800ADF80A00ADF80C00ADF810000C205E
:10095000ADF80E0001A9334800F0E8FB012240F297
:100960002551304800F0C1FB01212E4800F08BFBDF
:1009700040212C4800F084FB0121022000F096F871
:100980000121880400F0A2F84FF480600590022055
:100990008DF8180000208DF81A0003208DF819003A
:1009A00005A92148FFF7D8FD07220A211E48FFF7B5
:1009B0001BFE4FF40060059002208DF81800012006
:1009C0008DF81B0005A91848FFF7C6FD07220B216B
:1009D0001548FFF709FE4FF4165001900020ADF8BE
:1009E0000800ADF80A00ADF80C00ADF810000C20BE
:1009F000ADF80E0001A90D4800F098FB012240F26D
:100A000025510A4800F071FB0121084800F03BFB2A
:100A10004021064800F034FB07B000BD0000024052
:100A200000380140004400400004024000480040FB
:100A300000BFFEE77047000070B5002100230F22C1
:100A4000C47804B3154C246804F4E064C4F5E0648D
:100A5000210AC1F10403CA40447804FA03F18478FE
:100A60001440214309010E4C0678A155047804F086
:100A70001F050124AC4005786D11AD0005F1E0259E
:100A8000C5F8004109E0047804F01F050124AC40DA
:100A9000044D0678761145F8264070BD0CED00E057
:100AA00000E400E080E100E07047000029B1064A60
:100AB00012680243044B1A6004E0034A126882433E
:100AC000014B1A60704700001C38024029B1064AE9
:100AD00012680243044B1A6004E0034A126882431E
:100AE000014B1A60704700002438024029B1064AC1
:100AF00012680243044B1A6004E0034A12688243FE
:100B0000014B1A60704700001838024029B1064AAC
:100B100012680243044B1A6004E0034A12688243DD
:100B2000014B1A607047000020380240F0B50021E8
:100B300000220023002600240025374F3F6807F0DD
:100B40000C0131B1042912D0082913D00C2934D159
:100B500013E0314F3F1F3F68C7F342356F1C4FF022
:100B6000010C0CFA07FC4FEACC37076033E02B4F3F
:100B7000076030E02A4F07602DE0274F3F6807F4F9
:100B80007012254F3F6807F44003264F07EB92474A
:100B90003A78012707EB93531F4F3F6807F48036DD
:100BA0002EB91E4F5743B7FBF3F7076004E01C4F05
:100BB0005743B7FBF3F707600DE0174F3F1F3F6840
:100BC000C7F342356F1C4FF0010C0CFA07FC4FEADB
:100BD000CC37076000BF00BF0F4F3F6807F0F00140
:100BE0000909114F7C5C0768E74047600A4F3F687E
:100BF00007F4E061090A0C4F7C5C4768E7408760B6
:100C0000054F3F6807F46051C90A074F7C5C47688D
:100C1000E740C760F0BD0000083802400024F4003F
:100C200000127A00BC010020C501002000B587B089
:100C300001210220FFF73AFF01218803FFF746FF59
:100C40004FF46040059002208DF8180001208DF8C7
:100C5000190000208DF81A0001208DF81B0005A94D
:100C60001B48FFF779FC05220D211948FFF7BCFC52
:100C700005220E211648FFF7B7FC05220F21144864
:100C8000FFF7B2FC0020ADF800004FF48270ADF821
:100C900002000020ADF80400ADF80600ADF8080031
:100CA0004FF40070ADF80A001820ADF80C000020D9
:100CB000ADF80E000720ADF810006946054800F0B9
:100CC00017F80121034800F007F807B000BD000045
:100CD000000402400038004021B1028842F0400286
:100CE000028004E002884FF6BF731A40028070470A
:100CF00010B50022028802F441520B884C8823432D
:100D00008C882343CC8823430C8923434C89234379
:100D10008C892343CC8923431A4302800B8A0382A4
:100D200010BD704730B500228B071C0F0F2303FA4C
:100D300004F20B4B8C1053F824309343084C8D1065
:100D400044F8253023468C1053F824308C07240FA8
:100D500000FA04F42343024C8D1044F8253030BDD2
:100D60000800014008B5002000902C48006800F4FD
:100D7000007010B10120009001E000200090009868
:100D8000012849D12648006840F004002449086041
:100D90000846006840F0020008600846006840F01D
:100DA000010008601D482430006840F080501B4955
:100DB0002431086088141B49086000BF1948406846
:100DC00000F010000028F9D11448083000681349D9
:100DD0000831086008460068086008460068086036
:100DE000081F006820F46040091F0860084600687A
:100DF00040F420400860081D006820F00300091D31
:100E0000086008460068086000BF044808300068B1
:100E100000F00C000028F8D108BD000000380240A6
:100E2000003C024000700040042808D14FF0E0214F
:100E3000096941F004014FF0E022116107E04FF031
:100E4000E021096921F004014FF0E02211617047AF
:100E50007047000010B51548006840F480701349D1
:100E60000860124808300068114908400F490831ED
:100E700008600E4800680F4908400C4908600846A1
:100E8000006820F48020086008480830006820F4DA
:100E90007D000649083108600020091D0860FFF741
:100EA00061FF4FF000600449086010BD0038024047
:100EB0000CC0FF88FEFFFEEE08ED00E01AB183894A
:100EC0000B43838102E083898B438381704730B574
:100ED00000230022048C4FF6FE752C400484028C03
:100EE000038B4FF68F742340AC1E23400C882343A2
:100EF0006C1E2240CC8822434C8822438C888486F6
:100F00000383028430BD000000220288B0F1804FCC
:100F100005D00F4B984202D00E4B984204D14FF6A9
:100F20008F731A404B881A430B4B984207D00B4BD8
:100F3000984204D04FF6FF431A40CB881A430280F0
:100F40008B8883850B88038501238382704700008B
:100F50000004004000080040001000400014004061
:100F600000B591B001210846FFF7A0FD4FF4004005
:100F70000F9002208DF8400000208DF842000320E1
:100F80008DF841000FA92E48FFF7E6FA01220F2144
:100F90002B48FFF729FB01210846FFF797FD0F209B
:100FA000ADF838000020ADF83400ADF83A00ADF8E7
:100FB00036000DA94FF08040FFF7A6FF6020ADF886
:100FC0002C000120ADF82E000020ADF83000ADF867
:100FD00032000BA94FF08040FFF779FF012108068E
:100FE000FFF764FD4FF08040008B40F008004FF0A9
:100FF000804108831348FFF78FF913480090134886
:101000000190102002902A2003900020049080205C
:1010100005904000069080000790002008904FF453
:101020000050099000200A9069460648FFF7DAF957
:10103000012251024805FFF741FF11B000BD000039
:101040000000024058600240340000401E000020B2
:1010500010B5024800F0FAF810BD0000DC010020D5
:1010600010B5024800F0F2F810BD0000040A00209C
:1010700010B5024800F0EAF810BD00002C12002064
:10108000CA430280704721B1828942F400528281B2
:1010900004E082894DF6FF731A408281704770B573
:1010A00002460B460024002100250020C3F3421510
:1010B00003F01F01012606FA01F1012D02D19689E4
:1010C000314006E0022D02D1168A314001E0968AB5
:1010D00031401C12012606FA04F41688344011B17E
:1010E0000CB1012000E0002070BDF0B503460024E3
:1010F0000026002500201846C1F3421401F01F0607
:10110000012707FA06F5012C01D10C3004E0022C6E
:1011100001D1103000E014301AB107682F43076086
:1011200002E00768AF430760F0BD00002DE9FF470C
:1011300005460E460024A14600BFA0462C8A24F492
:101140004054F08804432C82AC8941F20C60844303
:10115000B08831890843718908430443AC81AC8A63
:1011600024F44074B0890443AC826846FFF7DEFC87
:101170001E48854202D1DDF80C9001E0DDF80890B0
:10118000A88900F4004040B109EBC90000EB091048
:1011900031684900B0FBF1F707E009EBC90000EB4B
:1011A000091031688900B0FBF1F76420B7FBF0F05B
:1011B00004012009642101FB1078A88900F4004093
:1011C00040B1322000EBC800B0FBF1F000F00700A6
:1011D000044308E0322000EB08106421B0FBF1F07A
:1011E00000F00F0004432C81BDE8FF870038014068
:1011F00001468888C0F308007047C1F30802828066
:10120000704770B504460D46012000F034F9668B36
:10121000002000F030F90EB9002070BD218BA068CD
:10122000405C2870012000F026F9208B401C80B221
:101230002083E189884201DB00202083608B401EEF
:101240006083002000F017F90120E6E770B504463E
:1012500040F225512068FFF722FFE0B12068FFF738
:10126000C7FFC5B2E18AA0684554E08A401C80B23D
:10127000E082E189884201DB0020E082608BE18925
:10128000884202DA608B401C6083606A10B1284695
:10129000616A884700BF40F227712068FFF7FFFEB0
:1012A00008B3A08A60B9002240F227712068FFF7D6
:1012B0001CFF012240F226612068FFF716FF37E08D
:1012C000638A6268D15C2068FFF797FF608A401CE0
:1012D00080B26082A189884201DB00206082A08AFE
:1012E000401EA08224E040F226612068FFF7D7FE6E
:1012F000F0B1A08A50B9002240F226612068FFF7C1
:10130000F4FE206AA0B1206A804711E0638A626817
:10131000D15C2068FFF771FF608A401C80B2608258
:10132000A189884201DB00206082A08A401EA08241
:1013300070BDF8B504460E461746002529E00EE0BC
:10134000012000F098F8A08A0090002000F093F8A7
:10135000A089BDF80010884200DD01E000BFEFE782
:1013600000BF705D228A61688854012000F083F814
:10137000208A401C80B22082A189884201DB0020A3
:101380002082A08A401CA082002000F074F8681C13
:1013900085B2BD42D3DB012240F227712068FFF7FE
:1013A000A4FEF8BD1F482049086020484860204836
:1013B00088604FF480608881C8810020088248825C
:1013C000C882088348838882C861086248621948D5
:1013D0001949086019484860194888604FF48060CE
:1013E0008881C881002008824882C8820883488397
:1013F0008882C8610862486212481349086013482D
:101400004860134888604FF480608881C88100205C
:1014100008824882C882088348838882C86108623B
:101420004862704700380140DC01002004020020BF
:101430000406002000440040040A00202C0A00207A
:101440002C0E0020004800402C12002054120020D6
:101450005416002000BFFEE702E008C8121F08C1B2
:10146000002AFAD170477047002001E001C1121F25
:10147000002AFBD1704780F31088704700B585B013
:1014800001210420FFF712FB00208DF810004FF41B
:101490000040039003A91948FFF75EF801210846B0
:1014A000FFF734FB0F210220FFF73CFC4FF4004014
:1014B000019000208DF8080008208DF80900012017
:1014C0008DF80A0001A8FEF7FDFF28208DF8000026
:1014D00005208DF8010000208DF8020001208DF814
:1014E00003006846FFF7A8FA00200549087005497F
:1014F00008700549087005B000BD000000080240F2
:10150000B6010020B5010020B401002070B50446EA
:101510000D464FF42040454908600AE04348016801
:101520000068401E414A106019B900F07BF90020A4
:1015300070BD4FF400313E48FFF7DEF80028EDD1D2
:1015400001213B48FFF7C0F84FF48050374908604D
:101550000AE0364801680068401E344A106019B934
:1015600000F060F90020E3E732493148FFF76FF8F7
:101570000028EED000223A212D48FFF753F94FF40E
:1015800080502A4908600AE0284801680068401E27
:10159000264A106019B900F045F90020C8E726492D
:1015A0002348FFF754F80028EED001212048FFF728
:1015B00063F821461E48FFF73DF94FF480501B4960
:1015C00008600AE0194801680068401E174A106068
:1015D00019B900F027F90020AAE71749891C144817
:1015E000FFF735F80028EDD029461148FFF722F91A
:1015F0004FF480500D4908600AE00C48016800680B
:10160000401E0A4A106019B900F00CF900208FE75B
:101610000949891C0648FFF71AF80028EDD0012176
:101620000348FFF75DF8012082E70000B0010020C9
:1016300000540040010003008200070010B5FFF7CE
:10164000B1FEFFF7F9F8FEF741FE10BD70B5054693
:101650000E462846FEF71EFE04460CB9002070BD5B
:1016600031462046FFF7CDFDF9E72DE9F04105466B
:101670000E4617462846FEF70DFE04460CB9BDE897
:10168000F081E06908B1E06980473A46314620467A
:10169000FFF74FFE00BFF2E713B50446012201A990
:1016A0002046FFF7E2FF1CBD10B50420FFF7BCFB8E
:1016B000094800680949B0FBF1F00949087008467B
:1016C000007800EB4001C1EBC0104FF6FF7101EA5A
:1016D000C0000449088010BD0000002040420F00F7
:1016E000D6010020D80100200146114A12884A4341
:1016F0004FF0E0235A6100229A611A46126942F0C3
:1017000001021A6100BF4FF0E022106900F00102EF
:101710001AB100F48032002AF5D04FF0E0221269AD
:1017200022F001024FF0E0231A6100229A61704713
:10173000D80100201CB501210220FFF7B7F9402095
:10174000009001208DF8040000208DF80600012093
:101750008DF8050069460B48FEF7FEFE01210220C8
:10176000FFF7A4F90220009001208DF8040000206A
:101770008DF8060003208DF8050069460148FEF744
:10178000EBFE1CBD0004024000B587B001214805F6
:10179000FFF79CF901210220FFF788F904220821B4
:1017A0001D48FEF721FF042209211B48FEF71CFFFC
:1017B0004FF44070059002208DF8180003208DF83A
:1017C000190001208DF81A0005A91348FEF7C4FE80
:1017D0001248FEF75DFF0020ADF808004BF6FF70E1
:1017E000ADF80A000020ADF80C004FF48060ADF8B1
:1017F0000E000001ADF810000948019001210748D2
:10180000FEF73AFF01A90548FEF794FF01210348BE
:10181000FEF711FF07B000BD000402400054004075
:10182000A086010000B587B04FF4407005900120FC
:101830008DF818008DF81B0003208DF8190005A9FC
:101840002648FEF789FE4FF440712448FEF7EFFE6C
:101850002348008840F40040214908800846008859
:10186000C0F30E0008804FF44070059002208DF800
:10187000180003208DF8190001208DF81A0005A921
:101880001648FEF769FE042208211448FEF7ACFE54
:10189000042209211148FEF7A7FE0020ADF8080038
:1018A0004BF6FF70ADF80A000020ADF80C004FF4C5
:1018B0008060ADF80E000001ADF8100009480190FD
:1018C00001210748FEF7D8FE01A90548FEF732FFBF
:1018D00001210348FEF7AFFE07B000BD000402403F
:1018E00000540040A086010008B5FFF7DDFEFFF7B9
:1018F00021FFFFF7A3FEFFF799F9FFF745FFFFF779
:101900002FFB00F0A3FC00F069FC1349134800F022
:101910003FFBFFF7B3FD01231A4619463F2000F0B5
:1019200069FA00F0DDFA00F01BF800F073F83422D9
:101930003C21002000F090F90A20FFF7D5FE09E0D5
:1019400069460120FFF782FE20B19DF800100120BA
:10195000FFF7A2FEF4E7000066067A443333C8427C
:1019600010B500F03FF800F001F810BD00B585B0EB
:1019700001210820FFF79AF800208DF810001020B0
:10198000039001208DF8130003A91548FEF7E4FD2C
:1019900001210846FFF7BAF804210320FFF7C2F936
:1019A0001020019000208DF808000C208DF809000F
:1019B00001208DF80A0001A8FEF784FD0A208DF8A9
:1019C000000005208DF8010000208DF802000120A4
:1019D0008DF803006846FFF72FF805B000BD000042
:1019E000000C02401CB501210220FFF75FF84FF404
:1019F0008050009001208DF8040000208DF8060032
:101A000001208DF8050069460148FEF7A5FD1CBDC3
:101A10000004024000B585B04FF4805003490880AF
:101A20000021684600F004F805B000BD180402402B
:101A300070B586B005460E464FF4204082490860D6
:101A400012E0814801680068401E7F4A106059B961
:101A5000FFF7E8FE00208DF80400112201A92846B6
:101A6000FEF77CFB06B070BD4FF400317748FEF7FF
:101A700043FE0028E5D101217448FEF725FE4FF40E
:101A800080507149086011E06F4801680068401E8D
:101A90006D4A106051B9FFF7C5FE00208DF80400B3
:101AA000112201A92846FEF759FBDBE76849674880
:101AB000FEF7CDFD0028E7D00022AA216348FEF7FB
:101AC000B1FE4FF480506049086011E05E48016843
:101AD0000068401E5C4A106051B9FFF7A3FE002069
:101AE0008DF80400112201A92846FEF737FBB9E75B
:101AF00058495648FEF7ABFD0028E7D0012153486E
:101B0000FEF7BAFD31465148FEF794FE4FF480507F
:101B10004D49086011E04C4801680068401E4A4A7F
:101B2000106051B9FFF77EFE00208DF804001122ED
:101B300001A92846FEF712FB94E74649891C434851
:101B4000FEF785FD0028E6D001214048FEF7C8FDDC
:101B500001213E48FEF7B8FD4FF480503A49086035
:101B600011E0394801680068401E374A106051B9D9
:101B7000FFF758FE00208DF80400112201A9284625
:101B8000FEF7ECFA6EE732493048FEF760FD0028B8
:101B9000E7D00122AB212D48FEF744FE4FF48050E0
:101BA0002949086011E0284801680068401E264A5B
:101BB000106051B9FFF736FE00208DF804001122A5
:101BC00001A92846FEF7CAFA4CE72149491C1F48DB
:101BD000FEF73DFD0028E6D0002425E04FF48050BC
:101BE0001949086011E0184801680068401E164A4B
:101BF000106051B9FFF716FE00208DF80400112285
:101C000001A92846FEF7AAFA2CE711493F310F48EF
:101C1000FEF71DFD0028E6D00C48FEF7FFFD0DF194
:101C200005010855601CC4B2102CD7DB0121074800
:101C3000FEF756FD01208DF80400112201A9284667
:101C4000FEF78CFA00BF0DE7B801002000540040F9
:101C5000010003008200070070B504460E461546D9
:101C60004FF420405F4908600AE05E480168006860
:101C7000401E5C4A106019B9FFF7D4FD002070BD0A
:101C80004FF400315848FEF737FD0028EDD101210F
:101C90005548FEF719FD4FF48050524908600AE09C
:101CA000504801680068401E4E4A106019B9FFF79D
:101CB000B9FD0020E3E74D494B48FEF7C8FC00287A
:101CC000EED00022AA214848FEF7ACFD4FF4805028
:101CD000444908600AE0434801680068401E414AE0
:101CE000106019B9FFF79EFD0020C8E740493E4843
:101CF000FEF7ADFC0028EED001213B48FEF7BCFC0E
:101D0000FE213948FEF796FD4FF4805035490860B2
:101D10000AE0344801680068401E324A106019B970
:101D2000FFF780FD0020AAE73149891C2E48FEF705
:101D30008EFC0028EDD021462B48FEF77BFD4FF4AA
:101D40008050284908600AE0264801680068401E63
:101D5000244A106019B9FFF765FD00208FE7244978
:101D6000891C2148FEF773FC0028EDD031461E483F
:101D7000FEF760FD4FF480501A4908600AE01948E8
:101D800001680068401E174A106019B9FFF74AFD44
:101D9000002074E71649891C1348FEF758FC0028F8
:101DA000EDD029461048FEF745FD4FF480500D490F
:101DB00008600AE00B4801680068401E094A10608C
:101DC00019B9FFF72FFD002059E70949891C06487A
:101DD000FEF73DFC0028EDD001210348FEF780FC12
:101DE00001204CE7B801002000540040010003002E
:101DF000820007002DE9F04105460E461746984639
:101E00003348007820F0080031490870084601780E
:101E10002D20FFF77BFB044614B90020BDE8F081BC
:101E2000E9B22420FFF772FB04460CB90020F5E765
:101E30002848007820F0800026490870084600787D
:101E400066F3861008700846007867F3451008703E
:101E50000846007868F304100870084601782720C7
:101E6000FFF754FB04460CB90020D7E71A48007866
:101E700020F0100018490870084601782F20FFF75D
:101E800045FB04460CB90020C8E71448007820F050
:101E90001000103011490870084601782E20FFF715
:101EA00035FB04460CB90020B8E70948007820F05B
:101EB0000800083006490870084601782D20FFF711
:101EC00025FB04460CB90020A8E72046A6E7000041
:101ED000A9010020AB010020B6010020B4010020C0
:101EE00010B52848007820F00800264908700846F8
:101EF00001782D20FFF70AFB04460CB9002010BD25
:101F000005212820FFF702FB04460CB90020F6E764
:101F100014212920FFF7FAFA04460CB90020EEE755
:101F20001948007820F00400174908700846017825
:101F30002F20FFF7EBFA04460CB90020DFE7134827
:101F4000007820F00400001D104908700846017850
:101F50002E20FFF7DBFA04460CB90020CFE7094832
:101F6000007820F00800083006490870084601781B
:101F70002D20FFF7CBFA04460CB90020BFE720461E
:101F8000BDE70000A9010020B6010020B401002037
:101F90007CB505460C46284600F014F80190204612
:101FA00000F010F80090BDF80410022000F080F955
:101FB0000646BDF80010032000F07AF906463046C8
:101FC0007CBD0000F8B505467D492846FEF7D8F8E7
:101FD0000646FEF707F904466CB1B4F5805F0AD2F5
:101FE000BDF8000020F470400090BDF8000064F3DC
:101FF0000B000090DFE0B4F5805F11D341F6FE7076
:1020000084420DD8BDF8000020F4704000F58050E7
:1020100000906108BDF8000061F30B000090CAE079
:1020200041F6FE70844210D9400084420DD8BDF8BC
:10203000000020F4704000F500500090A108BDF8A9
:10204000000061F30B000090B5E043F6FC708442A1
:1020500010D9400084420DD8BDF8000020F4704033
:1020600000F540500090E108BDF8000061F30B005E
:102070000090A0E047F6F870844210D940008442F6
:102080000DD8BDF8000020F4704000F580400090AD
:102090002109BDF8000061F30B0000908BE04FF6C2
:1020A000F070844210D9400084420DD8BDF8000081
:1020B00020F4704000F5A04000906109BDF80000D8
:1020C00061F30B00009076E03E48844210D9400056
:1020D00084420DD8BDF8000020F4704000F5C040E7
:1020E0000090A109BDF8000061F30B00009062E0D0
:1020F0003548844210D9400084420DD8BDF8000014
:1021000020F4704000F5E0400090E109BDF80000C7
:1021100061F30B0000904EE02C48844210D940003F
:1021200084420DD8BDF8000020F4704000F5004056
:102130000090210ABDF8000061F30B0000903AE026
:102140002348844210D9400084420DD8BDF80000D5
:1021500020F4704000F510400090610ABDF80000C6
:1021600061F30B00009026E01A48844210D9400029
:1021700084420DD8BDF8000020F4704000F52040E6
:102180000090A10ABDF8000061F30B00009012E07E
:10219000114884420FD9400084420CD8BDF8000099
:1021A00020F4704000F530400090E10ABDF80000D6
:1021B00061F30B000090BDF800100846F8BD000068
:1021C0000000C842E0FF0100C0FF030080FF0700DD
:1021D00000FF0F0000FE1F0000FC3F0000B585B0AF
:1021E00001210220FEF762FC00208DF81000022081
:1021F000039003A91448FEF7AFF901210846FEF742
:1022000085FC01210846FEF78DFD0220019000208B
:102210008DF808000C208DF8090001208DF80A00C7
:1022200001A8FEF74FF907208DF8000005208DF872
:10223000010000208DF8020001208DF8030068469F
:10224000FEF7FAFB05B000BD0004024038B5BDF84A
:10225000000020F4704000F540400090BDF8000000
:1022600020F400600090BDF8000020F4C06000F58C
:1022700080600090BDF8000020F010001030009049
:10228000BDF8000020F008000090BDF8000020F02C
:1022900004000090BDF8000020F003000090BDF89D
:1022A0000010012000F004F80446204638BD00006C
:1022B00070B505460C464FF42040524908600AE0CC
:1022C000504801680068401E4E4A106019B9FFF777
:1022D000A9FA002070BD4FF400314B48FEF70CFA0C
:1022E0000028EDD101214848FEF7EEF94FF4805067
:1022F000444908600AE0434801680068401E414ABA
:10230000106019B9FFF78EFA0020E3E73F493E4815
:10231000FEF79DF90028EED0002288213A48FEF70A
:1023200081FA4FF48050374908600AE03548016867
:102330000068401E334A106019B9FFF773FA002095
:10234000C8E733493048FEF782F90028EED0012172
:102350002D48FEF791F929462B48FEF76BFA4FF40A
:102360008050284908600AE0264801680068401E3D
:10237000244A106019B9FFF755FA0020AAE724494A
:10238000891C2148FEF763F90028EDD021121E4870
:10239000FEF750FA4FF480501A4908600AE01948D5
:1023A00001680068401E174A106019B9FFF73AFA31
:1023B00000208FE71649891C1348FEF748F90028CA
:1023C000EDD0E1B21048FEF735FA4FF480500D49D8
:1023D00008600AE00B4801680068401E094A106066
:1023E00019B9FFF71FFA002074E70949891C06484C
:1023F000FEF72DF90028EDD001210348FEF770F912
:10240000012067E7A0010020005400400100030004
:10241000820007003424000800000020DC010000D6
:102420003002000864240008DC0100207C1C00004D
:1024300068140008500F80841E00030406080C1066
:102440001820300001130102130006FF07080900DD
:102450000102017C02011C01B5B825B475B8410127
:042460000000000078
:0400000508000125C9
:00000001FF
