:020000040800F2
:10000000601E002039010008D90F00089F0B00086E
:10001000D50F00080B08000849190008000000006F
:10002000000000000000000000000000C7120008EF
:100030008D090008000000004D100008F5130008AD
:100040005301000853010008530100085301000840
:10005000530100085301000853010008B1090008CA
:10006000CD09000853010008E90900085301000800
:100070005301000853010008530100085301000810
:100080005301000853010008530100085301000800
:1000900053010008530100085301000853010008F0
:1000A00053010008530100085301000853010008E0
:1000B00053010008530100085301000853010008D0
:1000C00053010008530100085301000853010008C0
:1000D0005301000841160008511600086116000877
:1000E000910900085301000853010008530100085A
:1000F0005301000853010008530100085301000890
:10010000530100085301000853010008530100087F
:10011000530100085301000853010008530100086F
:1001200053010008DFF80CD000F054F900480047F4
:10013000511F0008601E00200648804706480047FF
:10014000FEE7FEE7FEE7FEE7FEE7FEE7FEE7FEE787
:10015000FEE7FEE7F91300082501000840EA010365
:100160009B0703D009E008C9121F08C0042AFAD26D
:1001700003E011F8013B00F8013B521EF9D2704731
:100180000FB400B589B00BA800906A4603480A99DD
:1001900000F016F909B05DF814FB0000DC01002046
:1001A0002DE9FF5F1D464FF0FF3BD5E90146914623
:1001B0005F464FF00008A9697F1C01988847296AAB
:1001C000824688470028F6D1BAF1FF3F0CD024F4CC
:1001D000C064002E19DD600614D5BAF12B0F09D0CA
:1001E000BAF12D0F0ED103E0584604B0BDE8F09FE0
:1001F00044F48064A9697F1C01988847761E824672
:10020000002E02DDBAF1300F03D0B9F1000F26D075
:1002100032E0A969761E44F400747F1C0198884777
:100220008246002E05DDBAF1780F06D0BAF1580FDC
:1002300003D0B9F1000F10D01EE0B9F1000F02D0C9
:10024000B9F1100F18D1A969761E24F400747F1C2F
:10025000019888478246102002E0082000E00A202A
:10026000814609E008FB0908A969761E44F4007478
:100270007F1C019888478246002E05DD494650467E
:1002800000F090F80028EDDAE96901988847A005A8
:1002900002D46FF00100A8E7E00725D1600613D56E
:1002A000600502D5C8F1000000E0404629680A1D3B
:1002B0002A600968220501D5087015E0220701D5DA
:1002C000088011E008600FE02868011D29600068BF
:1002D000210502D580F8008006E0210702D5A0F8AC
:1002E000008001E0C0F8008038467EE780EA010225
:1002F00010B502F00043400022D04A001FD0010E8A
:1003000001EB1261C0F35600C2F3560240F4000044
:1003100042F40002A0FB022000047F39140400D044
:10032000401C50EA124001D44000491EC2B20C06E3
:1003300004EBD010401C4008802A02D003E00020CB
:1003400010BD20F00100002900DA0020184310BD84
:1003500020F00040C10DC0F3160040F400007F29DA
:1003600001DA00207047962903DCC1F19601C840EC
:10037000704796398840704730B50B4601460020DB
:100380002022012409E021FA02F59D4205D303FA57
:1003900002F5491B04FA02F52844151EA2F10102D8
:1003A000F1DC30BD3A2800D2303820F02002412A5A
:1003B00001D3A2F13700884201D34FF0FF307047DC
:1003C000024B9361024BD36100F032B8611D00080B
:1003D00015040008064C074D06E0E06840F00103F4
:1003E00094E8070098471034AC42F6D3FFF79EFE1E
:1003F000002B0008202B0008094910B508784C1C78
:1004000018B1401E0870205C10BD00210720ABBE53
:10041000207010BD02490878421C0A707047000025
:10042000E401002002681144137801601846704707
:10043000D1600449516104491162002111611146E2
:1004400000F00AB8250400084D040008C0B24FF4BB
:10045000F05100F097B900002DE9F34F8BB04FF049
:10046000000801F10C000C464FF0010B46460DF15F
:10047000080A0190626901210198904705002DD07A
:10048000252D2CD0216A8847C0B1626901210198CD
:100490009047216A88470028F7D1411E6269019878
:1004A000904700E0761CA1690B988847216A88472D
:1004B0000028F7D1E1690B988847DBE7A1690B9821
:1004C00088470746A84201D1761CD3E7E1690B981B
:1004D00088477F1C02D1B8F1000F6FD046E100279A
:1004E00062693D463946019890472A2804D16269DD
:1004F0000121019890470125DFF88492626901216A
:1005000001989047A0F130010A290AD24F45E5DC55
:1005100007EB870100EB4107303FDFD445F01005C2
:10052000ECE7E90601D46FF000476C280AD04C28AC
:1005300014D0682815D06A280DD074281CD07A28C9
:100540001AD01DE062690121019890476C2802D001
:1005500045F0040514E045F002050DE045F02005E6
:100560000AE06269012101989047682802D045F0AD
:10057000080505E045F4006562690121019890478E
:10058000C4E9015765283DD019DC58287AD00CDC25
:10059000452837D004DC252826D0412831D131E048
:1005A00046282FD047282CD12CE05B2877D0612813
:1005B00028D063287CD0642823D15AE0D0E06F286B
:1005C00048D008DC66281DD067281BD0692821D0B8
:1005D0006E2816D127E0702845D0732868D075287A
:1005E00047D078280DD14DE0A1690B988847054682
:1005F00025283FF469AFE1690B9888476D1C3FF4EB
:100600006AAFB3E023466A466FF001000B99AFF37F
:1006100000809EE045F040006060A80723464FF050
:10062000000236D43EE0E8077FF447AF2068011DA2
:1006300021600068290501D506701BE7290701D54F
:10064000068017E7A90703D5F117C0E9006111E794
:1006500006600FE745F040006060A80723464FF0B2
:10066000080216D41EE040F60E0125EA0100606083
:1006700016E045F040006060A80723464FF00A02EC
:1006800007D40FE045F040006060A80708D5234676
:1006900010226FF001000B99AFF3008059E007E0E2
:1006A000234610226FF001000B99FFF779FD50E00F
:1006B0004FF000094F464B46632802D05B2806D016
:1006C00040E0E80601D40120A06001273AE0626919
:1006D0000121019890475E2805D14FF00109626918
:1006E000494601989047216939B900210A46534685
:1006F00043F82120491C0829FADBB0B3216969B904
:10070000C11700EBD16253110AEB830122F01F02E3
:10071000821A01200B68904003430B60626901213B
:10072000019890475D28E8D1B9F1000F09D0002069
:10073000514651F82020D24341F82020401C08287F
:10074000F7DB02AB224600976FF001000B99AFF385
:10075000008000280CDA401C08D1BBF1000F05D046
:100760004FF0FF300DB0BDE8F08FFFE74046F9E7EE
:10077000E90701D108F1010806444FF0000B79E6C2
:10078000CCCCCC0C7F2801D9002208E0064A02EB31
:100790005002C007127800D1120902F00F020120A6
:1007A0009040084070470000C02A000870B58D18BE
:1007B00010F8014B14F0030201D110F8012B2311A2
:1007C00006D110F8013B03E010F8016B01F8016B52
:1007D000521EF9D1ABB110F8012B04F00C048A1AA7
:1007E0000C2C03D0A2EB84129B1C08E010F8014BE8
:1007F000A2EB0422F8E712F8014B01F8014B5B1E53
:10080000F9D5A942D4D3002070BD00BFFEE7000097
:10081000014609B905487047012901D10448FAE7A2
:10082000022901D10348F6E70020F4E7E80100209F
:10083000100A00203812002008B525208DF800008D
:1008400000208DF8020001208DF80300684600F0BA
:10085000C5FB26208DF8000000208DF80200012045
:100860008DF80300684600F0B9FB27208DF80000E2
:1008700000208DF8020001208DF80300684600F08A
:10088000ADFB08BD01684FF6FE721140016000210A
:10089000016041608160C1602C49884208D12B49C8
:1008A0000839496841F00F01284A083A51604CE084
:1008B00026491431884208D124490839496841F051
:1008C000F001224A083A51603FE02049283188422D
:1008D00008D11E490839496841F470611B4A083A39
:1008E000516032E019493C31884208D11749083932
:1008F000496841F47041154A083A516025E01349AE
:100900005031884208D111490839496841F47021B1
:100910000E4A083A516018E00C496431884208D107
:100920000A490839496841F47001084A083A516097
:100930000BE006497831884207D1044908394968F3
:1009400041F07061014A083A516070470860024006
:1009500010B50022026847F6F0739A430C6A8B6860
:1009600023430C6923434C6923438C692343CC699B
:1009700023434C6A23438C6A23431A430260CB68A7
:1009800043600B6883604B68C36010BD7047000014
:1009900010B54FF4004000F037F828B101200349AA
:1009A0000870C00300F02AF810BD0000AC01002060
:1009B00010B5022000F028F828B101200249087083
:1009C000022000F01BF810BDA401002010B5042087
:1009D00000F01AF828B1012002490870042000F044
:1009E0000DF810BDAC01002010B5102000F00CF87F
:1009F00010B1102000F002F810BD0000014908609D
:100A00007047000014040140014600200022074BFB
:100A10001B6803EA0102054B14331B680B4013B13A
:100A20000AB1012000E000207047000000040140EE
:100A3000002123498279002A3AD00A4612680368C5
:100A40009A430B461A600A1D126803689A430B1DED
:100A50001A60027911440A6803681A430A60184A46
:100A60000832126803689A43154B08331A601A1D3E
:100A7000126803689A43124B0C331A604279102AA9
:100A80000ED11A1F126803681A430D4B08331A60FF
:100A90001A1D126803681A43094B0C331A600DE0E3
:100AA0000749427911440A6803681A430A6005E05D
:100AB000027911440A6803689A430A60704700008B
:100AC00000040140F0B50A4600210023002400BFC5
:100AD0003DE0012505FA01F3156805EA03049C428F
:100AE00034D105684F000326BE40B5430560157933
:100AF0004E00B5400668354305601579012D02D0DA
:100B00001579022D16D185684F000326BE40B543E6
:100B1000856055794E00B540866835438560858887
:100B200001268E40B5438580858896798E40B6B281
:100B300035438580C5684F000326BE40B543C56078
:100B4000D5794E00B540C6683543C560491C1029AB
:100B5000BFD3F0BDF0B5002300244D07ED0E02FA1F
:100B600005F3CE1000F1200555F826504E07F70E7C
:100B70000F26BE40B543CF1000F1200646F827509F
:100B8000CE1000F1200555F8265045EA0304CE109A
:100B900000F1200545F82640F0BD0183704700BFF5
:100BA000FEE721B1028842F48062028004E00288FC
:100BB0004FF6FF331A400280704770B5024600249A
:100BC000002500230020958A138B1B0445EA0306A9
:100BD00026F07F4404EA01068E4201D1012000E0A4
:100BE000002070BD21B1028842F00102028004E0C1
:100BF00002884FF6FE731A400280704710B5044613
:100C00000B48844209D10121480500F041FA002136
:100C10004FF4001000F03CFA08E00121880500F0D4
:100C200037FA00214FF4800000F032FA10BD0000C6
:100C30000054004021B1028842F48072028004E036
:100C400002884FF6FF631A400280704721B1028884
:100C500042F40072028004E002884FF6FF531A400B
:100C6000028070470CB502460020002301930093D8
:100C700000920B0F019321F07F41019B1BB1009B60
:100C80001433009303E0090C009B18330093009B7E
:100C90001B680B400BB1012000E000200CBD0000E0
:100CA0002DE9FF4704460D460026B1460427DFF82C
:100CB000CC80A6884FF6C0700640684600F008FA5F
:100CC000DDF808802E48B8FBF0F01FFA80F946EAFC
:100CD0000906A68020884FF6FE7108402080002675
:100CE0002849286888420CD828684000B8FBF0F0F2
:100CF00087B2042F00DA04273E4309F10100208463
:100D000027E0E8884BF6FF71884206D1286800EB9F
:100D10004000B8FBF0F087B209E0286800EBC001A2
:100D200001EB0010B8FBF0F087B247F48047C7F33F
:100D30000B0008B947F0010747F4004006434FF4A1
:100D4000967009FB00F04FF47A7190FBF1F0401CB3
:100D50002084A683208840F00100208026884FF65A
:100D6000F5300640A8886989084306432680A8898B
:100D7000298908432081BDE8FF87000000127A001E
:100D800040420F00A08601000146088AC0B27047A9
:100D900012B141F0010101E001F0FE010182704752
:100DA0000182704700B587B00121084600F050F974
:100DB0000121880300F07CF94FF4007005900220B7
:100DC0008DF8180000208DF81A0003208DF8190006
:100DD00005A97748FFF776FE072209217448FFF737
:100DE000B9FE4FF48060059002208DF818000120B4
:100DF0008DF81B0005A96E48FFF764FE07220A2143
:100E00006B48FFF7A7FE4FF4E13001900020ADF8EA
:100E10000800ADF80A00ADF80C00ADF810000C2089
:100E2000ADF80E0001A9634800F080FC012240F2F9
:100E30002551604800F05AFC01215E4800F01BFC7F
:100E400040215C4800F014FC5B4A5C495948001D95
:100E500000F0D0FB0121084600F0FAF80121480417
:100E600000F006F90420059002208DF818000020FB
:100E70008DF81A0003208DF8190005A94C48FFF7DA
:100E800021FE072202214A48FFF764FE0820059050
:100E900002208DF8180001208DF81B0005A9444898
:100EA000FFF710FE072203214148FFF753FE4FF4DE
:100EB000E13001900020ADF80800ADF80A00ADF86F
:100EC0000C00ADF810000C20ADF80E0001A93C4854
:100ED00000F02CFC012240F22551394800F006FCBC
:100EE0000121374800F0C7FB4021354800F0C0FB26
:100EF000314A3C3233493248001D00F07BFB01216E
:100F0000022000F0A5F80121880400F0B1F84FF4A8
:100F10008060059002208DF8180000208DF81A00DE
:100F200003208DF8190005A92748FFF7CBFD0722FC
:100F30000A212548FFF70EFE4FF4006005900220BD
:100F40008DF8180001208DF81B0005A91E48FFF739
:100F5000B9FD07220B211C48FFF7FCFD4FF416508A
:100F600001900020ADF80800ADF80A00ADF80C00C3
:100F7000ADF810000C20ADF80E0001A9134800F0E8
:100F8000D5FB012240F22551104800F0AFFB0121B2
:100F90000E4800F070FB40210C4800F069FB064A47
:100FA000283A0B490948001D00F024FB07B000BD9A
:100FB000000002400038014044600240100200205E
:100FC00000440040380A002000040240004800406D
:100FD0006012002000BFFEE77047000070B50021DE
:100FE00000230F22C47804B3154C246804F4E06491
:100FF000C4F5E064210AC1F10403CA40447804FA4C
:1010000003F184781440214309010E4C0678A15560
:10101000047804F01F050124AC4005786D11AD0083
:1010200005F1E025C5F8004109E0047804F01F054A
:101030000124AC40044D0678761145F8264070BD79
:101040000CED00E000E400E080E100E0704700000B
:1010500029B1064A12680243044B1A6004E0034AAD
:1010600012688243014B1A60704700001C3802402E
:1010700029B1064A12680243044B1A6004E0034A8D
:1010800012688243014B1A60704700002438024006
:1010900029B1064A12680243044B1A6004E0034A6D
:1010A00012688243014B1A607047000018380240F2
:1010B00029B1064A12680243044B1A6004E0034A4D
:1010C00012688243014B1A607047000020380240CA
:1010D000F0B5002100220023002600240025374F10
:1010E0003F6807F00C0131B1042912D0082913D050
:1010F0000C2934D113E0314F3F1F3F68C7F342350D
:101100006F1C4FF0010C0CFA07FC4FEACC3707605C
:1011100033E02B4F076030E02A4F07602DE0274F68
:101120003F6807F47012254F3F6807F44003264FCD
:1011300007EB92473A78012707EB93531F4F3F681D
:1011400007F480362EB91E4F5743B7FBF3F70760FD
:1011500004E01C4F5743B7FBF3F707600DE0174F50
:101160003F1F3F68C7F342356F1C4FF0010C0CFA6C
:1011700007FC4FEACC37076000BF00BF0F4F3F6846
:1011800007F0F0010909114F7C5C0768E7404760F0
:101190000A4F3F6807F4E061090A0C4F7C5C47681E
:1011A000E7408760054F3F6807F46051C90A074F61
:1011B0007C5C4768E740C760F0BD0000083802402B
:1011C0000024F40000127A00BC010020C5010020B8
:1011D00000B587B001210220FFF73AFF0121880303
:1011E000FFF746FF4FF46040059002208DF818008D
:1011F00001208DF8190000208DF81A0001208DF8CB
:101200001B0005A91B48FFF75DFC05220D211948AD
:10121000FFF7A0FC05220E211648FFF79BFC0522D4
:101220000F211448FFF796FC0020ADF800004FF4A2
:101230008270ADF802000020ADF80400ADF80600A1
:10124000ADF808004FF40070ADF80A001820ADF8B2
:101250000C000020ADF80E000720ADF81000694624
:10126000054800F017F80121034800F007F807B01F
:1012700000BD0000000402400038004021B1028897
:1012800042F04002028004E002884FF6BF731A4029
:101290000280704710B50022028802F441520B8888
:1012A0004C8823438C882343CC8823430C892343D5
:1012B0004C8923438C892343CC8923431A430280DE
:1012C0000B8A038210BD704730B500228B071C0FBC
:1012D0000F2303FA04F20B4B8C1053F82430934382
:1012E000084C8D1044F8253023468C1053F82430D8
:1012F0008C07240F00FA04F42343024C8D1044F8A9
:10130000253030BD0800014008B5002000902C4871
:10131000006800F4007010B10120009001E000208E
:1013200000900098012849D12648006840F0040048
:10133000244908600846006840F00200086008463A
:10134000006840F0010008601D482430006840F04B
:1013500080501B492431086088141B49086000BF75
:101360001948406800F010000028F9D114480830EE
:10137000006813490831086008460068086008469C
:1013800000680860081F006820F46040091F0860BA
:101390000846006840F420400860081D006820F0FE
:1013A0000300091D086008460068086000BF044883
:1013B0000830006800F00C000028F8D108BD0000DB
:1013C00000380240003C024000700040042808D170
:1013D0004FF0E021096941F004014FF0E022116172
:1013E00007E04FF0E021096921F004014FF0E0220D
:1013F000116170477047000010B51548006840F44F
:10140000807013490860124808300068114908408C
:101410000F49083108600E4800680F4908400C4920
:1014200008600846006820F48020086008480830FA
:10143000006820F47D000649083108600020091D7D
:101440000860FFF761FF4FF000600449086010BDBD
:10145000003802400CC0FF88FEFFFEEE08ED00E001
:101460001AB183890B43838102E083898B43838193
:10147000704730B500230022048C4FF6FE752C40D7
:101480000484028C038B4FF68F742340AC1E2340E0
:101490000C8823436C1E2240CC8822434C88224374
:1014A0008C8884860383028430BD00000022028879
:1014B000B0F1804F05D00F4B984202D00E4B9842AE
:1014C00004D14FF68F731A404B881A430B4B984246
:1014D00007D00B4B984204D04FF6FF431A40CB88FD
:1014E0001A4302808B8883850B88038501238382BE
:1014F0007047000000040040000800400010004059
:101500000014004000B591B001210846FFF7A0FD8E
:101510004FF400400F9002208DF8400000208DF81D
:10152000420003208DF841000FA92E48FFF7CAFAA8
:1015300001220F212B48FFF70DFB01210846FFF781
:1015400097FD0F20ADF838000020ADF83400ADF85D
:101550003A00ADF836000DA94FF08040FFF7A6FF26
:101560006020ADF82C000120ADF82E000020ADF871
:101570003000ADF832000BA94FF08040FFF779FF43
:1015800001210806FFF764FD4FF08040008B40F01A
:1015900008004FF0804108831348FFF773F91348A0
:1015A000009013480190102002902A200390002000
:1015B0000490802005904000069080000790002055
:1015C00008904FF40050099000200A9069460648A0
:1015D000FFF7BEF9012251024805FFF741FF11B0A4
:1015E00000BD00000000024058600240340000408E
:1015F0001E00002070B58CB006460C461546012131
:101600000806FFF725FD2846FFF73CF901960294EE
:101610001020039040200490002005908020069028
:1016200000200790089009904FF480500A90002005
:101630000B9001A92846FFF78BF90CB070BD000094
:1016400010B5024800F002F910BD0000E8010020CA
:1016500010B5024800F0FAF810BD0000100A002092
:1016600010B5024800F0F2F810BD0000381200205A
:10167000CA430280704721B1828942F400528281BC
:1016800004E082894DF6FF731A408281704702465A
:10169000002013880B400BB1012000E000207047B0
:1016A00070B502460B460024002100250020C3F33C
:1016B000421503F01F01012606FA01F1012D02D1A6
:1016C0009689314006E0022D02D1168A314001E0B0
:1016D000968A31401C12012606FA04F4168834401A
:1016E00011B10CB1012000E0002070BDF0B503463F
:1016F00000240026002500201846C1F3421401F002
:101700001F06012707FA06F5012C01D10C3004E071
:10171000022C01D1103000E014301AB107682F43B9
:10172000076002E00768AF430760F0BD2DE9FF479F
:1017300005460E460024A14600BFA0462C8A24F48C
:101740004054F08804432C82AC8941F20C608443FD
:10175000B08831890843718908430443AC81AC8A5D
:1017600024F44074B0890443AC826846FFF7B0FCAF
:101770001E48854202D1DDF80C9001E0DDF80890AA
:10178000A88900F4004040B109EBC90000EB091042
:1017900031684900B0FBF1F707E009EBC90000EB45
:1017A000091031688900B0FBF1F76420B7FBF0F055
:1017B00004012009642101FB1078A88900F400408D
:1017C00040B1322000EBC800B0FBF1F000F00700A0
:1017D000044308E0322000EB08106421B0FBF1F074
:1017E00000F00F0004432C81BDE8FF870038014062
:1017F00001468888C0F308007047C1F30802828060
:10180000704770B504460D46012000F0BEF8668BA7
:10181000002000F0BAF80EB9002070BD218BA0683E
:10182000405C2870012000F0B0F8208B401C80B292
:101830002083E189884201DB00202083608B401EE9
:101840006083002000F0A1F80120E6E770B50446AF
:1018500040F225512068FFF723FFE0B12068FFF731
:10186000C7FFC5B2E18AA0684554E08A401C80B237
:10187000E082E189884201DB0020E082608BE1891F
:10188000884202DA608B401C6083606A10B128468F
:10189000616A884700BF70BD1F4820490860204822
:1018A0004860204888604FF480608881C8810020AB
:1018B00008824882C882088348838882C861086297
:1018C00048621948194908601948486019488860F1
:1018D0004FF480608881C881002008824882C882D5
:1018E000088348838882C8610862486212481349A5
:1018F000086013484860134888604FF4806088810E
:10190000C881002008824882C88208834883888270
:10191000C86108624862704700380140E801002051
:10192000100200201006002000440040100A002091
:10193000380A0020380E00200048004038120020ED
:10194000601200206016002000BFFEE70FB4054BB8
:1019500010B503A9044A029800F01AF810BC5DF80B
:1019600014FB0000791D0008E001002002E008C817
:10197000121F08C1002AFAD170477047002001E009
:1019800001C1121F002AFBD1704780F310887047F5
:101990002DE9FF4F89B09B460446002506E0252827
:1019A0000BD05A460B999047641C6D1C2078002878
:1019B000F5D10DB02846BDE8F08F0027B8460122CA
:1019C000474900E0074314F8013F203B02FA03F0C7
:1019D0000842F7D120782E2819D114F8010F47F0CA
:1019E00004072A280ED06FF02F022078A0F13001D2
:1019F00009290CD808EB880102EB410100EB010832
:101A0000641CF2E70A98641C50F8048B0A90207852
:101A10000028CED0642808D0692806D075281ED0AA
:101A20005A460B9990476D1C58E00A994FF00A09E5
:101A300001C90A91002802DA40422D2102E039054D
:101A400004D52B218DF82010012103E0F90704D0E3
:101A50002021F7E78A4608AE0DE00021FAE70A994F
:101A60004FF00A0901C90A91F7E74946FEF784FCDD
:101A7000303106F8011D0028F7D1ADEB060000F16A
:101A80002009780701D44FF00108C84502DDA8EB12
:101A9000090000E000208046002706E008A85A461A
:101AA000C05D0B9990476D1C7F1C5745F6DB04E029
:101AB00030205A460B9990476D1CB8F10001A8F1EF
:101AC0000108F5DC05E016F8010B5A460B99904722
:101AD0006D1CB9F10001A9F10109F4DC641C65E792
:101AE0000928010000B585B001210420FFF7B0FAF4
:101AF00000208DF810004FF40040039003A919480E
:101B0000FEF7E0FF01210846FFF7D2FA0F2102207D
:101B1000FFF7DAFB4FF40040019000208DF8080039
:101B200008208DF8090001208DF80A0001A8FEF7B1
:101B30007FFF28208DF8000005208DF8010000208F
:101B40008DF8020001208DF803006846FFF746FA81
:101B5000002005490870054908700549087005B05E
:101B600000BD000000080240B6010020B5010020C1
:101B7000B401002070B504460D464FF4204045499D
:101B800008600AE0434801680068401E414A10604E
:101B900019B900F07BF9002070BD4FF400313E48C8
:101BA000FFF760F80028EDD101213B48FFF742F82C
:101BB0004FF48050374908600AE0364801680068F1
:101BC000401E344A106019B900F060F90020E3E7C4
:101BD00032493148FEF7F1FF0028EED000223A21C9
:101BE0002D48FFF7D5F84FF480502A4908600AE0E5
:101BF000284801680068401E264A106019B900F0A4
:101C000045F90020C8E726492348FEF7D6FF0028FB
:101C1000EED001212048FEF7E5FF21461E48FFF7E0
:101C2000BFF84FF480501B4908600AE0194801686A
:101C30000068401E174A106019B900F027F900200B
:101C4000AAE71749891C1448FEF7B7FF0028EDD012
:101C500029461148FFF7A4F84FF480500D49086059
:101C60000AE00C4801680068401E0A4A106019B971
:101C700000F00CF900208FE70949891C0648FEF79F
:101C80009CFF0028EDD001210348FEF7DFFF012073
:101C900082E70000B0010020005400400100030072
:101CA0008200070010B5FFF7F7FDFFF77BF8FEF79E
:101CB000C3FD10BD70B505460E462846FEF7A8FDCB
:101CC00004460CB9002070BD31462046FFF799FD4F
:101CD000F9E7000010B50420FFF778FB0948006819
:101CE0000949B0FBF1F0094908700846007800EB9B
:101CF0004001C1EBC0104FF6FF7101EAC00004497A
:101D0000088010BD0000002040420F00D6010020D6
:101D1000D80100200146114A12884A434FF0E023BF
:101D20005A6100229A611A46126942F001021A6150
:101D300000BF4FF0E022106900F001021AB100F478
:101D40008032002AF5D04FF0E022126922F0010221
:101D50004FF0E0231A6100229A617047D8010020F9
:101D600038B5044600BF69460120FFF7A3FF0028ED
:101D7000F9D09DF8000038BD70B504460D46E1B2BB
:101D80000548FFF73AFD00BF40210348FFF77FFCFD
:101D90000028F9D0204670BD004400401CB5012148
:101DA0000220FFF755F94020009001208DF8040033
:101DB00000208DF8060001208DF8050069460B48CB
:101DC000FEF780FE01210220FFF742F90220009079
:101DD00001208DF8040000208DF8060003208DF806
:101DE000050069460148FEF76DFE1CBD0004024077
:101DF00000B587B001214805FFF73AF9012102201B
:101E0000FFF726F9042208211D48FEF7A3FE04224D
:101E100009211B48FEF79EFE4FF4407005900220FA
:101E20008DF8180003208DF8190001208DF81A0094
:101E300005A91348FEF746FE1248FEF7DFFE002014
:101E4000ADF808004BF6FF70ADF80A000020ADF8C1
:101E50000C004FF48060ADF80E000001ADF81000EA
:101E60000948019001210748FEF7BCFE01A9054879
:101E7000FEF716FF01210348FEF793FE07B000BDF1
:101E80000004024000540040A086010000B587B065
:101E90004FF44070059001208DF818008DF81B005C
:101EA00003208DF8190005A92648FEF70BFE4FF414
:101EB00040712448FEF771FE2348008840F400403A
:101EC0002149088008460088C0F30E0008804FF4BE
:101ED0004070059002208DF8180003208DF819003D
:101EE00001208DF81A0005A91648FEF7EBFD042223
:101EF00008211448FEF72EFE042209211148FEF79E
:101F000029FE0020ADF808004BF6FF70ADF80A007E
:101F10000020ADF80C004FF48060ADF80E00000119
:101F2000ADF810000948019001210748FEF75AFE5C
:101F300001A90548FEF7B4FE01210348FEF731FE72
:101F400007B000BD0004024000540040A08601001C
:101F500008B5FFF7BFFEFFF721FFFFF7A3FEFFF76E
:101F600037F9FFF745FFFFF7CDFA00F0C5FC00F0A9
:101F70008BFC1549154800F061FBFFF7B3FD012309
:101F80001A4619463F2000F08BFA00F0FFFA00F0E5
:101F90003DF800F095F834223C21002000F0B2F921
:101FA0000A20FFF7B7FE0EE009A0FFF7CFFC694655
:101FB0000DA0FEF7E5F80DA00099FFF7C7FC4FF460
:101FC0007A70FFF7A7FEEFE766067A443333C8421C
:101FD000C7EBCAE4C8EB76616C7565A3ACBBD8B33C
:101FE000B5BDE1CAF80D0A0025640000CBF9CAE4CA
:101FF000C8EBB5C4D5FBCAFDCEAAA3BA76616C7591
:1020000065203D2025640D0A0000000010B500F099
:102010003FF800F001F810BD00B585B0012108209F
:10202000FFF716F800208DF8100010200390012013
:102030008DF8130003A91548FEF744FD0121084659
:10204000FFF736F804210320FFF73EF91020019036
:1020500000208DF808000C208DF8090001208DF873
:102060000A0001A8FEF7E4FC0A208DF80000052014
:102070008DF8010000208DF8020001208DF803008A
:102080006846FEF7ABFF05B000BD0000000C024043
:102090001CB501210220FEF7DBFF4FF480500090B9
:1020A00001208DF8040000208DF8060001208DF835
:1020B000050069460148FEF705FD1CBD000402400D
:1020C00000B585B04FF48050034908800021684670
:1020D00000F004F805B000BD1804024070B586B0E9
:1020E00005460E464FF420408249086012E08148C0
:1020F00001680068401E7F4A106059B9FFF7C6FEAC
:1021000000208DF80400112201A92846FEF726F8C8
:1021100006B070BD4FF400317748FEF7A3FD0028EC
:10212000E5D101217448FEF785FD4FF480507149D7
:10213000086011E06F4801680068401E6D4A106039
:1021400051B9FFF7A3FE00208DF80400112201A968
:102150002846FEF703F8DBE768496748FEF72DFDE0
:102160000028E7D00022AA216348FEF711FE4FF4B1
:1021700080506049086011E05E4801680068401EB8
:102180005C4A106051B9FFF781FE00208DF8040011
:10219000112201A92846FDF7E1FFB9E75849564841
:1021A000FEF70BFD0028E7D001215348FEF71AFD8A
:1021B00031465148FEF7F4FD4FF480504D49086018
:1021C00011E04C4801680068401E4A4A106051B94D
:1021D000FFF75CFE00208DF80400112201A92846BB
:1021E000FDF7BCFF94E74649891C4348FEF7E5FC30
:1021F0000028E6D001214048FEF728FD01213E4895
:10220000FEF718FD4FF480503A49086011E0394854
:1022100001680068401E374A106051B9FFF736FE6A
:1022200000208DF80400112201A92846FDF796FF31
:102230006EE732493048FEF7C0FC0028E7D00122A3
:10224000AB212D48FEF7A4FD4FF4805029490860CA
:1022500011E0284801680068401E264A106051B904
:10226000FFF714FE00208DF80400112201A9284672
:10227000FDF774FF4CE72149491C1F48FEF79DFC00
:102280000028E6D0002425E04FF48050194908606A
:1022900011E0184801680068401E164A106051B9E4
:1022A000FFF7F4FD00208DF80400112201A9284653
:1022B000FDF754FF2CE711493F310F48FEF77DFC35
:1022C0000028E6D00C48FEF75FFD0DF1050108552A
:1022D000601CC4B2102CD7DB01210748FEF7B6FC06
:1022E00001208DF80400112201A92846FDF736FFD0
:1022F00000BF0DE7B80100200054004001000300BA
:102300008200070070B504460E4615464FF4204083
:102310005F4908600AE05E4801680068401E5C4A48
:10232000106019B9FFF7B2FD002070BD4FF4003105
:102330005848FEF797FC0028EDD101215548FEF7DB
:1023400079FC4FF48050524908600AE05048016817
:102350000068401E4E4A106019B9FFF797FD002033
:10236000E3E74D494B48FEF728FC0028EED0002259
:10237000AA214848FEF70CFD4FF4805044490860FC
:102380000AE0434801680068401E414A106019B9DC
:10239000FFF77CFD0020C8E740493E48FEF70DFCF2
:1023A0000028EED001213B48FEF71CFCFE213948F5
:1023B000FEF7F6FC4FF48050354908600AE03448D7
:1023C00001680068401E324A106019B9FFF75EFDCF
:1023D0000020AAE73149891C2E48FEF7EEFB0028B1
:1023E000EDD021462B48FEF7DBFC4FF48050284906
:1023F00008600AE0264801680068401E244A106010
:1024000019B9FFF743FD00208FE72449891C2148B3
:10241000FEF7D3FB0028EDD031461E48FEF7C0FC86
:102420004FF480501A4908600AE0194801680068B2
:10243000401E174A106019B9FFF728FD002074E705
:102440001649891C1348FEF7B8FB0028EDD0294631
:102450001048FEF7A5FC4FF480500D4908600AE0D3
:102460000B4801680068401E094A106019B9FFF75F
:102470000DFD002059E70949891C0648FEF79DFB20
:102480000028EDD001210348FEF7E0FB01204CE7D6
:10249000B801002000540040010003008200070042
:1024A0002DE9F04105460E46174698463348007818
:1024B00020F0080031490870084601782D20FFF708
:1024C00059FB044614B90020BDE8F081E9B224208C
:1024D000FFF750FB04460CB90020F5E728480078C8
:1024E00020F08000264908700846007866F38610C0
:1024F00008700846007867F34510087008460078B1
:1025000068F304100870084601782720FFF732FBB3
:1025100004460CB90020D7E71A48007820F01000D4
:1025200018490870084601782F20FFF723FB04465E
:102530000CB90020C8E71448007820F010001030D3
:1025400011490870084601782E20FFF713FB044656
:102550000CB90020B8E70948007820F008000830DE
:1025600006490870084601782D20FFF703FB044652
:102570000CB90020A8E72046A6E70000A90100202A
:10258000AB010020B6010020B401002010B528489E
:10259000007820F0080026490870084601782D20B0
:1025A000FFF7E8FA04460CB9002010BD05212820E9
:1025B000FFF7E0FA04460CB90020F6E714212920C1
:1025C000FFF7D8FA04460CB90020EEE71948007866
:1025D00020F0040017490870084601782F20FFF703
:1025E000C9FA04460CB90020DFE71348007820F050
:1025F0000400001D10490870084601782E20FFF7DE
:10260000B9FA04460CB90020CFE70948007820F059
:102610000800083006490870084601782D20FFF7A9
:10262000A9FA04460CB90020BFE72046BDE7000028
:10263000A9010020B6010020B40100207CB50546A8
:102640000C46284600F014F80190204600F010F8DF
:102650000090BDF80410022000F080F90646BDF895
:102660000010032000F07AF9064630467CBD0000D9
:10267000F8B505467D492846FDF738FE0646FDF7C4
:1026800067FE04466CB1B4F5805F0AD2BDF8000065
:1026900020F470400090BDF8000064F30B0000903F
:1026A000DFE0B4F5805F11D341F6FE7084420DD8AF
:1026B000BDF8000020F4704000F5805000906108E3
:1026C000BDF8000061F30B000090CAE041F6FE7017
:1026D000844210D9400084420DD8BDF8000020F497
:1026E000704000F500500090A108BDF8000061F3B3
:1026F0000B000090B5E043F6FC70844210D9400016
:1027000084420DD8BDF8000020F4704000F5405020
:102710000090E108BDF8000061F30B000090A0E01C
:1027200047F6F870844210D9400084420DD8BDF8B5
:10273000000020F4704000F5804000902109BDF8B1
:10274000000061F30B0000908BE04FF6F0708442C4
:1027500010D9400084420DD8BDF8000020F470402C
:1027600000F5A04000906109BDF8000061F30B0086
:10277000009076E03E48844210D9400084420DD853
:10278000BDF8000020F4704000F5C0400090A109A1
:10279000BDF8000061F30B00009062E03548844210
:1027A00010D9400084420DD8BDF8000020F47040DC
:1027B00000F5E0400090E109BDF8000061F30B0076
:1027C00000904EE02C48844210D9400084420DD83D
:1027D000BDF8000020F4704000F500400090210A90
:1027E000BDF8000061F30B0000903AE023488442FA
:1027F00010D9400084420DD8BDF8000020F470408C
:1028000000F510400090610ABDF8000061F30B0074
:10281000009026E01A48844210D9400084420DD826
:10282000BDF8000020F4704000F520400090A10A9F
:10283000BDF8000061F30B00009012E011488442E3
:102840000FD9400084420CD8BDF8000020F470403D
:1028500000F530400090E10ABDF8000061F30B0084
:102860000090BDF800100846F8BD00000000C84206
:10287000E0FF0100C0FF030080FF070000FF0F0022
:1028800000FE1F0000FC3F0000B585B001210220C2
:10289000FEF7DEFB00208DF810000220039003A954
:1028A0001448FEF70FF901210846FEF701FC01214B
:1028B0000846FEF709FD0220019000208DF808006F
:1028C0000C208DF8090001208DF80A0001A8FEF700
:1028D000AFF807208DF8000005208DF801000020DA
:1028E0008DF8020001208DF803006846FEF776FBA4
:1028F00005B000BD0004024038B5BDF8000020F46A
:10290000704000F540400090BDF8000020F40060E9
:102910000090BDF8000020F4C06000F580600090D9
:10292000BDF8000020F0100010300090BDF800004D
:1029300020F008000090BDF8000020F00400009096
:10294000BDF8000020F003000090BDF80010012049
:1029500000F004F80446204638BD000070B5054676
:102960000C464FF42040524908600AE05048016884
:102970000068401E4E4A106019B9FFF787FA002020
:1029800070BD4FF400314B48FEF76CF90028EDD1D3
:1029900001214848FEF74EF94FF480504449086041
:1029A0000AE0434801680068401E414A106019B9B6
:1029B000FFF76CFA0020E3E73F493E48FEF7FDF8D9
:1029C0000028EED0002288213A48FEF7E1F94FF4C2
:1029D0008050374908600AE0354801680068401EA9
:1029E000334A106019B9FFF751FA0020C8E733499C
:1029F0003048FEF7E2F80028EED001212D48FEF71E
:102A0000F1F829462B48FEF7CBF94FF480502849BE
:102A100008600AE0264801680068401E244A1060E9
:102A200019B9FFF733FA0020AAE72449891C214885
:102A3000FEF7C3F80028EDD021121E48FEF7B0F9CA
:102A40004FF480501A4908600AE01948016800688C
:102A5000401E174A106019B9FFF718FA00208FE7D7
:102A60001649891C1348FEF7A8F80028EDD0E1B2FA
:102A70001048FEF795F94FF480500D4908600AE0C0
:102A80000B4801680068401E094A106019B9FFF739
:102A9000FDF9002074E70949891C0648FEF78DF806
:102AA0000028EDD001210348FEF7D0F8012067E7A8
:102AB000A001002000540040010003008200070034
:102AC000DDDDDDDDDCBBBBDDDDDDDDDDDDDDDDDD7B
:102AD00098888888888888887777777777888888BB
:102AE0008555555666666666666666666668888853
:102AF0008333333222222222222222222228888D4C
:102B0000202B000800000020E8010000AC070008AE
:102B1000502B0008E8010020781C00007C190008F8
:102B2000500F80841E00030406080C10182030008B
:102B300001130102130006FF070809000102017CCE
:102B400002011C01B5B825B475B8011001000000E0
:0400000508000125C9
:00000001FF
