:020000040800F2
:10000000581E002039010008810A00087306000804
:100010007D0A00089F020008D115000800000000BA
:100020000000000000000000000000006F0D00084C
:100030006104000800000000F50A00089D0E000899
:100040005301000853010008530100085301000840
:1000500053010008530100085301000885040008FB
:10006000A104000853010008BD0400085301000862
:100070005301000853010008530100085301000810
:100080005301000853010008530100085301000800
:1000900053010008530100085301000853010008F0
:1000A00053010008530100085301000853010008E0
:1000B00053010008530100085301000853010008D0
:1000C00053010008530100085301000853010008C0
:1000D000530100089D100008AD100008BD10000875
:1000E000650400085301000853010008530100088B
:1000F0005301000853010008530100085301000890
:10010000530100085301000853010008530100087F
:10011000530100085301000853010008530100086F
:1001200053010008DFF80CD000F078F800480047D1
:10013000511A0008581E002006488047064800470C
:10014000FEE7FEE7FEE7FEE7FEE7FEE7FEE7FEE787
:10015000FEE7FEE7A10E00082501000840EA0103C2
:100160009B0703D009E008C9121F08C0042AFAD26D
:1001700003E011F8013B00F8013B521EF9D2704731
:10018000421C10F8011B0029FBD1801A704780EA3D
:10019000010210B502F00043400022D04A001FD0F7
:1001A000010E01EB1261C0F35600C2F3560240F497
:1001B000000042F40002A0FB022000047F39140476
:1001C00000D0401C50EA124001D44000491EC2B287
:1001D0000C0604EBD010401C4008802A02D003E03B
:1001E000002010BD20F00100002900DA0020184393
:1001F00010BD20F00040C10DC0F3160040F4000017
:100200007F2901DA00207047962903DCC1F19601AD
:10021000C84070479639884070470000064C074D2B
:1002200006E0E06840F0010394E8070098471034C6
:10023000AC42F6D3FFF77AFFC8250008E82500088E
:1002400070B58D1810F8014B14F0030201D110F8AD
:10025000012B231106D110F8013B03E010F8016BCC
:1002600001F8016B521EF9D1ABB110F8012B04F06B
:100270000C048A1A0C2C03D0A2EB84129B1C08E0FD
:1002800010F8014BA2EB0422F8E712F8014B01F839
:10029000014B5B1EF9D5A942D4D3002070BD00BF2D
:1002A000FEE70000014609B905487047012901D160
:1002B0000448FAE7022901D10348F6E70020F4E7F1
:1002C000DC010020040A00202C12002008B52520A3
:1002D0008DF8000000208DF8020001208DF8030049
:1002E000684600F0CFFB26208DF8000000208DF836
:1002F000020001208DF80300684600F0C3FB2720B0
:100300008DF8000000208DF8020001208DF8030018
:10031000684600F0B7FB08BD21B1026842F0010257
:10032000026004E002684FF6FE731A4002607047F4
:1003300001684FF6FE7211400160002101604160CA
:100340008160C1602C49884208D12B49083949682D
:1003500041F00F01284A083A51604CE02649143117
:10036000884208D124490839496841F0F001224AFD
:10037000083A51603FE020492831884208D11E499F
:100380000839496841F470611B4A083A516032E00B
:1003900019493C31884208D117490839496841F464
:1003A0007041154A083A516025E01349503188429E
:1003B00008D111490839496841F470210E4A083AB8
:1003C000516018E00C496431884208D10A49083963
:1003D000496841F47001084A083A51600BE0064947
:1003E0007831884207D104490839496841F0706181
:1003F000014A083A516070470860024001460020F7
:10040000002201F080530BB9044B1A6802EA010381
:100410000BB1012000E000207047000000600240A6
:1004200010B50022026847F6F0739A430C6A8B6895
:1004300023430C6923434C6923438C692343CC69D0
:1004400023434C6A23438C6A23431A430260CB68DC
:1004500043600B6883604B68C36010BD41607047A8
:100460007047000010B54FF4004000F037F828B195
:10047000012003490870C00300F02AF810BD0000F5
:10048000AC01002010B5022000F028F828B10120AE
:1004900002490870022000F01BF810BDA4010020E2
:1004A00010B5042000F01AF828B1012002490870A4
:1004B000042000F00DF810BDAC01002010B5102094
:1004C00000F00CF810B1102000F002F810BD000090
:1004D00001490860704700001404014001460020F3
:1004E0000022074B1B6803EA0102054B14331B680B
:1004F0000B4013B10AB1012000E00020704700005A
:1005000000040140002123498279002A3AD00A469A
:10051000126803689A430B461A600A1D1268036842
:100520009A430B1D1A60027911440A6803681A4342
:100530000A60184A0832126803689A43154B083358
:100540001A601A1D126803689A43124B0C331A6022
:100550004279102A0ED11A1F126803681A430D4BF4
:1005600008331A601A1D126803681A43094B0C33CA
:100570001A600DE00749427911440A6803681A437A
:100580000A6005E0027911440A6803689A430A6028
:100590007047000000040140F0B50A460021002326
:1005A000002400BF3DE0012505FA01F3156805EAC6
:1005B00003049C4234D105684F000326BE40B54376
:1005C000056015794E00B54006683543056015791C
:1005D000012D02D01579022D16D185684F00032612
:1005E000BE40B543856055794E00B54086683543B9
:1005F0008560858801268E40B543858085889679FB
:100600008E40B6B235438580C5684F000326BE4094
:10061000B543C560D5794E00B540C6683543C56061
:10062000491C1029BFD3F0BDF0B5002300244D07AD
:10063000ED0E02FA05F3CE1000F1200555F8265014
:100640004E07F70E0F26BE40B543CF1000F120062F
:1006500046F82750CE1000F1200555F8265045EAFF
:100660000304CE1000F1200545F82640F0BD0183BB
:10067000704700BFFEE721B1028842F48062028029
:1006800004E002884FF6FF331A400280704770B5CD
:1006900002460024002500230020958A138B1B04AA
:1006A00045EA030626F07F4404EA01068E4201D1A2
:1006B000012000E0002070BD21B1028842F001025B
:1006C000028004E002884FF6FE731A4002807047F1
:1006D00010B504460B48844209D10121480500F0B9
:1006E0002BFA00214FF4001000F026FA08E0012157
:1006F000880500F021FA00214FF4800000F01CFA78
:1007000010BD00000054004021B1028842F4807204
:10071000028004E002884FF6FF631A4002807047AF
:1007200021B1028842F40072028004E002884FF690
:10073000FF531A40028070470CB502460020002388
:100740000193009300920B0F019321F07F41019BD5
:100750001BB1009B1433009303E0090C009B18337A
:100760000093009B1B680B400BB1012000E00020B0
:100770000CBD00002DE9FF4704460D460026B1469A
:100780000427DFF8CC80A6884FF6C0700640684684
:1007900000F0F2F9DDF808802E48B8FBF0F01FFAFF
:1007A00080F946EA0906A68020884FF6FE710840C7
:1007B000208000262849286888420CD828684000F4
:1007C000B8FBF0F087B2042F00DA04273E4309F1AA
:1007D0000100208427E0E8884BF6FF71884206D1AB
:1007E000286800EB4000B8FBF0F087B209E0286809
:1007F00000EBC00101EB0010B8FBF0F087B247F44A
:100800008047C7F30B0008B947F0010747F40040E1
:1008100006434FF4967009FB00F04FF47A7190FB99
:10082000F1F0401C2084A683208840F00100208045
:1008300026884FF6F5300640A888698908430643A4
:100840002680A889298908432081BDE8FF87000008
:1008500000127A0040420F00A08601000146088A7B
:10086000C0B2704712B141F0010101E001F0FE0198
:10087000018270470182704700B587B001210846A8
:1008800000F03AF90121880300F066F94FF4007096
:10089000059002208DF8180000208DF81A00032022
:1008A0008DF8190005A97048FFF776FE0722092187
:1008B0006D48FFF7B9FE4FF48060059002208DF877
:1008C000180001208DF81B0005A96748FFF764FE9A
:1008D00007220A216448FFF7A7FE4FF4E130019098
:1008E0000020ADF80800ADF80A00ADF80C00ADF836
:1008F00010000C20ADF80E0001A95C4800F044FC8B
:10090000012240F22551594800F01EFC01215748B0
:1009100000F0DFFB4021554800F0D8FB00F0B8FCA8
:100920000121084600F0E8F80121480400F0F4F83D
:100930000420059002208DF8180000208DF81A0080
:1009400003208DF8190005A94748FFF725FE072267
:1009500002214548FFF768FE0820059002208DF827
:10096000180001208DF81B0005A93F48FFF714FE71
:10097000072203213C48FFF757FE4FF4E130019076
:100980000020ADF80800ADF80A00ADF80C00ADF895
:1009900010000C20ADF80E0001A9354800F0F4FB62
:1009A000012240F22551324800F0CEFB01213048AF
:1009B00000F08FFB40212E4800F088FB00F0D6FCB1
:1009C0000121082000F098F80121880400F0A4F823
:1009D0004FF48070059002208DF8180000208DF8EB
:1009E0001A0003208DF8190005A92248FFF7D4FD4D
:1009F000072208211F48FFF717FE4FF400700590EB
:100A000002208DF8180001208DF81B0005A9194857
:100A1000FFF7C2FD072209211648FFF705FE4FF434
:100A2000165001900020ADF80800ADF80A00ADF8AE
:100A30000C00ADF810000C20ADF80E0001A90E4816
:100A400000F0A2FB012240F225510B4800F07CFB94
:100A50000121094800F03DFB4021074800F036FB2A
:100A600000F0CAFC07B000BD0000024000380140A1
:100A700000440040000C02400048004000BFFEE778
:100A80007047000070B5002100230F22C47804B322
:100A9000154C246804F4E064C4F5E064210AC1F153
:100AA0000403CA40447804FA03F1847814402143D3
:100AB00009010E4C0678A155047804F01F050124A5
:100AC000AC4005786D11AD0005F1E025C5F8004199
:100AD00009E0047804F01F050124AC40044D0678B9
:100AE000761145F8264070BD0CED00E000E400E012
:100AF00080E100E07047000029B1064A1268024315
:100B0000044B1A6004E0034A12688243014B1A60E6
:100B1000704700001C38024029B1064A126802439F
:100B2000044B1A6004E0034A12688243014B1A60C6
:100B3000704700002438024029B1064A1268024377
:100B4000044B1A6004E0034A12688243014B1A60A6
:100B5000704700001838024029B1064A1268024363
:100B6000044B1A6004E0034A12688243014B1A6086
:100B70007047000020380240F0B500210022002319
:100B8000002600240025374F3F6807F00C0131B1E3
:100B9000042912D0082913D00C2934D113E0314F85
:100BA0003F1F3F68C7F342356F1C4FF0010C0CFA32
:100BB00007FC4FEACC37076033E02B4F076030E08B
:100BC0002A4F07602DE0274F3F6807F47012254F2A
:100BD0003F6807F44003264F07EB92473A78012716
:100BE00007EB93531F4F3F6807F480362EB91E4F13
:100BF0005743B7FBF3F7076004E01C4F5743B7FBBD
:100C0000F3F707600DE0174F3F1F3F68C7F342350A
:100C10006F1C4FF0010C0CFA07FC4FEACC37076051
:100C200000BF00BF0F4F3F6807F0F0010909114FE7
:100C30007C5C0768E74047600A4F3F6807F4E06163
:100C4000090A0C4F7C5C4768E7408760054F3F68A6
:100C500007F46051C90A074F7C5C4768E740C760EA
:100C6000F0BD0000083802400024F40000127A00B1
:100C7000BC010020C501002000B587B00121022081
:100C8000FFF73AFF01218803FFF746FF4FF460406A
:100C9000059002208DF8180001208DF81900002021
:100CA0008DF81A0001208DF81B0005A91B48FFF7DD
:100CB00073FC05220D211948FFF7B6FC05220E2111
:100CC0001648FFF7B1FC05220F211448FFF7ACFCD2
:100CD0000020ADF800004FF48270ADF80200002053
:100CE000ADF80400ADF80600ADF808004FF4007050
:100CF000ADF80A001820ADF80C000020ADF80E0089
:100D00000720ADF810006946054800F017F80121EA
:100D1000034800F007F807B000BD000000040240DF
:100D20000038004021B1028842F04002028004E015
:100D300002884FF6BF731A400280704710B5002238
:100D4000028802F441520B884C8823438C88234349
:100D5000CC8823430C8923434C8923438C89234328
:100D6000CC8923431A4302800B8A038210BD70474B
:100D700030B500228B071C0F0F2303FA04F20B4B34
:100D80008C1053F824309343084C8D1044F82530D0
:100D900023468C1053F824308C07240F00FA04F4F7
:100DA0002343024C8D1044F8253030BD080001402B
:100DB00008B5002000902C48006800F4007010B1C5
:100DC0000120009001E0002000900098012849D106
:100DD0002648006840F0040024490860084600687E
:100DE00040F0020008600846006840F0010008601A
:100DF0001D482430006840F080501B4924310860B1
:100E000088141B49086000BF1948406800F01000B2
:100E10000028F9D1144808300068134908310860E7
:100E2000084600680860084600680860081F0068F7
:100E300020F46040091F08600846006840F4204024
:100E40000860081D006820F00300091D08600846BE
:100E50000068086000BF04480830006800F00C001B
:100E60000028F8D108BD000000380240003C0240D4
:100E700000700040042808D14FF0E021096941F0DA
:100E800004014FF0E022116107E04FF0E021096911
:100E900021F004014FF0E02211617047704700001B
:100EA00010B51548006840F4807013490860124876
:100EB00008300068114908400F49083108600E48A1
:100EC00000680F4908400C4908600846006820F493
:100ED0008020086008480830006820F47D0006493A
:100EE000083108600020091D0860FFF761FF4FF01E
:100EF00000600449086010BD003802400CC0FF8843
:100F0000FEFFFEEE08ED00E01AB183890B438381FA
:100F100002E083898B438381704730B50023002230
:100F2000048C4FF6FE752C400484028C038B4FF624
:100F30008F742340AC1E23400C8823436C1E224038
:100F4000CC8822434C8822438C8884860383028485
:100F500030BD000000220288B0F1804F05D00F4B59
:100F6000984202D00E4B984204D14FF68F731A402C
:100F70004B881A430B4B984207D00B4B984204D036
:100F80004FF6FF431A40CB881A4302808B88838533
:100F90000B88038501238382704700000004004012
:100FA00000080040001000400014004000B591B05F
:100FB00001210846FFF7A0FD4FF400400F900220EA
:100FC0008DF8400000208DF8420003208DF841008C
:100FD0000FA92E48FFF7E0FA01220F212B48FFF757
:100FE00023FB01210846FFF797FD0F20ADF83800DD
:100FF0000020ADF83400ADF83A00ADF836000DA988
:101000004FF08040FFF7A6FF6020ADF82C000120D4
:10101000ADF82E000020ADF83000ADF832000BA97D
:101020004FF08040FFF779FF01210806FFF764FDCC
:101030004FF08040008B40F008004FF08041088363
:101040001348FFF775F913480090134801901020DA
:1010500002902A20039000200490802005904000F8
:10106000069080000790002008904FF400500990EF
:1010700000200A9069460648FFF7D2F90122510282
:101080004805FFF741FF11B000BD0000000002401D
:1010900058600240340000401E00002010B5024895
:1010A00000F0D4F910BD0000DC01002010B50248AA
:1010B00000F0CCF910BD0000040A002010B5024871
:1010C00000F0C4F910BD00002C120020CA430280B9
:1010D000704721B1828942F40052828104E0828902
:1010E0004DF6FF731A40828170471AB1838A0B4311
:1010F000838202E0838A8B438382704770B5024605
:101100000B460024002100250020C3F3421503F004
:101110001F01012606FA01F1012D02D19689314005
:1011200006E0022D02D1168A314001E0968A314054
:101130001C12012606FA04F41688344011B10CB1D1
:10114000012000E0002070BDF0B503460024002619
:10115000002500201846C1F3421401F01F060127A4
:1011600007FA06F5012C01D10C3004E0022C01D164
:10117000103000E014301AB107682F43076002E016
:101180000768AF430760F0BD2DE9FF4705460E46EF
:101190000024A14600BFA0462C8A24F44054F088C5
:1011A00004432C82AC8941F20C608443B0883189BD
:1011B0000843718908430443AC81AC8A24F4407429
:1011C000B0890443AC826846FFF7D6FC1E488542CE
:1011D00002D1DDF80C9001E0DDF80890A88900F458
:1011E000004040B109EBC90000EB0910316849002B
:1011F000B0FBF1F707E009EBC90000EB091031681B
:101200008900B0FBF1F76420B7FBF0F0040120097E
:10121000642101FB1078A88900F4004040B132201D
:1012200000EBC800B0FBF1F000F00700044308E059
:10123000322000EB08106421B0FBF1F000F00F0049
:1012400004432C81BDE8FF870038014001468888AF
:10125000C0F308007047000010B5044600210A489A
:10126000FFF75AF821460848FFF7F8F80121064829
:10127000FFF752F8012280210448FFF736FF0020D3
:1012800000F0A0FA10BD00004460024000380140A8
:1012900000B58BB001210806FFF72EFC0E48FFF7C2
:1012A00047F80E4800900E48019010200290402010
:1012B0000390002004908020059000200690079065
:1012C00008904FF48050099000200A906946024827
:1012D000FFF7A6F80BB000BD44600240043801409F
:1012E0000402002010B58CB00446029401A9024803
:1012F000FFF796F80CB010BD8060024010B50446B0
:1013000000211648FFF708F821461448FFF7A6F811
:1013100001211248FFF700F8012280211048FFF751
:10132000E4FE00BF4FF00070FFF768F80028F9D026
:101330000C48408A20440B4948820846408A8989E3
:10134000884202DB00200749488200200549888244
:10135000498A054A8818FFF7C5FF10BD8060024022
:1013600000440040040A00202C0A002000B58BB085
:1013700001210806FFF7C0FB0E48FEF7D9FF0E4813
:1013800000900E4801901020029040200390002011
:1013900004908020059000200690079008904FF45C
:1013A0008050099000200A9069460248FFF738F8FB
:1013B0000BB000BD80600240044400402C0A0020B5
:1013C00010B5044600210A48FEF7A6FF214608484A
:1013D000FFF744F801210648FEF79EFF0122802115
:1013E0000448FFF782FE022000F0ECF910BD000077
:1013F0001C6002400048004000B58BB00121080687
:10140000FFF77AFB0E48FEF793FF0E4800900E4858
:101410000190102002904020039000200490802032
:10142000059000200690079008904FF48050099096
:1014300000200A9069460248FEF7F2FF0BB000BD9B
:101440001C600240044800405412002070B504465D
:1014500040F225512068FFF751FEE0B12068FFF708
:10146000F5FEC5B2E18AA0684554E08A401C80B20E
:10147000E082E189884201DB0020E082608BE18923
:10148000884202DA608B401C6083606A10B1284693
:10149000616A884700BF70BDF8B504460F4615461F
:1014A00000261DE008E0A08A0090A089BDF8001089
:1014B000884200DD01E000BFF5E700BFB85D228A89
:1014C00061688854208A401C80B22082A1898842A9
:1014D00001DB00202082A08A401CA082701C86B202
:1014E000AE42DFDB0B492068884203D12846FFF774
:1014F000B3FE0EE008492068884203D12846FFF772
:10150000FDFE06E005492068884202D12846FFF723
:1015100057FFF8BD0038014000440040004800403B
:101520001F482049086020484860204888604FF4E0
:1015300080608881C881002008824882C882088330
:1015400048838882C861086248621948194908605E
:1015500019484860194888604FF480608881C881C4
:10156000002008824882C882088348838882C86134
:1015700008624862124813490860134848601348DB
:1015800088604FF480608881C8810020088248828A
:10159000C882088348838882C861086248627047AD
:1015A00000380140DC010020040200200406002075
:1015B00000440040040A00202C0A00202C0E0020C9
:1015C000004800402C120020541200205416002025
:1015D00000BFFEE702E008C8121F08C1002AFAD1C6
:1015E00070477047002001E001C1121F002AFBD1A3
:1015F0007047000000B585B001210420FFF77CFA98
:1016000000208DF810004FF40040039003A9194802
:10161000FEF7C2FF01210846FFF79EFA0F210220C4
:10162000FFF7A6FB4FF40040019000208DF8080062
:1016300008208DF8090001208DF80A0001A8FEF7A6
:1016400061FF28208DF8000005208DF801000020A2
:101650008DF8020001208DF803006846FFF712FAAA
:10166000002005490870054908700549087005B053
:1016700000BD000000080240B6010020B5010020B6
:10168000B401002070B504460D464FF42040454992
:1016900008600AE0434801680068401E414A106043
:1016A00019B900F073F9002070BD4FF400313E48C5
:1016B000FFF742F80028EDD101213B48FFF724F85D
:1016C0004FF48050374908600AE0364801680068E6
:1016D000401E344A106019B900F058F90020E3E7C1
:1016E00032493148FEF7D3FF0028EED000223A21DC
:1016F0002D48FFF7B7F84FF480502A4908600AE0F8
:10170000284801680068401E264A106019B900F098
:101710003DF90020C8E726492348FEF7B8FF002816
:10172000EED001212048FEF7C7FF21461E48FFF7F3
:10173000A1F84FF480501B4908600AE0194801687D
:101740000068401E174A106019B900F01FF9002008
:10175000AAE71749891C1448FEF799FF0028EDD025
:1017600029461148FFF786F84FF480500D4908606C
:101770000AE00C4801680068401E0A4A106019B966
:1017800000F004F900208FE70949891C0648FEF79C
:101790007EFF0028EDD001210348FEF7C1FF0120A4
:1017A00082E70000B0010020005400400100030067
:1017B0008200070010B5FFF7B3FEFFF75DF8FEF7F4
:1017C00085FD10BD00B503461846FEF76BFD0246C9
:1017D00002B900BD002010825082908200BFF8E75D
:1017E0002DE9F04105460E4617462846FEF75AFDFC
:1017F00004460CB9BDE8F081E06908B1E0698047B2
:101800003A4631462046FFF747FE00BFF2E70000A8
:1018100010B50420FFF72EFB094800680949B0FB0A
:10182000F1F0094908700846007800EB4001C1EB6F
:10183000C0104FF6FF7101EAC0000449088010BDD6
:101840000000002040420F00D6010020D8010020F7
:101850000146114A12884A434FF0E0235A610022A0
:101860009A611A46126942F001021A6100BF4FF0F4
:10187000E022106900F001021AB100F48032002A5F
:10188000F5D04FF0E022126922F001024FF0E02380
:101890001A6100229A617047D80100201CB501210D
:1018A0000220FFF729F94020009001208DF8040064
:1018B00000208DF8060001208DF8050069460B48D0
:1018C000FEF76AFE01210220FFF716F902200090C0
:1018D00001208DF8040000208DF8060003208DF80B
:1018E000050069460148FEF757FE1CBD0004024092
:1018F00000B587B001214805FFF70EF9012102204C
:10190000FFF7FAF8042208211D48FEF78DFE042295
:1019100009211B48FEF788FE4FF440700590022015
:101920008DF8180003208DF8190001208DF81A0099
:1019300005A91348FEF730FE1248FEF7C9FE002045
:10194000ADF808004BF6FF70ADF80A000020ADF8C6
:101950000C004FF48060ADF80E000001ADF81000EF
:101960000948019001210748FEF7A6FE01A9054894
:10197000FEF700FF01210348FEF77DFE07B000BD22
:101980000004024000540040A086010000B587B06A
:101990004FF44070059001208DF818008DF81B0061
:1019A00003208DF8190005A92648FEF7F5FD4FF430
:1019B00040712448FEF75BFE2348008840F4004055
:1019C0002149088008460088C0F30E0008804FF4C3
:1019D0004070059002208DF8180003208DF8190042
:1019E00001208DF81A0005A91648FEF7D5FD04223E
:1019F00008211448FEF718FE042209211148FEF7B9
:101A000013FE0020ADF808004BF6FF70ADF80A0099
:101A10000020ADF80C004FF48060ADF80E0000011E
:101A2000ADF810000948019001210748FEF744FE77
:101A300001A90548FEF79EFE01210348FEF71BFEA3
:101A400007B000BD0004024000540040A086010021
:101A50001FA427A5FFF7DCFEFFF720FFFFF7AAFE74
:101A6000FFF70AF9FFF744FFFFF7A0FA00F0C8FC00
:101A700000F08EFC2549264800F064FBFFF7BAFD14
:101A800001231A4619463F2000F08EFA00F002FBAF
:101A900000F040F800F098F834223C21002000F0DB
:101AA000B5F90A20FFF7D4FE11E02046FEF768FBE7
:101AB00086B2324621460120FFF792FE2846FEF705
:101AC0005FFB86B2324629460120FFF789FEECE72C
:101AD0004142434445464748494A4B4C4D4E4F507E
:101AE0005152535455565758595A210D0A00000067
:101AF00031323334353637383930313233343536A4
:101B000037383930313233210D0A000066067A4405
:101B10003333C84210B500F03FF800F001F810BDB3
:101B200000B585B001210820FEF7E6FF00208DF802
:101B300010001020039001208DF8130003A9154810
:101B4000FEF72AFD01210846FFF706F804210320CD
:101B5000FFF70EF91020019000208DF808000C20EE
:101B60008DF8090001208DF80A0001A8FEF7CAFCD3
:101B70000A208DF8000005208DF8010000208DF866
:101B8000020001208DF803006846FEF77BFF05B0D8
:101B900000BD0000000C02401CB501210220FEF730
:101BA000ABFF4FF48050009001208DF8040000201E
:101BB0008DF8060001208DF8050069460148FEF702
:101BC000EBFC1CBD0004024000B585B04FF4805012
:101BD000034908800021684600F004F805B000BD04
:101BE0001804024070B586B005460E464FF42040FA
:101BF0008249086012E0814801680068401E7F4AFF
:101C0000106059B9FFF7C2FE00208DF804001122C0
:101C100001A92846FEF7A2FA06B070BD4FF40031C4
:101C20007748FEF789FD0028E5D101217448FEF7C9
:101C30006BFD4FF480507149086011E06F480168F6
:101C40000068401E6D4A106051B9FFF79FFE0020EA
:101C50008DF80400112201A92846FEF77FFADBE780
:101C600068496748FEF713FD0028E7D00022AA2143
:101C70006348FEF7F7FD4FF480506049086011E0BB
:101C80005E4801680068401E5C4A106051B9FFF769
:101C90007DFE00208DF80400112201A92846FEF7E0
:101CA0005DFAB9E758495648FEF7F1FC0028E7D03D
:101CB00001215348FEF700FD31465148FEF7DAFD99
:101CC0004FF480504D49086011E04C4801680068AD
:101CD000401E4A4A106051B9FFF758FE00208DF8A7
:101CE0000400112201A92846FEF738FA94E7464974
:101CF000891C4348FEF7CBFC0028E6D00121404870
:101D0000FEF70EFD01213E48FEF7FEFC4FF4805029
:101D10003A49086011E0394801680068401E374AB6
:101D2000106051B9FFF732FE00208DF80400112237
:101D300001A92846FEF712FA6EE732493048FEF74D
:101D4000A6FC0028E7D00122AB212D48FEF78AFD32
:101D50004FF480502949086011E028480168006864
:101D6000401E264A106051B9FFF710FE00208DF882
:101D70000400112201A92846FEF7F0F94CE7214999
:101D8000491C1F48FEF783FC0028E6D0002425E00C
:101D90004FF480501949086011E018480168006844
:101DA000401E164A106051B9FFF7F0FD00208DF873
:101DB0000400112201A92846FEF7D0F92CE71149A9
:101DC0003F310F48FEF763FC0028E6D00C48FEF7D1
:101DD00045FD0DF105010855601CC4B2102CD7DB80
:101DE00001210748FEF79CFC01208DF80400112218
:101DF00001A92846FEF7B2F900BF0DE7B80100209F
:101E000000540040010003008200070070B5044642
:101E10000E4615464FF420405F4908600AE05E48D0
:101E200001680068401E5C4A106019B9FFF7AEFDFA
:101E3000002070BD4FF400315848FEF77DFC0028AB
:101E4000EDD101215548FEF75FFC4FF48050524917
:101E500008600AE0504801680068401E4E4A106061
:101E600019B9FFF793FD0020E3E74D494B48FEF712
:101E70000EFC0028EED00022AA214848FEF7F2FC12
:101E80004FF48050444908600AE043480168006804
:101E9000401E414A106019B9FFF778FD0020C8E7DD
:101EA00040493E48FEF7F3FB0028EED001213B48B5
:101EB000FEF702FCFE213948FEF7DCFC4FF48050AF
:101EC000354908600AE0344801680068401E324A1B
:101ED000106019B9FFF75AFD0020AAE73149891CA3
:101EE0002E48FEF7D4FB0028EDD021462B48FEF704
:101EF000C1FC4FF48050284908600AE02648016878
:101F00000068401E244A106019B9FFF73FFD002009
:101F10008FE72449891C2148FEF7B9FB0028EDD042
:101F200031461E48FEF7A6FC4FF480501A4908605F
:101F30000AE0194801680068401E174A106019B984
:101F4000FFF724FD002074E71649891C1348FEF7AB
:101F50009EFB0028EDD029461048FEF78BFC4FF47D
:101F600080500D4908600AE00B4801680068401E77
:101F7000094A106019B9FFF709FD002059E709491E
:101F8000891C0648FEF783FB0028EDD00121034899
:101F9000FEF7C6FB01204CE7B801002000540040CA
:101FA00001000300820007002DE9F04105460E46BE
:101FB000174698463348007820F0080031490870E9
:101FC000084601782D20FFF75DFB044614B9002078
:101FD000BDE8F081E9B22420FFF754FB04460CB9B8
:101FE0000020F5E72848007820F080002649087096
:101FF0000846007866F3861008700846007867F394
:10200000451008700846007868F304100870084608
:1020100001782720FFF736FB04460CB90020D7E7EC
:102020001A48007820F01000184908700846017816
:102030002F20FFF727FB04460CB90020C8E71448FF
:10204000007820F01000103011490870084601781F
:102050002E20FFF717FB04460CB90020B8E709480B
:10206000007820F00800083006490870084601781A
:102070002D20FFF707FB04460CB90020A8E72046F7
:10208000A6E70000A9010020AB010020B601002056
:10209000B401002010B52848007820F00800264937
:1020A0000870084601782D20FFF7ECFA04460CB9B9
:1020B000002010BD05212820FFF7E4FA04460CB9E2
:1020C0000020F6E714212920FFF7DCFA04460CB9BA
:1020D0000020EEE71948007820F004001749087046
:1020E000084601782F20FFF7CDFA04460CB90020EE
:1020F000DFE71348007820F00400001D1049087045
:10210000084601782E20FFF7BDFA04460CB90020DE
:10211000CFE70948007820F0080008300649087029
:10212000084601782D20FFF7ADFA04460CB90020CF
:10213000BFE72046BDE70000A9010020B60100204E
:10214000B40100207CB505460C46284600F014F882
:102150000190204600F010F80090BDF80410022015
:1021600000F080F90646BDF80010032000F07AF96F
:10217000064630467CBD0000F8B505467D49284638
:10218000FEF705F80646FEF734F804466CB1B4F5E0
:10219000805F0AD2BDF8000020F470400090BDF8C6
:1021A000000064F30B000090DFE0B4F5805F11D312
:1021B00041F6FE7084420DD8BDF8000020F4704056
:1021C00000F5805000906108BDF8000061F30B003D
:1021D0000090CAE041F6FE70844210D9400084426B
:1021E0000DD8BDF8000020F4704000F500500090BC
:1021F000A108BDF8000061F30B000090B5E043F6C4
:10220000FC70844210D9400084420DD8BDF8000013
:1022100020F4704000F540500090E108BDF8000047
:1022200061F30B000090A0E047F6F870844210D9EB
:10223000400084420DD8BDF8000020F4704000F545
:10224000804000902109BDF8000061F30B00009070
:102250008BE04FF6F070844210D9400084420DD8D4
:10226000BDF8000020F4704000F5A0400090610926
:10227000BDF8000061F30B00009076E03E48844218
:1022800010D9400084420DD8BDF8000020F4704001
:1022900000F5C0400090A109BDF8000061F30B00FB
:1022A000009062E03548844210D9400084420DD845
:1022B000BDF8000020F4704000F5E0400090E10916
:1022C000BDF8000061F30B0000904EE02C48844202
:1022D00010D9400084420DD8BDF8000020F47040B1
:1022E00000F500400090210ABDF8000061F30B00EA
:1022F00000903AE02348844210D9400084420DD82F
:10230000BDF8000020F4704000F510400090610A14
:10231000BDF8000061F30B00009026E01A488442EB
:1023200010D9400084420DD8BDF8000020F4704060
:1023300000F520400090A10ABDF8000061F30B00F9
:10234000009012E0114884420FD9400084420CD81A
:10235000BDF8000020F4704000F530400090E10A24
:10236000BDF8000061F30B000090BDF800100846B6
:10237000F8BD00000000C842E0FF0100C0FF0300FC
:1023800080FF070000FF0F0000FE1F0000FC3F0061
:1023900000B585B001210220FEF7AEFB00208DF8CC
:1023A00010000220039003A91448FEF7F5F801215C
:1023B0000846FEF7D1FB01210846FEF7D9FC0220B2
:1023C000019000208DF808000C208DF809000120F4
:1023D0008DF80A0001A8FEF795F807208DF8000097
:1023E00005208DF8010000208DF8020001208DF8F5
:1023F00003006846FEF746FB05B000BD000402403E
:1024000038B5BDF8000020F4704000F54040009061
:10241000BDF8000020F400600090BDF8000020F43A
:10242000C06000F580600090BDF8000020F0100052
:1024300010300090BDF8000020F008000090BDF8BA
:10244000000020F004000090BDF8000020F0030020
:102450000090BDF80010012000F004F8044620466A
:1024600038BD000070B505460C464FF42040524977
:1024700008600AE0504801680068401E4E4A10603B
:1024800019B9FFF783FA002070BD4FF400314B48B3
:10249000FEF752F90028EDD101214848FEF734F942
:1024A0004FF48050444908600AE0434801680068DE
:1024B000401E414A106019B9FFF768FA0020E3E7AF
:1024C0003F493E48FEF7E3F80028EED0002288217D
:1024D0003A48FEF7C7F94FF48050374908600AE0E0
:1024E000354801680068401E334A106019B9FFF78B
:1024F0004DFA0020C8E733493048FEF7C8F80028F5
:10250000EED001212D48FEF7D7F829462B48FEF7DB
:10251000B1F94FF48050284908600AE02648016864
:102520000068401E244A106019B9FFF72FFA0020F6
:10253000AAE72449891C2148FEF7A9F80028EDD014
:1025400021121E48FEF796F94FF480501A49086090
:102550000AE0194801680068401E174A106019B95E
:10256000FFF714FA00208FE71649891C1348FEF77D
:102570008EF80028EDD0E1B21048FEF77BF94FF459
:1025800080500D4908600AE00B4801680068401E51
:10259000094A106019B9FFF7F9F9002074E70949F1
:1025A000891C0648FEF773F80028EDD00121034886
:1025B000FEF7B6F8012067E7A001002000540040B4
:1025C0000100030082000700E82500080000002049
:1025D000DC0100004002000818260008DC01002091
:1025E0007C1C0000E4150008500F80841E000304CA
:1025F00006080C101820300001130102130006FF1A
:10260000070809000102017C02011C01B5B825B4CC
:0826100075B841010000000053
:0400000508000125C9
:00000001FF
