:020000040800F2
:100000007080002045010008D5020008A902000800
:10001000D10200088D010008190700080000000047
:10002000000000000000000000000000A103000824
:1000300091010008000000005D0300088D04000825
:100040005F0100085F0100085F0100085F01000810
:100050005F0100085F0100085F0100085F01000800
:100060005F0100085F0100085F0100085F010008F0
:100070005F0100085F0100085F0100085F010008E0
:100080005F0100085F0100085F0100085F010008D0
:100090000D0700085F0100085F0100085F0100080C
:1000A0005F0100085F0100085F0100085F010008B0
:1000B000790500085F0100085F0100085F01000882
:1000C0005F0100085F0100085F0100085F01000890
:1000D0005F0100085F0100085F0100085F01000880
:1000E0005F0100085F0100085F0100085F01000870
:1000F0005F0100085F0100085F0100085F01000860
:100100005F0100085F0100085F0100085F0100084F
:100110005F0100085F0100085F0100085F0100083F
:100120005F0100085F0100085F0100085F0100082F
:10013000DFF80CD000F018F800480047B50C0008B4
:10014000708000200648804706480047FEE7FEE72B
:10015000FEE7FEE7FEE7FEE7FEE7FEE7FEE7FEE777
:100160001905000831010008064C074D06E0E0685B
:1001700040F0010394E8070098471034AC42F6D3EE
:10018000FFF7DAFF640E0008840E000800BFFEE7E8
:1001900070472DE9F041024600250026002000238B
:1001A0000024002791F803C00CF00F0591F803C05C
:1001B0000CF0100CBCF1000F03D091F802C04CEA17
:1001C000050591F800C0BCF1000F31D01468002083
:1001D0002BE04FF0010C0CFA00F3B1F800C00CEA70
:1001E00003069E4220D183004FF00F0C0CFA03F758
:1001F000BC4305FA03FC4CEA040491F803C0BCF1CB
:10020000280F06D14FF0010C0CFA00FCC2F814C004
:100210000AE091F803C0BCF1480F05D14FF0010C82
:100220000CFA00FCC2F810C0401C0828D1D314609E
:10023000B1F800C0BCF1FF0F34DD546800202EE09F
:1002400000F1080C4FF0010808FA0CF3B1F800C0F7
:100250000CEA03069E4221D183004FF00F0C0CFAEA
:1002600003F7BC4305FA03FC4CEA040491F803C00D
:10027000BCF1280F05D100F1080C08FA0CF8C2F8FF
:10028000148091F803C0BCF1480F07D100F1080CAD
:100290004FF0010808FA0CF8C2F81080401C08283A
:1002A000CED35460BDE8F0810EE00849096881F4BE
:1002B0008071064A1160002001E0411C88B242F2C0
:1002C00010718842F9DB00BFEFE700000C08014025
:1002D00000BFFEE77047000070B5002100230F2229
:1002E000C47804B3154C246804F4E064C4F5E064F5
:1002F000210AC1F10403CA40447804FA03F1847866
:100300001440214309010E4C0678A155047804F0ED
:100310001F050124AC4005786D11AD0005F1E02505
:10032000C5F8004109E0047804F01F050124AC4041
:10033000044D0678761145F8264070BD0CED00E0BE
:1003400000E400E080E100E002490143024A11605C
:10035000704700000000FA050CED00E07047000057
:1003600029B1064AD2690243044BDA6104E0034A28
:10037000D2698243014BDA617047000000100240ED
:1003800029B1064A92690243044B9A6104E0034A88
:1003900092698243014B9A6170470000001002404D
:1003A000704710B500F002F810BD00000CB5002039
:1003B000019000903348006840F480303149086073
:1003C00000BF3048006800F4003000900198401CE5
:1003D0000190009818B90198B0F5A06FF1D12948A3
:1003E000006800F4003010B10120009001E000200E
:1003F00000900098012843D12348006840F0100085
:10040000214908600846006820F00300086008469B
:10041000006840F0020008601A48406819494860C6
:100420000846406848600846406840F4806048607C
:100430000846406820F47C1048600846406840F454
:10044000E81048600846006840F08070086000BF0F
:100450000C48006800F000700028F9D00948406896
:1004600020F00300074948600846406840F0020059
:10047000486000BF0348406800F00C000828F9D12C
:100480000CBD0000001002400020024010B500F03A
:1004900001F810BD10B51B48006840B1194800684C
:1004A000401E1849086010B901201749087000243F
:1004B00008E004EB4401154A02EB810000F002FB66
:1004C000601CC4B2042CF4DB11480068401C1049C5
:1004D0000860084600686FF00041884202D10020A1
:1004E0000B49086000F0EDFA0A480078401CC0B2E1
:1004F000084908700A2803DB0020087000F0E0FAC1
:1005000010BD000004000020080000203C00002076
:100510000C0000202000002010B51348006840F0B7
:1005200001001149086008464068104908400E491A
:100530004860084600680E4908400B4908600846B4
:10054000006820F4802008600846406820F4FE001F
:1005500048604FF41F008860FFF723FF4FF00060F2
:100560000449086010BD0000001002400000FFF8C0
:10057000FFFFF6FE08ED00E010B50221480700F08D
:1005800058F858B10221480700F044F8002202212F
:10059000480700F05FF81B480068804704210807FF
:1005A00000F047F858B10421080700F033F80022A2
:1005B0000421080700F04EF813480068804708211E
:1005C000C80600F036F858B10821C80600F022F835
:1005D00000220821C80600F03DF80C48006880475A
:1005E0001021880600F025F858B11021880600F087
:1005F00011F800221021880600F02CF80448006849
:10060000804710BD100000201400002018000020BA
:100610001C000020CA430282704721B1028842F0C8
:100620000102028004E002884FF6FE731A40028045
:10063000704730B50246002000230024158A05EAE1
:100640000103958905EA010413B10CB1012000E012
:10065000002030BD1AB183890B43838102E0838976
:100660008B43838170470000002202881D4B984213
:100670000ED01D4B98420BD0B0F1804F08D01B4BD1
:10068000984205D01A4B984202D01A4B984204D196
:100690004FF68F731A404B881A43174B984207D076
:1006A000164B984204D04FF6FF431A40CB881A43AA
:1006B00002808B8883850B8803850A4B98420BD078
:1006C000094B984208D00E4B984205D00D4B9842EA
:1006D00002D00D4B984201D10B7A0386012383820D
:1006E00070470000002C014000340140000400402D
:1006F00000080040000C00400010004000140040C2
:100700000040014000440140004801400148C069E8
:10071000704700000010024000BFFEE70FB4054B19
:1007200010B503A9044A029800F01AF810BC5DF84D
:1007300014FB0000A10C00083800002002E008C8EB
:10074000121F08C1002AFAD170477047002001E04B
:1007500001C1121F002AFBD1704780F31088704737
:100760002DE9F84F9946924688460546002706E04F
:1007700025280AD051464A4690476D1C7F1C287890
:100780000028F5D13846BDE8F88F002315F8011F81
:1007900018462E2915D115F8011F04232A290DD03A
:1007A0006FF02F022978A1F13004092C09D800EB51
:1007B000800002EB400008446D1CF3E758F8040B7E
:1007C0006D1C2A78002ADDD0632A07D0732A0FD047
:1007D000104651464A4690477F1C2AE018F8042BE1
:1007E0008DF8002000218DF801106E46012103E0F4
:1007F00058F8046B4FF0FF315A074FF0000401D452
:1008000009E0641C84420BDA8C42FADB325D002A78
:10081000F7D105E0641C8C42FCDB305D0028F9D187
:10082000274404E016F8010B51464A469047641EDF
:10083000F8D26D1CA3E700000146042901DB00206B
:10084000704701EB4100084A02EB80004078012824
:1008500008D1002001EB4102034B03EB82025070F0
:100860000120EDE70020EBE73C000020704710B5C9
:100870004FF44070FFF768FD00F038F800F06EF8B4
:1008800010BD00007FB501210846FFF769FD15483E
:10089000006846081448B6FBF0F085B24FF6FF74C6
:1008A000ADF80840ADF804500020ADF80A00ADF8EE
:1008B000060001A94FF08040FFF7D6FE012188070E
:1008C000FFF7ABFE1C208DF8000004208DF801001E
:1008D00000208DF8020001208DF803006846FFF724
:1008E000FBFC7FBD2400002040420F0008B5012121
:1008F0008020FFF745FD012000F080F8022000F085
:100900007DF8032000F07AF8042000F077F8032047
:100910008DF8020010208DF80300C001ADF8000032
:1009200069460D48FFF735FC8020ADF800006946A8
:100930000948FFF72EFC4FF48070ADF800006946BF
:100940000548FFF726FC4FF40070ADF8000069463B
:100950000148FFF71EFC08BD001C014070B50024D3
:1009600016E0002004EB4401204A02EB81014860BC
:1009700004EB440102EB8101886004EB440102EBCB
:100980008101487004EB440102F82100601CC4B2EC
:10099000042CE6DB164800684FF47A72B0FBF2F1E3
:1009A000B1F1807F00D31DE021F07F40401E4FF069
:1009B000E022506150170F22002807DA13071E0E9D
:1009C0000C4B00F00F052D1F5E5503E013071D0EA5
:1009D000094B1D5400BF00204FF0E022906107201A
:1009E000106100BFFFF74EFF70BD00003C0000200B
:1009F0002400002018ED00E000E400E0411EC8B231
:100A000020B94FF400610B4A116011E0012803D1B5
:100A10008021084A11600BE0022803D1C101054A78
:100A2000116005E0032803D14FF40071014A116001
:100A300070470000101C0140411EC8B220B94FF49D
:100A400000610B4A116011E0012803D18021084A9E
:100A500011600BE0022803D1C101054A116005E0D5
:100A6000032803D14FF40071014A11607047000060
:100A7000141C0140012806D11049096881F4006165
:100A80000E4A116019E0022806D10C49096881F06C
:100A900080010A4A116010E0032806D1074909685D
:100AA00081F48071054A116007E0042805D10349EB
:100AB000096881F40071014A116070470C1C014003
:100AC00070477047416851B14168491E416031B972
:100AD000012141700178012901D18168416070478D
:100AE00070B504460D46042C06DB124A12A11AA06A
:100AF000FFF714FE00BFFEE70120FFF72EFE04EB18
:100B000044001D4901EB8000456004EB440001EB0B
:100B100080008560002004EB4401174A02EB81014C
:100B20004870012004EB440102F821000020FFF787
:100B300014FE70BD410E00082E2E5C2E2E5C5573E7
:100B400065725C6273705C7372635C6273705F7415
:100B5000696D65722E6300004572726F723A20668D
:100B6000696C652025732C2066756E6374696F6EE1
:100B700020257328290D0A003C00002070B504468A
:100B80000D46042C06DB114A11A119A0FFF7C6FD82
:100B900000BFFEE70120FFF7E0FD04EB44001C4925
:100BA00001EB8000456004EB440001EB80008560B0
:100BB000002004EB4401164A02EB8101487004EB6B
:100BC000440102F82100FFF7C8FD70BD320E000895
:100BD0002E2E5C2E2E5C557365725C6273705C7396
:100BE00072635C6273705F74696D65722E6300007E
:100BF0004572726F723A2066696C652025732C20ED
:100C000066756E6374696F6E20257328290D0A005E
:100C10003C00002010B50446042C06DB0E4A0FA150
:100C200016A0FFF77BFD00BFFEE70120FFF795FD53
:100C3000002004EB4401194A02EB8101486004EBF7
:100C4000440102EB8101487004EB440102F82100E9
:100C5000FFF783FD10BD0000540E00082E2E5C2E01
:100C60002E5C557365725C6273705C7372635C6258
:100C700073705F74696D65722E6300004572726FE8
:100C8000723A2066696C652025732C2066756E6348
:100C900074696F6E20257328290D0A003C0000201E
:100CA00038B504468DF8000069460320ABBE2046E7
:100CB00038BD0000FFF7DBFD00200F4908701AE087
:100CC0000D48007820B1012808D0022812D10BE08D
:100CD00000F014F80120084908700BE000F03DF81E
:100CE00002200549087005E000F06DF80120024976
:100CF000087000BF00BFE3E70000002010B501202E
:100D0000FFF77CFE0220FFF779FE0320FFF776FE57
:100D10000420FFF773FE0120FFF78EFE40F6B83186
:100D20000020FFF72BFF4FF4FA710120FFF7D8FEE8
:100D30000DE0FFF79BFD0120FFF77EFD10B10120C4
:100D4000FFF798FE0020FFF777FD00B100E0F0E725
:100D500000BF0120FFF75EFF10BD10B5012441F276
:100D600088310020FFF70AFFC8210120FFF7B8FEF5
:100D70000120FFF761FE00BF1FE0FFF777FD0020B5
:100D8000FFF75AFD00B119E00120FFF755FDA0B1B2
:100D90000120FFF733FE0220FFF730FE0320FFF7AC
:100DA0002DFE0420FFF72AFE601CC0B20446052871
:100DB00000D101242046FFF73FFEDEE700BF0120FF
:100DC000FFF728FF10BD10B5012441F28831002043
:100DD000FFF7D4FEC8210120FFF782FE0120FFF7B4
:100DE0002BFE00BF1FE0FFF741FD0020FFF724FDB1
:100DF00000B119E00120FFF71FFDA0B10120FFF7AE
:100E00001BFE0220FFF718FE0320FFF715FE04204B
:100E1000FFF712FE601CC0B20446052800D1012471
:100E20002046FFF7EBFDDEE700BF0120FFF7F2FEF3
:100E300010BD6273705F537461727454696D657232
:100E4000006273705F53746172744175746F54699A
:100E50006D6572006273705F53746F7054696D6575
:100E600072000000840E0008000000203C0000001A
:100E70003C070008C00E00083C0000203480000041
:100E80004C07000800000000000000000000000007
:100E90000000000000000000000000000000000052
:100EA000000000000000000000A24A040000000052
:100EB000000000000102030406070809000000000A
:0400000508000131BD
:00000001FF
