:020000040800F2
:10000000504E0020A50100083907000841040008EF
:1000100035070008B1020008050E000800000000C6
:1000200000000000000000000000000001010008C6
:10003000290300080000000045010008E909000844
:10004000BF010008BF010008BF010008BF01000890
:10005000BF010008BF010008BF010008BF01000880
:10006000BF010008BF010008BF010008BF01000870
:10007000BF010008BF010008BF010008BF01000860
:10008000BF010008BF010008BF010008BF01000850
:10009000BF010008BF010008BF010008BF01000840
:1000A000BF010008BF010008BF010008BF01000830
:1000B000BF010008BF010008BF010008BF01000820
:1000C000BF010008BF010008BF010008BF01000810
:1000D000BF010008690A0008790A0008BF0100088A
:1000E000BF010008BF010008BF010008DFF80CD005
:1000F00000F06AF80048004705110008504E002043
:10010000204B19680868B0E8F00F80F30988BFF346
:100110006F8F4FF0000080F311884EF00D0E704786
:100120000000000006480068006880F3088862B696
:1001300061B6BFF34F8FBFF36F8F00DF00BF00BF0B
:1001400008ED00E0EFF30980BFF36F8F0D4B1A68E5
:1001500020E9F00F106008B54FF0100080F311880F
:1001600001F07EFB4FF0000080F31188BDE80840ED
:1001700019680868B0E8F00F80F30988BFF36F8F43
:10018000704700BF24000020EFF311804FF01001F2
:1001900081F31188704780F311887047EFF3058071
:1001A000704700000648804706480047FEE7FEE724
:1001B000FEE7FEE7FEE7FEE7FEE7FEE7FEE7FEE717
:1001C000090A0008ED000008064C074D06E0E0684B
:1001D00040F0010394E8070098471034AC42F6D38E
:1001E000FFF788FF001D0008201D00081FB5002034
:1001F0001B4A0123CDE901200093039003464FF4ED
:10020000007218A11A4801F0CFFB0020194A0223FE
:10021000CDE901200093039003464FF4007216A12C
:10022000184801F0C1FB0020174A0323CDE9012043
:100230000093039003464FF4007214A1164801F096
:10024000B3FB0020154A0423CDE90120009303905D
:1002500003464FF4007212A1144801F0A5FB1FBD24
:1002600000000020765461736B5573657249460037
:10027000E118000804000020765461736B4C45447B
:100280000000000085170008080000207654617304
:100290006B4D736750726F00A51700080C000020AB
:1002A000765461736B53746172740000CD1700084B
:1002B00000BFFEE7014609B909487047012901D18D
:1002C0000848FAE7022901D10020F6E7032901D105
:1002D0000020F2E7042901D10020EEE70020ECE73E
:1002E000340100205C03002008B525208DF80000B3
:1002F00001208DF8010000208DF8020001208DF80A
:100300000300684600F01AFA26208DF8000001204C
:100310008DF8010000208DF8020001208DF8030007
:10032000684600F00BFA08BD70472DE9F04102461F
:1003300000250026002000230024002791F803C098
:100340000CF00F0591F803C00CF0100CBCF1000F7D
:1003500003D091F802C04CEA050591F800C0BCF149
:10036000000F31D0146800202BE04FF0010C0CFA84
:1003700000F3B1F800C00CEA03069E4220D18300CE
:100380004FF00F0C0CFA03F7BC4305FA03FC4CEAE0
:10039000040491F803C0BCF1280F06D14FF0010C02
:1003A0000CFA00FCC2F814C00AE091F803C0BCF1DA
:1003B000480F05D14FF0010C0CFA00FCC2F810C038
:1003C000401C0828D1D31460B1F800C0BCF1FF0F65
:1003D00034DD546800202EE000F1080C4FF00108D5
:1003E00008FA0CF3B1F800C00CEA03069E4221D1D2
:1003F00083004FF00F0C0CFA03F7BC4305FA03FC23
:100400004CEA040491F803C0BCF1280F05D100F1B7
:10041000080C08FA0CF8C2F8148091F803C0BCF17B
:10042000480F07D100F1080C4FF0010808FA0CF84A
:10043000C2F81080401C0828CED35460BDE8F0817B
:1004400009A100200CE00A5C124B1A8000BF114A7F
:10045000121F128802F04002002AF8D0421CD0B2CB
:100460002A28F0D300BFFEE70D0A456E746572209E
:10047000486172644661756C745F48616E646C6556
:10048000722C2053797374656D2048616C742E0D45
:100490000A0000000438014000B585B001210520A4
:1004A00000F09EF90121880300F09AF94FF40070E2
:1004B000ADF8100018208DF8130003208DF81200FD
:1004C00004A93A48FFF731FF4FF48060ADF81000FF
:1004D00004208DF8130004A93448FFF726FF4FF4D9
:1004E000E13000900020ADF80400ADF80600ADF852
:1004F0000800ADF80C000C20ADF80A0069462C4845
:1005000000F026FB012240F22551294800F0FBFAB9
:100510000121274800F0C1FA4021254800F0B4FA33
:100520000121052000F05CF90121480400F048F9A0
:100530000420ADF8100018208DF8130003208DF86A
:10054000120004A91948FFF7F0FE0820ADF81000CA
:1005500004208DF8130004A91448FFF7E6FE04A94F
:100560001248FFF7E2FE4FF4E13000900020ADF8B2
:100570000400ADF80600ADF80800ADF80C000C2042
:10058000ADF80A0069460B4800F0E2FA012240F299
:100590002551084800F0B7FA0121064800F07DFA1D
:1005A0004021044800F070FA05B000BD0008014089
:1005B00000380140004400400948806800F40050C1
:1005C00058B90848006800F0010030B90648806852
:1005D00000F4807008B1012070470020FCE70000A3
:1005E00000100140080801400020014009488068CF
:1005F00000F4005058B10848006800F0010030B124
:100600000648806800F4807008B901207047002017
:10061000FCE70000001001400808014000200140F4
:100620000948806800F4005058B10848006800F09C
:10063000010030B10648806800F4807008B10120E4
:1006400070470020FCE7000000100140080801404E
:10065000002001400948806800F4005058B1084863
:10066000006800F0010030B90648806800F480702E
:1006700008B9012070470020FCE70000001001408D
:1006800008080140002001400448806800F4004050
:1006900008B9012070470020FCE70000002001405D
:1006A0000448006800F0080008B9012070470020E5
:1006B000FCE70000081401400448806800F4804012
:1006C00008B9012070470020FCE70000002001402D
:1006D0000448806800F4005008B9012070470020E9
:1006E000FCE70000002001400448806800F0800022
:1006F00008B9012070470020FCE7000000200140FD
:100700000948806800F4005058B90848006800F0B3
:10071000010030B10648806800F4807008B1012003
:1007200070470020FCE7000000100140080801406D
:100730000020014000BFFEE77047000070B50021B7
:1007400000230F22C47804B3154C246804F4E06439
:10075000C4F5E064210AC1F10403CA40447804FAF4
:1007600003F184781440214309010E4C0678A15509
:10077000047804F01F050124AC4005786D11AD002C
:1007800005F1E025C5F8004109E0047804F01F05F3
:100790000124AC40044D0678761145F8264070BD22
:1007A0000CED00E000E400E080E100E002490143DC
:1007B000024A1160704700000000FA050CED00E0ED
:1007C00029B1064AD2690243044BDA6104E0034AC4
:1007D000D2698243014BDA61704700000010024089
:1007E00029B1064A92690243044B9A6104E0034A24
:1007F00092698243014B9A617047000000100240E9
:1008000030B500210022002400232D4D6D6805F035
:100810000C0121B1042905D0082923D105E0294D77
:10082000056022E0274D05601FE0254D6D6805F449
:100830007012234D6D6805F48034022505EB924259
:100840001CB9214D554305600BE01D4D6D6805F445
:1008500000351DB11C4D5543056002E0194D55434F
:10086000056002E0174D056000BF00BF144D6D68C4
:1008700005F0F0010909154D6B5C0568DD40456028
:100880000F4D6D6805F4E061090A104D6B5C456819
:10089000DD4085600A4D6D6805F46051C90A0B4D55
:1008A0006B5C4568DD40C560054D6D6805F44041F1
:1008B000890B074D6B5CC568B5FBF3F5056130BD71
:1008C0000010024000127A0000093D0010000020D4
:1008D0002000002008B501210820FFF781FF032038
:1008E0008DF8020010208DF803000420ADF8000000
:1008F00069460248FFF719FD08BD0000000C0140E1
:1009000010B500F001F810BD0CB50020019000906A
:100910003348006840F480303149086000BF3048F7
:10092000006800F4003000900198401C019000988D
:1009300018B90198B0F5A06FF1D12948006800F40A
:10094000003010B10120009001E0002000900098DC
:10095000012843D12348006840F010002149086075
:100960000846006820F0030008600846006840F070
:10097000020008601A484068194948600846406803
:1009800048600846406840F4806048600846406817
:1009900020F47C1048600846406840F4E810486045
:1009A0000846006840F08070086000BF0C4800688E
:1009B00000F000700028F9D00948406820F00300DA
:1009C000074948600846406840F00200486000BFA0
:1009D0000348406800F00C000828F9D10CBD000065
:1009E000001002400020024010B5FFF7CDFB01F0DF
:1009F00075F818B14FF08050024908600020FFF7E9
:100A0000CAFB10BD04ED00E010B51348006840F0CB
:100A100001001149086008464068104908400E4925
:100A20004860084600680E4908400B4908600846BF
:100A3000006820F4802008600846406820F4FE002A
:100A400048604FF41F008860FFF75AFF4FF00060C6
:100A50000449086010BD0000001002400000FFF8CB
:100A6000FFFFF6FE08ED00E010B5024800F0E5F8E3
:100A700010BD00003401002010B5024800F0DDF880
:100A800010BD00005C03002001F40072B2F5007F8D
:100A900000D100BFCA430280704721B1828942F46D
:100AA0000052828104E082894DF6FF731A408281F0
:100AB000704770B50246002400230025002040F650
:100AC0006A16B14200D100BFC1F3421501F01F0305
:100AD000012606FA03F3012D02D19689334006E080
:100AE000022D02D1168A334001E0968A33400C125F
:100AF000012606FA04F41688344013B10CB1012023
:100B000000E0002070BDF0B503460024002600255B
:100B1000002040F66A17B94200D100BF1846C1F361
:100B2000421401F01F06012707FA06F5012C01D136
:100B30000C3004E0022C01D1103000E014301AB166
:100B400007682F43076002E00768AF430760F0BD06
:100B50002DE9F04786B005460E460024A24600BFA8
:100B6000A1460027B08900B100BF2F462C8A4CF661
:100B7000FF700440F08804432C82AC894EF6F310D9
:100B80000440B08831890843718908430443AC812B
:100B9000AC8A4FF6FF400440B0890443AC8201A800
:100BA000FFF72EFE1F48874202D1DDF810A001E0BA
:100BB000DDF80CA0A88900F4004040B10AEBCA009F
:100BC00000EB0A1031684900B0FBF1F807E00AEBCE
:100BD000CA0000EB0A1031688900B0FBF1F864200C
:100BE000B8FBF0F004012009642101FB1089A889F9
:100BF00000F4004040B1322000EBC900B0FBF1F03E
:100C000000F00700044308E0322000EB09106421E3
:100C1000B0FBF1F000F00F0004432C8106B0BDE8FA
:100C2000F08700000038014001468888C0F30800C2
:100C30007047C1F308028280704770B5044640F2E5
:100C400025512068FFF735FFE0B12068FFF7ECFF82
:100C5000C5B2E18AA0684554E08A401C80B2E082B7
:100C6000E189884201DB0020E082608BE1898842D3
:100C700002DA608B401C6083606A10B12846616AAA
:100C8000884700BF40F227712068FFF712FF08B3C2
:100C9000A08A60B9002240F227712068FFF733FF75
:100CA000012240F226612068FFF72DFF37E0638ABA
:100CB0006268D15C2068FFF7BCFF608A401C80B28C
:100CC0006082A189884201DB00206082A08A401EE8
:100CD000A08224E040F226612068FFF7EAFEF0B12E
:100CE000A08A50B9002240F226612068FFF70BFF6E
:100CF000206AA0B1206A804711E0638A6268D15CF3
:100D00002068FFF796FF608A401C80B26082A1894C
:100D1000884201DB00206082A08A401EA08270BD54
:100D2000F8B504460E461746002525E00CE000F015
:100D300067FCA08A009000F085FCA089BDF8001037
:100D4000884200DD01E000BFF1E700BF705D228A4C
:100D50006168885400F054FC208A401C80B22082D4
:100D6000A189884201DB00202082A08A401CA08249
:100D700000F068FC681C85B2BD42D7DB012240F25E
:100D800027712068FFF7BFFEF8BD0000154816491F
:100D9000086016484860164888604FF48070888163
:100DA000C881002008824882C882088348838882DC
:100DB000C861086248620F480F4908600F484860E0
:100DC0000F4888604FF480708881C88100200882B5
:100DD0004882C882088348838882C8610862486262
:100DE0007047000000380140340100205C01002001
:100DF0005C020020004400405C03002084030020CB
:100E00008404002000BFFEE7014A024900F013B845
:100E1000F31000088000002002E008C8121F08C17B
:100E2000002AFAD170477047002001E001C1121F6B
:100E3000002AFBD170472DE9F04116460F460446C3
:100E4000002503E03946B047641C6D1C207800285B
:100E5000F8D12846BDE8F08110B54FF44070FFF797
:100E6000A5FC00F0FFF800F0C5F800F001F810BD97
:100E700010B500F055F800F001F810BD08B50121DB
:100E80004FF49A70FFF7ACFC03208DF802000420A9
:100E90008DF80300C002ADF8000069461C48FFF75A
:100EA00044FA0120ADF8000069461A48FFF73DFA00
:100EB0004FF48070ADF8000069461748FFF735FA27
:100EC0004FF40040ADF8000069461348FFF72DFAD3
:100ED0000820ADF8000069461048FFF726FA4FF4E5
:100EE0008040ADF8000069460B48FFF71EFA4FF44A
:100EF0000050ADF8000069460748FFF716FA802059
:100F0000ADF8000069460448FFF70FFA08BD00007D
:100F10000010014000080140002001400014014081
:100F20000021284A9172D1721173002018E06421C7
:100F3000254A02EB001211810221234A02EB001222
:100F400011710021204A02EB001291721E4A02EB3D
:100F50000012D1721C4A02EB00121173411CC8B27C
:100F60000A28E4DB642218490A87052281F83B201D
:100F70006422A1F84820052281F84B206422A1F8C0
:100F80005820052281F85B206422A1F86820052200
:100F900081F86B200D490C4A11600D4911610D4912
:100FA00011620D4911630D4911640D4911650D4917
:100FB00011660D4911670D49C2F880100C49C2F83D
:100FC000901070472401002084000020B90500081B
:100FD000210600085506000889060008A106000839
:100FE000B9060008D1060008E90600080107000854
:100FF000ED05000808B501218020FFF7F1FB012075
:1010000000F03AF8022000F037F8032000F034F83E
:10101000042000F031F803208DF8020010208DF834
:101020000300C001ADF8000069460D48FFF77DF9E7
:101030008020ADF8000069460948FFF776F94FF4C3
:101040008070ADF8000069460548FFF76EF94FF46F
:101050000070ADF8000069460148FFF766F908BD69
:10106000001C014010B5FFF791FEFFF715FAFFF7DE
:1010700031FCFFF739F910BD411EC8B220B94FF459
:1010800000610B4A116011E0012803D18021084A58
:1010900011600BE0022803D1C101054A116005E08F
:1010A000032803D14FF40071014A1160704700001A
:1010B000101C01402DE9F04105460E461746284612
:1010C000FFF7F8F804460CB9BDE8F081E06908B113
:1010D000E06980473A4631462046FFF721FE00BFCF
:1010E000F2E713B50446012201A92046FFF7E2FF0B
:1010F0001CBD70B504460D46E1B20020FFF7F1FFBC
:10110000204670BD012080F3108800BFFFF7A4FEC9
:10111000FFF76CF800F06CFB00BFFEE710B504466B
:101120000E48006844600E480068844207D20B48AD
:101130000168091D0B48006800F03CFA0CE0074804
:101140000168091D0848006800F034FA0748006883
:10115000844201D20548046010BD00002400002034
:10116000380000202C00002028000020540000201F
:101170002DE9F04106460F461FB9B00000F05CF9BA
:1011800000E03846054655B14C2000F055F90446BC
:101190000CB1256304E0284600F06AFA00E0002460
:1011A0002046BDE8F081000070B523E000F050FB60
:1011B0001348006808B9012000E00020054600F04F
:1011C0002BFDBDB900F01CFA0D48C068C468201D95
:1011D00000F0CCF90B480068401E0A4908600A4834
:1011E0000068401E0849086000F02CFA204600F014
:1011F0000DF800BF044800680028D7D170BD00007A
:1012000024060020340000203000002010B50446E1
:10121000206B00F02DFA204600F02AFA10BD0000E5
:1012200030B54FF48843174800F007042CB1C01DB7
:1012300020F00700134C041B1B1B0246124C2260BB
:101240000024114D6C60D018083820F007000F4CB6
:10125000206000240D4D2D686C600C4D2D682C60B5
:101260001146441A4C60094C24680C60084D4C68C7
:101270002C60084D4C682C604FF00044064D2C60EB
:1012800030BD00004C0600206800002070000020E7
:1012900078000020740000207C00002000BFFFF7D1
:1012A00083FF034800680128F9D900F027FAF6E720
:1012B000840500202DE9F04704460F46164699465E
:1012C000DDF82080002507E0795D04F13400415508
:1012D000785D00B902E06D1C102DF5D300BF002130
:1012E00043200155052E00D30426E662201D00F0A0
:1012F0005EF904F1180000F05AF92461C6F1050006
:10130000A06164620020606484F84800BDE8F08752
:1013100010B5002407E004EB84010F4A02EB8100C2
:1013200000F038F9641C052CF5D30C4800F032F9B4
:101330000B4800F02FF90B4800F02CF90A4800F098
:1013400029F90A4800F026F90448094908600448C8
:101350000849086010BD000084050020E805002051
:10136000FC0500201006002024060020380600207E
:10137000280000202C00002010B50146164800E08F
:10138000006803688B42FBD30246436813448B42D8
:1013900004D143684C682344436001460A464B68C5
:1013A00013440468A34211D10C4C03682468A3427F
:1013B00008D04B680468646823444B6003681B686A
:1013C0000B6005E0054B1B680B6001E003680B60D8
:1013D000884200D0016010BD68000020700000202D
:1013E0000A490968096809B9012100E0002121B111
:1013F0004FF0FF31064A116006E004490968C968E8
:10140000C868034A41681160704700002800002046
:101410005400002007480068401C08B9012000E083
:10142000002018B9FEF7B0FE00BFFEE7FEF7ACFEE5
:1014300000BFFEE75C0000202DE9F04104464FF0BC
:10144000000800F005FA3C48006808B9FFF7E8FE1C
:101450003A480068204000285DD19CB1083404F06F
:10146000070078B104F00700C0F10800044404F05C
:10147000070008B9012000E0002018B9FEF784FE3B
:1014800000BFFEE7002C46D02D480068844242D8B9
:101490002C4E3046056801E02E462D686868A04253
:1014A00002D228680028F7D123480068854232D04C
:1014B000306800F10808286830606868001B102850
:1014C00012D92F1907F0070008B9012000E0002009
:1014D00018B9FEF759FE00BFFEE76868001B786088
:1014E0006C603846FFF748FF154968680968081AB4
:1014F000134908600846006813490968884203D206
:101500000F480068104908600C496868096808437A
:1015100068600020286000F07FFB08F0070008B931
:10152000012000E0002018B9FEF72EFE00BFFEE704
:101530004046BDE8F0810000700000207C000020E3
:10154000740000206800002078000020001F4FF089
:1015500080730360001F0160001F034B0360143899
:1015600002602038704700001514000801460A691F
:10157000D1E901309860D1E9010358605068884290
:1015800001D188685060002008611068401E10601A
:101590001068704700F1080141604FF0FF31816031
:1015A00000F10801C1600161002101607047002164
:1015B0000161704710B502460B685C1C0CB91069DC
:1015C00007E002F1080000E04068446824689C429B
:1015D000FAD944684C604C68A160886041600A6137
:1015E0001468641C146010BD42684A6093688B6084
:1015F000936859609160086103685B1C03607047E1
:1016000010B5FEF7C1FD0D480068401C0B4908608D
:10161000BFF34F8FBFF36F8F0846006801280BD1CF
:1016200007480068C0B208B9012000E0002018B9DE
:10163000FEF7AAFD00BFFEE710BD00005C00002021
:1016400004ED00E010B50948006818B9FEF79CFDEC
:1016500000BFFEE705480068401E044908600846D0
:10166000006810B90020FEF796FD10BD5C00002058
:1016700070B506463546002E31D0083D2C46184937
:1016800060680968084008B1012000E0002018B92E
:10169000FEF77AFD00BFFEE7206808B9012000E0F0
:1016A000002018B9FEF770FD00BFFEE70C49606826
:1016B0000968084098B1206888B9094960680968D4
:1016C0008843606000F0C4F806496068096808440F
:1016D000044908602046FFF74FFE00F09DFA70BDF8
:1016E0007C0000207400002003484FF0E021486196
:1016F00007200861704700003F1901004FF080503B
:1017000003490860BFF34F8FBFF36F8F704700002E
:1017100004ED00E070B50446002634B315480068B7
:1017200008B9012000E0002018B9FEF72DFD00BF28
:10173000FEE700F08DF81048006805190F480068B2
:10174000001DFFF713FF50B90C48006890F82C10EB
:10175000012088400A4909688143094801602846F8
:10176000FFF7DCFC00F058FA06460EB9FFF7C6FF9B
:1017700070BD000058000020380000202400002028
:101780003C00002005E003A0FFF73EFBC820FFF768
:10179000C1FFF8E75461736B204C454420320D0AB9
:1017A0000000000006E004A0FFF72EFB4FF4967047
:1017B000FFF7B0FFF7E700005461736B204D7367CC
:1017C0002050726F20330D0A0000000006E004A0D4
:1017D000FFF71AFB4FF4C870FFF79CFFF7E7000014
:1017E0005461736B20537461727420340D0A0000CD
:1017F0001FB50020009001900290034680220EA1A8
:1018000003900F4800F0D0F80446012C0DD1FEF7EC
:10181000BBFCA01E0B49086001200B49086000209A
:101820000A49086000F070F804E01CB9FEF7ACFC4F
:1018300000BFFEE71FBD000049444C45000000000A
:101840009D120008540000204000002038000020B5
:1018500002480068401C0149086070475800002099
:1018600010B51A48006818B10120194908602BE02A
:1018700000201749086017480068B0FA80F0C0F1EE
:101880001F0404EB8400144951F8200008B1012022
:1018900000E0002018B9FEF777FC00BFFEE704EB7C
:1018A00084010D4A02EB810041684968416000F102
:1018B000080142688A4202D1416849684160416832
:1018C000C968064A116000BF10BD00005800002022
:1018D000480000203C000020840500202400002057
:1018E00005E003A0FFF790FA6420FFF713FFF8E785
:1018F0005461736B205461736B205573657220497A
:101900004620310D0A0000001CB522480146097826
:101910000191FF21024611700146097800919DF85E
:10192000001001F010011C4A117007211B4A1160C0
:1019300009E01A490968491E184A11609DF800100B
:101940004906090E00919DF8001001F080018029E0
:10195000EFD0124909680902104A1160114609883E
:1019600001F4E06111600B4A019911700C480068A4
:1019700040F470000A4908600846006840F0704072
:101980000860FFF7B1FE002006490860FEF7CAFBB9
:1019900000201CBD00E400E0600000206400002086
:1019A00020ED00E05C0000202DE9FF4F81B0804673
:1019B00016469A46DDE90E5BB8F1000F03D1FEF73B
:1019C000E3FB00BFFEE7052D01D2012000E000206F
:1019D00018B9FEF7D9FB00BFFEE730461099FFF7B4
:1019E000C7FB0446002C5AD0701E216B01EB800906
:1019F00029F0070909F0070008B9012000E00020DC
:101A000018B9FEF7C1FB00BFFEE700962A46204644
:101A1000119B0299FFF74EFC524641464846FFF79C
:101A200095FD2060BBF1000F01D0CBF80040FFF71F
:101A3000E7FD24480068401C2249086022480068ED
:101A400040B9214804600846006801280CD1FFF71E
:101A50005FFC09E01D48006830B91B480068C06A97
:101A6000A84201D81848046019480068401C184969
:101A7000086094F82C100120884016490968084332
:101A800014490860E16A01EB8101134A02EB81000D
:101A9000211DFFF7A9FD0127FFF7D4FD01E04FF05D
:101AA000FF37012F09D10948006830B106480068A6
:101AB000C06AA84201D2FFF721FE384605B0BDE852
:101AC000F08F00003400002024000020400000209F
:101AD000500000203C000020840500202DE9F0414A
:101AE0004FF0000841480068002872D14048006863
:101AF000401C3F49086008460668DEB93D4800685A
:101B0000006808B9012000E0002018B9FEF73CFB8E
:101B100000BFFEE737480768374800683549086066
:101B20003548076035480068401C34490860FFF7B5
:101B300057FC00BF3248006886423CD300BF2D48A6
:101B40000068006808B9012000E0002020B14FF0D3
:101B5000FF302B4908602DE026480068C068C46843
:101B60006568AE4202D22648056023E0201DFFF7DB
:101B7000FDFCA06A18B104F11800FFF7F7FC94F817
:101B80002C10012088401F49096808431D4908603E
:101B9000E16A01EB81011C4A02EB8100211DFFF784
:101BA00023FD1A49E06A0968C96A8842C7D34FF021
:101BB0000108C4E700BF15480068C06A00EB800058
:101BC000114951F82000012808D94FF0010805E01B
:101BD000FFE70F480068401C0D4908600D48006889
:101BE00008B14FF001084046BDE8F08158000020E0
:101BF00038000020280000202C0000204C0000208D
:101C0000540000203C000020840500202400002017
:101C1000440000204800002070B5002530480068CE
:101C200018B9FEF7B1FA00BFFEE7FFF7E9FC2C4850
:101C30000068401E2A4908600846006800284BD109
:101C400028480068002847D024E02748C068C468B6
:101C500004F11800FFF78AFC201DFFF787FC94F8B9
:101C60002C10012088402149096808431F49086059
:101C7000E16A01EB81011E4A02EB8100211DFFF7A1
:101C8000B3FC1C49E06A0968C96A884202D3012092
:101C9000194908601448006808B9012000E00020D4
:101CA0000028D2D01548006878B10AE0FFF716FF87
:101CB00010B101201049086010480068401E0F490B
:101CC00008600E4800680028F0D10B480068012821
:101CD00002D10125FFF712FDFFF7B4FC284670BDC5
:101CE0005800002034000020100600203C00002096
:101CF000840500202400002048000020440000202B
:101D0000201D00080000002084000000180E0008BC
:101D1000A41D000884000020CC4D0000280E0008FF
:101D200000000000000000000000000000000000B3
:101D30000000000001020304010203040607080971
:101D4000020406080000000000000000000000007F
:101D50000000000000000000000000000000000083
:101D60000000000000000000000000000000000073
:101D7000000000000000000000000000AAAAAAAABB
:101D80000000000000000000000000000000000053
:101D90000000000000000000000000000000000043
:041DA000000000003F
:04000005080000ED02
:00000001FF
